:020000040800F2
:10000000C06A0020410100086B010008FB64000881
:1000100000000000000000000000000000000000E0
:1000200000000000000000000000000049A50008DA
:100030000000000000000000FF00000835B50008C7
:1000400075010008750100087501000875010008B8
:1000500075010008750100087501000875010008A8
:10006000750100087927000885270008C9270008BE
:100070007501000875010008750100087501000888
:100080007501000875010008750100087501000878
:100090007501000875010008750100087501000868
:1000A000750100087501000875010008C9BD000848
:1000B000D9BD0008E9BD0008750100080348854660
:1000C00000F052FE0048004795D50008C06A0020A5
:1000D000064B19680868203080F30988022080F3F5
:1000E00014883FBCAE4662B600BD00004C03002041
:1000F000EFF3108072B6704780F310887047EFF30B
:1001000009800E4B1A6820381060F0C044464D46F6
:1001100056465F46F0C008B572B60FF078FE62B67C
:100120000CBC116808681030F0C8A046A946B24659
:10013000BB4680F309882038F0C818474C030020DC
:100140000D480E49026800608A4203D00C4880477F
:100150000C4800470C480D4901600D480B490160EF
:100160000C4801688D4640680047FEE7FEE7FEE761
:10017000FEE7FEE7FEE70000F07F0020EFBEADDE09
:10018000E5B50008BD00000818100240010000009D
:100190000000014000D8FF1F30B50B46014600208B
:1001A0002022012409E00D46D5409D4205D31D467D
:1001B0009540491B2546954040191546521E002D75
:1001C000F1DC30BD10B5202A04DB0846203AD040CF
:1001D000002110BD0B46D340D0402024A21A9140EC
:1001E0000843194610BD000000487047386B0108ED
:1001F00010B50446FFF7F8FF0068005DC007C00FA8
:1002000010BD01464139192900D8203070470346F6
:100210000B439B0703D009E008C9121F08C0042A3A
:10022000FAD203E00B780370401C491C521EF9D22D
:100230007047D2B201E00270401C491EFBD27047E9
:100240000022F6E710B513460A4604461946FFF7A2
:10025000F0FF204610BD421E5378521C002BFBD1EC
:100260000B781370491C521C002BF9D1704710B544
:10027000044605E00B780370401C002B00D0491C9D
:10028000521EF7D2204610BDCAB2401E4178401C13
:100290008A4202D00029F9D100207047421C01781F
:1002A000401C0029FBD1801A704710B5002200E0E5
:1002B000521C835C8C5CA34201D1002BF8D1D8B2D4
:1002C000E1B2401A10BD30B504460020034600E0FC
:1002D0005B1C934203D2E05CCD5C401BF8D030BD88
:1002E00010B5044600E0401C0378002BFBD100E071
:1002F000401C521E04D30B78491C0370002BF7D10D
:1003000000210170204610BD03460A780270401C8F
:10031000491C002AF9D11846704730B5054600201F
:10032000034600E05B1C934205D2EC5CC85C201ADB
:1003300001D1002CF6D130BD70B5104D002800D190
:100340002868002414E00A4602E09E4203D0521CB2
:100350001378002BF9D1DAB2224307D0002B06D054
:10036000002C04D000210170401C04E00446401C15
:100370000678002EE7D12860204670BD3C0300209F
:1003800070B506460BF022FE046805460A220021DD
:10039000304600F01BFA2C6070BD70B506460BF0BD
:1003A00015FE046805460A220021304600F00EFAC8
:1003B0002C6070BDF8B502464A40D40F42004B0095
:1003C00052085B089A4202D20246084611464A0089
:1003D00023D0C30D4A00DDB2120EAD1A202D35DA3E
:1003E00049020126490AF6058A19002C00D052421A
:1003F00020214F1B1146B9402A411018C20D9A42C4
:1004000021D0002C17D0012D08DCDA05801AD20F7C
:100410008019D207DBB200F019FAF8BDDA05801AAC
:10042000012340001B06C01880185A428018CA0FCA
:100430001043490007E04908C2071143DA05801A52
:1004400080194008801800F0F9F9F8BD6100012218
:10045000511A001BF7E70122D2075140AAE70122F7
:10046000D2075040A6E7024670B54A40D30FDB07DB
:1004700040002DD04A002AD0010E140E00021202B4
:100480000919400A520A8418E50104465443000A37
:10049000120A2E045043A4194219200CC543AA186D
:1004A000120C0125AD03521C521912047F39240489
:1004B00000D0521C104301D44000491EC2B20C06A9
:1004C000C0092018401C4008802A02D003E0002008
:1004D00070BD40084000002900DA0020184370BDBC
:1004E00070B502464A40D50F40004A00ED0740086B
:1004F0005208002814D0002A12D0C40DD30D410296
:100500000120C0055202490A520AE41A09181218B9
:100510007D34914201D3641C00E04900002C01DAD3
:10052000002070BD0023914201D3891A0343400883
:1005300049000028F7D100290AD0914202D10121B7
:10054000C90705E0914201D2012101E00121C9431F
:10055000E005C018401900F071F970BD420005D0E7
:100560004200120E52428A4201DB00207047C90548
:1005700008187047C217C10F504010B54018CA077D
:100580009623002100F062F910BD10B500229623D9
:10059000114600F05BF910BD0EB5C217C10F5040F7
:1005A000CA0740180021054B0293019200910A46A8
:1005B0000B4600F091F903B000BD000033040000C9
:1005C0000EB505490291002100910A460B460191A2
:1005D00000F082F903B000BD330400004100400286
:1005E0000122400AD205090E80187F2901DA002075
:1005F0007047962903DC9622511AC84070479639F5
:10060000884070474A0009030123090B1B05194361
:10061000094B10B5520D9A4201DA002010BD064B6D
:1006200034339A4203DC9A1AFFF7CCFD10BD03491C
:100630005118884010BD0000FF030000CDFBFFFFF4
:10064000C20FD207400040080BD0C10D0723DB01C9
:10065000C91840020905400A1143C2084007114366
:100660007047002001467047CB0FDB07490010B5EB
:10067000490802460A4307D00A0D07240903E4018A
:10068000090B121B002A01DC002010BDC900440F19
:100690000C43C100E018D205801800F0CFF810BD5F
:1006A0000122D207002800DB101A002900DB511AB2
:1006B000814270470122D207002800DB101A00296E
:1006C00000DB511A88427047F0B51FB4064600207F
:1006D00082B005464024019100901BE0019922461A
:1006E0000F463046FFF76EFD049A059B801A99412C
:1006F00010D310461946224600F048FB361A8F41A7
:100700000197224601200021009F00F03FFB38188E
:100710004D4100902046641E0028DFDC019B0098BC
:100720002946324607B0F0BD0FB400B589B00CA918
:1007300000910B990023CB60204B214A069307922E
:10074000042201921F4A02921F4A089202466B46F7
:10075000002000F0CEFB09B008BC04B0184770B50B
:1007600086B006460020C0430190002015460C4686
:100770000091029104903246694604A8FFF7D4FF25
:10078000024604982118002D05D0002801D0084603
:1007900000E020462860049800280DD0002A02DDE1
:1007A0000098884208D0081B0190009432466946A0
:1007B000029404A8FFF7B8FF06B070BD4911000805
:1007C00069110008FFFFFF7FF1010008F7B5009CE9
:1007D0000F4600262578641C002D05D0FFF704FD88
:1007E0000068405DC007F5D12B2D02D02D2D18D00B
:1007F000641E39462046029A00F0C8FC002F04D03F
:100800003968A14201D1009939607105022400299B
:100810000BDA4042002803DD0BF0D8FB0460A00790
:10082000FEBD012080020643E3E70028F8DA0BF062
:10083000CDFB04600048FEBDFFFFFF7F002904DA06
:10084000401C490001D140084000704770B40024AA
:10085000050C05D11024000402D1002921D0112457
:10086000050E01D100020834050F01D10001241D3D
:10087000850F01D18000A41C002801DB4000641C0E
:10088000002908D020252E1B0D46F540A14000D0A0
:1008900001212943084301061B1B000ADB1D02D569
:1008A000002070BC7047DB05181880180029F8DAA2
:1008B000401C4900F5D170BC40084000704710B59D
:1008C000002B08DA0024401C614192185B411A4356
:1008D00001D14008400010BDF0B51FB482B00546FC
:1008E0000C0003D008460BF04DFB02E00BF04AFB76
:1008F0002030024600902146284600F047FA049B2B
:10090000059A04460F4618431143084314D018466D
:1009100010431BD0009840210A1A18460599FFF78A
:1009200051FC05460E46009A0599049800F02EFAEF
:10093000084305D0012004E02046394607B0F0BD49
:100940000020C11705430E432C43374300990E98EE
:100950006305401A7905E40A00220C43FD0A0A30B7
:1009600002D500200146E9E70105101969410C9CF8
:100970000D9D00196941FFF7A2FFDFE7F0B50746BB
:100980000846584087B0C00F049048000E465900F2
:1009900040084908BC1A884105D2384631461E46EF
:1009A00017460B4602465800400810434CD0300D05
:1009B000039040055900400D490D0590401A0290E2
:1009C000402872DA18030121000B09050843019041
:1009D00004980092002805D00199524200208841D5
:1009E00000920190029840210A1A0199009800F0A3
:1009F000CDF905460C466B4607CB00F0D7F9C01978
:100A00007141039A0E0D0023D71756401A467A40BB
:100A1000164344D0049A002A2DD0029A012A039A40
:100A200015DC1205C01A914101263605001C7141E2
:100A3000D20F059ED2070093019202962A462346C2
:100A4000FFF74AFF07B0F0BD38463146FAE7160512
:100A5000224A0F46B218C01AB74101210905001CED
:100A60004F4100187F41114618187941E20F104399
:100A70006D19644113E0E2076D0815436408C2076D
:100A80001443039A01261205C01A91413605001C31
:100A90007141CE07400830434908C01851412A46E9
:100AA0002346FFF70CFFCDE7FFE704980122400043
:100AB000C117121A00238B4104983146C417381A03
:100AC000A141EEE730B40124E407634030BC55E7B0
:100AD00030B40124E407614030BC4FE70000E0FF80
:100AE000F0B51FB488B00B990998002448400999C3
:100AF000C00F490049080991C0070B9900904900AF
:100B000049080B9109990898A64608431CD00B99EF
:100B10000A98084318D0099801244000420D480063
:100B2000410D099824050003000B204309900B9800
:100B30000003000B20430B9050181C494018002262
:100B400001901446104605E0002001460DB0F0BDAE
:100B5000032801DA034600E003239C46C11A0AAECB
:100B60000AE05F0008ADED5B4F00F75B7D430027B7
:100B7000AA187C41491C5B1E6145F2DD410004ABB3
:100B80005A522104120C0A43240C401C0828DFDBB3
:100B9000019802900099704601910090059B049A7B
:100BA00007990698FFF798FED0E700000DFCFFFFBD
:100BB000F0B50C465C4085B0E40FE40703944C00AC
:100BC00000266408590094464908024602962243CA
:100BD00021D062460A431ED06200570D4A000E0320
:100BE0002303550D012402462C492405781B1B0BB9
:100BF000360B401823432643614600901C46501A8A
:100C0000B44103D30098401C009002E09218009871
:100C10005B41002803DA0020014605B0F0BD00204A
:100C2000012109050746864611E064461D46141B4E
:100C3000B54106D36546521BB341744607430C4386
:100C4000A646CD0740084908284392185B4105464F
:100C50000D43EAD11046184313D060461946504060
:100C60007140084306D06046101AB34106D20122F3
:100C7000002306E000220123DB0702E00122D24329
:100C80005310009874460105381C6141029C039D75
:100C900000196941FFF713FEBFE70000FD030000E4
:100CA0004A0009030123090B1B0519430A4B10B520
:100CB000520D9A4202DA0020014610BD064B343331
:100CC0009A4203DC9A1AFFF77DFA10BD034BD21843
:100CD00000F05CF810BD0000FF030000CDFBFFFF3B
:100CE00010B5002904DB0124E40740428C41214671
:100CF000002B04DB1C460123DB075242A34199422F
:100D000000D1904210BD000030B50446CD0FED0774
:100D10000020054304D10D460121C9076442A941C1
:100D2000DD0FED07284304D118460123DB075242AB
:100D300083411846151B884101D2094806E001206D
:100D4000400762404B401A4300D10648EFF3008150
:100D50000902090A020E1206114381F3008830BD10
:100D60000000008000000060064C0125064E05E0F2
:100D7000E36807CC2B430C3C98471034B442F7D3BC
:100D8000FFF7A0F9F08A0108108B010810B5202A9E
:100D900004DB0146203A9140002010BD9140202301
:100DA0009C1A0346E3401943904010BD10B5202A19
:100DB00006DBCB170846203A1041C1170B4306E06B
:100DC0000B461341D0402024A21A914008431946F3
:100DD00010BD0000FFB5087889B01546FF2805D082
:100DE000491C2D2804D00022002407E000240BE039
:100DF0000122F9E70A235C430419491C0878FF28FB
:100E0000F8D1002A00D06442002004902A780146DC
:100E10002D2A01D02B2A0FD16D1C2D2A02D00022A1
:100E2000049209E00122FBE700260A2233466D1CEA
:100E300000F0FFF9381871412F78FF2FF4D10C9A88
:100E4000A218069202460A4304D0FF23069A913361
:100E5000DA4205DA002109980A4606C00DB0F0BD55
:100E60000024B74AB54D2646079200F02FFA0290AB
:100E700006980391002801DA474200E00746390549
:100E80000020AF4A001C51410191009012E0F80788
:100E900007D022462B4630460799FFF721FE06462B
:100EA000079122462B4610461946FFF719FE0446C5
:100EB0000D467F10002FEAD10698019B0028009A6A
:100EC0000399029806DAFFF773FE3246079BFFF795
:100ED0006FFE05E0FFF704FE3246079BFFF700FEBA
:100EE000049A002A02D00122D2075140099A03C273
:100EF000B4E7FFB591B0002009900025ED432E2006
:100F00009E685C681F460190B9696D1C12988847FD
:100F10000090396A88470028F6D10098401C0AD012
:100F20000D20C0018443002E12DD00982B2809D02B
:100F30002D280DD103E00020C04315B0F0BD0120E5
:100F400080020443B9696D1C12988847761E009090
:100F500003A9600501D52D2000E02B206A461073FF
:100F6000491C0CA80F9102900AE0B9696D1C1298F7
:100F7000884700900120400204431398761E0560C4
:100F8000002E02DD00983028EFD0019900988842A9
:100F900046D18020044308E00998401E09900120B2
:100FA000400204431399681C0860B9696D1C761EE1
:100FB0001298884700903028EED031E0019988429D
:100FC00005D1200603D480200443761E1EE000983D
:100FD0000BF02CF9002826D001204002044307A979
:100FE0000F980331761E88420BD200980F99303843
:100FF00008700F98401C0F90200607D50998401ED6
:1010000003E0200602D40998401C0990A00502D5EF
:101010001399681C0860B9696D1C12988847009084
:10102000002ECBDC59E0002E57DD0098652801D05A
:10103000452852D1A00550D5032000028443B96948
:101040006D1C761E129888470090002E0CDD2B2810
:1010500004D02D2808D1FF2001300443B9696D1C4C
:1010600012988847761E0090E00501D52D2100E0FA
:101070002B21029801700298401C0290019025E0FB
:101080000120400204430EA902980131761E8842D5
:101090000ED20098029930380006000E087003D175
:1010A0000299019881420AD90298401C029006E0F8
:1010B000E00501D5234801E0224840420990B96982
:1010C0006D1C12988847009013980560002E04DD6F
:1010D00000980BF0ABF80028D2D1F9691298884734
:1010E0000F99FF200870029903AA087000200A9047
:1010F0000B900CA90AA8099BFFF76CFEA00502D46F
:101100000120C04319E72420044209D0E00713D18D
:1011100038680B9A0A99031D3B60006806C00BE013
:101120000B990A98FFF7A0FA0146E00704D1386846
:10113000021D3A60006801602846FEE60000144087
:101140000000F03FF1D8FFFF4268002A08D0016894
:101150000B78491C002B03D0521E06C0184670475E
:101160000121C160881E70474268002A0BD0C36805
:101170000168002B07D183688B4204D0491E521CA2
:1011800006C0002070470020C0437047F7B582B00A
:10119000029C00272078641C15460197302802D055
:1011A000002D15D015E020780127641C782804D084
:1011B000582802D0002D09D00BE0002D01D0102DB1
:1011C00007D1002710252078641C02E0082500E0E4
:1011D0000A250026009610E00099012769430818A7
:1011E000020C294680B2714300908E183804864262
:1011F00001D3012001902078641C294600F056F8A4
:101200000028E9DA0398002805D0002F01D0641ED9
:1012100000E0029C04600198002806D00AF0D6FE87
:1012200002210160C81E05B0F0BD009930040843DA
:10123000F9E7F0B51FB486B000200090019002904D
:101240000698069980B204900798090C02040014CD
:10125000114307900027089D099806913E463C4699
:1012600003900398A9B20204000C039004982D0C7B
:101270001543484300212246FFF788FDC7197141F5
:1012800010340E46402CECDB3846029AFFF77EFD08
:10129000009A019B801800905941029801911030EA
:1012A00002904028CCDB00980BB0F0BD3A2800D269
:1012B0003038202302469A43412A01D3104637385A
:1012C000884201D30020C043704700000EB5054A94
:1012D00002920022009213460192FFF7FDFA03B03A
:1012E00000BD00003304000070B58C180578401C68
:1012F0006B075B0F01D10378401C2A1106D10278DD
:10130000401C03E006780E70401C491C5B1EF9D19E
:101310002B0705D40023521E0DD40B70491CFAE78D
:101320000378401CCB1A921C03E01D780D70491CF9
:101330005B1C521EF9D5A142D8D3002070BD00001D
:1013400010B500280AD00146064800231A46406816
:101350000DF0CFFF012803D0002010BD002010BDEC
:10136000012010BDE0020020F0B587B00C9F0D9C5D
:1013700005460E4601A800F079F9019502960393FF
:10138000049206976846848201A8FFF7D9FF07B048
:10139000F0BD0000F3B581B0002100910024334E70
:1013A000401E45000A20604381190298FEF77DFF28
:1013B000002811D0641C0A2CF4DB00242C4FA00060
:1013C000C1190298FEF771FF00280DD0641C042C8F
:1013D000F5DB0124274F13E0274A0120515BA04091
:1013E000014351530098FEBD0620FEBD0A2023494B
:1013F000604341180298FEF758FF002806D0641C8D
:1014000078788442F2DB1E48B86310E00720FEBD06
:10141000006804682046FEF741FF02462146029814
:10142000FEF77BFF002817D0B86B4068B863B86B35
:101430000028EDD1002420460A214843305C0028D2
:101440000CD0641C0A2CF6DB0B4A0120515BA04037
:10145000014351530098FEBD0820FEBD0A206043A1
:1014600080190299FEF750FFEEE7000032050020D8
:1014700066660108280000203E0900203908002087
:1014800018030020F3B58DB00C4600200B90414EA0
:10149000B07A002808D04048A50040590CF002F965
:1014A0003E4840590CF0FEF83D4904200855B07AFA
:1014B000002804D0204602F03FFD04F071FC02A891
:1014C000009004AB03AA05A9204602F0B3FC6846CD
:1014D000808906900120079000250895099506A9A6
:1014E000059803F07FFC6846008906900795022066
:1014F000089006A9049803F075FCE100294A6118D8
:1015000089180D984870601E85002E46EC36B0B2E2
:1015100001A902F069F80D9A210312021143B21CCD
:10152000771CEF3589B20C92002813D00191B0B22C
:1015300002F0CEF8B8B2002102F0CAF80C980021EF
:1015400080B202F0C5F8A8B2002102F0C1F80B98F1
:101550000FB0F0BD68468088000A0209A24206D199
:1015600002070D98120F824201D10020F0E701918D
:10157000B0B202F0ADF8B8B2002102F0A9F80C98B0
:10158000002180B202F0A4F8A8B2002102F0A0F875
:10159000DDE70000280000206C11002088110020E9
:1015A000D9010020010C0020F8B50F4601280FD00A
:1015B0002C4E2D4D31781422491E514349190228D1
:1015C0000AD0032846D10120087409F075F841E0DB
:1015D000384605F0F3FEF8BDC868002823D0FEF7B2
:1015E0005DFE04463846FEF759FE01193078142294
:1015F000401E50434019891CC0680CF041FB3178F3
:101600001422491E51434919C860611C40183946CB
:10161000FEF77AFE30781422401E13215043401901
:10162000C06801550EE03846FEF738FE401C0AF04F
:1016300003FD31781422491E51434919C8603946C7
:10164000FEF762FE30781421401E48434019C168FD
:10165000002901D00020F8BD1421FEF7F1FD0E2075
:10166000F8BD000078020020540F0020002806D0AA
:101670000021016041608160C16001824161704769
:101680007D26F6000024174D002C0BD0012C13D022
:10169000022CF9D1288A03F0EBFAE86800281FDD54
:1016A0000124F1E71048002332460E4940680DF04E
:1016B0000FFF0128E8D101240A4806F067F8002846
:1016C000E2D00021C94301200DF02CFA288A00281D
:1016D00002D1E868002801DD0224D5E70024D3E721
:1016E0000024D1E7D4130020E0020020F0B587B039
:1016F0000E9E0F9D0D9C7D273F01D21B6F46FA76F3
:101700007876B9763B76002206A91D4804F09CF94C
:10171000002802D0FF2007B0F0BD69460E714C7161
:101720000C988871002005901822164C0C2E00D9B8
:1017300062730C21012D0BD0022D0DD0627300229B
:1017400001A90F4804F0F0F900280AD0FF20E2E7D1
:101750006A4610736173F2E740206A461073617342
:10176000EDE7607B010220790143FF201B3001F08F
:10177000AFFF054A0121024804F0C1F80020CAE782
:10178000280E00201C0D0020F2320000F8B507F0F2
:1017900017FF02F09DFB01F00FFD02F07FFA01F050
:1017A00075F809F0C1FF00F0E5FC09F08FFF04F0C7
:1017B000B9FE002803D001F0EFFC05F0FFFC04F0B7
:1017C00023FF0127344D002813D02F73322009F056
:1017D0002FFD05F04DFCE120304E4002B0600124A9
:1017E0002046B1680AF086FB641CE4B2052CF7D9E8
:1017F00004E0322009F01CFD05F03AFC05F0E6F9A2
:101800000AF082FB09F038FCA8780126B603244CC4
:10181000002831D001223146204603F09AFBFF20F8
:10182000F53009F005FD00223146204603F091FB1A
:10183000642009F0FDFC01223146204603F089FBBB
:10184000642009F0F5FC00223146204603F081FBBC
:10185000642009F0EDFC01223146204603F079FBBB
:10186000642009F0E5FC00223146204603F071FBBC
:1018700008F04EFEAF72F8BD01223146204603F05B
:1018800068FBFF20F53009F0D3FC002231462046EA
:1018900003F05FFBECE70000280000201C0D002097
:1018A000000400488CB00025002000900124B748B7
:1018B000005D012801D000287ED1B54800192038EC
:1018C0000B90C67F3CE03F2E0ADA601E8101B148D2
:1018D0000818815D482903D1801940785A2802D020
:1018E0003F2E02D00CE035462CE0601EA949800155
:1018F00042182032D27F482A02D1085C5A2802D0EE
:101900003F2E02D01BE03F251CE00B98C07FA14B6F
:10191000611E8A01D1180EE00F5C0D2F0AD13F28FD
:1019200003DA0F187F78002F12D03F2802D19F5C76
:10193000002F0DD0401C4028EEDB01200090761CCB
:10194000402EC0DB0098002816D00020009015E142
:1019500000220A540B99401CC8778F498B480B789A
:10196000C254032202550C708C48002302221946EF
:1019700080690DF08BFBE0E73D2D23D03E2D2AD072
:101980003F2D2FD0601E81018248081840198678AB
:10199000E81C0190AF19FF1C3F2F00DD403FBD4206
:1019A0007CD00A2003F064F9BD4223DA601E810175
:1019B00078480818411900E0C9E0F21C7848FEF7A1
:1019C00026FC2CE0601E8101724808182030C67F7A
:1019D00000200190DEE7601E81016E48465C012018
:1019E0000190D7E7601E81016A48081846780220F6
:1019F0000190CFE74020421B601E810165480A929A
:101A00000918099149196648FEF701FC0A9A6448C9
:101A1000B31ADB1C10181A460999FEF7F8FBF01CE4
:101A2000C117890F0818821008905D495D4802F0BF
:101A30000EFB5A490870F01C80070AD00898012252
:101A40008108574889000918564802F0D3FA5349CB
:101A5000087038215248FEF7F3FB601E4D498201A1
:101A600051180791CA5D4D4909788A424CD14749BE
:101A700001220A554C4909192039CE7701993F2294
:101A8000511AB1420BDB019A079989183822504349
:101A9000464A80183246FEF7BAFB15E034E0019A58
:101AA00040218A1A0692019B0799C9183823584386
:101AB0003E4BC0180590FEF7AAFB069A05980799B9
:101AC0008018B21AFEF7A3FBBD4205DA0798311D54
:101AD0004019FEF7B5FB0CE04020411B079804912C
:101AE0004019FEF7ADFB04990798711A091DFEF71E
:101AF000A7FB0B987F1CC77728498888401C8880E3
:101B0000204605F0C5FB39E0BD4208DA601E8101C0
:101B1000204808184019311DFEF792FB10E04020C4
:101B2000411B601E82011B4803911018029040194E
:101B3000FEF786FB03990298711A091DFEF780FBD8
:101B40000B987F1CC77715484188491C418018486D
:101B500000192038C17F012910D10021C1770B481D
:101B6000025D052A00D10155204602F0E5F9611E0B
:101B70008A0108495118402204F0E2FA641CE4B2D8
:101B8000052C00D893E60DF039F98FE6D901002035
:101B900094020020B80F002031000020A002002095
:101BA000F8100020BC170020D4010020700900208C
:101BB000990200201FB50A460123991E0191029146
:101BC00002240449009403938B78194609F042FBE0
:101BD00004B010BD2800002038B51C460D4B01256F
:101BE000DD701971FF290CD013460146FE2200203A
:101BF000009408F099FE21460748FEF721FB0020DB
:101C000038BD13460146FF220020009408F08CFEE8
:101C1000F1E7000028000020C00A002038B50024A9
:101C20000A4A0023D3701071FF2807D00091FE22CA
:101C30001946184608F078FE204638BD002300916A
:101C4000FF221946184608F06FFEF5E7280000202D
:101C5000FFB585B00020029003900490D14F079803
:101C600009F0E5FBD04C6078002806D10322CFA113
:101C70000798FEF752FB002837D06078002806D07E
:101C80000622CBA10798FEF748FB002842D0C648A1
:101C9000407802284AD02E210798FEF7F5FA04462C
:101CA00020007DD00322C4A1E01EFEF736FB0028F1
:101CB000F7D0FEF799FA00686178405C2028F0D0F0
:101CC0000798221A014602A8FEF7D1FA02A802F0EC
:101CD00031F805463878854238D199229200601C47
:101CE000089901F05FFF064626E107990120C91C0B
:101CF000FFF75AFC002806D0B04908980AF02EF9E0
:101D00000020607004E00220607008980D210170CE
:101D1000002611E100206070A9A10320FFF744FC18
:101D2000A84908980AF01AF9002605E10220079947
:101D3000FFF73AFC002804D0A04908980AF00EF9F1
:101D400002E008990D2008700026F5E0642D4ED0C1
:101D5000662D52D0FF2D56D0E8B2FE287AD006224A
:101D600099A1601CFEF7D9FA002874D00798FEF7F5
:101D700095FA064602A8FEF791FA321A521E611C25
:101D80009348FEF774FA0798FEF788FA044602A80B
:101D9000FEF784FA201A401E82B2E8B2172100E052
:101DA000C3E008F041FF2A468AA108980AF0D6F855
:101DB0000898FEF773FA00280DD0069800280AD07C
:101DC0000898FEF76BFA82B201200090322308993E
:101DD00005980DF021F90898FEF760FA0146089879
:101DE000FEF72EFA84488079602875D09BE083A1A5
:101DF00008980AF0B3F800269EE08AA108980AF035
:101E0000ADF8002698E019219048FEF719FA0798D6
:101E1000FEF744FA054602A8FEF740FA2A1A521EB7
:101E2000611C6B48FEF723FA0798FEF737FA054660
:101E300002A8FEF733FA281A83B21722FF21387856
:101E4000FFF7CAFE99229200601C089901F0AAFED1
:101E5000064601E005E040E07DA10898FEF7FBF9A9
:101E60006AE051492812887019217848FEF7E8F98C
:101E70000798FEF713FA054602A8FEF70FFA2A1A8A
:101E8000521E611C5248FEF7F2F90798FEF706FA57
:101E9000054602A8FEF702FA281A83B24248172222
:101EA00081783878FFF798FE3878401E41007048F6
:101EB000405A3D498978C840C00706D0992292000F
:101EC000601C089901F06EFE0646089A02AB69A1F3
:101ED00010460AF043F82FE012E0474900208871CD
:101EE000E8B20022192108F09FFE64200BF0B4FB39
:101EF0006B48E9B20278002338780BF0FBFE71E7FB
:101F00007D21C90001200CF00DFE664800780028F4
:101F100009D065490888401C0880089A2B4663A1AF
:101F200010460AF01BF8002606E099229200089954
:101F3000079801F037FE06460898FEF7AFF900282B
:101F40000ED0069800280BD00898FEF7A7F982B2A9
:101F50000020C04300903223089905980DF05CF8EA
:101F60000898FEF79BF901460898FEF769F9002EDC
:101F700000D074E600200290039004900A4C607830
:101F800000280DD1069800280AD02069FEF786F9AE
:101F900082B2701E00903223216905980DF03CF842
:101FA00009B0F0BD2A0000207802002069662000F8
:101FB000656E642069660000626F7300D485010855
:101FC00000000000288601087570646174650000D7
:101FD000C00A0020436F6D6D616E6420666F72777A
:101FE000617264656420746F204D6F64756C652048
:101FF00025640A0D000000001C0D002057726F6E52
:1020000067206D6F64756C65206E616D6521205071
:102010006C656173652074727920616761696E2EE9
:102020000A0D000057726F6E67206D6F64756C65E6
:102030002049442120506C656173652074727920B9
:10204000616761696E2E0A0D00000000480E0020D5
:10205000436F6D6D616E642062726F616463617362
:1020600074656420746F20616C6C0A0D00000000C0
:102070003E09002025734D756C746963617374208B
:10208000436F6D6D616E6420666F72776172646517
:102090006420746F2067726F75702025730A0D00BD
:1020A000310000202F000020D002002025734D6F4A
:1020B00064756C65202564206973206E6F742072CE
:1020C0006561636861626C652E0A0D0070B500235E
:1020D00055080AE09C000C5B5E002404761C760028
:1020E0008E5B3443066834605B1C9D42F2D8D20795
:1020F00003D09A00895A026811800068006870BD98
:10210000F0B5002397080EE09D006C184D5DE67851
:102110002D062E436578A4782D04240225430468F7
:102120002E4326605B1C9F42EED894071FD0940775
:10213000A40F012C03D19D0006684D5D3570022C63
:1021400007D19C000D5D2D02641864782543046856
:102150002580D24392070AD19A008B5C1B0251184A
:102160004A78134302681380026889781170006806
:102170000068F0BD10B50848064901601021C16033
:10218000002141710171416181610321016201F00E
:102190008FFF10BD00300240BC170020F0B587B0A3
:1021A0000020019000250124E0002018DF4F069058
:1021B000C6197078002876D0DD48407B002802D10F
:1021C00006980021395402A8009004AB03AA05A97F
:1021D000204601F02FFE684681890022059802F012
:1021E000B8FE0A2009F012F868460189049802F046
:1021F000A5FE00280ED1684681890122059802F0CB
:10220000A8FE0A2009F002F868460189049802F045
:1022100095FE0190684681890022059802F099FE9A
:102220007078012806D002280FD0032818D004287F
:102230002BD120E00198012803D00198002802D07A
:1022400023E0042521E003251FE00198012803D0A5
:102250000198002802D018E0042516E0032514E0B8
:102260000198012803D00198002802D00DE0022532
:102270000BE0012509E00198012803D0019800280E
:1022800002D002E0012500E00225042D01D0022D3C
:102290000CD1A64AA00037321158A64B994203D25E
:1022A000491C115002E0C7E000211150032D01D05C
:1022B000012D21D19D4AA0004F3211589D4B9942CA
:1022C00002D2491C115001E000211150984B987D19
:1022D000022808D19849994A085D5279904202D85B
:1022E000401C085508E0944994480A5D40798242B0
:1022F00002D90020987508558C489049A7003730BE
:102300000988C0598C46884242D3604507D1874A24
:1023100006990723535411463731401CC85183484E
:10232000864B4F30C259624501D90021C1517F48C7
:1023300059883730C0591A4688421BD9FF21F531D8
:10234000884217D27A49887D002802D0022803D01B
:102350001EE0012088751BE0774B1179185D8842DB
:1023600016D95179884213D2714803218175002012
:1023700018550DE0FF387249F538884208D26C488C
:10238000817D002901D000218175204600F0DAF816
:1023900066486A494F300A88C0599446904238D3FB
:1023A000604507D1614A06990823535411464F31BD
:1023B000401CC8515D4A61493732D059604501D946
:1023C0000020D051594849884F30C059884218D907
:1023D000FF21F531884214D25549887D012802D069
:1023E000032807D015E0514A06980523135402200C
:1023F00088750EE04D4A0698062313540020887510
:1024000007E0FF384E49F538884202D2204600F0F6
:10241000BDF8464F0698385C401F030009F0C9FD1F
:102420000A1421060D2E3B495764727F20460AF09C
:102430004DFC06990020785471E020460AF048FCD3
:102440000699002078546AE03948417B002966D11A
:10245000317AC90763D00121417320460AF034FC68
:102460005DE03348417B002959D1317A890756D53F
:102470000121417320460AF028FC50E02C48417BA2
:1024800000294CD1317A490749D5012141732046B1
:102490000AF01DFC43E02648417B00293FD1317AF8
:1024A00009073CD501214173022120460AF00FFCA7
:1024B00035E01F48417B002931D1317AC9062ED53C
:1024C00001214173032120460AF001FC27E018484E
:1024D000417B002923D1317A890620D5012141731E
:1024E00020460AF0F6FB1AE01148417B002916D17C
:1024F000317A490613D501214173022120460AF0A1
:10250000E8FB0CE00A48417B002908D1317A090632
:1025100005D501214173032120460AF0DAFB641C32
:10252000E4B2052C00D83FE607B0F0BD010C002056
:1025300028000020FFFF0000DF0100201C0D00200C
:102540000BFE0000F0B50026C1000F4B4118CA1861
:102550009478D57812797D27FF007C437D437A43B8
:10256000870018463730C059A04202D1092058547C
:1025700007E00A24A84201D15C5402E0904200D155
:102580005C543046F0BD0000010C0020F0B5002680
:10259000C1000F4B4118CA1854799579D2797D271B
:1025A000FF007C437D437A43870018464F30C05973
:1025B000A04202D10C20585407E00D24A84201D1BA
:1025C0005C5402E0904200D15C543046F0BD000003
:1025D000010C002038B51421484330490A5C4118E9
:1025E000012A04D0022A56D0032A54D10BE088785D
:1025F000C978C20080182A4A105C814201D10120AA
:1026000038BD002038BDC8780C22401E5043254AF2
:1026100010580468C8886A46108008895080487835
:10262000030009F0C6FC0738050C131D242E3800E2
:1026300020460099FEF734F82DD1012038BD204600
:102640000099FEF737F826D2012038BD20460099C0
:10265000FEF726F81FD26000000E1CD0012038BD06
:1026600020460099FEF726F815D8012038BD2046EF
:102670000099FEF715F80ED86000000E0BD001206F
:1026800038BD20460099FEF70BF804D06000000E1C
:1026900001D0012038BD002038BD0000540F0020BB
:1026A000010C0020D4020020F8B5002532210D488D
:1026B000FDF7C6FD01240B4E0B4F0DE0601E4000E0
:1026C000315A002902D0601C01F002F8A01C1C281D
:1026D00000D30A25641CE4B278788442EED92846F7
:1026E000F8BD0000BC0700202800002010B50649F6
:1026F0000648FDF7A5FD06480121417000218170C3
:1027000007F0DAFF10BD0000260200009605002049
:102710002800002010B5446A204601F02BFD01205E
:10272000207110BD10B5446A204601F003FD012060
:10273000207110BD10B5446A20690421084320614E
:10274000204601F034FD0120207110BD10B5446A0F
:102750002069042108432061204601F0EDFC01209E
:10276000207110BD10B5406A01F020FD10BD10B5FC
:10277000406A01F0E0FC10BD10B5012000F05AF8ED
:1027800010BD000010B50D480068C043C00603D45A
:10279000052000F04FF810BD09480168C943C9057C
:1027A00003D4022000F046F810BD0068C043C00604
:1027B000FAD4044801F07CFE10BD00000004024081
:1027C00000000240C415002010B516480168C94336
:1027D000C90303D4032000F02DF810BD0168C943DC
:1027E000C90203D4042000F025F810BD0E49096881
:1027F000C943C90504D40D48806801F059FE10BDD5
:102800000168C943C90403D4094801F051FE10BD51
:102810000068C043C001FAD40548383001F048FED2
:1028200010BD00000000024000040240EC13002034
:10283000FC15002070B504461048611E005D0D4671
:1028400038225143022804D00D48081801F030FE08
:1028500070BD0C48081801F02BFE0B48A9000A4A6D
:102860004058143A002802D053585B1C535051581A
:102870008142EDD3204608F0B7FD70BDD90100209C
:10288000741400206C1600205811002008B51E4852
:10289000416901221143416141691140009142693E
:1028A00002210A43426140690840009017491848D4
:1028B00000F034F8154916482831383000F02EF869
:1028C000124913485031703000F028F80F49104871
:1028D0006431A83000F022F80D480E49E03000F0D5
:1028E0001DF80A490C48143100F042F807490A481B
:1028F0003C31383000F03CF80449074878317030FA
:1029000000F036F808BD0000001002400800024048
:10291000741400201C040240C415002010B501608E
:102920000021416081608022C260016141612021FB
:1029300081610902C16102F049F910BD70B5044618
:102940000D462946204606F0C7FE0021284608F01D
:102950008DFA204601F048FA401E044980014118D2
:102960004022204603F0ECFB70BD0000B80F0020B1
:1029700010B5016010214160002181608022C26099
:102980000161416181619101C16102F01FF910BDD6
:1029900010B502460E48416A002908D0C06D0028D3
:1029A00007D00B4880304069002805D006E0084C6D
:1029B00004E0074C383401E0054C703421461046E1
:1029C00007F0E2F90021204608F050FA10BD00009F
:1029D000C415002010B50446206E09F017FA216EC8
:1029E00000204862206610BD10B5016000214160E2
:1029F0008160C1600161416120218161C901C161C2
:102A000002F0E4F810BD0000F8B504460D46164685
:102A1000204601F0E9F9401E38214843094947188A
:102A20003946204606F058FE0121384608F01EFAC5
:102A3000012169200155296832462831204603F0DA
:102A40007FFBF8BD6C16002010B504686360436816
:102A5000102B04D0036899600068C26010BD036841
:102A60009A600068C16010BDF1B582B001F066F8EF
:102A70000190019800250570714C72A1A2787848E8
:102A800009F06CFA76490198FDF7E5FB627A75A1C9
:102A9000734809F063FA72490198FDF7DCFB0223E1
:102AA000002277A16E48009509F058FA6C49019808
:102AB000FDF7D1FB7AA27DA1694809F04FFA684978
:102AC0000198FDF7C8FB7FA281A1654809F046FA8D
:102AD00063490198FDF7BFFB84A1614809F03EFA04
:102AE0005F490198FDF7B7FB0124854D224685A17A
:102AF0005B4809F033FA5A490198FDF7ACFB285DB1
:102B0000030009F056FA0504090E13181C007FA1F2
:102B1000534809F023FA12E07EA1514809F01EFA49
:102B20000DE082A14E4809F019FA08E082A14C4854
:102B300009F014FA03E087A1494809F00FFA48495F
:102B40000198FDF788FB641CE4B2052CCED989A15D
:102B5000434809F003FA42490198FDF77CFB012440
:102B60008A4E601E014638225043054630580028E0
:102B70005BD088008649085801F036F90746A81945
:102B8000406A01F031F90346224682A13448009799
:102B900009F0E4F932490198FDF75DFB641CE4B2E9
:102BA000062CDED955A10198FDF755FB85A10198AA
:102BB000FDF751FB0198FDF771FB85B20124204E12
:102BC000884FB078401E4000395A621E0120C00371
:102BD000D040014208D0224683A1214809F0BEF925
:102BE0001F490198FDF737FB641CE4B2052CE8D9B6
:102BF0000198FDF753FBA84203D17DA10198FDF791
:102C00002AFB3EA10198FDF726FB029800280BD075
:102C10000198FDF743FB82B20020C04300903223AD
:102C2000019902980CF0F8F9FEBD224672A10C48F9
:102C300009F094F90A490198FDF70DFBAEE7000091
:102C4000280000200A0D2A2A2A204D6F64756C6521
:102C500020256420537461747573202A2A2A0A007F
:102C6000CC0C00200A0D436F6E6E656374656420A2
:102C700076696120706F72743A205025640A0D00E5
:102C80000A0D4669726D77617265207665727369A7
:102C90006F6E3A2025642E25642E25640000000006
:102CA0004D61722031342032303230000A0D4669D5
:102CB000726D7761726520646174653A202020200E
:102CC0002573000031353A32303A333800000000C5
:102CD0000A0D4669726D776172652074696D653A97
:102CE0002020202025730A0D000000000A0D506FDF
:102CF000727473205374617475733A0A0A0D00007C
:102D0000D90100205025643A200000004672656514
:102D10000A0D0000526563656976696E67206D650E
:102D20007373616765730A0D000000005374726568
:102D3000616D696E670A0D00526563656976696E3B
:102D400067207573657220636F6D6D616E64730AC1
:102D50000D000000436F6E6E656374656420746FD0
:102D6000206120627574746F6E2F73776974636865
:102D70000A0D00000A0D444D412053747265616DC7
:102D800073205374617475733A0A0D006C16002039
:102D9000301100200A0D53747265616D696E6720F1
:102DA000444D412025642069732073747265616D00
:102DB000696E672066726F6D2050256420746F20E5
:102DC000502564000A0D546865736520706F727435
:102DD00073206172652072657665727365643A204E
:102DE00000000000BC070020502564200000000007
:102DF0004E6F6E65000000000A0D53747265616DC0
:102E0000696E6720444D41202564206973206672F5
:102E100065650000F1B582B022A1294809F09EF84D
:102E20002748FDF73BFA002782B2FF4332232449AB
:102E3000009702980CF0F0F8012520E00124681EAC
:102E400046002048621E815B0120C003D040014241
:102E50000FD023462A461CA1194809F07FF81848CC
:102E6000FDF71CFA82B232231549009702980CF044
:102E7000D3F8641CE4B20A2CE3D96D1CEDB21748F8
:102E800040788542DAD916A10D4809F067F80C4858
:102E9000FDF704FA82B232230949009702980CF038
:102EA000BBF8FEBD0A0D546865736520706F7274BF
:102EB00073206172652072657665727365643A008D
:102EC000CC0C0020BC0700200A0D4D6F64756C65AA
:102ED000202564203A2050256400000028000020AE
:102EE0000A0A0D416C6C206F7468657220706F72F5
:102EF000747320617265206E6F726D616C0A0D00D3
:102F0000F1B582B049A14E4809F028F84C48FDF7C8
:102F1000C5F9002682B2F643322349490096029849
:102F20000CF07AF80124224646A1454809F016F82B
:102F30004348FDF7B3F982B2322341490096029823
:102F40000CF06AF8641CE4B2052CECD9322303229D
:102F50003EA1009602980CF05FF8002551E06A1C33
:102F60003BA1374808F0FAFF3548FDF797F90024F0
:102F700082B2E44332233249009402980CF04CF8B8
:102F800016202F46354E4743F05B0621484334490F
:102F9000052241182A48FDF76AF9322305222849FB
:102FA000009402980CF038F83223012223A10094F7
:102FB00002980CF031F801243046A61E3F1860003C
:102FC000385A00282BD04307C2085B0F25A11C48A4
:102FD00008F0C4FF1A48FDF761F982B2322318499C
:102FE000009602980CF018F8641CE4B2052CE6D99F
:102FF000322302221DA1009602980CF00DF86D1CE0
:10300000EDB21B4840788542A9D30020C043009010
:103010003223012217A102980BF0FEFFFEBD002211
:1030200015A1074808F09AFFD4E700000A0D284DC3
:103030006F64756C653A506F72742909090000005D
:10304000CC0C002050256409000000000A0A0D0085
:103050004D6F64756C652025643A09009605002063
:10306000E865010825643A25640900000A0D00009E
:10307000280000200A00000025640900134909887F
:10308000134A1288002816D0012801D0002070476A
:103090001048002A03D0002907D0AB207047814296
:1030A00001D10020704702207047824201D10220E6
:1030B000704700207047002903D0002A03D0AB20BE
:1030C00070470020704702207047000000E00308AE
:1030D00000F00308EEEE0000F8B501F071FE274F96
:1030E000384600F07FFB264D284600F0B5FB254C06
:1030F000002802D0E06980B2F8BD234800F072FBDE
:10310000284600F0A9FB002802D0E06980B2F8BD93
:103110001E4E306902218843306100221346394631
:10312000012001F00BFE284600F096FB002802D09B
:10313000E06980B2F8BD3069400840003061144851
:1031400000F050FB284600F087FB002802D0E06921
:1031500080B2F8BD0F4800F045FB284600F07CFB2C
:103160000546002D02D0E06980B2F8BD3069400804
:103170004000306101F0D8FD2846F8BD00E00308AA
:1031800050C30000B804002000E8030800200240FB
:1031900000F0030800F8030870B5054C054D206BDE
:1031A000A84204D0FFF798FF002800D1256370BD26
:1031B000C07F0020ADDEEFBEF8B50025ED4301F085
:1031C000FFFDBB480188BB480088BB4E2A0CBB4FA3
:1031D000002979D0BA4BC91866D0BA4AD14210D169
:1031E000002819D05942884254D1B14800F0FAFA67
:1031F000B54C204600F030FB002829D0F06980B2A1
:10320000F8BDFFF769FFB04800F026FB0028F7D1B2
:1032100001F08AFD0020F8BDA54800F0E3FAAA4CB1
:10322000204600F019FB002802D0F06980B2F8BDFA
:10323000A64800F0D7FA204600F00EFB002802D086
:10324000F06980B2F8BD3869022188433861DFE750
:103250009E4800F0C7FA204600F0FEFA002802D08F
:10326000F06980B2F8BD39690220814339610022DA
:1032700013469049012001F061FD204600F0ECFA70
:10328000002802D0F06980B2F8BD386940084000DB
:103290003861BDE7FFF720FF8B4800F0DDFA00281A
:1032A000B6D0F06980B2F8BD00280ED090427ED131
:1032B000804800F097FA844C204600F0CDFA0028B0
:1032C00052D0F06980B2F8BD7BE001247848C08814
:1032D000A04200D125B2AC4212D07D49204600F078
:1032E00083F901280CD07A480188204600F0A0F923
:1032F0000090754800F0B0FA002801D00098E2E78D
:10330000641CA4B2012080028442DFD9002213464B
:103310006749012001F012FD6B4C204600F09CFA39
:10332000002802D0F06980B2CDE73869400840003B
:103330003861604800F056FA204600F08DFA002807
:1033400002D0F06980B2BEE7624800F04BFA204636
:1033500000F082FA002802D0F06980B2B3E7386941
:1033600002218843386153E75A4800F03BFA20466F
:1033700000F072FA002802D0F06980B2A3E7396940
:10338000022081433961002213464949012001F09E
:10339000D5FC204600F060FA002803D0F06980B226
:1033A00091E704E0386940084000386130E7FFF7F2
:1033B00093FE454800F050FA0028D4D0F06980B25E
:1033C00081E700280DD0904223D13A4800F00AFA54
:1033D0003D4C204600F040FA00280AD0F06980B247
:1033E00071E7FFF779FE384800F036FA002886D1F9
:1033F0000EE7384800F0F6F9204600F02DFA0028D4
:1034000002D0F06980B25EE73869022188433861F2
:10341000FEE601242748C088A04200D125B2AC4274
:1034200012D02B49204600F0DFF801280CD02848A4
:103430000188204600F0FCF80090234800F00CFAC8
:10344000002801D000983EE7641CA4B2012080024D
:103450008442DFD9002213461649012001F06EFC98
:10346000194C204600F0F8F9002802D0F06980B22B
:1034700029E738694008400038610D4800F0B2F98A
:10348000204600F0E9F9002802D0F06980B21AE77E
:103490000E4800F0A7F9204600F0DEF9002802D01F
:1034A000F06980B20FE73969022081433961AFE6E4
:1034B00000E0030800F00308B804002000200240E8
:1034C0001211FFFFEFEEFFFF50C3000000E80308FA
:1034D0009E02002000F80308F3B581B00C4601F00D
:1034E0006FFC0020FFF7CAFD3849394D022803D090
:1034F000002803D0AB20FEBD0F4601E02F460D464D
:10350000344A00233946012001F018FC324800F00B
:10351000A3F9324E002802D0F06980B2FEBD3048D7
:1035200001694908490001612146019800F080F8CD
:103530000028F3D10124019884420CD02949204667
:1035400000F052F8012806D026480188204600F0F5
:103550006FF80028E2D1641CA4B2012080028442EA
:10356000E9D9284600F03EF91B4C204600F074F9DA
:10357000002802D0F06980B2FEBD0120C0022818E8
:1035800000F030F9204600F067F9002802D0F06919
:1035900080B2FEBD124D28690221884328610022B5
:1035A00013463946012001F0C9FB204600F054F9CA
:1035B0000446002C02D0F06980B2FEBD28694008A4
:1035C0004000286101F0B0FB2046FEBD00E003088A
:1035D00000F00308EEEE000050C30000B804002025
:1035E000002002409E02002070B505460E460124D0
:1035F0000020FFF743FDAB2808D00C4AC102891810
:10360000801CC002921E8218891C0AE0AB2070BD8B
:103610001088A84204D1403AD08F3080002402E0C4
:10362000121F8A42F4D8204670BD000000E0030853
:10363000F8B505460E4601F0C3FB0120FFF71EFD5D
:10364000AB2807D01E4AC1028C18801CC002911EF4
:10365000411805E0AB20F8BD2068401C06D0241DB1
:103660008C42F9D301F060FB8020F8BD3246002384
:103670002146012001F062FB124800F0EDF8124EE5
:10368000002802D0F06980B2F8BD104F38694008B8
:10369000400038612A460023A11C012001F04EFBA6
:1036A000084800F0D9F8002802D0F06980B2F8BDCF
:1036B0003869400840003861F06980B2F8BD000008
:1036C00000E0030850C30000B804002000200240BE
:1036D00070B505460E4601F073FB31462846FFF7EC
:1036E000A7FF0446802C04D131462846FFF7F4FE9C
:1036F000044601F019FB204670BD0000FEB5002015
:103700000190002400F01AFA0090174F26E01420D0
:103710006043C519287C00281ED0E0B2FEF75AFF8E
:10372000002819D0114920208871114E0DE00E4A51
:103730000021323A3078009BFEF78AFA0098FCF7B5
:10374000ADFD01460098FCF77BFD0749E86832397A
:1037500003F0FAFD0028EAD1641CA4B20548007801
:103760008442D4D30198FEBD540F00201C0D0020CC
:103770003100002078020020FEB5054600200190AF
:1037800001240D4F0D4EAC420FD0788B010A3170E1
:103790007070B4700320002200900A231146204666
:1037A00007F0C2F80A2009F057FF641CE4B2052CA8
:1037B000E9D90198FEBD000028000020C00A0020C1
:1037C00006490020C86106480169042211430161CD
:1037D000016940221143016170470000B8040020D4
:1037E00000200240064A0021D16106490A690223ED
:1037F0001A430A6148610869402210430861704712
:10380000B80400200020024010B5054B0022DA6108
:10381000044A1369012423431361018010BD000091
:10382000B8040020002002400949C868C2060948BF
:1038300003D5C26902231A43C261CA68520703D57D
:10384000C26901231A43C2611420C8607047000096
:1038500000200240B804002070B5044601F08EFB41
:103860000546104E0AE0601C08D0002C04D001F080
:1038700085FB401BA04201D9032070BDF068C00742
:10388000F1D1F068800601D52020F060F068C00614
:1038900002D4F068400703D5FFF7C6FF012070BDD2
:1038A000002070BD00200240FEB5044600200090BC
:1038B00000250026384F787808F0BEFB002305E08D
:1038C000435536496A008B526D1CEDB23249497836
:1038D0008D42F5D3761C01192039CE77761CF3B2D0
:1038E0000121641EA446162254432C4A9632A21883
:1038F000964672464C00125B002A0DD06446640066
:10390000264D4E1E01272D5BB740244E3D433553B7
:10391000D2081218203AD377491CC9B20529E8D930
:1039200000245B1CDBB200222BE0855C591E8D421B
:1039300025D10121194E162596365543AD1901950D
:10394000019D4E00AD5B002D15D0ED082D18203DDA
:10395000AC46ED7F002D0ED15700104DBE46ED5BFD
:103960004E1E0127B7403D430C4E7746F553654642
:10397000EB77641CE4B2491CC9B20529E0D9521C9A
:10398000D2B2054949788A42CFD3002CC8D1009CD5
:1039900008F020FB2046FEBD280000200005002086
:1039A000F0B58FB007460E4634216846FCF748FC58
:1039B0000024002519215148FCF742FC4F49002002
:1039C0003239C9192039C8774C491939C9192039F0
:1039D000C8770120791E16225143494A89180E9151
:1039E00046493239891920390D910E994300C95A37
:1039F00000290AD0C908B14207D10D9A0121D17717
:103A00003E490E70C0B20FB0F0BD401C0628ECDD80
:103A100001203C494A780EE0B8420BD03749FF23D9
:103A2000323909182039CB77344B0021193B1B1848
:103A3000203BD977401C9042EEDD36E02F486946A6
:103A4000323809F0B3FD401CC4B2B44232D06946EA
:103A5000012009192039C877611E16225143284ACE
:103A600089188C4661464200895A002919D04905B7
:103A7000090E6A465218203AD27F002A11D11F4BF4
:103A8000323B1A19203AD27F521CD2B25B18203B2B
:103A9000DF7F974205D9DA77184A193A5118203949
:103AA000CC77401CC0B20628DCD9684605F0C6FCBD
:103AB0000028C3D0114A1146193904E02B466D1C69
:103AC000EDB2D454044608192038C07F0028F5D13F
:103AD00001200A4A521E0E994300C95A002907D0F4
:103AE000CB080D99C97F895C8B4201D1C0B28AE7AE
:103AF000401C0628EFDD002085E70000200800209C
:103B00009605002028000020F8B504460948002644
:103B1000C670611E38225143074A555C8078294699
:103B2000FFF73EFF00232A461946009406F0FCFEEC
:103B30003046F8BD2800002070090020004870477A
:103B4000E017002030B5002300250024146025E094
:103B5000401C00240457002C03D0202CF8D100E096
:103B6000401C00240457002C01D0202CF8D00478ED
:103B7000002C15D05B1C8B4210D1054603E0116868
:103B8000491C1160401C00214156002901D0202908
:103B9000F5D11068002803D1002501E08B42D8D36D
:103BA000284630BDF7B5064601242A4DA8680028EE
:103BB0001AD128461430A86013E000680768384618
:103BC000FCF76CFB0246B056202801D0002805D136
:103BD00039463046FCF7A1FB002817D0A86840689A
:103BE000A860A8680028E8D1A8680027002801D0AC
:103BF000002C1DD0002824D000683246836802992A
:103C0000019898470446200019D020E0A8680C21AC
:103C1000006841560029E7DB304609F0D5FE014631
:103C2000A8680C22006882569142DDD00024DBE7B0
:103C30000949029A0198FCF71AFBAF6007E0AF60F0
:103C400005E00649029A0198FCF711FB0024204682
:103C5000FEBD000004030020488A0108A08A010874
:103C600070B50546002D12D008200CF0C5FE0446A4
:103C7000002C0ED00BF0A8F82560002060600648EC
:103C800041684C6044600BF0ABF8012070BD72B627
:103C9000FEE772B6FEE700000403002008B51448F2
:103CA00042690121C9040A43426142690A40009203
:103CB000426989100A43426142690A40009242699E
:103CC000C9000A43426142690A4000924269891070
:103CD0000A43426142690A400092426909010A436B
:103CE000426140690840009002F008FC08BD0000F5
:103CF000001002401CB51E2008F09EF904461E214B
:103D00002046FCF79DFA0849088B4A7D00920190F5
:103D1000087D8B7D401E054980000A5804492046D5
:103D200008F01CF920461CBD1C0D00203C020020A0
:103D300048680108F8B50546002426A12846FCF786
:103D4000B4FA254E00280AD024A12846FCF7ADFA83
:103D5000002806D02878232805D0214F22E0B0780B
:103D6000F8BDFF20F8BD681CFCF717FBC0B20028A7
:103D700002D071788842F5D9B178884201D10846DD
:103D8000F8BD6620F8BD0A206043C1192846FCF73B
:103D90008CFA002804D12878002801D02046F8BDEC
:103DA000641CE4B270788442EDD300240D4E0A20E6
:103DB000604381192846FCF778FA002805D0641C76
:103DC000E4B20A2CF3D36420F8BD2002FE3000B226
:103DD000F8BD00006D65000028000020616C6C00DB
:103DE000390800203205002000680D49884201D1C1
:103DF000012070470B49884201D1022070470A49CF
:103E0000884201D1032070470849884201D104202B
:103E100070470749884201D105207047002070474C
:103E2000004C004000440040004800400038014081
:103E300000500040F0B5059D1C46002600F07CF8BF
:103E40001D4F0923DB06B84207D10B600120400259
:103E500010802360400028802BE0184FB84206D124
:103E60000B600420108023600820288021E0144F7C
:103E7000B84208D1134808600121890211802060EE
:103E80004800288015E0104FB84206D10B60012091
:103E900010802360022028800BE00C4B984207D151
:103EA000084808600821118020601020288000E068
:103EB000FF263046F0BD0000A4110020141200209F
:103EC0008412002000040048F41200206413002033
:103ED00000B587B0002201A9154801F039FD002284
:103EE00006A9134801F012FD6946087BC109114873
:103EF000491CC1740299C903090CC18169468979B9
:103F00000174694649794174694609798174694641
:103F1000897E41756946497E81756946097E0175CC
:103F20006946C97E7D2212018918018307B000BD50
:103F3000280E00201C0D002000B5030008F039F801
:103F4000060E0406080A0C0E054800BD054800BD13
:103F5000054800BD054800BD054800BD002000BD66
:103F6000F41200201412002084120020A41100205A
:103F70006413002000B50179002907D0C268816868
:103F800000F010F8002809D0012000BD02680449A3
:103F9000516100688168182291438160002000BD52
:103FA000B71DC10430B51F2301252C469C400C428F
:103FB00002D15B1E5C1CF8D1002A11D0082A0BD05C
:103FC000102A05D0182A0BD1072B09D3012030BDA8
:103FD000082B05D3012030BD102B01D3012030BDAB
:103FE000036859610068816818239943114381600F
:103FF000002030BD70B5044600200023257F012D30
:104000000BD00125257702266677266A012E10D06F
:10401000022E13D0032E15D106E0022070BD8300BE
:104020002668CB583360401C9042F8D32068036860
:1040300008E02046FEF764F8034603E02046FEF75A
:1040400045F80346657700202077184670BDF8B51F
:10405000044600200023257F012D0FD00125257760
:10406000022666772668B7682F43B760266A012E56
:1040700010D0022E13D0032E15D106E00220F8BD79
:1040800083002668CB583360401C9042F8D32068E8
:10409000036808E02046FEF733F8034603E02046B5
:1040A000FEF714F803466577002020771846F8BD20
:1040B00010B50446002C03D0607F002802D006E033
:1040C000012010BD00202077204600F027F80220B4
:1040D00060772046FFF74EFF002801D0012010BD79
:1040E0006079002814D021682069086120688168FF
:1040F0006022914362691143816020688168802257
:104100009143A2691143816001206077002010BDB6
:1041100000202168C0430861E8E7000008B50448B2
:10412000426940210A43426140690840009008BD4D
:1041300000100240704770477047000070B5437927
:10414000012B13D0012646710223037103681D68F9
:10415000074C9440A5430C6849680C4394402C4399
:104160001C60067100214171002070BD022070BDED
:10417000FE0F000008B500210091094AD16800290E
:1041800001DD491ED160002100F041F9054801F030
:10419000D3FD0548694600680AF0B8FE08BD000076
:1041A000D413002000140020E8020020704770475C
:1041B00070B50446002C04D020790025002802D0D8
:1041C00005E0012070BD6571204600F007F802206F
:1041D0002071256101202071002070BDF0B589B0EB
:1041E00006462C493068884251D12B4CE169600465
:1041F0000143E161E1690140019110270497032027
:10420000059000250695092004A9C00600F0EAFDE6
:10421000E06901210843E061E069084001901F481E
:104220008907016045608760C56001F05DFD202061
:104230000290039502A9194801F032FD174801F0D8
:104240006FFD164C16483C3420606760A5608020E6
:10425000E060256165612020A061C001E061204629
:1042600000F0B4FC0E485030816A0F2212029143D4
:104270008162816A821511438162B46066620022A4
:1042800001210B2000F0BEFE0B2000F0B1FE09B0B2
:10429000F0BD000000740040001002400014002037
:1042A0003004024070B54279012A12D001234371D3
:1042B00002240471026815681E468E40354315605D
:1042C000002908D001680A689202120F0F2A0CD048
:1042D0000EE0022070BD01680A689206120F0F2AD4
:1042E00006D14A681A434A6002E04A6822434A609B
:1042F000037100214171002070BD0000F8B5044633
:1043000006980D4616469C460022617901291BD06D
:104310000121617102212171002D17D0E36830491C
:104320009962E3682F49D962E3682F4919632168CC
:104330000F6801231B071F430F60002825D00428A6
:1043400026D0082829D126E00220F8BDA3682749F5
:104350009962A3682649D962A3682649196321682E
:104360000F6801231B031F430F60002804D004289B
:1043700005D0082811D105E0226808320DE0226836
:104380000C320AE02268103207E02268143204E09E
:104390002268183201E022681C32002D13D02068F8
:1043A000016801235B071943016063463146E068F9
:1043B00000F036FC206802680121A9400A4302602F
:1043C00000206071F8BD2068016801235B03194378
:1043D000016063463146A06800F022FCEAE7000075
:1043E000252700086F2700084D270008152700081B
:1043F000652700083527000830B5026814680125D4
:104400002B468B409C4314600571002030BD70B575
:1044100004462068026801231B038B409A43026014
:104420002068026801252B468B409A4302600029D0
:104430000CD0E06800F016F821680A686B079A4310
:104440000A6000280CD00421217170BDA06800F022
:1044500009F821680A6801235B039A430A60F0E7C0
:10446000257170BDF8B50446206801684908490007
:10447000016000F083FD06460027254620350EE04A
:1044800000F07CFD811B7D20C000814207D9606B5C
:10449000202108436063032068702F70F8BD2068F6
:1044A0000068C007ECD1012068702F700020F8BDB3
:1044B000F8B50446F749F74DF64EF64F2068CB1491
:1044C000783D643E503F88423FD9F3490A68A8428C
:1044D00001D1082137E0B04201D1802133E0B84258
:1044E00001D119462FE0EB493C39884202D1012124
:1044F000C90328E0E7492839884202D10121C904CB
:1045000021E0E4491439884202D10121C9051AE0A9
:10451000E1490831884201D1082114E0DE491C310B
:10452000884201D180210EE0DB493031884201D13F
:10453000194608E0D8494431884202D10121C90313
:1045400001E00121C9040A4044E0D24980390A68E7
:10455000A84201D108213CE0B04201D1802138E0DD
:10456000B84201D1194634E0CA493C39884202D1E7
:104570000121C9032DE0C7492839884202D1012110
:10458000C90426E0C3491439884202D10121C90572
:104590001FE0C049884201D101051AE0BE49083137
:1045A000884201D1082114E0BB491C31884201D165
:1045B00080210EE0B8493031884201D1194608E027
:1045C000B5494431884202D10121C90301E00121EA
:1045D000C9040A40214620310091002A70D00168A8
:1045E000C94309076CD40168082291430160A949B5
:1045F000206888423ED9A84201D1082037E0B04265
:1046000001D1802033E0B84201D118462FE0A14902
:104610003C39884202D10120C00328E09D49283955
:10462000884202D10120C00421E09A49143988420D
:1046300002D10120C0051AE097490831884201D112
:10464000082014E094491C31884201D180200EE0FA
:1046500091493031884201D1184608E08E494431F1
:10466000884202D10120C00301E00120C0048A4930
:10467000486044E0A84201D108203DE0B04201D1A9
:10468000802039E0B84201D1184635E0814A3C3AF1
:10469000904202D10120C0032EE07E4A283A904287
:1046A00002D10120C00427E07A4A143A904202D194
:1046B0000120C00520E0884203D10120C0061BE094
:1046C0002CE075490831884201D1082014E0724974
:1046D0001C31884201D180200EE06F493031884280
:1046E00001D1184608E06C494431884202D10120CA
:1046F000C00301E00120C004664980394860606B56
:10470000012108436063009904204870009900204B
:104710000870216B002901D0204688475D49206838
:104720000B1588423FD95C490A68A84201D104218F
:1047300037E0B04201D1402133E0B84201D11946FF
:104740002FE054493C39884202D10121890328E0F5
:1047500050492839884202D10121890421E04D497C
:104760001439884202D1012189051AE04A490831E9
:10477000884201D1042114E047491C31884201D10B
:1047800040210EE044493031884201D1194608E009
:1047900041494431884202D10121890301E00121CC
:1047A00089040A4044E03B4980390A68A84201D1A3
:1047B00004213CE0B04201D1402138E0B84201D1AF
:1047C000194634E033493C39884202D1012189033A
:1047D0002DE030492839884202D10121890426E0A0
:1047E0002C491439884202D1012189051FE0294949
:1047F000884201D1C1041AE027490831884201D119
:10480000042114E024491C31884201D140210EE0EA
:1048100021493031884201D1194608E01E4944310E
:10482000884202D10121890301E0012189040A4063
:10483000002A71D00168C94349076DD4016889060F
:1048400003D4016804229143016012492068884220
:1048500042D9A84201D104203AE0B04201D140201F
:1048600036E0B84201D1184632E00A493C39884264
:1048700002D1012080032BE006492839884202D169
:104880000120800424E003491439884206D1012024
:1048900080051DE08000024000040240C9498842B2
:1048A00001D1042014E0C7491431884201D14020CD
:1048B0000EE0C4492831884201D1184608E0C149B8
:1048C0003C31884202D10120800301E001208004B4
:1048D000BC490839486042E0A84201D104203BE0CD
:1048E000B04201D1402037E0B84201D1184633E050
:1048F000B54A904202D1012080032DE0B24A143221
:10490000904202D10120800426E0AF4A2832904232
:1049100003D1012080051FE029E0884202D1012057
:10492000800619E0A749884201D1042014E0A54976
:104930001431884201D140200EE0A249283188423A
:1049400001D1184608E09F493C31884202D101203C
:10495000800301E0012080049B49443948600098AD
:1049600011214170E16A002901D020468847964A0A
:1049700020683C3290423FD9924908390B68A842DE
:1049800001D1022136E0B04201D1202132E0B8420B
:1049900002D1012149022DE08B49884202D1012137
:1049A000490327E088491431884202D10121490492
:1049B00020E085492831884202D10121490519E0CA
:1049C0008049884201D1022114E07E491431884295
:1049D00001D120210EE07B492831884201D14115C7
:1049E00008E078493C31884202D10121490301E0C5
:1049F000012149040B4043E0734944390B68A84244
:104A000001D102213BE0B04201D1202137E0B84280
:104A100002D10121490232E06B49884202D10121D1
:104A200049032CE068491431884202D1012149042C
:104A300025E065492831884202D1012149051EE05F
:104A4000904202D10121490619E05E49884201D114
:104A5000022114E05B491431884201D120210EE08B
:104A600058492831884201D1411508E055493C3167
:104A7000884202D10121490301E0012149040B4090
:104A8000002B72D00168C94389076ED4016889067A
:104A900003D40168022399430160206890423ED903
:104AA000A84201D1022036E0B04201D1202032E0FC
:104AB000B84202D1012040022DE04349884202D190
:104AC0000120400327E040491431884202D10120EF
:104AD000400420E03C492831884202D101204005B1
:104AE00019E03849884201D1022014E035491431D7
:104AF000884201D120200EE032492831884201D17C
:104B0000401508E02F493C31884202D10120400382
:104B100001E0012040042B490839486043E0A842E5
:104B200001D102203CE0B04201D1202038E0B8425F
:104B300002D10120400233E02349884202D1012002
:104B400040032DE020491431884202D10120400465
:104B500026E01D492831884202D1012040051FE08E
:104B6000904203D1012040061AE029E0154988420D
:104B700001D1022014E013491431884201D12020D0
:104B80000EE010492831884201D1401508E00D4956
:104B90003C31884202D10120400301E00120400461
:104BA000094944394860606B60630099012048708E
:104BB000009900200870A16A002901D0204688478A
:104BC000F8BD00000804024044000240F0B500288F
:104BD00006D0014620314A780025002A02D002E0A2
:104BE0000120F0BD0D7002224A70026814680B4B60
:104BF0001C408668436807693343C6683E433343B5
:104C00004669334386693343C6693343234313609C
:104C10004563012048700020F0BD00000FC0FFFF79
:104C2000F8B50446204620300578012D1ED0012518
:104C300005700226467020680768AF43076020466B
:104C4000FDF702FF206801683143016020680168B8
:104C500004221143016020680168082211430160A9
:104C600020680168294301600020F8BD0220F8BDDA
:104C700031B500F083F9044600F080F90099001B7B
:104C80008842F9D338BD0000F8B505460F46012625
:104C90002248017E01290BD0012101762868204C91
:104CA000012807D02046FEF7D7FD002813D030E0BA
:104CB0000220F8BD2046FEF7CFFD002829D1FEF7DF
:104CC0007FFD2046FEF7C8FD06461648016904220E
:104CD000914301611DE00020C04338606C6812E020
:104CE0002046FEF77FFD0E48FEF7B6FD06460D484E
:104CF0000169022291430161300001D03C6008E06B
:104D00000120C0022418A9686868C9024018A0429E
:104D1000E6D80248002101763046F8BDB8040020EC
:104D200050C3000000200240034801698022114363
:104D3000016100207047000000200240F0B51FB460
:104D4000074615461E4600241A48017E012907D051
:104D5000012101761848FEF77FFD002803D025E0E9
:104D6000022005B0F0BD012F03D0022F03D004278D
:104D70001AE0012718E0022716E0220128463146F2
:104D8000FBF720FA81B2019862001018FEF73CFD93
:104D90000948FEF761FD09490A69520852000A6193
:104DA000002803D1641CE4B2BC42E6D301490022CE
:104DB0000A76D6E7B804002050C300000020024065
:104DC00005480169090605D5044941600449416067
:104DD00000207047012070470020024023016745F2
:104DE000AB89EFCDF8B5002293E001249440A446AE
:104DF0002340002B7ED04C68022C01D0122C0CD109
:104E0000D408A40027183D6A5407E40E0F26A640D4
:104E1000B5430E69A6402E433E6207685500032441
:104E2000AC40A7430E79B607B60FAE403E430660CE
:104E30004E68012E05D0022E03D0112E01D0122E65
:104E40000ED18768A743CE68AE403E438660476870
:104E50006646B7430E79F606F60F96403E43466027
:104E6000C668A6438C68AC403443C4604C68E40018
:104E70004ED52B4CA56901263543A561A469344064
:104E800000949508274CAD002F19BD689407240F96
:104E90000F26A640B5430926F606B04201D10026EA
:104EA00014E0214EB04201D101260FE01F4EB04266
:104EB00001D102260AE01E4EB04201D1032605E0D0
:104EC0001C4EB04201D1042600E00526A6402E4328
:104ED000BE60194D2C689C434E68F60300D51C43F8
:104EE0002C606C689C434E68B60300D51C436C6014
:104EF000AC6800E00CE09C434E68F60200D51C4311
:104F0000AC60EC689C434E68B60200D51C43EC6074
:104F1000521C0B681C46D44000D066E7F8BD000068
:104F20000010024000000140000400480008004852
:104F3000000C0048001000480004014000690842CD
:104F400001D0012070470020704742694A40426109
:104F50007047002A01D0816170478162704700006C
:104F6000024800680005000D70470000005801402D
:104F700001480068000C7047005801400148006873
:104F8000704700002400002002480168491C0160AD
:104F9000704700002400002010B506480168102268
:104FA00011430160002000F007F800F016F800201F
:104FB00010BD00000020024010B5044600F0C8F902
:104FC0007D21C900FBF7E8F800F052FE00222146DF
:104FD000501E00F017F8002010BD7047C106C90E22
:104FE00001208840014908607047000080E100E02E
:104FF000C106C90E012088400149086070470000C1
:1050000000E100E010B502F0B7F810BD02480168F9
:10501000821511430160704700700040F8B50446E6
:1050200020683C4DC00344D5296A03200002626811
:105030000140024091423CD0E86929040843E861FC
:10504000E86908400090344F386809150843386013
:10505000FFF794FF064606E0FFF790FF801B6428E9
:1050600001D90320F8BD3868C005F5D5286A0327A3
:105070003F02B8432A6A012109040A432A622A6AC4
:105080008A432A62286280070ED5FFF777FF06461B
:1050900007E0FFF773FF811B2048814201D90320FD
:1050A000F8BD286A8007F4D5286A6168B8430843C8
:1050B00028622078C00705D0286BA168800880008E
:1050C000084328632078800706D5286B032109044C
:1050D0008843E168084328632068400306D5286BAD
:1050E00003218904884321690843286320788006C6
:1050F00005D5286B102188436169084328632088FF
:10510000400505D5286B40218843A16908432863E1
:105110000020F8BD0010024000700040881300001D
:10512000F8B504460F4687480068F021C007C00F55
:10513000854EB8427DD283480268520852003A43F5
:1051400002600068C007C00FB84201D00120F8BD5E
:105150002078800704D570688843A1680843706090
:105160002078C00739D06068012808D002280BD009
:1051700003280ED03168890710D40120F8BD3168AA
:1051800089030BD40120F8BD3168890106D40120C0
:10519000F8BD716BC90301D40120F8BD716889089D
:1051A000890001437160FFF7E9FE05466068012848
:1051B00005D0022812D003281FD0644F34E0634F7B
:1051C00006E0FFF7DBFE401BB84201D90320F8BD23
:1051D00070680007800F0128F3D1A3E05B4F06E061
:1051E000FFF7CCFE401BB84201D90320F8BD706820
:1051F0000007800F0228F3D194E0544F06E0FFF738
:10520000BDFE401BB84201D90320F8BD70680007FD
:10521000800F0328F3D185E00BE0FFF7AFFE401BC2
:10522000B84201D90320F8BD70680007800FF4D19F
:1052300078E02078800704D570688843A168084327
:1052400070602078C00760D06068012808D002280C
:105250000BD003280ED03168890710D40120F8BD87
:10526000316889030BD40120F8BD3168890106D467
:105270000120F8BD716BC90301D40120F8BD71682C
:105280008908890001437160FFF778FE0546606870
:1052900001280CD0022818D0032824D031E0FFF7D1
:1052A0006DFE411B2948814201D90320F8BD706879
:1052B0000007800F0128F2D127E0FFF75FFE411BB6
:1052C0002248814201D90320F8BD70680007800F91
:1052D0000228F2D119E0FFF751FE411B1B48814221
:1052E00001D90320F8BD70680007800F0328F2D1B0
:1052F0000BE0FFF743FE411B1448814201D9032014
:10530000F8BD70680007800FF3D10E4801684908A6
:105310004900394301600068C007C00FB84201D09E
:105320000120F8BD2078400706D5706807210902E2
:105330008843E168084370600020FFF73DFE0020CD
:10534000F8BD000000200240001002408813000059
:1053500010B500F021F805494968054A0906090F0A
:10536000515CC8400349086010BD000000100240B5
:10537000D66501081000002010B5FFF7E9FF0449C9
:105380004968044A4905490F515CC84010BD0000F6
:1053900000100240D665010830B589B01CA0014656
:1053A0000EC9C06805AC0EC408901DA001460EC908
:1053B000C06801AC0EC404901D4D6A680C201146F3
:1053C00001401C48042905D01B4B082904D00C2996
:1053D00000D1184609B030BD9102090F05AC645CDC
:1053E000E96A01AD0907090F695CD203920F022A2D
:1053F00005D0032A07D0FAF7CFFE6043EAE7FAF7B1
:10540000CBFE6043E6E71846FAF7C6FE6043E1E7E5
:1054100002030405060708090A0B0C0D0E0F1010F5
:105420000102030405060708090A0B0C0D0E0F10F4
:105430000010024000127A00006CDC02F8B504464D
:105440002078FA4DC00775D068680007800F0128E2
:1054500016D068680007800F022804D16868C0036E
:10546000800F02280CD0286801263604B04328603B
:105470002968B00081432960FFF780FD07460EE0F0
:105480002868800356D56068002853D10120F8BDF4
:10549000FFF774FDC01B642801D90320F8BD2868FC
:1054A0008003F5D46068012813D0002815D00528A2
:1054B0001DD029682846B143296001680122920461
:1054C000914301606068002826D0FFF757FD06462B
:1054D0001EE0296831432960F4E729682846B14372
:1054E00029600268012189048A430260EAE72A6888
:1054F0002846012189040A432A600168314301607A
:10550000E0E7FFF73BFD801B642801D90320F8BDCD
:1055100028688003F5D50DE0FFF730FD064606E06C
:10552000FFF72CFD801B642801D90320F8BD2868F3
:105530008003F5D420780126800700284BDA6868BC
:105540000007800F13D068680007800F022804D17D
:105550006868C003800F012809D0E068002828D0BF
:10556000286830432860FFF709FD074616E02868E1
:10557000800704D5E068012801D00120F8BD286823
:10558000F82188432169C9000843286023E0FFF718
:10559000F5FCC01B642801D90320F8BD28688007EA
:1055A000F5D52868F82188432169C9000843286097
:1055B00011E02868400840002860FFF7DFFC07463C
:1055C00006E0FFF7DBFCC01B642801D90320F8BD0F
:1055D00028688007F5D42078000726D5206A00289F
:1055E00011D0686A30436862FFF7C8FC074606E0DE
:1055F000FFF7C4FCC01B642801D90320F8BD686A0A
:105600008007F5D511E0686A400840006862FFF73E
:10561000B5FC074606E0FFF7B1FCC01B642801D9C2
:105620000320F8BD686A8007F5D4207840077BD551
:10563000E969012000070143E961E969014000913E
:105640007B480168821511430160FFF797FC07460C
:1056500006E0FFF793FCC01B642801D90320F8BDC6
:1056600073480068C005F4D5286A400840002862E5
:10567000296A042081432962FFF780FC074607E07E
:10568000FFF77CFCC11B6B48814201D90320F8BDA8
:10569000286A8007F4D4A068012813D0002815D008
:1056A00005281DD0296A2846490849002962026A4E
:1056B00004218A430262A068002826D0FFF75EFC1E
:1056C00007461EE0296A31432962F4E7296A284621
:1056D000490849002962026A04218A430262EAE712
:1056E000296A2846042211432962016A3143016272
:1056F000E1E7FFF743FCC11B4E48814201D903207B
:10570000F8BD286A8007F4D50EE0FFF737FC07469E
:1057100007E0FFF733FCC11B4648814201D9032053
:10572000F8BD286A8007F4D42078C00643D56069A4
:1057300001280DD0401D28D0686B04210843686300
:10574000686B400840006863FFF718FC06462FE0CE
:10575000686B042108436863686B30436863FFF734
:105760000DFC064606E0FFF709FC801B642801D902
:105770000320F8BD686B8007F5D5686BF821884376
:10578000A169C9000843686315E0686B0421884378
:105790006863686BF8218843A169C900084368639E
:1057A00009E0FFF7EBFB801B642801D90320F8BD5B
:1057B000686B8007F5D42078800647D568680007B5
:1057C000800F032815D068680007800F022804D1D5
:1057D0006868C003800F03280BD0E06900281BD045
:1057E000686B0121090408436863FFF7C7FB06469D
:1057F0000EE0686BC00329D5E069012826D001209E
:10580000F8BDFFF7BBFB801B642801D90320F8BD5E
:10581000686BC003F5D519E0686B01210904884362
:105820006863FFF7ABFB06460DE000000010024086
:105830000070004088130000FFF7A0FB801B642865
:1058400001D90320F8BD686BC003F5D4606A002855
:105850004BD069680907890F022948D001273F0604
:10586000022806D02868B8432860FFF787FB044663
:1058700038E02868B8432860FFF780FB064606E05A
:10588000FFF77CFB801B642801D90320F8BD286842
:105890008001F5D4E86A216B000900010843E86241
:1058A000A16AE06A084369687B22D20391430843F6
:1058B0006860286838432860FFF760FB044606E00C
:1058C000FFF75CFB001B642801D90320F8BD2868A2
:1058D0008001F5D509E0FFF751FB001B642801D9D1
:1058E0000320F8BD28688001F5D40020F8BD012010
:1058F000F8BD0068503089000818006870470068DB
:1059000050308900081802607047000010B50B463F
:10591000006841680D480140080CD870CC04E40EC2
:105920005C708C06A40E9C700904490F1970002A43
:105930000AD103F093FDD870587803F08FFD5870AA
:10594000987803F08BFD9870002010BD3FFFFF009A
:1059500010B50B460168896A5960006801680F48F4
:1059600001408802800E18704C04640E5C704C0676
:10597000640E9C70090C402421401972002A0AD13F
:1059800003F06CFD1870587803F068FD5870987833
:1059900003F064FD9870002010BD00007F7F7F0041
:1059A00070B50446002C03D0607F002802D006E0CA
:1059B000012070BD00202077204600F043F802202F
:1059C00060772168CA2048622168532048622046D7
:1059D00003F0DAFDFF21002805D020684162042091
:1059E0006077012070BD20688268154B1A40826084
:1059F00020688268636865691A4323692B431A43E8
:105A000082602268E06810612068026923891B04B3
:105A10001A4302612068C26880239A43C2602068EA
:105A2000026CDB029A4302642068026CA3691A4389
:105A300002642068416201206077002070BD000090
:105A4000BFFF8FFF70470000F8B504460B46207F6C
:105A5000012806D00120207702206077002A02D09A
:105A600008E00220F8BD5878C10603D5EF210840B0
:105A70000A305870002A23D0587803F0EFFC987849
:105A800003F0ECFCD8789D78000405435878197829
:105A900000024903084305432168CA20486221687F
:105AA00053204862204603F06FFD0026FF270028A0
:105AB00017D0206847620420607726770120F8BD60
:105AC000D87803F0D3FC0504587803F0CFFC00022B
:105AD0000543987803F0CAFC054318784003054352
