:020000040800F2
:10000000B06A0020410100086B0100082364000869
:1000100000000000000000000000000000000000E0
:100020000000000000000000000000000DA2000819
:100030000000000000000000FF0000082DB10008D3
:1000400075010008750100087501000875010008B8
:1000500075010008750100087501000875010008A8
:1000600075010008E1220008ED2200083123000894
:100070007501000875010008750100087501000888
:100080007501000875010008750100087501000878
:100090007501000875010008750100087501000868
:1000A000750100087501000875010008C1B9000854
:1000B000D1B90008E1B90008750100080348854678
:1000C00000F052FE0048004715D20008B06A002038
:1000D000064B19680868203080F30988022080F3F5
:1000E00014883FBCAE4662B600BD00003C03002051
:1000F000EFF3108072B6704780F310887047EFF30B
:1001000009800E4B1A6820381060F0C044464D46F6
:1001100056465F46F0C008B572B60FF0AEFE62B646
:100120000CBC116808681030F0C8A046A946B24659
:10013000BB4680F309882038F0C818473C030020EC
:100140000D480E49026800608A4203D00C4880477F
:100150000C4800470C480D4901600D480B490160EF
:100160000C4801688D4640680047FEE7FEE7FEE761
:10017000FEE7FEE7FEE70000F07F0020EFBEADDE09
:10018000DDB10008BD0000081810024001000000A9
:100190000000014000D8FF1F30B50B46014600208B
:1001A0002022012409E00D46D5409D4205D31D467D
:1001B0009540491B2546954040191546521E002D75
:1001C000F1DC30BD10B5202A04DB0846203AD040CF
:1001D000002110BD0B46D340D0402024A21A9140EC
:1001E0000843194610BD000000487047846B0108A1
:1001F00010B50446FFF7F8FF0068005DC007C00FA8
:1002000010BD01464139192900D8203070470346F6
:100210000B439B0703D009E008C9121F08C0042A3A
:10022000FAD203E00B780370401C491C521EF9D22D
:100230007047D2B201E00270401C491EFBD27047E9
:100240000022F6E710B513460A4604461946FFF7A2
:10025000F0FF204610BD421E5378521C002BFBD1EC
:100260000B781370491C521C002BF9D1704710B544
:10027000044605E00B780370401C002B00D0491C9D
:10028000521EF7D2204610BDCAB2401E4178401C13
:100290008A4202D00029F9D100207047421C01781F
:1002A000401C0029FBD1801A704710B5002200E0E5
:1002B000521C835C8C5CA34201D1002BF8D1D8B2D4
:1002C000E1B2401A10BD30B504460020034600E0FC
:1002D0005B1C934203D2E05CCD5C401BF8D030BD88
:1002E00010B5044600E0401C0378002BFBD100E071
:1002F000401C521E04D30B78491C0370002BF7D10D
:1003000000210170204610BD03460A780270401C8F
:10031000491C002AF9D11846704730B5054600201F
:10032000034600E05B1C934205D2EC5CC85C201ADB
:1003300001D1002CF6D130BD70B5104D002800D190
:100340002868002414E00A4602E09E4203D0521CB2
:100350001378002BF9D1DAB2224307D0002B06D054
:10036000002C04D000210170401C04E00446401C15
:100370000678002EE7D12860204670BD2C030020AF
:1003800070B506460BF01EFC046805460A220021E3
:10039000304600F01BFA2C6070BD70B506460BF0BD
:1003A00011FC046805460A220021304600F00EFACE
:1003B0002C6070BDF8B502464A40D40F42004B0095
:1003C00052085B089A4202D20246084611464A0089
:1003D00023D0C30D4A00DDB2120EAD1A202D35DA3E
:1003E00049020126490AF6058A19002C00D052421A
:1003F00020214F1B1146B9402A411018C20D9A42C4
:1004000021D0002C17D0012D08DCDA05801AD20F7C
:100410008019D207DBB200F019FAF8BDDA05801AAC
:10042000012340001B06C01880185A428018CA0FCA
:100430001043490007E04908C2071143DA05801A52
:1004400080194008801800F0F9F9F8BD6100012218
:10045000511A001BF7E70122D2075140AAE70122F7
:10046000D2075040A6E7024670B54A40D30FDB07DB
:1004700040002DD04A002AD0010E140E00021202B4
:100480000919400A520A8418E50104465443000A37
:10049000120A2E045043A4194219200CC543AA186D
:1004A000120C0125AD03521C521912047F39240489
:1004B00000D0521C104301D44000491EC2B20C06A9
:1004C000C0092018401C4008802A02D003E0002008
:1004D00070BD40084000002900DA0020184370BDBC
:1004E00070B502464A40D50F40004A00ED0740086B
:1004F0005208002814D0002A12D0C40DD30D410296
:100500000120C0055202490A520AE41A09181218B9
:100510007D34914201D3641C00E04900002C01DAD3
:10052000002070BD0023914201D3891A0343400883
:1005300049000028F7D100290AD0914202D10121B7
:10054000C90705E0914201D2012101E00121C9431F
:10055000E005C018401900F071F970BD420005D0E7
:100560004200120E52428A4201DB00207047C90548
:1005700008187047C217C10F504010B54018CA077D
:100580009623002100F062F910BD10B500229623D9
:10059000114600F05BF910BD0EB5C217C10F5040F7
:1005A000CA0740180021054B0293019200910A46A8
:1005B0000B4600F091F903B000BD000033040000C9
:1005C0000EB505490291002100910A460B460191A2
:1005D00000F082F903B000BD330400004100400286
:1005E0000122400AD205090E80187F2901DA002075
:1005F0007047962903DC9622511AC84070479639F5
:10060000884070474A0009030123090B1B05194361
:10061000094B10B5520D9A4201DA002010BD064B6D
:1006200034339A4203DC9A1AFFF7CCFD10BD03491C
:100630005118884010BD0000FF030000CDFBFFFFF4
:10064000C20FD207400040080BD0C10D0723DB01C9
:10065000C91840020905400A1143C2084007114366
:100660007047002001467047CB0FDB07490010B5EB
:10067000490802460A4307D00A0D07240903E4018A
:10068000090B121B002A01DC002010BDC900440F19
:100690000C43C100E018D205801800F0CFF810BD5F
:1006A0000122D207002800DB101A002900DB511AB2
:1006B000814270470122D207002800DB101A00296E
:1006C00000DB511A88427047F0B51FB4064600207F
:1006D00082B005464024019100901BE0019922461A
:1006E0000F463046FFF76EFD049A059B801A99412C
:1006F00010D310461946224600F048FB361A8F41A7
:100700000197224601200021009F00F03FFB38188E
:100710004D4100902046641E0028DFDC019B0098BC
:100720002946324607B0F0BD0FB400B589B00CA918
:1007300000910B990023CB60204B214A069307922E
:10074000042201921F4A02921F4A089202466B46F7
:10075000002000F0CEFB09B008BC04B0184770B50B
:1007600086B006460020C0430190002015460C4686
:100770000091029104903246694604A8FFF7D4FF25
:10078000024604982118002D05D0002801D0084603
:1007900000E020462860049800280DD0002A02DDE1
:1007A0000098884208D0081B0190009432466946A0
:1007B000029404A8FFF7B8FF06B070BD4911000805
:1007C00069110008FFFFFF7FF1010008F7B5009CE9
:1007D0000F4600262578641C002D05D0FFF704FD88
:1007E0000068405DC007F5D12B2D02D02D2D18D00B
:1007F000641E39462046029A00F0C8FC002F04D03F
:100800003968A14201D1009939607105022400299B
:100810000BDA4042002803DD0BF0D4F90460A00796
:10082000FEBD012080020643E3E70028F8DA0BF062
:10083000C9F904600048FEBDFFFFFF7F002904DA0C
:10084000401C490001D140084000704770B40024AA
:10085000050C05D11024000402D1002921D0112457
:10086000050E01D100020834050F01D10001241D3D
:10087000850F01D18000A41C002801DB4000641C0E
:10088000002908D020252E1B0D46F540A14000D0A0
:1008900001212943084301061B1B000ADB1D02D569
:1008A000002070BC7047DB05181880180029F8DAA2
:1008B000401C4900F5D170BC40084000704710B59D
:1008C000002B08DA0024401C614192185B411A4356
:1008D00001D14008400010BDF0B51FB482B00546FC
:1008E0000C0003D008460BF049F902E00BF046F982
:1008F0002030024600902146284600F047FA049B2B
:10090000059A04460F4618431143084314D018466D
:1009100010431BD0009840210A1A18460599FFF78A
:1009200051FC05460E46009A0599049800F02EFAEF
:10093000084305D0012004E02046394607B0F0BD49
:100940000020C11705430E432C43374300990E98EE
:100950006305401A7905E40A00220C43FD0A0A30B7
:1009600002D500200146E9E70105101969410C9CF8
:100970000D9D00196941FFF7A2FFDFE7F0B50746BB
:100980000846584087B0C00F049048000E465900F2
:1009900040084908BC1A884105D2384631461E46EF
:1009A00017460B4602465800400810434CD0300D05
:1009B000039040055900400D490D0590401A0290E2
:1009C000402872DA18030121000B09050843019041
:1009D00004980092002805D00199524200208841D5
:1009E00000920190029840210A1A0199009800F0A3
:1009F000CDF905460C466B4607CB00F0D7F9C01978
:100A00007141039A0E0D0023D71756401A467A40BB
:100A1000164344D0049A002A2DD0029A012A039A40
:100A200015DC1205C01A914101263605001C7141E2
:100A3000D20F059ED2070093019202962A462346C2
:100A4000FFF74AFF07B0F0BD38463146FAE7160512
:100A5000224A0F46B218C01AB74101210905001CED
:100A60004F4100187F41114618187941E20F104399
:100A70006D19644113E0E2076D0815436408C2076D
:100A80001443039A01261205C01A91413605001C31
:100A90007141CE07400830434908C01851412A46E9
:100AA0002346FFF70CFFCDE7FFE704980122400043
:100AB000C117121A00238B4104983146C417381A03
:100AC000A141EEE730B40124E407634030BC55E7B0
:100AD00030B40124E407614030BC4FE70000E0FF80
:100AE000F0B51FB488B00B990998002448400999C3
:100AF000C00F490049080991C0070B9900904900AF
:100B000049080B9109990898A64608431CD00B99EF
:100B10000A98084318D0099801244000420D480063
:100B2000410D099824050003000B204309900B9800
:100B30000003000B20430B9050181C494018002262
:100B400001901446104605E0002001460DB0F0BDAE
:100B5000032801DA034600E003239C46C11A0AAECB
:100B60000AE05F0008ADED5B4F00F75B7D430027B7
:100B7000AA187C41491C5B1E6145F2DD410004ABB3
:100B80005A522104120C0A43240C401C0828DFDBB3
:100B9000019802900099704601910090059B049A7B
:100BA00007990698FFF798FED0E700000DFCFFFFBD
:100BB000F0B50C465C4085B0E40FE40703944C00AC
:100BC00000266408590094464908024602962243CA
:100BD00021D062460A431ED06200570D4A000E0320
:100BE0002303550D012402462C492405781B1B0BB9
:100BF000360B401823432643614600901C46501A8A
:100C0000B44103D30098401C009002E09218009871
:100C10005B41002803DA0020014605B0F0BD00204A
:100C2000012109050746864611E064461D46141B4E
:100C3000B54106D36546521BB341744607430C4386
:100C4000A646CD0740084908284392185B4105464F
:100C50000D43EAD11046184313D060461946504060
:100C60007140084306D06046101AB34106D20122F3
:100C7000002306E000220123DB0702E00122D24329
:100C80005310009874460105381C6141029C039D75
:100C900000196941FFF713FEBFE70000FD030000E4
:100CA0004A0009030123090B1B0519430A4B10B520
:100CB000520D9A4202DA0020014610BD064B343331
:100CC0009A4203DC9A1AFFF77DFA10BD034BD21843
:100CD00000F05CF810BD0000FF030000CDFBFFFF3B
:100CE00010B5002904DB0124E40740428C41214671
:100CF000002B04DB1C460123DB075242A34199422F
:100D000000D1904210BD000030B50446CD0FED0774
:100D10000020054304D10D460121C9076442A941C1
:100D2000DD0FED07284304D118460123DB075242AB
:100D300083411846151B884101D2094806E001206D
:100D4000400762404B401A4300D10648EFF3008150
:100D50000902090A020E1206114381F3008830BD10
:100D60000000008000000060064C0125064E05E0F2
:100D7000E36807CC2B430C3C98471034B442F7D3BC
:100D8000FFF7A0F9AC8B0108CC8B010810B5202A25
:100D900004DB0146203A9140002010BD9140202301
:100DA0009C1A0346E3401943904010BD10B5202A19
:100DB00006DBCB170846203A1041C1170B4306E06B
:100DC0000B461341D0402024A21A914008431946F3
:100DD00010BD0000FFB5087889B01546FF2805D082
:100DE000491C2D2804D00022002407E000240BE039
:100DF0000122F9E70A235C430419491C0878FF28FB
:100E0000F8D1002A00D06442002004902A780146DC
:100E10002D2A01D02B2A0FD16D1C2D2A02D00022A1
:100E2000049209E00122FBE700260A2233466D1CEA
:100E300000F0FFF9381871412F78FF2FF4D10C9A88
:100E4000A218069202460A4304D0FF23069A913361
:100E5000DA4205DA002109980A4606C00DB0F0BD55
:100E60000024B74AB54D2646079200F02FFA0290AB
:100E700006980391002801DA474200E00746390549
:100E80000020AF4A001C51410191009012E0F80788
:100E900007D022462B4630460799FFF721FE06462B
:100EA000079122462B4610461946FFF719FE0446C5
:100EB0000D467F10002FEAD10698019B0028009A6A
:100EC0000399029806DAFFF773FE3246079BFFF795
:100ED0006FFE05E0FFF704FE3246079BFFF700FEBA
:100EE000049A002A02D00122D2075140099A03C273
:100EF000B4E7FFB591B0002009900025ED432E2006
:100F00009E685C681F460190B9696D1C12988847FD
:100F10000090396A88470028F6D10098401C0AD012
:100F20000D20C0018443002E12DD00982B2809D02B
:100F30002D280DD103E00020C04315B0F0BD0120E5
:100F400080020443B9696D1C12988847761E009090
:100F500003A9600501D52D2000E02B206A461073FF
:100F6000491C0CA80F9102900AE0B9696D1C1298F7
:100F7000884700900120400204431398761E0560C4
:100F8000002E02DD00983028EFD0019900988842A9
:100F900046D18020044308E00998401E09900120B2
:100FA000400204431399681C0860B9696D1C761EE1
:100FB0001298884700903028EED031E0019988429D
:100FC00005D1200603D480200443761E1EE000983D
:100FD0000AF028FF002826D001204002044307A978
:100FE0000F980331761E88420BD200980F99303843
:100FF00008700F98401C0F90200607D50998401ED6
:1010000003E0200602D40998401C0990A00502D5EF
:101010001399681C0860B9696D1C12988847009084
:10102000002ECBDC59E0002E57DD0098652801D05A
:10103000452852D1A00550D5032000028443B96948
:101040006D1C761E129888470090002E0CDD2B2810
:1010500004D02D2808D1FF2001300443B9696D1C4C
:1010600012988847761E0090E00501D52D2100E0FA
:101070002B21029801700298401C0290019025E0FB
:101080000120400204430EA902980131761E8842D5
:101090000ED20098029930380006000E087003D175
:1010A0000299019881420AD90298401C029006E0F8
:1010B000E00501D5234801E0224840420990B96982
:1010C0006D1C12988847009013980560002E04DD6F
:1010D00000980AF0A7FE0028D2D1F9691298884733
:1010E0000F99FF200870029903AA087000200A9047
:1010F0000B900CA90AA8099BFFF76CFEA00502D46F
:101100000120C04319E72420044209D0E00713D18D
:1011100038680B9A0A99031D3B60006806C00BE013
:101120000B990A98FFF7A0FA0146E00704D1386846
:10113000021D3A60006801602846FEE60000144087
:101140000000F03FF1D8FFFF4268002A08D0016894
:101150000B78491C002B03D0521E06C0184670475E
:101160000121C160881E70474268002A0BD0C36805
:101170000168002B07D183688B4204D0491E521CA2
:1011800006C0002070470020C0437047F7B582B00A
:10119000029C00272078641C15460197302802D055
:1011A000002D15D015E020780127641C782804D084
:1011B000582802D0002D09D00BE0002D01D0102DB1
:1011C00007D1002710252078641C02E0082500E0E4
:1011D0000A250026009610E00099012769430818A7
:1011E000020C294680B2714300908E183804864262
:1011F00001D3012001902078641C294600F056F8A4
:101200000028E9DA0398002805D0002F01D0641ED9
:1012100000E0029C04600198002806D00AF0D2FC8D
:1012200002210160C81E05B0F0BD009930040843DA
:10123000F9E7F0B51FB486B000200090019002904D
:101240000698069980B204900798090C02040014CD
:10125000114307900027089D099806913E463C4699
:1012600003900398A9B20204000C039004982D0C7B
:101270001543484300212246FFF788FDC7197141F5
:1012800010340E46402CECDB3846029AFFF77EFD08
:10129000009A019B801800905941029801911030EA
:1012A00002904028CCDB00980BB0F0BD3A2800D269
:1012B0003038202302469A43412A01D3104637385A
:1012C000884201D30020C043704700000EB5054A94
:1012D00002920022009213460192FFF7FDFA03B03A
:1012E00000BD00003304000070B58C180578401C68
:1012F0006B075B0F01D10378401C2A1106D10278DD
:10130000401C03E006780E70401C491C5B1EF9D19E
:101310002B0705D40023521E0DD40B70491CFAE78D
:101320000378401CCB1A921C03E01D780D70491CF9
:101330005B1C521EF9D5A142D8D3002070BD00001D
:1013400010B500280AD00146064800231A46406816
:101350000EF005F8012803D0002010BD002010BDBC
:10136000012010BDE4020020F0B587B00C9F0D9C59
:1013700005460E4601A800F079F9019502960393FF
:10138000049206976846848201A8FFF7D9FF07B048
:10139000F0BD0000F3B581B0002100910024334E70
:1013A000401E45000A20604381190298FEF77DFF28
:1013B000002811D0641C0A2CF4DB00242C4FA00060
:1013C000C1190298FEF771FF00280DD0641C042C8F
:1013D000F5DB0124274F13E0274A0120515BA04091
:1013E000014351530098FEBD0620FEBD0A2023494B
:1013F000604341180298FEF758FF002806D0641C8D
:1014000078788442F2DB1E48B86310E00720FEBD06
:10141000006804682046FEF741FF02462146029814
:10142000FEF77BFF002817D0B86B4068B863B86B35
:101430000028EDD1002420460A214843305C0028D2
:101440000CD0641C0A2CF6DB0B4A0120515BA04037
:10145000014351530098FEBD0820FEBD0A206043A1
:1014600080190299FEF750FFEEE7000022050020E8
:10147000D2660108280000202E090020290800203B
:1014800008030020F3B58DB00C4600200B90414EB0
:10149000B07A002808D04048A50040590BF044FF1E
:1014A0003E4840590BF040FF3D4904200855B07AB2
:1014B000002804D0204602F02BFD04F014FC02A802
:1014C000009004AB03AA05A9204602F09FFC6846E1
:1014D000808906900120079000250895099506A9A6
:1014E000059803F03DFC68460089069007950220A8
:1014F000089006A9049803F033FCE100294A61181A
:1015000089180D984870601E85002E46EC36B0B2E2
:1015100001A901F01DFE0D9A210312021143B21C14
:10152000771CEF3589B20C92002813D00191B0B22C
:1015300001F082FEB8B2002101F07EFE0C9800217D
:1015400080B201F079FEA8B2002101F075FE0B987F
:101550000FB0F0BD68468088000A0209A24206D199
:1015600002070D98120F824201D10020F0E701918D
:10157000B0B201F061FEB8B2002101F05DFE0C983E
:10158000002180B201F058FEA8B2002101F054FE03
:10159000DDE70000280000205C1100207811002009
:1015A000E1010020F10B0020F8B50F4601280FD013
:1015B0002C4E2D4D31781422491E514349190228D1
:1015C0000AD0032846D10120087408F0D7FE41E074
:1015D000384605F06BFEF8BDC868002823D0FEF73A
:1015E0005DFE04463846FEF759FE01193078142294
:1015F000401E50434019891CC0680CF09DFB317897
:101600001422491E51434919C860611C40183946CB
:10161000FEF77AFE30781422401E13215043401901
:10162000C06801550EE03846FEF738FE401C0AF04F
:10163000FFFA31781422491E51434919C8603946CE
:10164000FEF762FE30781421401E48434019C168FD
:10165000002901D00020F8BD1421FEF7F1FD0E2075
:10166000F8BD000080020020440F0020002806D0B2
:101670000021016041608160C16001824161704769
:101680007D26F6000024174D002C0BD0012C13D022
:10169000022CF9D1288A03F0A9FAE86800281FDD96
:1016A0000124F1E71048002332460E4940680DF04E
:1016B00045FF0128E8D101240A4805F0DFFF002892
:1016C000E2D00021C94301200DF062FA288A0028E7
:1016D00004D0E868002801DD0224D5E70024D3E720
:1016E0000024D1E7C4130020E4020020F0B587B045
:1016F0000E9E0F9D0D9C7D273F01D21B6F46FA76F3
:101700007876B9763B76002206A91D4804F05AF98E
:10171000002802D0FF2007B0F0BD69460E714C7161
:101720000C988871002005901822164C0C2E00D9B8
:1017300062730C21012D0BD0022D0DD0627300229B
:1017400001A90F4804F0AEF900280AD0FF20E2E713
:101750006A4610736173F2E740206A461073617342
:10176000EDE7607B010220790143FF201B3001F08F
:1017700063FD054A0121024804F07FF80020CAE712
:10178000180E00200C0D0020F2320000F8B507F012
:101790007DFD02F089FB01F0C3FA02F06BFA00F064
:1017A00029FE09F0BDFD00F099FA09F08BFD04F067
:1017B0004DFE002803D001F0A3FA05F077FC04F0F9
:1017C000B7FE0127344D002813D02F73322009F0C3
:1017D0002BFB05F0E1FBE120304E4002B06001241C
:1017E0002046B1680AF082F9641CE4B2052CF7D9EE
:1017F00004E0322009F018FB05F0CEFB05F07AF981
:101800000AF07EF909F034FAA8780126B603244CD0
:10181000002831D001223146204603F058FBFF203A
:10182000F53009F001FB00223146204603F04FFB62
:10183000642009F0F9FA01223146204603F047FB03
:10184000642009F0F1FA00223146204603F03FFB04
:10185000642009F0E9FA01223146204603F037FB03
:10186000642009F0E1FA00223146204603F02FFB04
:1018700008F0B0FCAF72F8BD01223146204603F0FB
:1018800026FBFF20F53009F0CFFA00223146204632
:1018900003F01DFBECE70000280000200C0D0020E9
:1018A000000400488CB00025002000900124B048BE
:1018B000005D012801D0002874D1AE4800192038FD
:1018C0000B90C67F31E03F2E0ADA601E8101AA48E4
:1018D0000818815D482903D1801940785A2802D020
:1018E0003F2E02D00CE0354621E0601EA249800167
:1018F00042182032D27F482A02D1085C5A2802D0EE
:101900003F2E02D010E03F2511E00B98C07F9A498E
:10191000621E9201511803E00A5C0D2A0DD0401C92
:101920004028F9DB01200090761C402ECBDB00988C
:10193000002816D00020009011E100220A540B99D3
:10194000401CC8778D498A480B78C254032202553F
:101950000C708B4800230222194680690DF0CCFBE5
:10196000E0E73D2D1FD03E2D26D03F2D2BD0601E11
:1019700081018148081840198678E81C0190AF1948
:10198000FF1C3F2F00DD403FBD4278D0BD4222DA30
:10199000601E81017848F21C081841197948FEF749
:1019A00036FC2DE0C4E0601E810173480818203029
:1019B000C67F00200190E2E7601E81016E48465C10
:1019C00001200190DBE7601E81016B480818467812
:1019D00002200190D3E74020421B601E810166482F
:1019E0000A920918099149196648FEF710FC0A9AEB
:1019F0006448B31ADB1C10181A460999FEF707FC55
:101A0000F01CC117890F0818821008905D495E48C4
:101A100002F009FB5A490870F01C80070AD00898A8
:101A200001228108574889000918574802F0CEFA68
:101A30005349087038215348FEF702FC601E4E4996
:101A4000820151180791CA5D4D4909788A424CD1EB
:101A5000474901220A554D4909192039CE77019984
:101A60003F22511AB1420BDB019A0799891838229B
:101A70005043474A80183246FEF7C9FB15E034E070
:101A8000019A40218A1A0692019B0799C9183823A6
:101A900058433F4BC0180590FEF7B9FB069A0598CE
:101AA00007998018B21AFEF7B2FBBD4205DA079813
:101AB000311D4019FEF7C4FB0CE04020411B079884
:101AC00004914019FEF7BCFB04990798711A091D8F
:101AD000FEF7B6FB0B987F1CC77729498888401C06
:101AE0008880204605F04CFB39E0BD4208DA601ED4
:101AF0008101214808184019311DFEF7A1FB10E0B3
:101B00004020411B601E82011B4803911018029067
:101B10004019FEF795FB03990298711A091DFEF70B
:101B20008FFB0B987F1CC77715484188491C418063
:101B3000184800192038C17F012910D10021C17730
:101B40000B48025D052A00D10155204602F0E0F95C
:101B5000611E8A0108495118402204F095FA641C5C
:101B6000E4B2052C00D8A2E60DF07EF99EE6000056
:101B7000E101002098020020A80F00203100002081
:101B8000A4020020E8100020AC170020DC01002097
:101B9000600900209D0200201FB50A460123991EFE
:101BA0000191029102240449009403938B78194611
:101BB00009F04CF904B010BD2800002038B51C46CF
:101BC0000D4B0125DD701971FF290CD0134601461C
:101BD000FE220020009408F0A3FC21460748FEF7EF
:101BE0002FFB002038BD13460146FF220020009441
:101BF00008F096FCF1E7000028000020B00A002061
:101C000038B500240A4A0023D3701071FF2807D08A
:101C10000091FE221946184608F082FC204638BD85
:101C200000230091FF221946184608F079FCF5E7D9
:101C30002800002070B5002355080AE09C000C5BCA
:101C40005E002404761C76008E5B344306683460A4
:101C50005B1C9D42F2D8D20703D09A00895A0268D1
:101C600011800068006870BDF0B5002397080EE091
:101C70009D006C184D5DE6782D062E436578A4789E
:101C80002D042402254304682E4326605B1C9F42DA
:101C9000EED894071FD09407A40F012C03D19D0008
:101CA00006684D5D3570022C07D19C000D5D2D023C
:101CB00064186478254304682580D24392070AD1CA
:101CC0009A008B5C1B0251184A78134302681380F8
:101CD00002688978117000680068F0BD10B5084886
:101CE000064901601021C16000214171017141610B
:101CF00081610321016202F0C7F910BD003002408A
:101D0000AC170020F0B587B0002001900025012419
:101D1000E0002018DF4F0690C6197078002876D0B2
:101D2000DD48407B002802D106980021395402A8E2
:101D3000009004AB03AA05A9204602F067F86846A4
:101D400081890022059803F0C2F80A2009F05AF8A8
:101D500068460189049803F0AFF800280ED1684660
:101D600081890122059803F0B2F80A2009F04AF8A7
:101D700068460189049803F09FF8019068468189BC
:101D80000022059803F0A3F87078012806D00228F5
:101D90000FD0032818D004282BD120E00198012867
:101DA00003D00198002802D023E0042521E0032578
:101DB0001FE00198012803D00198002802D018E004
:101DC000042516E0032514E00198012803D00198AA
:101DD000002802D00DE002250BE0012509E0019862
:101DE000012803D00198002802D002E0012500E07C
:101DF0000225042D01D0022D0CD1A64AA0003732B5
:101E00001158A64B994203D2491C115002E0C7E079
:101E100000211150032D01D0012D21D19D4AA00098
:101E20004F3211589D4B994202D2491C115001E08A
:101E300000211150984B987D022808D19849994A61
:101E4000085D5279904202D8401C085508E0944938
:101E500094480A5D4079824202D90020987508555D
:101E60008C489049A70037300988C0598C46884271
:101E700042D3604507D1874A069907235354114638
:101E80003731401CC8518348864B4F30C259624598
:101E900001D90021C1517F4859883730C0591A46AD
:101EA00088421BD9FF21F531884217D27A49887DB3
:101EB000002802D0022803D01EE0012088751BE014
:101EC000774B1179185D884216D95179884213D21F
:101ED000714803218175002018550DE0FF387249C3
:101EE000F538884208D26C48817D002901D0002154
:101EF0008175204600F0DAF866486A494F300A8852
:101F0000C0599446904238D3604507D1614A06993A
:101F10000823535411464F31401CC8515D4A614952
:101F20003732D059604501D90020D05159484988ED
:101F30004F30C059884218D9FF21F531884214D258
:101F40005549887D012802D0032807D015E0514A61
:101F5000069805231354022088750EE04D4A069812
:101F6000062313540020887507E0FF384E49F538E2
:101F7000884202D2204600F0BDF8464F0698385CF1
:101F8000401F030009F011FE0A1421060D2E3B49E3
:101F90005764727F20460AF093FC0699002078541B
:101FA00071E020460AF08EFC0699002078546AE021
:101FB0003948417B002966D1317AC90763D00121B4
:101FC000417320460AF07AFC5DE03348417B0029EA
:101FD00059D1317A890756D50121417320460AF03B
:101FE0006EFC50E02C48417B00294CD1317A4907E6
:101FF00049D50121417320460AF063FC43E026489D
:10200000417B00293FD1317A09073CD50121417339
:10201000022120460AF055FC35E01F48417B00298B
:1020200031D1317AC9062ED50121417303212046D1
:102030000AF047FC27E01848417B002923D1317A78
:10204000890620D50121417320460AF03CFC1AE0A4
:102050001148417B002916D1317A490613D5012157
:102060004173022120460AF02EFC0CE00A48417B15
:10207000002908D1317A090605D5012141730321D0
:1020800020460AF020FC641CE4B2052C00D83FE690
:1020900007B0F0BDF10B002028000020FFFF00007A
:1020A000E70100200C0D00200BFE0000F0B500261B
:1020B000C1000F4B4118CA189478D57812797D2742
:1020C000FF007C437D437A43870018463730C05970
:1020D000A04202D10920585407E00A24A84201D1A5
:1020E0005C5402E0904200D15C543046F0BD0000E8
:1020F000F10B0020F0B50026C1000F4B4118CA18A3
:1021000054799579D2797D27FF007C437D437A43CA
:10211000870018464F30C059A04202D10C205854B5
:1021200007E00D24A84201D15C5402E0904200D1A6
:102130005C543046F0BD0000F10B002038B514218E
:10214000484330490A5C4118012A04D0022A56D07B
:10215000032A54D10BE08878C978C20080182A4A33
:10216000105C814201D1012038BD002038BDC87803
:102170000C22401E5043254A10580468C8886A46FD
:102180001080088950804878030009F00EFD073858
:10219000050C131D242E380020460099FEF780FA06
:1021A0002DD1012038BD20460099FEF783FA26D2B2
:1021B000012038BD20460099FEF772FA1FD2600058
:1021C000000E1CD0012038BD20460099FEF772FA9F
:1021D00015D8012038BD20460099FEF761FA0ED8C7
:1021E0006000000E0BD0012038BD20460099FEF79C
:1021F00057FA04D06000000E01D0012038BD002045
:1022000038BD0000440F0020F10B0020D802002050
:10221000F8B5002532210D48FEF712F801240B4EC7
:102220000B4F0DE0601E4000315A002902D0601CA7
:1022300001F002F8A01C1C2800D30A25641CE4B29B
:1022400078788442EED92846F8BD0000AC0700201B
:102250002800002010B506490648FDF7F1FF0648A2
:10226000012141700021817008F088F810BD000044
:1022700026020000860500202800002010B5446AD0
:10228000204601F063FF0120207110BD10B5446AA3
:10229000204601F03BFF0120207110BD10B5446ABB
:1022A0002069042108432061204601F074FF0120C9
:1022B000207110BD10B5446A2069042108432061D3
:1022C000204601F025FF0120207110BD10B5406AA5
:1022D00001F060FF10BD10B5406A01F018FF10BD9D
:1022E00010B5012000F05AF810BD000010B50D48DF
:1022F0000068C043C00603D4052000F04FF810BDAD
:1023000009480168C943C90503D4022000F046F812
:1023100010BD0068C043C006FAD4044802F086F835
:1023200010BD00000004024000000240B41500206F
:1023300010B516480168C943C90303D4032000F04F
:102340002DF810BD0168C943C90203D4042000F070
:1023500025F810BD0E490968C943C90504D40D48C4
:10236000806802F063F810BD0168C943C90403D452
:10237000094802F05BF810BD0068C043C001FAD400
:102380000548383002F052F810BD0000000002404D
:1023900000040240DC130020EC15002070B5044658
:1023A0001048611E005D0D4638225143022804D0BA
:1023B0000D48081802F03AF870BD0C48081802F0F1
:1023C00035F80B48A9000A4A4058143A002802D0B0
:1023D00053585B1C535051588142EDD3204608F0AE
:1023E000FFFD70BDE1010020641400205C16002098
:1023F0004811002008B51E4841690122114341617E
:10240000416911400091426902210A4342614069D9
:10241000084000901749184800F034F8154916484C
:102420002831383000F02EF81249134850317030FE
:1024300000F028F80F4910486431A83000F022F865
:102440000D480E49E03000F01DF80A490C481431DF
:1024500000F042F807490A483C31383000F03CF8B7
:10246000044907487831703000F036F808BD0000A4
:102470000010024008000240641400201C040240C6
:10248000B415002010B501600021416081608022F8
:10249000C26001614161202181610902C16102F0D4
:1024A00053FB10BD70B504460D462946204606F084
:1024B00075FF0021284608F0D5FA204601F080FC7F
:1024C000401E0449800141184022204603F0DCFDF3
:1024D00070BD0000A80F002010B501601021416000
:1024E000002181608022C2600161416181619101AE
:1024F000C16102F029FB10BD10B502460E48416AC9
:10250000002908D0C06D002807D00B4880304069F2
:10251000002805D006E0084C04E0074C383401E000
:10252000054C70342146104607F090FA00212046F1
:1025300008F098FA10BD0000B415002010B504464C
:10254000206E09F05FFA216E00204862206610BDFF
:1025500010B50160002141608160C160016141618D
:1025600020218161C901C16102F0EEFA10BD0000B5
:10257000F8B504460D461646204601F021FC401EE3
:1025800038214843094947183946204606F006FFD6
:102590000121384608F066FA0121692001552968B1
:1025A00032462831204603F06FFDF8BD5C1600204E
:1025B00010B5046863604368102B04D00368996009
:1025C0000068C26010BD03689A600068C16010BDF9
:1025D000F1B582B001F09EFA0190019800250570D6
:1025E000714C72A1A278784809F0B4FA7649019842
:1025F000FDF731FE627A75A1734809F0ABFA7249B2
:102600000198FDF728FE0223002277A16E4800956D
:1026100009F0A0FA6C490198FDF71DFE7AA27DA190
:10262000694809F097FA68490198FDF714FE7FA2FE
:1026300081A1654809F08EFA63490198FDF70BFE08
:1026400084A1614809F086FA5F490198FDF703FE0D
:102650000124854D224685A15B4809F07BFA5A4941
:102660000198FDF7F8FD285D030009F09EFA0504C6
:10267000090E13181C007FA1534809F06BFA12E0F1
:102680007EA1514809F066FA0DE082A14E4809F09A
:1026900061FA08E082A14C4809F05CFA03E087A1E6
:1026A000494809F057FA48490198FDF7D4FD641CE0
:1026B000E4B2052CCED989A1434809F04BFA42492E
:1026C0000198FDF7C8FD01248A4E601E014638229C
:1026D00050430546305800285BD08800864908588A
:1026E00001F06EFB0746A819406A01F069FB03463A
:1026F000224682A13448009709F02CFA3249019809
:10270000FDF7A9FD641CE4B2062CDED955A10198A1
:10271000FDF7A1FD85A10198FDF79DFD0198FDF74D
:10272000BDFD85B20124204E884FB078401E400088
:10273000395A621E0120C003D040014208D022460F
:1027400083A1214809F006FA1F490198FDF783FD8E
:10275000641CE4B2052CE8D90198FDF79FFDA8425E
:1027600003D17DA10198FDF776FD3EA10198FDF70B
:1027700072FD029800280BD00198FDF78FFD82B200
:102780000020C04300903223019902980CF07AFC9B
:10279000FEBD224672A10C4809F0DCF90A490198F5
:1027A000FDF759FDAEE70000280000200A0D2A2A97
:1027B0002A204D6F64756C65202564205374617404
:1027C0007573202A2A2A0A00BC0C00200A0D436FC8
:1027D0006E6E65637465642076696120706F7274D3
:1027E0003A205025640A0D000A0D4669726D776122
:1027F00072652076657273696F6E3A2025642E25A6
:10280000642E2564000000004F63742032342032AF
:10281000303139000A0D4669726D77617265206446
:102820006174653A202020202573000031383A3148
:10283000363A3037000000000A0D4669726D776144
:1028400072652074696D653A2020202025730A0D79
:10285000000000000A0D506F72747320537461748D
:1028600075733A0A0A0D0000E10100205025643A10
:1028700020000000467265650A0D00005265636520
:102880006976696E67206D657373616765730A0D9C
:102890000000000053747265616D696E670A0D0077
:1028A000526563656976696E67207573657220632A
:1028B0006F6D6D616E64730A0D000000436F6E6E84
:1028C000656374656420746F206120627574746F31
:1028D0006E2F7377697463680A0D00000A0D444D0A
:1028E000412053747265616D732053746174757304
:1028F0003A0A0D005C160020201100200A0D5374C6
:102900007265616D696E6720444D412025642069C0
:10291000732073747265616D696E672066726F6D86
:102920002050256420746F20502564000A0D5468DF
:1029300065736520706F72747320617265207265B3
:102940007665727365643A2000000000AC070020D1
:1029500050256420000000004E6F6E6500000000EE
:102960000A0D53747265616D696E6720444D412094
:10297000256420697320667265650000F1B582B038
:1029800022A1294809F0E6F82748FDF787FC00272F
:1029900082B2FF4332232449009702980CF072FB65
:1029A000012520E00124681E46002048621E815B4C
:1029B0000120C003D04001420FD023462A461CA16B
:1029C000194809F0C7F81848FDF768FC82B23223AD
:1029D0001549009702980CF055FB641CE4B20A2CD0
:1029E000E3D96D1CEDB2174840788542DAD916A1BB
:1029F0000D4809F0AFF80C48FDF750FC82B23223C5
:102A00000949009702980CF03DFBFEBD0A0D546881
:102A100065736520706F72747320617265207265D2
:102A20007665727365643A00BC0C0020AC07002028
:102A30000A0D4D6F64756C65202564203A20502581
:102A400064000000280000200A0A0D416C6C206F11
:102A50007468657220706F72747320617265206E85
:102A60006F726D616C0A0D00F1B582B049A14E48DC
:102A700009F070F84C48FDF711FC002682B2F643CD
:102A800032234949009602980CF0FCFA01242246B0
:102A900046A1454809F05EF84348FDF7FFFB82B2C6
:102AA00032234149009602980CF0ECFA641CE4B21F
:102AB000052CECD9322303223EA1009602980CF09B
:102AC000E1FA002551E06A1C3BA1374809F042F8C1
:102AD0003548FDF7E3FB002482B2E4433223324958
:102AE000009402980CF0CEFA16202F46354E47433C
:102AF000F05B062148433449052241182A48FDF776
:102B0000B6FB322305222849009402980CF0BAFA49
:102B10003223012223A1009402980CF0B3FA01247D
:102B20003046A61E3F186000385A00282BD04307B5
:102B3000C2085B0F25A11C4809F00CF81A48FDF7E4
:102B4000ADFB82B232231849009602980CF09AFA33
:102B5000641CE4B2052CE6D9322302221DA10096A2
:102B600002980CF08FFA6D1CEDB21B48407885423C
:102B7000A9D30020C04300903223012217A102985C
:102B80000CF080FAFEBD002215A1074808F0E2FF14
:102B9000D4E700000A0D284D6F64756C653A506FDC
:102BA0007274290909000000BC0C0020502564093A
:102BB000000000000A0A0D004D6F64756C65202549
:102BC000643A0900860500205466010825643A2508
:102BD000640900000A0D0000280000200A0000001F
:102BE0002564090013490988134A1288002816D061
:102BF000012801D0002070471048002A03D0002986
:102C000007D0AB207047814201D1002070470220DD
:102C10007047824201D1022070470020704700298E
:102C200003D0002A03D0AB20704700207047022059
:102C30007047000000E0010800F00108EEEE00001F
:102C4000F8B502F07BF8274F384600F0B7FD264D67
:102C5000284600F0EDFD254C002802D0E06980B246
:102C6000F8BD234800F0AAFD284600F0E1FD002849
:102C700002D0E06980B2F8BD1E4E3069022188435F
:102C80003061002213463946012002F015F828462B
:102C900000F0CEFD002802D0E06980B2F8BD3069B6
:102CA000400840003061144800F088FD284600F0DC
:102CB000BFFD002802D0E06980B2F8BD0F4800F0E7
:102CC0007DFD284600F0B4FD0546002D02D0E069E8
:102CD00080B2F8BD306940084000306101F0E2FF89
:102CE0002846F8BD00E0010850C30000A8040020F9
:102CF00000E801080020024000F0010800F8010887
:102D000070B5054C054D206BA84204D0FFF798FF25
:102D1000002800D1256370BDC07F0020ADDEEFBE6E
:102D2000F8B50025ED4302F009F8BB480188BB481F
:102D30000088BB4E2A0CBB4F002979D0BA4BC9186A
:102D400066D0BA4AD14210D1002819D059428842DF
:102D500054D1B14800F032FDB54C204600F068FD7A
:102D6000002829D0F06980B2F8BDFFF769FFB048AC
:102D700000F05EFD0028F7D101F094FF0020F8BDBF
:102D8000A54800F01BFDAA4C204600F051FD00288C
:102D900002D0F06980B2F8BDA64800F00FFD2046D1
:102DA00000F046FD002802D0F06980B2F8BD386915
:102DB000022188433861DFE79E4800F0FFFC20468F
:102DC00000F036FD002802D0F06980B2F8BD396904
:102DD000022081433961002213469049012001F00D
:102DE0006BFF204600F024FD002802D0F06980B27D
:102DF000F8BD3869400840003861BDE7FFF720FFA3
:102E00008B4800F015FD0028B6D0F06980B2F8BDFF
:102E100000280ED090427ED1804800F0CFFC844C38
:102E2000204600F005FD002852D0F06980B2F8BDC0
:102E30007BE001247848C088A04200D125B2AC4292
:102E400012D07D49204600F083F901280CD07A4841
:102E50000188204600F0A0F90090754800F0E8FCD9
:102E6000002801D00098E2E7641CA4B2012080028F
:102E70008442DFD9002213466749012001F01CFF7C
:102E80006B4C204600F0D4FC002802D0F06980B2E0
:102E9000CDE73869400840003861604800F08EFC9A
:102EA000204600F0C5FC002802D0F06980B2BEE7E1
:102EB000624800F083FC204600F0BAFC002802D0F3
:102EC000F06980B2B3E7386902218843386153E77B
:102ED0005A4800F073FC204600F0AAFC002802D0FB
:102EE000F06980B2A3E73969022081433961002289
:102EF00013464949012001F0DFFE204600F098FC0E
:102F0000002803D0F06980B291E704E038694008F6
:102F10004000386130E7FFF793FE454800F088FC39
:102F20000028D4D0F06980B281E700280DD090420B
:102F300023D13A4800F042FC3D4C204600F078FC9A
:102F400000280AD0F06980B271E7FFF779FE3848AF
:102F500000F06EFC002886D10EE7384800F02EFC09
:102F6000204600F065FC002802D0F06980B25EE7E0
:102F70003869022188433861FEE601242748C08869
:102F8000A04200D125B2AC4212D02B49204600F01D
:102F9000DFF801280CD028480188204600F0FCF812
:102FA0000090234800F044FC002801D000983EE740
:102FB000641CA4B2012080028442DFD9002213469F
:102FC0001649012001F078FE194C204600F030FC33
:102FD000002802D0F06980B229E738694008400033
:102FE00038610D4800F0EAFB204600F021FC002883
:102FF00002D0F06980B21AE70E4800F0DFFB2046ED
:1030000000F016FC002802D0F06980B20FE73969A1
:10301000022081433961AFE600E0010800F00108B9
:10302000A8040020002002401211FFFFEFEEFFFF76
:1030300050C3000000E80108A202002000F80108C7
:10304000F3B581B00C4601F079FE0020FFF7CAFD10
:103050003849394D022803D0002803D0AB20FEBDEB
:103060000F4601E02F460D46344A00233946012021
:1030700001F022FE324800F0DBFB324E002802D085
:10308000F06980B2FEBD304801694908490001611C
:103090002146019800F080F80028F3D1012401981E
:1030A00084420CD02949204600F052F8012806D06D
:1030B00026480188204600F06FF80028E2D1641C01
:1030C000A4B2012080028442E9D9284600F076FBB0
:1030D0001B4C204600F0ACFB002802D0F06980B207
:1030E000FEBD0120C002281800F068FB204600F059
:1030F0009FFB002802D0F06980B2FEBD124D286906
:10310000022188432861002213463946012001F03C
:10311000D3FD204600F08CFB0446002C02D0F06961
:1031200080B2FEBD286940084000286101F0BAFD68
:103130002046FEBD00E0010800F00108EEEE0000B0
:1031400050C30000A804002000200240A20200207A
:1031500070B505460E4601240020FFF743FDAB285D
:1031600008D00C4AC1028918801CC002921E821825
:10317000891C0AE0AB2070BD1088A84204D1403AF7
:10318000D08F3080002402E0121F8A42F4D82046FB
:1031900070BD000000E00108F8B505460E4601F0DC
:1031A000CDFD0120FFF71EFDAB2807D01E4AC1024E
:1031B0008C18801CC002911E411805E0AB20F8BDA0
:1031C0002068401C06D0241D8C42F9D301F06AFD12
:1031D0008020F8BD324600232146012001F06CFD1D
:1031E000124800F025FB124E002802D0F06980B290
:1031F000F8BD104F38694008400038612A46002366
:10320000A11C012001F058FD084800F011FB002826
:1032100002D0F06980B2F8BD3869400840003861DA
:10322000F06980B2F8BD000000E0010850C3000062
:10323000A80400200020024070B505460E4601F0AB
:103240007DFD31462846FFF7A7FF0446802C04D1B8
:1032500031462846FFF7F4FE044601F023FD2046E0
:1032600070BD0000FEB500200190002400F052FC6B
:1032700000901D4F31E014206043C519287C0028C0
:1032800029D0E0B2FEF75AFF002824D017492020A9
:1032900088719926B60017E01348324632380099F3
:1032A00000F06CFC0028F7D10098FCF7F7FF01460E
:1032B0000098FCF7C5FF0C483238FCF7EFFF0146D9
:1032C00009483238FCF7BCFF0749E868323903F097
:1032D000B3FF0028E0D1641CA4B205480078844202
:1032E000C9D30198FEBD0000440F00200C0D002042
:1032F00080020020F0B587B0002600200190F94D33
:103300000120A8700124687A844205D0204600F08C
:10331000FFFD012107F094FE641CE4B2052CF2D9F4
:10332000F04C607A00F014FA02202070012401258C
:10333000681E8700EC48C05B002817D0641CEB496E
:10334000E4B24C70E748447000200870032000226B
:10335000009010231146284607F0E2F8E2482102C7
:10336000C25D8918C1530A2009F0B8FF6D1CEDB287
:10337000052DDDD9DB48418BDB48BE3001800120C3
:10338000411ED94A8900525A8C46002A18D0110A87
:10339000D2B2CB00D44D13434700BE35EB53634646
:1033A000BE3D5B19491E16256943CF4D5B88BE356E
:1033B0006B52CC4B49199B78DB00034352008B5274
:1033C000401CC0B20528DBD90225162027464743FA
:1033D0000FE0C5493A46BE31C448FCF718FF3A46EB
:1033E0001121284607F01CFA3C2009F077FF6D1CDC
:1033F000EDB2A542EDD9A1E0019402259BE00120A8
:10340000BA4901220B18203BDA77401CC0B20A28C7
:10341000F7D9B649002088720B220E21284607F002
:10342000FFF90A2009F05AFF00220C21284607F074
:10343000F7F9642009F052FF0127781E8100AA489D
:103440001430405A020A002818D0002A16D1641CF1
:10345000A64AE4B25470A34B5C702302C0B21818A1
:10346000A14B143358520120107097700322102181
:10347000284607F0D5F90A2009F030FF7F1CFFB27B
:103480000A2FDAD90120411E974B89001433069187
:103490005A5A002A2CD0110AD2B29446012927D0B8
:1034A0006A1E16235A43904BBE33D318420005932D
:1034B0009B5A002B04D1CB0067463B43059FBB5270
:1034C000491E16225143884ABE328B18624652006A
:1034D00004939B5A002B0BD1834F069B1437DB19A7
:1034E0005F88814BBE335F52E900049B01439952D0
:1034F000401CC0B20A28C6D97B4814211430FCF7FE
:103500009FFE022720461621484303900FE076498C
:103510007648BE31039AFCF77AFE11213846039AA9
:1035200007F07EF93C2009F0D9FE7F1CFFB2A742CC
:10353000EDD96D1CEDB2A54200D860E70198A0421C
:1035400000D059E76748407A00F002F90120664B45
:10355000411E8900595A0A0A002902D0002A00D1C6
:103560000526401CC0B20528F2D902255E4F14374B
:1035700017E000220C21284607F052F9642009F0D8
:10358000ADFE0120411E8900795A0A0A002902D0A5
:10359000002A00D10526401CC0B20A28F2D96D1CB1
:1035A000EDB2A542E5D9002E71D10120504D411E4A
:1035B00001222B88D203CA4093432B80401CC0B207
:1035C0000528F3D970E00120474A611E16230291B5
:1035D000BE32594389188C460299444D49006246CF
:1035E0004300D25A002A44D053051B0E5207520FF3
:1035F0005B1E5F003E4B521EDB5B0127FF03D74083
:103600003B420DD101222B18203BDA77384A0123A7
:10361000575A421EDB03D340354A1F4357520CE032
:1036200000222B18203BDA77314A0123575A421ED9
:10363000DB03D3402E4A9F435752401CC0B20A2896
:10364000CDD92146012000F097F9294832300019E0
:103650002038C17F264863300F5C2046394600F091
:103660008BF9A74214D028182038C07F01280FD02A
:1036700010E000222B18203BDA771D4A0123575A0D
:10368000421EDB03D3401A4A9F435752D5E71CE042
:103690000120A8720B220E21204607F0C1F80A2053
:1036A00009F01CFE0298C4B2022C8CD201240D4DEC
:1036B000687A844205D0204600F02AFC002107F0F9
:1036C000BFFC641CE4B2052CF2D9002E2FD164207B
:1036D00009F004FE0749202088710224044F014D9F
:1036E000323721E028000020C8040020B00A002062
:1036F000AC0700200C0D002000220121204607F01D
:103700008FF838192038C07FFF212D31484309F048
:10371000E5FDE879002802D0022802D002E0002668
:1037200000E00226641CE4B268788442E4D9002EEA
:103730000BD106F023FE06F0CFFD642009F0CEFD8C
:1037400000221521FF2007F06BF8304607B0F0BDCE
:10375000FEB505460020019001240D4F0D4EAC42F0
:103760000FD0788B010A31707070B4700320002282
:1037700000900A231146204606F0D2FE0A2009F0E6
:10378000ADFD641CE4B2052CE9D90198FEBD000032
:1037900028000020B00A002006490020C861064821
:1037A0000169042211430161016940221143016151
:1037B00070470000A804002000200240064A0021B3
:1037C000D16106490A6902231A430A6148610869FE
:1037D0004022104308617047A804002000200240E6
:1037E00010B5054B0022DA61044A13690124234312
:1037F0001361018010BD0000A804002000200240D9
:103800000949C868C206094803D5C26902231A4398
:10381000C261CA68520703D5C26901231A43C26153
:103820001420C8607047000000200240A804002057
:1038300070B5044601F060FB0546104E0AE0601CBE
:1038400008D0002C04D001F057FB401BA04201D946
:10385000032070BDF068C007F1D1F068800601D583
:103860002020F060F068C00602D4F068400703D55D
:10387000FFF7C6FF012070BD002070BD0020024090
:10388000FEB504460020009000250026384F7878C9
:1038900008F0CEF9002305E0435536496A008B5203
:1038A0006D1CEDB2324949788D42F5D3761C011971
:1038B0002039CE77761CF3B20121641EA44616226D
:1038C00054432C4A9632A218964672464C00125B1C
:1038D000002A0DD064466400264D4E1E01272D5B44
:1038E000B740244E3D433553D2081218203AD377BF
:1038F000491CC9B20529E8D900245B1CDBB20022AF
:103900002BE0855C591E8D4225D10121194E1625CB
:1039100096365543AD190195019D4E00AD5B002DC6
:1039200015D0ED082D18203DAC46ED7F002D0ED1B1
:103930005700104DBE46ED5B4E1E0127B7403D437C
:103940000C4E7746F5536546EB77641CE4B2491C90
:10395000C9B20529E0D9521CD2B2054949788A4238
:10396000CFD3002CC8D1009C08F030F92046FEBD12
:1039700028000020F0040020F0B58FB007460E4666
:1039800034216846FCF75CFC0024002519215148CD
:10399000FCF756FC4F4900203239C9192039C87745
:1039A0004C491939C9192039C8770120791E1622C6
:1039B0005143494A89180E914649323989192039AB
:1039C0000D910E994300C95A00290AD0C908B14285
:1039D00007D10D9A0121D1773E490E70C0B20FB0C8
:1039E000F0BD401C0628ECDD01203C494A780EE081
:1039F000B8420BD03749FF23323909182039CB7729
:103A0000344B0021193B1B18203BD977401C9042B6
:103A1000EEDD36E02F486946323809F007FC401CDD
:103A2000C4B2B44232D06946012009192039C8779E
:103A3000611E16225143284A89188C46614642006D
:103A4000895A002919D04905090E6A465218203AA8
:103A5000D27F002A11D11F4B323B1A19203AD27F54
:103A6000521CD2B25B18203BDF7F974205D9DA7730
:103A7000184A193A51182039CC77401CC0B2062890
:103A8000DCD9684605F040FB0028C3D0114A114636
:103A9000193904E02B466D1CEDB2D45404460819C4
:103AA0002038C07F0028F5D101200A4A521E0E9905
:103AB0004300C95A002907D0CB080D99C97F895CFA
:103AC0008B4201D1C0B28AE7401C0628EFDD0020FE
:103AD00085E700001008002086050020280000204F
:103AE000F8B5044609480026C670611E38225143C5
:103AF000074A555C80782946FFF73EFF00232A4697
:103B00001946009406F00CFD3046F8BD2800002050
:103B10006009002000487047D017002030B500230E
:103B200000250024146025E0401C00240457002CCC
:103B300003D0202CF8D100E0401C00240457002CB6
:103B400001D0202CF8D00478002C15D05B1C8B42BF
:103B500010D1054603E01168491C1160401C00218A
:103B60004156002901D02029F5D11068002803D141
:103B7000002501E08B42D8D3284630BDF7B5064674
:103B800001242A4DA86800281AD128461430A860BC
:103B900013E0006807683846FCF780FB0246B05621
:103BA000202801D0002805D139463046FCF7B5FB66
:103BB000002817D0A8684068A860A8680028E8D145
:103BC000A8680027002801D0002C1DD0002824D090
:103BD000006832468368029901989847044620009D
:103BE00019D020E0A8680C21006841560029E7DBC5
:103BF000304609F045FF0146A8680C22006882564D
:103C00009142DDD00024DBE70949029A0198FCF7D4
:103C10002EFBAF6007E0AF6005E00649029A01980D
:103C2000FCF725FB00242046FEBD0000F402002026
:103C3000048B01085C8B010870B50546002D12D07D
:103C400008200CF00FFF0446002C0ED00BF0F2F809
:103C5000256000206060064841684C6044600BF0BD
:103C6000F5F8012070BD72B6FEE772B6FEE70000FF
:103C7000F402002008B5144842690121C9040A432E
:103C8000426142690A400092426989100A434261D6
:103C900042690A4000924269C9000A43426142698E
:103CA0000A400092426989100A43426142690A400F
:103CB0000092426909010A4342614069084000904C
:103CC00002F0B0FB08BD0000001002401CB51E2031
:103CD00007F0AEFF04461E212046FCF7B1FA084962
:103CE000088B4A7D00920190087D8B7D401E05491E
:103CF00080000A580449204607F02CFF20461CBDCE
:103D00000C0D002044020020A4680108F8B5054607
:103D1000002426A12846FCF7C8FA254E00280AD020
:103D200024A12846FCF7C1FA002806D028782328C9
:103D300005D0214F22E0B078F8BDFF20F8BD681C07
:103D4000FCF72BFBC0B2002802D071788842F5D96D
:103D5000B178884201D10846F8BD6620F8BD0A2036
:103D60006043C1192846FCF7A0FA002804D128783E
:103D7000002801D02046F8BD641CE4B2707884426B
:103D8000EDD300240D4E0A20604381192846FCF72C
:103D90008CFA002805D0641CE4B20A2CF3D364200A
:103DA000F8BD2002FE3000B2F8BD00006D650000D5
:103DB00028000020616C6C002908002022050020EA
:103DC00000680D49884201D1012070470B498842A3
:103DD00001D1022070470A49884201D1032070476F
:103DE0000849884201D1042070470749884201D11F
:103DF0000520704700207047004C00400044004000
:103E0000004800400038014000500040F0B5059DDA
:103E10001C46002600F07CF81D4F0923DB06B84243
:103E200007D10B60012040021080236040002880F1
:103E30002BE0184FB84206D10B600420108023609D
:103E40000820288021E0144FB84208D113480860A8
:103E500001218902118020604800288015E0104F60
:103E6000B84206D10B600120108023600220288018
:103E70000BE00C4B984207D10848086008211180DC
:103E800020601020288000E0FF263046F0BD0000B2
:103E90009411002004120020741200200004004835
:103EA000E41200205413002000B587B0002201A9BD
:103EB000154801F00BFD002206A9134801F0E4FCAF
:103EC0006946087BC1091148491CC1740299C9039C
:103ED000090CC1816946897901746946497941743F
:103EE0006946097981746946897E41756946497ECA
:103EF00081756946097E01756946C97E7D22120178
:103F00008918018307B000BD180E00200C0D002099
:103F100000B5030007F049FE060E0406080A0C0E61
:103F2000054800BD054800BD054800BD054800BD69
:103F3000054800BD002000BDE4120020041200204E
:103F400074120020941100205413002000B5017950
:103F5000002907D0C268816800F010F8002809D055
:103F6000012000BD0268044951610068816818227F
:103F700091438160002000BDB71DC10430B51F23EF
:103F800001252C469C400C4202D15B1E5C1CF8D1E2
:103F9000002A11D0082A0BD0102A05D0182A0BD1DC
:103FA000072B09D3012030BD082B05D3012030BDDC
:103FB000102B01D3012030BD03685961006881686E
:103FC0001823994311438160002030BD70B5044629
:103FD00000200023257F012D0BD001252577022607
:103FE0006677266A012E10D0022E13D0032E15D12B
:103FF00006E0022070BD83002668CB583360401C69
:104000009042F8D32068036808E02046FDF72CFEB4
:10401000034603E02046FDF70DFE034665770020CA
:104020002077184670BDF8B5044600200023257F90
:10403000012D0FD001252577022666772668B768FF
:104040002F43B760266A012E10D0022E13D0032E04
:1040500015D106E00220F8BD83002668CB583360F6
:10406000401C9042F8D32068036808E02046FDF722
:10407000FBFD034603E02046FDF7DCFD03466577C4
:10408000002020771846F8BD10B50446002C03D058
:10409000607F002802D006E0012010BD00202077BC
:1040A000204600F027F8022060772046FFF74EFFF9
:1040B000002801D0012010BD6079002814D02168AB
:1040C0002069086120688168602291436269114318
:1040D00081602068816880229143A26911438160D8
:1040E00001206077002010BD00202168C0430861D6
:1040F000E8E7000008B50448426940210A434261EC
:1041000040690840009008BD0010024070477047A9
:104110007047000070B54379012B13D0012646711A
:104120000223037103681D68074C9440A5430C6883
:1041300049680C4394402C431C6006710021417176
:10414000002070BD022070BDFE0F000008B50021E8
:1041500000910D4AD168491ED160128A002A01D10E
:1041600000290FDC002100F00FF9084801F0A2FD42
:104170000748694600680AF0FFFE0098002801D051
:104180000AF072FE08BD0000C4130020F0130020E6
:10419000EC0200207047704770B50446002C04D034
:1041A00020790025002802D005E0012070BD65714E
:1041B000204600F007F802202071256101202071BF
:1041C000002070BDF0B589B006462C4930688842A1
:1041D00051D12B4CE16960040143E161E169014087
:1041E00001911027049703200590002506950920CA
:1041F00004A9C00600F0B4FDE06901210843E061B4
:10420000E069084001901F488907016045608760A8
:10421000C56001F027FD20200290039502A91948EE
:1042200001F0FCFC174801F039FD164C16483C34EF
:1042300020606760A5608020E060256165612020C6
:10424000A061C001E061204600F07EFC0E485030C5
:10425000816A0F22120291438162816A82151143A1
:104260008162B4606662002201210B2000F088FEAA
:104270000B2000F07BFE09B0F0BD00000074004090
:1042800000100240F013002030040240F8B504464C
:1042900006980D4616469C460022617901291BD0DE
:1042A0000121617102212171002D17D0E36830498D
:1042B0009962E3682F49D962E3682F49196321683D
:1042C0000F6801231B071F430F60002825D0042817
:1042D00026D0082829D126E00220F8BDA368274966
:1042E0009962A3682649D962A3682649196321689F
:1042F0000F6801231B031F430F60002804D004280C
:1043000005D0082811D105E0226808320DE02268A6
:104310000C320AE02268103207E02268143204E00E
:104320002268183201E022681C32002D13D0206868
:10433000016801235B071943016063463146E06869
:1043400000F02CFC206802680121A9400A430260A9
:1043500000206071F8BD2068016801235B031943E8
:10436000016063463146A06800F018FCEAE70000EF
:104370008D220008D7220008B52200087D220008FF
:10438000CD2200089D22000870B50446206802680E
:1043900001231B038B409A430260206802680125B9
:1043A0002B468B409A43026000290CD0E06800F055
:1043B00016F821680A686B079A430A6000280CD037
:1043C0000421217170BDA06800F009F821680A6815
:1043D00001235B039A430A60F0E7257170BDF8B5CD
:1043E00004462068016849084900016000F084FD26
:1043F00006460027254620350EE000F07DFD811B96
:104400007D20C000814207D9606B20210843606392
:10441000032068702F70F8BD20680068C007ECD1D9
:10442000012068702F700020F8BD0000F8B5044628
:10443000F749F74DF64EF64F2068CB14783D643EB1
:10444000503F88423FD9F3490A68A84201D1082168
:1044500037E0B04201D1802133E0B84201D11946A2
:104460002FE0EB493C39884202D10121C90328E001
:10447000E7492839884202D10121C90421E0E449F1
:104480001439884202D10121C9051AE0E1490831F5
:10449000884201D1082114E0DE491C31884201D153
:1044A00080210EE0DB493031884201D1194608E015
:1044B000D8494431884202D10121C90301E00121D8
:1044C000C9040A4044E0D24980390A68A84201D1AF
:1044D00008213CE0B04201D1802138E0B84201D14E
:1044E000194634E0CA493C39884202D10121C90346
:1044F0002DE0C7492839884202D10121C90426E0AC
:10450000C3491439884202D10121C9051FE0C049BD
:10451000884201D101051AE0BE490831884201D123
:10452000082114E0BB491C31884201D180210EE0F2
:10453000B8493031884201D1194608E0B5494431C3
:10454000884202D10121C90301E00121C9040A40C6
:10455000214620310091002A70D00168C943090723
:104560006CD40168082291430160A94920688842FF
:104570003ED9A84201D1082037E0B04201D18020C5
:1045800033E0B84201D118462FE0A1493C398842B6
:1045900002D10120C00328E09D492839884202D178
:1045A0000120C00421E09A491439884202D1012037
:1045B000C0051AE097490831884201D1082014E06B
:1045C00094491C31884201D180200EE0914930315C
:1045D000884201D1184608E08E494431884202D110
:1045E0000120C00301E00120C0048A49486044E082
:1045F000A84201D108203DE0B04201D1802039E03D
:10460000B84201D1184635E0814A3C3A904202D185
:104610000120C0032EE07E4A283A904202D10120B8
:10462000C00427E07A4A143A904202D10120C00522
:1046300020E0884203D10120C0061BE02CE0754930
:104640000831884201D1082014E072491C318842A7
:1046500001D180200EE06F493031884201D11846E7
:1046600008E06C494431884202D10120C00301E0D6
:104670000120C004664980394860606B012108430D
:104680006063009904204870009900200870216B35
:10469000002901D0204688475D4920680B158842D3
:1046A0003FD95C490A68A84201D1042137E0B042F1
:1046B00001D1402133E0B84201D119462FE05449DD
:1046C0003C39884202D10121890328E05049283928
:1046D000884202D10121890421E04D4914398842E0
:1046E00002D1012189051AE04A490831884201D1E5
:1046F000042114E047491C31884201D140210EE0D9
:1047000044493031884201D1194608E041494431D9
:10471000884202D10121890301E0012189040A4074
:1047200044E03B4980390A68A84201D104213CE0B9
:10473000B04201D1402138E0B84201D1194634E0FD
:1047400033493C39884202D1012189032DE03049A7
:104750002839884202D10121890426E02C491439E4
:10476000884202D1012189051FE02949884201D1EF
:10477000C1041AE027490831884201D1042114E01C
:1047800024491C31884201D140210EE021493031B9
:10479000884201D1194608E01E494431884202D1BD
:1047A0000121890301E0012189040A40002A71D016
:1047B0000168C94349076DD40168890603D40168BB
:1047C00004229143016012492068884242D9A842DC
:1047D00001D104203AE0B04201D1402036E0B84295
:1047E00001D1184632E00A493C39884202D1012001
:1047F00080032BE006492839884202D10120800439
:1048000024E003491439884206D1012080051DE0C7
:104810008000024000040240C949884201D10420BE
:1048200014E0C7491431884201D140200EE0C44948
:104830002831884201D1184608E0C1493C318842FC
:1048400002D10120800301E001208004BC49083925
:10485000486042E0A84201D104203BE0B04201D1CF
:10486000402037E0B84201D1184633E0B54A9042C3
:1048700002D1012080032DE0B24A1432904202D1CD
:104880000120800426E0AF4A2832904203D1012063
:1048900080051FE029E0884202D10120800619E04E
:1048A000A749884201D1042014E0A5491431884267
:1048B00001D140200EE0A2492831884201D118469A
:1048C00008E09F493C31884202D10120800301E089
:1048D000012080049B4944394860009811214170AF
:1048E000E16A002901D020468847964A20683C3278
:1048F00090423FD9924908390B68A84201D1022160
:1049000036E0B04201D1202132E0B84202D101218B
:1049100049022DE08B49884202D10121490327E059
:1049200088491431884202D10121490420E0854997
:104930002831884202D10121490519E08049884285
:1049400001D1022114E07E491431884201D1202195
:104950000EE07B492831884201D1411508E07849B1
:104960003C31884202D10121490301E0012149047F
:104970000B4043E0734944390B68A84201D102213E
:104980003BE0B04201D1202137E0B84202D1012101
:10499000490232E06B49884202D1012149032CE0EF
:1049A00068491431884202D10121490425E0654952
:1049B0002831884202D1012149051EE0904202D1EE
:1049C0000121490619E05E49884201D1022114E023
:1049D0005B491431884201D120210EE05849283129
:1049E000884201D1411508E055493C31884202D145
:1049F0000121490301E0012149040B40002B72D041
:104A00000168C94389076ED40168890603D4016827
:104A1000022399430160206890423ED9A84201D107
:104A2000022036E0B04201D1202032E0B84202D16B
:104A3000012040022DE04349884202D10120400379
:104A400027E040491431884202D10120400420E08F
:104A50003C492831884202D10120400519E03849FB
:104A6000884201D1022014E035491431884201D135
:104A700020200EE032492831884201D1401508E05B
:104A80002F493C31884202D10120400301E001203E
:104A900040042B490839486043E0A84201D1022074
:104AA0003CE0B04201D1202038E0B84202D10120E0
:104AB000400233E02349884202D1012040032DE027
:104AC00020491431884202D10120400426E01D49CA
:104AD0002831884202D1012040051FE0904203D1D5
:104AE000012040061AE029E01549884201D1022040
:104AF00014E013491431884201D120200EE01049FE
:104B00002831884201D1401508E00D493C318842E6
:104B100002D10120400301E0012040040949443949
:104B20004860606B60630099012048700099002024
:104B30000870A16A002901D020468847F8BD00000E
:104B40000804024044000240F0B5002806D00146A7
:104B500020314A780025002A02D002E00120F0BD71
:104B60000D7002224A70026814680B4B1C40866864
:104B7000436807693343C6683E433343466933435A
:104B800086693343C6693343234313604563012079
:104B900048700020F0BD00000FC0FFFFF8B50446CC
:104BA000204620300578012D1ED0012505700226F3
:104BB000467020680768AF4307602046FDF7F8FCA1
:104BC00020680168314301602068016804221143B4
:104BD00001602068016808221143016020680168B3
:104BE000294301600020F8BD0220F8BD31B500F076
:104BF00083F9044600F080F90099001B8842F9D33C
:104C000038BD0000F8B505460F4601262248017E52
:104C100001290BD0012101762868204C012807D0FA
:104C20002046FEF705FE002813D030E00220F8BD34
:104C30002046FEF7FDFD002829D1FEF7ADFD2046F8
:104C4000FEF7F6FD0646164801690422914301610C
:104C50001DE00020C04338606C6812E02046FEF77B
:104C6000ADFD0E48FEF7E4FD06460D48016902223F
:104C700091430161300001D03C6008E00120C00296
:104C80002418A9686868C9024018A042E6D80248FA
:104C9000002101763046F8BDA804002050C3000072
:104CA0000020024003480169802211430161002075
:104CB0007047000000200240F0B51FB407461546BB
:104CC0001E4600241A48017E012907D001210176E1
:104CD0001848FEF7ADFD002803D025E0022005B0FE
:104CE000F0BD012F03D0022F03D004271AE00127C3
:104CF00018E0022716E0220128463146FBF762FA47
:104D000081B2019862001018FEF76AFD0948FEF7AB
:104D10008FFD09490A69520852000A61002803D12F
:104D2000641CE4B2BC42E6D3014900220A76D6E70D
:104D3000A804002050C3000000200240054801697B
:104D4000090605D5044941600449416000207047C7
:104D5000012070470020024023016745AB89EFCD59
:104D6000F8B5002293E001249440A4462340002B90
:104D70007ED04C68022C01D0122C0CD1D408A40097
:104D800027183D6A5407E40E0F26A640B5430E6966
:104D9000A6402E433E62076855000324AC40A7435B
:104DA0000E79B607B60FAE403E4306604E68012E40
:104DB00005D0022E03D0112E01D0122E0ED18768FD
:104DC000A743CE68AE403E43866047686646B74319
:104DD0000E79F606F60F96403E434660C668A64337
:104DE0008C68AC403443C4604C68E4004ED52B4C16
:104DF000A56901263543A561A4693440009495084E
:104E0000274CAD002F19BD689407240F0F26A6402C
:104E1000B5430926F606B04201D1002614E0214E22
:104E2000B04201D101260FE01F4EB04201D102264F
:104E30000AE01E4EB04201D1032605E01C4EB042EE
:104E400001D1042600E00526A6402E43BE60194D80
:104E50002C689C434E68F60300D51C432C606C689C
:104E60009C434E68B60300D51C436C60AC6800E000
:104E70000CE09C434E68F60200D51C43AC60EC6825
:104E80009C434E68B60200D51C43EC60521C0B6874
:104E90001C46D44000D066E7F8BD00000010024078
:104EA000000001400004004800080048000C0048D1
:104EB00000100048000401400069084201D00120B0
:104EC00070470020704742694A4042617047002A9B
:104ED00001D081617047816270470000024800681C
:104EE0000005000D704700000058014001480068AF
:104EF000000C7047005801400148006870470000EE
:104F00002400002002480168491C0160704700002D
:104F10002400002010B506480168102211430160EA
:104F2000002000F007F800F016F8002010BD000087
:104F30000020024010B5044600F0C8F97D21C900E8
:104F4000FBF72AF900F052FE00222146501E00F025
:104F500017F8002010BD7047C106C90E0120884017
:104F6000014908607047000080E100E0C106C90EF9
:104F700001208840014908607047000000E100E01E
:104F800010B502F071F810BD024801688215114396
:104F90000160704700700040F8B5044620683C4D41
:104FA000C00344D5296A0320000262680140024020
:104FB00091423CD0E86929040843E861E869084067
:104FC0000090344F3868091508433860FFF794FFA4
:104FD000064606E0FFF790FF801B642801D90320F6
:104FE000F8BD3868C005F5D5286A03273F02B843E5
:104FF0002A6A012109040A432A622A6A8A432A6228
:10500000286280070ED5FFF777FF064607E0FFF717
:1050100073FF811B2048814201D90320F8BD286A13
:105020008007F4D5286A6168B8430843286220786D
:10503000C00705D0286BA16880088000084328635A
:105040002078800706D5286B032109048843E1688E
:10505000084328632068400306D5286B0321890490
:1050600088432169084328632078800605D5286B8A
:10507000102188436169084328632088400505D5CD
:10508000286B40218843A169084328630020F8BDAC
:10509000001002400070004088130000F8B504467C
:1050A0000F4687480068F021C007C00F854EB84200
:1050B0007DD283480268520852003A430260006879
:1050C000C007C00FB84201D00120F8BD207880078A
:1050D00004D570688843A168084370602078C007D1
:1050E00039D06068012808D002280BD003280ED0E0
:1050F0003168890710D40120F8BD316889030BD4C9
:105100000120F8BD3168890106D40120F8BD716B1A
:10511000C90301D40120F8BD7168890889000143E1
:105120007160FFF7E9FE05466068012805D0022896
:1051300012D003281FD0644F34E0634F06E0FFF71E
:10514000DBFE401BB84201D90320F8BD70680007A0
:10515000800F0128F3D1A3E05B4F06E0FFF7CCFE00
:10516000401BB84201D90320F8BD70680007800FCA
:105170000228F3D194E0544F06E0FFF7BDFE401B38
:10518000B84201D90320F8BD70680007800F0328DA
:10519000F3D185E00BE0FFF7AFFE401BB84201D929
:1051A0000320F8BD70680007800FF4D178E0207804
:1051B000800704D570688843A16808437060207830
:1051C000C00760D06068012808D002280BD00328EF
:1051D0000ED03168890710D40120F8BD31688903E9
:1051E0000BD40120F8BD3168890106D40120F8BD37
:1051F000716BC90301D40120F8BD71688908890069
:1052000001437160FFF778FE0546606801280CD005
:10521000022818D0032824D031E0FFF76DFE411B8F
:105220002948814201D90320F8BD70680007800F2A
:105230000128F2D127E0FFF75FFE411B224881429F
:1052400001D90320F8BD70680007800F0228F2D151
:1052500019E0FFF751FE411B1B48814201D9032091
:10526000F8BD70680007800F0328F2D10BE0FFF74C
:1052700043FE411B1448814201D90320F8BD7068E8
:105280000007800FF3D10E480168490849003943EF
:1052900001600068C007C00FB84201D00120F8BD0E
:1052A0002078400706D57068072109028843E16825
:1052B000084370600020FFF73DFE0020F8BD0000AD
:1052C00000200240001002408813000010B500F0DA
:1052D00021F805494968054A0906090F515CC8408B
:1052E0000349086010BD000000100240426601083A
:1052F0001000002010B5FFF7E9FF04494968044A8F
:105300004905490F515CC84010BD00000010024023
:105310004266010830B589B01CA001460EC9C068BC
:1053200005AC0EC408901DA001460EC9C06801ACB2
:105330000EC404901D4D6A680C20114601401C48A3
:10534000042905D01B4B082904D00C2900D118468C
:1053500009B030BD9102090F05AC645CE96A01AD8A
:105360000907090F695CD203920F022A05D0032AAC
:1053700007D0FAF711FF6043EAE7FAF70DFF604341
:10538000E6E71846FAF708FF6043E1E70203040581
:10539000060708090A0B0C0D0E0F1010010203047A
:1053A00005060708090A0B0C0D0E0F10001002402D
:1053B00000127A00006CDC02F8B504462078FA4D41
:1053C000C00775D068680007800F012816D068688C
:1053D0000007800F022804D16868C003800F0228EC
:1053E0000CD0286801263604B04328602968B00034
:1053F00081432960FFF780FD07460EE0286880039F
:1054000056D56068002853D10120F8BDFFF774FD20
:10541000C01B642801D90320F8BD28688003F5D497
:105420006068012813D0002815D005281DD02968F0
:105430002846B1432960016801229204914301602A
:105440006068002826D0FFF757FD06461EE0296851
:1054500031432960F4E729682846B143296002688E
:10546000012189048A430260EAE72A68284601216B
:1054700089040A432A60016831430160E0E7FFF7CD
:105480003BFD801B642801D90320F8BD28688003F8
:10549000F5D50DE0FFF730FD064606E0FFF72CFDE1
:1054A000801B642801D90320F8BD28688003F5D447
:1054B00020780126800700284BDA68680007800FF3
:1054C00013D068680007800F022804D16868C00301
:1054D000800F012809D0E068002828D028683043D0
:1054E0002860FFF709FD074616E02868800704D505
:1054F000E068012801D00120F8BD2868F821884320
:105500002169C9000843286023E0FFF7F5FCC01BB0
:10551000642801D90320F8BD28688007F5D52868DC
:10552000F82188432169C9000843286011E02868F0
:10553000400840002860FFF7DFFC074606E0FFF761
:10554000DBFCC01B642801D90320F8BD2868800754
:10555000F5D42078000726D5206A002811D0686A83
:1055600030436862FFF7C8FC074606E0FFF7C4FC5B
:10557000C01B642801D90320F8BD686A8007F5D5EF
:1055800011E0686A400840006862FFF7B5FC074612
:1055900006E0FFF7B1FCC01B642801D90320F8BD69
:1055A000686A8007F5D4207840077BD5E969012037
:1055B00000070143E961E969014000917B48016806
:1055C000821511430160FFF797FC074606E0FFF7DD
:1055D00093FCC01B642801D90320F8BD7348006800
:1055E000C005F4D5286A400840002862296A0420D2
:1055F00081432962FFF780FC074607E0FFF77CFC48
:10560000C11B6B48814201D90320F8BD286A80077D
:10561000F4D4A068012813D0002815D005281DD087
:10562000296A2846490849002962026A04218A43F6
:105630000262A068002826D0FFF75EFC07461EE045
:10564000296A31432962F4E7296A28464908490052
:105650002962026A04218A430262EAE7296A28462B
:10566000042211432962016A31430162E1E7FFF735
:1056700043FCC11B4E48814201D90320F8BD286A72
:105680008007F4D50EE0FFF737FC074607E0FFF789
:1056900033FCC11B4648814201D90320F8BD286A6A
:1056A0008007F4D42078C00643D5606901280DD066
:1056B000401D28D0686B042108436863686B40086C
:1056C00040006863FFF718FC06462FE0686B042172
:1056D00008436863686B30436863FFF70DFC064658
:1056E00006E0FFF709FC801B642801D90320F8BD00
:1056F000686B8007F5D5686BF8218843A169C900FC
:105700000843686315E0686B042188436863686B2D
:10571000F8218843A169C9000843686309E0FFF7DD
:10572000EBFB801B642801D90320F8BD686B800760
:10573000F5D42078800647D568680007800F0328D5
:1057400015D068680007800F022804D16868C0037C
:10575000800F03280BD0E06900281BD0686B012163
:10576000090408436863FFF7C7FB06460EE0686B51
:10577000C00329D5E069012826D00120F8BDFFF734
:10578000BBFB801B642801D90320F8BD686BC003F4
:10579000F5D519E0686B0121090488436863FFF7B8
:1057A000ABFB06460DE00000001002400070004018
:1057B00088130000FFF7A0FB801B642801D9032099
:1057C000F8BD686BC003F5D4606A00284BD06968E7
:1057D0000907890F022948D001273F06022806D071
:1057E0002868B8432860FFF787FB044638E028683C
:1057F000B8432860FFF780FB064606E0FFF77CFB16
:10580000801B642801D90320F8BD28688001F5D4E5
:10581000E86A216B000900010843E862A16AE06AB6
:10582000084369687B22D203914308436860286873
:1058300038432860FFF760FB044606E0FFF75CFB97
:10584000001B642801D90320F8BD28688001F5D524
:1058500009E0FFF751FB001B642801D90320F8BDC4
:1058600028688001F5D40020F8BD0120F8BD00684B
:10587000503089000818006870470068503089006F
:10588000081802607047000010B50B4600684168B8
:105890000D480140080CD870CC04E40E5C708C06F6
:1058A000A40E9C700904490F1970002A0AD103F054
:1058B0003BFCD870587803F037FC5870987803F0A8
:1058C00033FC9870002010BD3FFFFF0010B50B4661
:1058D0000168896A5960006801680F4801408802C0
:1058E000800E18704C04640E5C704C06640E9C7044
:1058F000090C402421401972002A0AD103F014FC3B
:105900001870587803F010FC5870987803F00CFC6D
:105910009870002010BD00007F7F7F0070B50446A6
:10592000002C03D0607F002802D006E0012070BD6B
:1059300000202077204600F043F80220607721689D
:10594000CA204862216853204862204603F082FC46
:10595000FF21002805D020684162042060770120E3
:1059600070BD20688268154B1A408260206882688A
:10597000636865691A4323692B431A43826022686E
:10598000E06810612068026923891B041A430261E0
:105990002068C26880239A43C2602068026CDB02E0
:1059A0009A4302642068026CA3691A430264206867
:1059B000416201206077002070BD0000BFFF8FFFB3
:1059C00070470000F8B504460B46207F012806D03A
:1059D0000120207702206077002A02D008E0022010
:1059E000F8BD5878C10603D5EF2108400A30587039
:1059F000002A23D0587803F097FB987803F094FBA3
:105A0000D8789D7800040543587819780002490336
:105A1000084305432168CA20486221685320486230
:105A2000204603F017FC0026FF27002817D0206827
:105A300047620420607726770120F8BDD87803F00C
:105A40007BFB0504587803F077FB00020543987848
:105A500003F072FB0543187840030543DAE710486A
:105A60000540206845602068C16880229143C1607C
:105A70002068806880060BD4204600F08FF800284C
:105A800006D0206847620420607726770120F8BDA1
:105A9000206847620120607726770020F8BD00006B
:105AA0003FFFFF00F8B504460D46207F01280ED0C9
:105AB00001202077022060770026002A09D0206884
:105AC000806840061BD5287803F02EFB18E00220E2
:105AD000F8BD20688068400600D42E72287803F054
