:020000040800F2
:10000000008000202DE20008B9E2000801DC0008B1
:1000100000000000000000000000000000000000E0
:10002000000000000000000000000000C100010806
:10003000000000000000000079010108F5DB000865
:10004000B9E20008B9E20008B9E20008B9E2000824
:10005000B9E20008B9E20008B9E20008B9E2000814
:10006000B9E2000849DC000855DC000895DC00080E
:10007000B9E20008B9E20008B9E20008B9E20008F4
:10008000B9E20008B9E20008B9E20008B9E20008E4
:10009000B9E20008B9E20008B9E20008B9E20008D4
:1000A000B9E20008B9E20008B9E2000805DC00087E
:0C00B00015DC000825DC0008B9E200089F
:1000BC0010B5064C2378002B07D1054B002B02D032
:1000CC00044800E000BF0123237010BD200A00206B
:1000DC0000000000A8810108044B10B5002B03D0D0
:1000EC000349044800E000BF10BDC04600000000FA
:1000FC00240A0020A881010802780B78002A03D07A
:10010C00013001319A42F7D0D01A70470023C25CFB
:10011C000133002AFBD1581E7047000002B471460F
:10012C0049084900095C49008E4402BC7047C0462E
:10013C0003B47146490840004900095E49008E44E9
:10014C0003BC7047002243088B4274D303098B42D3
:10015C005FD3030A8B4244D3030B8B4228D3030C8B
:10016C008B420DD3FF22090212BA030C8B4202D32D
:10017C001212090265D0030B8B4219D300E0090A55
:10018C00C30B8B4201D3CB03C01A5241830B8B425E
:10019C0001D38B03C01A5241430B8B4201D34B0347
:1001AC00C01A5241030B8B4201D30B03C01A5241AC
:1001BC00C30A8B4201D3CB02C01A5241830A8B4231
:1001CC0001D38B02C01A5241430A8B4201D34B021A
:1001DC00C01A5241030A8B4201D30B02C01A52417E
:1001EC00CDD2C3098B4201D3CB01C01A5241830932
:1001FC008B4201D38B01C01A524143098B4201D36C
:10020C004B01C01A524103098B4201D30B01C01A96
:10021C005241C3088B4201D3CB00C01A5241830810
:10022C008B4201D38B00C01A524143088B4201D33D
:10023C004B00C01A5241411A00D20146524110469D
:10024C007047FFE701B5002000F0F0F802BDC04692
:10025C000029F7D076E7704703460B437FD4002282
:10026C0043088B4274D303098B425FD3030A8B423E
:10027C0044D3030B8B4228D3030C8B420DD3FF22A8
:10028C00090212BA030C8B4202D31212090265D076
:10029C00030B8B4219D300E0090AC30B8B4201D329
:1002AC00CB03C01A5241830B8B4201D38B03C01A70
:1002BC005241430B8B4201D34B03C01A5241030BE7
:1002CC008B4201D30B03C01A5241C30A8B4201D398
:1002DC00CB02C01A5241830A8B4201D38B02C01A43
:1002EC005241430A8B4201D34B02C01A5241030ABA
:1002FC008B4201D30B02C01A5241CDD2C3098B429F
:10030C0001D3CB01C01A524183098B4201D38B011B
:10031C00C01A524143098B4201D34B01C01A5241BE
:10032C0003098B4201D30B01C01A5241C3088B4203
:10033C0001D3CB00C01A524183088B4201D38B00EE
:10034C00C01A524143088B4201D34B00C01A524190
:10035C00411A00D201465241104670475DE0CA0F67
:10036C0000D04942031000D34042534000229C4627
:10037C0003098B422DD3030A8B4212D3FC22890131
:10038C0012BA030A8B420CD3890192118B4208D307
:10039C00890192118B4204D389013AD0921100E069
:1003AC008909C3098B4201D3CB01C01A524183097D
:1003BC008B4201D38B01C01A524143098B4201D3AA
:1003CC004B01C01A524103098B4201D30B01C01AD5
:1003DC005241C3088B4201D3CB00C01A524183084F
:1003EC008B4201D38B00C01A5241D9D243088B42A5
:1003FC0001D34B00C01A5241411A00D20146634648
:10040C0052415B10104601D34042002B00D54942AB
:10041C00704763465B1000D3404201B5002000F0EA
:10042C0005F802BD0029F8D016E770477047C046A2
:10043C008446101C62468C46191C634600E0C0467C
:10044C001FB501F07FFF002801D40021C8421FBD59
:10045C0010B501F0D7FE4042013010BD10B501F0CF
:10046C0071FF002801DB002010BD012010BDC0462B
:10047C0010B501F067FF002801DD002010BD012040
:10048C0010BDC04610B501F0F9FE002801DC0020BB
:10049C0010BD012010BDC04610B501F0EFFE0028C4
:1004AC0001DA002010BD012010BDC0468446081C96
:1004BC006146FFE71FB500F097FC002801D400212E
:1004CC00C8421FBD10B500F019FC4042013010BDF0
:1004DC0010B500F089FC002801DB002010BD0120C4
:1004EC0010BDC04610B500F07FFC002801DD0020D7
:1004FC0010BD012010BDC04610B500F027FC00282F
:10050C0001DC002010BD012010BDC04610B500F06C
:10051C001DFC002801DA002010BD012010BDC046D2
:10052C00002B11D1002A0FD1002900D1002802D0B4
:10053C000021C943081C07B4024802A140180290CC
:10054C0003BDC046E9FEFFFF03B4684601B502983F
:10055C0000F066F8019B9E4602B00CBC7047C0468A
:10056C00F0B5CE46474615042D0C2E0080B5070479
:10057C00140C3F0C9946030C7E435D436743634365
:10058C007F19340CE4199C46A54203D980235B02E5
:10059C009846C4444B4643435143250C36046544AA
:1005AC00360C2404A4195B19591820000CBC904675
:1005BC009946F0BD9E2110B5C905041CFFF7A6FF96
:1005CC00002803D1201C00F055FF10BD9E21201CDB
:1005DC00C90500F08BFD00F04DFF80231B069C46E7
:1005EC006044F2E770B500220C4B04000D00FFF7DD
:1005FC0053FF002804D12000290002F0E1FC70BD5B
:10060C00064B00222000290002F076F902F0D8FCFB
:10061C0080231B069C466044F1E7C0460000E04185
:10062C00F0B54F464646D646C0B5040082B00D0024
:10063C00914698468B422FD82CD04146484602F022
:10064C0055FE29000600200002F050FE331A9C468D
:10065C00203B9A4600D576E04B46524693401F000D
:10066C004B46624693401E00AF4228D825D05346D5
:10067C00A41BBD41002B00DA7BE00022002300927A
:10068C000193012352469340019301236246934008
:10069C00009318E08242D0D90022002300920193EB
:1006AC000A9B002B01D01C605D600098019902B080
:1006BC001CBC90469946A246F0BDA342D7D9002255
:1006CC000023009201936346002BE9D0FB07984668
:1006DC00414672080A437B0866460EE0AB4201D1E4
:1006EC00A2420CD8A41A9D41012024196D4100216D
:1006FC00013E24184D41002E06D0AB42EED9013EEE
:10070C0024196D41002EF8D1009801995346001917
:10071C006941002B23DB2B005246D3402A00644650
:10072C00E2401C0053461500002B2DDB26005746DB
:10073C00BE40330026006746BE403200801A994105
:10074C0000900191ACE7624620239B1A4A46DA409E
:10075C006146130042468A4017001F4380E76246F9
:10076C0020239B1A2A0066469A402300F340134329
:10077C00D4E76246202300219B1A002200910192AB
:10078C000122DA40019280E72023624626009B1A60
:10079C00DE402F00B0466646B74046463B0033432A
:1007AC00C8E7C046F8B54746CE4643025B0A44004C
:1007BC00C20F9C464800DD004B02240E5B0A000E63
:1007CC0080B5984626009146C90FDB00271A8A424D
:1007DC0029D0002F15DD00284AD1002B00D095E040
:1007EC00ED08FF2C00D188E06B025B0AE6B25B02DD
:1007FC00F605580A3043D20710430CBC9046994674
:10080C00F8BD002F00D087E0601CC0B2012800DCCE
:10081C00B6E0EE1A720100D5C5E0002E3DD10022E3
:10082C0000260023E3E7002F00DC96E000285DD0D3
:10083C00FF2C60D08022D20413431B2F00DDECE090
:10084C002022D21B18009340F8405A1E93410343B8
:10085C00ED186B017BD50134FF2C00D1B7E00122E0
:10086C0007262A406B089A4D1D4015432E4029E05F
:10087C00FF2CB5D08022D20413431B2F00DDB2E035
:10088C002022D21B19009340F9405A1E93410B436E
:10089C00ED1A6B015BD5AD01AE09300002F008FD1D
:1008AC0005388640844265DC041B3300202001346B
:1008BC00E340041BA640751EAE41334307261D00C2
:1008CC0000241E4001224B461A40002E04D00F2358
:1008DC002B40042B00D004356B0100D480E701348D
:1008EC00E6B2FF2C2FD1FF26002380E7002B52D13C
:1008FC00FF2C00D074E70A00ED08002DF3D0802304
:10090C00DB032B435B025B0AFF2670E7013F002FE2
:10091C00BED0FF2CB1D163E7002C47D0FF2869D0A3
:10092C008024E4047A4225431B2A00DDC5E02C0018
:10093C002026D440B21A95406A1E954125435D1B72
:10094C0004008946A5E7AB015B0A50E700240122AD
:10095C004B461A406B07BAD142E7002F3BD101340A
:10096C00E0B201284ADDFF2CBDD00726ED186D083A
:10097C002E40A7E70723574D241A35401E40A1E708
:10098C00002C1BD1002D6ED1002B00D19AE00A0057
:10099C001D003C0024E7013F002F00D158E7FF2C3D
:1009AC0000D04AE7A7E75E1B894676E7002D1CD1ED
:1009BC000A00FF281FD004001D0011E7002D5DD197
:1009CC00002B17D180230022DB03FF260FE70A0040
:1009DC00FF2600230BE7002C21D1002D66D1FF2828
:1009EC00E9D11D0087E7012352E77A1CA7D0FA430F
:1009FC00FF2899D10A001D00FF24F1E6002E21D119
:100A0C00002D4FD0002B4CD0ED186B019ED5314BE7
:100A1C0007362E4001241D4054E7012318E7FF2818
:100A2C00DFD08024E4047F4225431B2F4DDC20269D
:100A3C00F61B2C00B540FC406A1E95412543ED1871
:100A4C00040006E7002DCCD0002B00D153E7802109
:100A5C006046C903084203D04046084200D11D003D
:100A6C000121114047E7002B00D1B9E6EA1A5001E9
:100A7C0025D507265D1B2E40894623E7FF24002B36
:100A8C0000D1ADE680226046D203104204D040462D
:100A9C00104201D11D00894601224B46FF241A4009
:100AAC009EE62B00DD080A0000249DE67A1CC6D0C9
:100ABC00FF43FF28B9D11D001DE701253FE7151E97
:100ACC0000D044E70022002391E60125B7E7C04699
:100ADC00FFFFFF7DFFFFFFFBF8B557464E4645462F
:100AEC00DE464402E0B546008846640A360EC70F5F
:100AFC00002E63D0FF2E24D08023E400DB041C43A3
:100B0C00002399469B467F3E434642465D02D20FE8
:100B1C005B006D0A1B0E9046924665D0FF2B55D09C
:100B2C0080220021ED00D2047F3B1543F61A434688
:100B3C004A467B400F2A00D98DE06D4892008258BE
:100B4C009746002C54D108239946063BFF269B461A
:100B5C00DAE70025534602291BD0032900D1BFE058
:100B6C00012928D030007F30002820DD6A0704D00E
:100B7C000F222A40042A00D004352A0103D5300064
:100B8C005C4A80301540FE2803DCAC01640AC2B21A
:100B9C0001E0FF2200246402D205600ADB07104347
:100BAC0018433CBC90469946A246AB46F8BD012280
:100BBC00101A1B287CDD00220024ECE7002C1DD130
:100BCC0004239946033B00269B469DE7FF3E002DE0
:100BDC0020D1022143464A467B400A430F2AD8D8EB
:100BEC004548920082589746002D19D10121F1E712
:100BFC000C239946093BFF269B4685E7200002F013
:100C0C0057FB7626431F9C4000237642361A9946A2
:100C1C009B4679E74A4603231A439146032186E70C
:100C2C00280002F045FB431F36189D407636002104
:100C3C007DE780240023E403FF22ACE7002580231A
:100C4C00DB031C4228D01D4226D12B435C02640AD4
:100C5C004346FF229FE762016C01A24224D21B2172
:100C6C000025013E012710006D005200002801DB19
:100C7C00944201D8121B3D4301390029F3D11400D1
:100C8C00621E944125436DE7BA46594625005346EA
:100C9C00022900D061E77CE78023DB031C4364025C
:100CAC00640A3B00FF2276E7121B1A210125D9E7C3
:100CBC009E362A00B5402C00C240651EAC41144340
:100CCC00620704D00F222240042A00D004346201AF
:100CDC0003D4A401640A00225DE7012200245AE730
:100CEC008024E4032C436402640AFF2253E7C046C9
:100CFC00F4810108FFFFFFF73482010870B5420050
:100D0C004E024C0045026D0A120EC30F760A240ED9
:100D1C00C90FFF2A0FD0FF2C11D00120A24200D006
:100D2C0070BDB542FCD18B420DD0002AF8D1280001
:100D3C00451EA841F4E70120002DF1D1EBE701207D
:100D4C00002EEDD1E9E70020EAE7C04670B54A0075
:100D5C004E02450244006D0A240EC30F760A120E91
:100D6C00C90FFF2C15D0FF2A0ED0002C15D1002A4C
:100D7C0001D1002E1CD0002D14D08B4227D0022084
:100D8C00013B1840013870BD002EEED002204042CD
:100D9C00F9E7002DFAD1FF2A0ED0002A0ED1002E31
:100DAC00EDD00BE001230139994308000130EAE74B
:100DBC000020002DE7D0E2E7002EE7D18B42DED1F8
:100DCC00944205DD0221581E08400138DBE700245F
:100DDC00A24204DCB542D2D80020B542D3D2581E70
:100DEC00012398430130CEE730B5420044024D0256
:100DFC00C30F4800640A120E6D0A000EC90FFF2AB9
:100E0C0012D0FF280CD0002A12D1002819D1002DA5
:100E1C0017D1002C2BD00220013B1840013826E0C2
:100E2C00002DF0D0022022E0002CFBD1FF281FD097
:100E3C0000281FD1002D1DD10220013B1840013884
:100E4C0015E0002C0ED08B42E5D10022904204DC40
:100E5C00AC42E0D80020AC4209D2581E0123984382
:100E6C00013004E00123013999430800013030BD01
:100E7C00002DD7D18B42CED18242E7DD0221581E04
:100E8C0008400138F3E7C046F0B54E465746454694
:100E9C00DE46E0B543025B0A450083B00F1C994661
:100EAC002D0EC60F002D57D0FF2D24D08020DB0037
:100EBC00C0041843002381469A469B467F3D7C0222
:100ECC007A00FB0F640A120E984623D0FF2A4BD0EF
:100EDC00E30080240020E4047F3A1C43AD186B1C13
:100EEC0047460193534677403A000F2B48D87D492B
:100EFC009B00CB589F46002B00D085E008339A46C8
:100F0C00063B9B467C027A00FB0FFF25640A120EFF
:100F1C009846DBD1002C00D090E0524601231A43B6
:100F2C0092460120DBE74C4658461700022824D095
:100F3C00032800D1CFE00022002301284DD1580214
:100F4C00D205400AFF071043384303B03CBC90461F
:100F5C009946A246AB46F0BD002B5BD104239A46C2
:100F6C00033B00259B46AAE7FF35002C60D1524677
:100F7C0002231A4392460220B1E7FF220023DEE748
:100F8C004B461B0C9C464B462604360C18046146FB
:100F9C003300220C6446000C43434E4350435443ED
:100FAC0080191A0C1218964203D9802149028C46DA
:100FBC0064441B041B0C1004C01883015E1EB34157
:100FCC00800E1843130C1B199B0103431C002301B7
:100FDC0079D5012362081C401443019A7F32002A00
:100FEC004DDD630704D00F232340042B00D00434C1
:100FFC00230103D53C4B019A1C408032FE2ABCDCF9
:10100C00A3015B0AD2B29AE70C239A46093BFF254F
:10101C009B4654E7180002F04BF94A46431F7625CD
:10102C009A4000236D4291462D1A9A469B4646E7FC
:10103C00524603231A439246032050E7200002F045
:10104C0037F9431F2D1A9C40763D002047E780233B
:10105C000027DB03FF2272E7424666E74C4632006C
:10106C00584662E780234A46DB031A4222D01C42D0
:10107C0020D123435B025B0A4746FF225FE7012333
:10108C009A1A1B2A21DC23000199D3409E318C40F3
:10109C001A0023005C1EA34113435A0704D00F22ED
:1010AC001A40042A00D004335A0111D49B015B0A64
:1010BC00002244E780234A46DB0313435B025B0AAE
:1010CC003700FF223BE7019587E70022002336E734
:1010DC000122002333E78023DB0323435B025B0AFB
:1010EC00FF222CE774820108FFFFFFF7F8B5474693
:1010FC00CE464400C20F80B547024802400A8446DF
:10110C00664648007F0A240EF60025009046FB0038
:10111C00000EC90FB146FF2800D185E001267140B1
:10112C00261A914257D0002E43DD002800D07FE0D4
:10113C004946002900D1AAE0013E002E00D0F7E07C
:10114C005B1A5A0100D48BE09B019C09200002F031
:10115C00AFF805388440854200DDD3E0451B230001
:10116C0020200135EB40451BAC40621E94412343CB
:10117C00072400251C40012241460A40002C04D0C3
:10118C000F211940042900D00433590100D480E008
:10119C000135ECB2FF2D00D0A3E0FF2400235B024D
:1011AC00E405580AD207204310430CBC90469946DC
:1011BC00F8BD002E74D1601CC0B2012800DCA7E081
:1011CC004A469C1A620100D5B6E0002CBED1002222
:1011DC0000240023E3E7002E00DC85E0002846D045
:1011EC00FF2C49D080224846D2041043814601226C
:1011FC001B2E09DC20204C46801B84404A462000D4
:10120C00F240441EA04102439B185A0128D50135D7
:10121C00FF2D00D1A8E00122072494491A405B0855
:10122C000B4013431C40A6E7002E00D078E775E76F
:10123C00FF2C54D080224946D20411438946012206
:10124C001B2E09DC20214846891B88404A46010098
:10125C00F240481E81410A439B1A5A0100D573E79C
:10126C00012241460A40590700D089E711E048465F
:10127C00002858D1FF2C0CD1DB08002B00D18CE7B7
:10128C008020C00303435B025B0AFF2487E7FF2C2B
:10129C0025D0DB08FF2DF0D05B025B0AECB27EE7B9
:1012AC00002C4DD0FF2818D08024E4047242234334
:1012BC001B2A00DDC4E01C002025D440AA1A934050
:1012CC005A1E934123434A460500D31A884638E7F1
:1012DC00721CF8D0F243FF28EAD10A004B46FF25D6
:1012EC00D7E79B015B0A5AE7002E41D1651CE9B296
:1012FC00012945DDFF2D00D14FE707244B445B0846
:10130C001C4038E707225A4B2D1A2340144032E771
:10131C00002C1DD1002B7AD14B46002B00D191E033
:10132C000A000025B5E7013E002E19D14B446CE7AD
:10133C00FF2C84D1FF25ACE74A468846D41A05E732
:10134C00002BC5D10A00FF28C8D005004B46A0E7EA
:10135C00002B49D14B46002B77D00A00FF2598E78C
:10136C00FF2C00D043E787E70A00FF24002316E791
:10137C00002C15D1002B57D1FF28E6D14B467BE72B
:10138C00002C20D1002B57D04946002953D04B4478
:10139C005A0168D50724364A1C4001251340EAE659
:1013AC00FF28EBD08022D204764213431B2E53DC51
:1013BC002025AD1B1A00AB40F2405C1EA341134329
:1013CC004B44050021E7002BD8D04946002900D119
:1013DC0052E78021C9030F4200D14DE76046084215
:1013EC0000D049E74B4647E74846FF25002800D187
:1013FC004FE78022D203174204D06046104201D13D
:10140C004B46884601224146FF250A4041E74846A3
:10141C0000281FD01A1A500120D54A460724D31A87
:10142C001C4088460025A6E6741CC9D0F643FF284C
:10143C00BCD14B4620E799464B460025DB082BE7F1
:10144C00012340E700220023A9E680230022DB03CE
:10145C00FF24A4E600251CE70123B1E7002AF1D004
:10146C0013000025FCE60025FAE6C046FFFFFF7DD1
:10147C00FFFFFFFB41024200C30F490A120E00207E
:10148C007E2A0DD99D2A0CD8802000040143952A70
:10149C000ADC9620821AD1404842002B00D1080069
:1014AC007047034A9818FBE7963A9140F4E7C04618
:1014BC00FFFFFF7F70B500283DD0C317C5185D40F6
:1014CC00C40F280001F0F4FE9E22121A962A07DCA3
:1014DC00D2B2082833DD083885406802400A23E080
:1014EC00992A0BDD052329001B1AD94003001B3355
:1014FC009D402B005D1EAB4119430D00052801DDFD
:10150C00431F9D402B000F490B406E0709D00F263F
:10151C003540042D05D004335D0102D59F220B40CC
:10152C00121A9B01580AD2B24002D205400AE407B3
:10153C001043204370BD002400220020F4E7680211
:10154C00400AF1E7FFFFFFFB70B5041E34D001F039
:10155C00AFFE9E22121A962A07DCD2B208282EDD84
:10156C00083884406002400A21E0992A09DD030012
:10157C0021001B3399404B1E994105231B1ADC405B
:10158C000C43052801DD431F9C4023000D490B40F3
:10159C00650709D00F252C40042C05D004335C01C1
:1015AC0002D59F220B40121A9B01580AD2B240025C
:1015BC00D205400A104370BD00220020F7E76002FC
:1015CC00400AF4E7FFFFFFFBF0B54F464646D64610
:1015DC000C000903C0B5490A470F5E0039431F03CD
:1015EC00DB0F9C4665007B0A570F1F436D0DE40F04
:1015FC00760DA146C000B846D200AB1B64457BD02B
:10160C00002B5FDD002E00D0A4E03E00164300D17D
:10161C0012E15E1E002E00D09EE1871A4346B842AE
:10162C0080410125C91A4042091A0B0200D431E14C
:10163C0049024E0A002E00D16EE1300001F038FE56
:10164C000300083B1F2B00DD61E120223900D21A78
:10165C009E40D1409F400E439D4200DD51E15D1BF9
:10166C006B1C1F2B00DD7CE12021C91A3D003000D2
:10167C008F408840DD40791E8F413100072228437E
:10168C00D940002507433A40002A09D00F233B409C
:10169C00042B05D03B1DBB42BF417F42C9191F0023
:1016AC000B0200D426E26A1CC64B55056D0D9A42FE
:1016BC0000D106E1C44AFF080A40530752023B43DB
:1016CC00120B8EE0002B00D0B8E06B1C5B055B0DA1
:1016DC00012B00DC30E1871A4346B842B641CB1AE5
:1016EC0076429E1B330200D54CE13B003343A1D123
:1016FC0000220024002570E0002B00DCE5E0002E29
:10170C0000D183E0AF4EB54260D08026360437431B
:10171C00B846382B00DC3EE1434613431F007A1ECB
:10172C0097413F1887428041404209180B0200D470
:10173C00B0E0A44B01359D4200D1C3E0A24A7B0826
:10174C000A4001210F401F435108D30707221F43B2
:10175C003A4099E79B4EB54238D080263604374341
:10176C00B846382B00DDDCE01F2B00DC30E11E001E
:10177C004746203EF740BC46202B04D04026F31AA7
:10178C0046469E403243170063467A1E97411F43DC
:10179C00CCE0002B00D104E24346134300D159E1C5
:1017AC004B07C00818438023C9081B03194208D0F3
:1017BC004546ED081D4204D14346D008590708435D
:1017CC002900420FC9007F4D1143C0004B07CA08C6
:1017DC007C49C00803438D4268D012036D05120B7F
:1017EC006D0D002112031800130B0A0D12051A437C
:1017FC00764B2D0513402B435B00E4075B0823431A
:10180C0019001CBC90469946A246F0BD3E001643FA
:10181C0012D05E1E002E00D000E187188742804156
:10182C0041444042091801250B0233D5022585E7B6
:10183C0064463300414610001D00C7E7002D00D060
:10184C00DAE00C000443F3D05C1C00D19FE15D4C4A
:10185C00A64200D12FE1DB43382B00DD66E11F2BC4
:10186C0000DD83E120240500E41A0F00DD40D9409F
:10187C00A0404346A7405B1A441EA04198462F4304
:10188C003843171ABA42924143465242991A644657
:10189C003500CAE607223A40002A00D0F6E64B078C
:1018AC00CA084849FF083B438D4296D119001143A1
:1018BC0000D19EE1802109030A431203120B414D12
:1018CC008FE71500002200238BE7002B00D0C7E028
:1018DC006B1C5F057F0D012F00DCF1E0394DAB4235
:1018EC0000D1B9E085180A00854289414244494239
:1018FC0051180722CF076D082F4349083A401D00A5
:10190C00C2E607223049ED1A31403A40BCE63E00AF
:10191C002838864000279FE6380001F0C9FC2030AB
:10192C008EE6434613431F007A1E9741C71BB842ED
:10193C0080414042091A78E60E003B0006431343EF
:10194C00002D61D1002E00D0F4E0002B00D11BE162
:10195C0064463900100039E71A4FBB427AD0330085
:10196C00FFE630001F3DE840202B03D04021CB1A6E
:10197C009E4037437B1E9F41072207433A4000217C
:10198C00002589E7171A4346BA42B641591A7642DE
:10199C008E1B64464EE61F2B00DDADE0202647462D
:1019AC00F61AB740B9461700B246DF404E463E43E2
:1019BC0037005646B240561EB24117434246DA40F3
:1019CC008918AEE6FF070000FFFF7FFFFFFF0F80C7
:1019DC0020264746F61AB740B9461700B246DF40F4
:1019EC004E463E4337005646B240561EB241174350
:1019FC004246DA40891A99E77F4CA6425BD0802494
:101A0C0024045B42214327E7002E0CD1002B00D18C
:101A1C00CBE0644639001000774DD7E6764FBB42D9
:101A2C0018D0330075E6002B14D04B07C0081843B0
:101A3C008023C9081B03194207D0FC081C4204D19F
:101A4C007907D0080843E14621004C46420FC900F3
:101A5C001143C000684DB9E61D0000220023C0E60A
:101A6C00002D5BD10D00054300D1E2E65D1C00D1D9
:101A7C00B0E0614DAE421FD0DB43382B71DC1F2B25
:101A8C0000DD96E020250F00ED1AAF40B9460700A7
:101A9C00AA46DF404D463D432F005546A840D9404D
:101AAC00451EA84188440743BF18974292415142B2
:101ABC00414435003AE6644635004146100085E65F
:101ACC000B000343002D00D063E6002BF5D04346FA
:101ADC00134300D17AE6871887428041072241449C
:101AEC00404209183A400B0200D4D5E6434B01356D
:101AFC001940C9E5380069E61E004746203EF7400C
:101B0C00BC46202B04D04026F31A46469E40324356
:101B1C00170063467A1E97411F4302E6364DAE42CC
:101B2C00CAD080252D045B422943A6E70843411EF9
:101B3C008841A6E6002B00D148E6871A4346B842F6
:101B4C00B641CB1A76429E1B33024BD5171A43462D
:101B5C00BA429241591A5242891A072264463A40B3
:101B6C0092E501430F00791E8F419DE71C000F0089
:101B7C00203CE740202B03D04024E31A9940084333
:101B8C00411E884138437CE60022002425E6171AC2
:101B9C004346BA429241591A5242891A6446350058
:101BAC0043E541461000144D10E680220024120338
:101BBC0080E61D000F00203DEF40BC46202B03D0DB
:101BCC004025EB1A9940084307006346781E87416D
:101BDC001F4369E7871897429B4141445B42C918F0
:101BEC003500A3E53B003343CED0072231003A4009
:101BFC0052E600231A00F4E5FF070000FFFF7FFF09
:101C0C00F0B55746DE464E464546E0B583460700DE
:101C1C000E03480085B092461C00360B400DCD0FCC
:101C2C00002800D19DE0954B984239D08023F600D6
:101C3C001B041E43924A7B0F334399469446030080
:101C4C006344009300230026FF00029323031B0B25
:101C5C0098466300E40F52465B0D019400D1B3E04B
:101C6C0086498B4200D19EE04246D100802212046C
:101C7C000A435146490F11438B46814952468C46C3
:101C8C0000996344CB1A0021D20000932B006340CF
:101C9C009A460F2E00D905E17A4BB6009B599F4608
:101CAC005B463343994600D0B8E002230826002750
:101CBC0000900293CAE7CB463A0002990195019B2A
:101CCC009A46022927D0032900D180E2012944D069
:101CDC006D49009B8C4663441C00002C38DD530777
:101CEC0000D013E2D2085B46DB0109D55946674B9D
:101CFC0019408B468021C9008C46009B63441C0014
:101D0C00634B9C4207DC5B4664055F075B02174331
:101D1C001B0B620D02E000230027584A00211B0315
:101D2C001C0B0B0D1B05234314055A4A380013409A
:101D3C001C4353466400DB0764081C43210005B0B8
:101D4C003CBC90469946A246AB46F0BD012252429D
:101D5C0001231B1B382B00DCADE1002200230027E4
:101D6C00DCE75B46334399465ED0002E00D18AE116
:101D7C00300001F09DFA03000B3B1C2B00DD7BE1D6
:101D8C001D22D31A5A460100DA4008398E4013003E
:101D9C005F46334399468F403F4B00261B1A0093F6
:101DAC000023029352E7414653460B433B499B4663
:101DBC008C46009B634400935B46002B3BD1022373
:101DCC0000221E43022161E7434613439B4637D052
:101DDC004346002B00D162E1404601F069FA030052
:101DEC000B3B1C2B00DD53E102004146083A9140AD
:101DFC0088461D21CB1A5146D9400B0041460B4356
:101E0C009B46534693401A00009B25499C466044D0
:101E1C0003008C4663440093002137E70323B1464B
:101E2C0000900C26029311E7002300930133042643
:101E3C00002702930AE70323C3461E43032125E729
:101E4C0001331E430022012120E700239A46802300
:101E5C0000271B03094A61E7802349461B031942EB
:101E6C0000D1E2E05946194200D0DEE00B431B03DF
:101E7C0017001B0BA246014A50E7C046FF070000A3
:101E8C0001FCFFFFB4820108FF030000FFFFFFFE0F
:101E9C00FE070000FFFF0F800DFCFFFF01F8FFFFA6
:101EAC00F3030000D94500D9CBE000D1C6E03C00DB
:101EBC0048460027009B013B00935B46160E1B0215
:101ECC001E431302984633041B0C9946310C0191A6
:101EDC00FEF7BEF94A4642430B04210C0500194398
:101EEC008A4207D98919013D8E4203D88A4201D909
:101EFC00851E8919881A0199FEF7AAF909048C46DE
:101F0C004A46210464464243090C030021438A4299
:101F1C0004D98919013B8E4200D8F1E02D041D43F0
:101F2C00AB464346891A4246280C12041D0C5B46EC
:101F3C00140C22001B041B0C5A4303946B434443A4
:101F4C00029568431B19150CEB189C4203D980248D
:101F5C006402A44660441C0C15041B042D0C2018B0
:101F6C005D19814277D373D00C1AA24A7D1BAF4204
:101F7C00BF419446009B7F426344E01B1C00864299
:101F8C0000D1DBE00199FEF763F94A4642430B04AA
:101F9C00290C070019438A4207D98919013F8E423F
:101FAC0003D88A4201D9871E8919881A0199FEF72C
:101FBC004FF909044A46894629044D464243090C07
:101FCC00030029438A4207D98919013B8E4203D861
:101FDC008A4201D9831E89193F04891A3A00039F4A
:101FEC001A43380013041B0C584381460298150CF5
:101FFC006F43434345434846000C8446DB19634416
:10200C009F4203D9802040028446654448461F0CF9
:10201C0000041B04000C7D191818A94200D284E09E
:10202C0000D17FE001231A4357E680234A461B0365
:10203C0013431B031B0BAA466F4A6FE6BA4200D927
:10204C0035E74B46DC0758087B081C43FF0734E791
:10205C000024AF4289D247444745A4415B466442C1
:10206C00A4196418013BA6421ED2A0426DD800D11F
:10207C00B6E0241A9B4678E703005A46283B9A4060
:10208C000027914688E6584601F012F9203072E696
:10209C0003005246283B9A4093460022B4E6504631
:1020AC0001F006F920309AE6A642E2D1B845DCD917
:1020BC00341A9B4659E71F2B65DC504C0099A446FB
:1020CC005C46614408008C4011008240D940501E8F
:1020DC0082410C4314435A46DA401300620709D07C
:1020EC000F222240042A05D02200141D944289415B
:1020FC0049425B181A0262D50122002300270DE623
:10210C008A4200D80AE7831E891907E70F23134078
:10211C00042B00D1E6E5171D9742924153429B4494
:10212C00FA08E0E5002800D1D7E57118531EB1423A
:10213C0027D3A94215D358D01A0073E7002B00DC23
:10214C0004E6012300229B44CDE502234744474586
:10215C0089415B429C46494289190C19E344241A73
:10216C0003E743465F0047459B41B8465B429E19D7
:10217C00023A8919A94200D054E7404500D051E7F2
:10218C00ABE51A00F6E71F215F4649420C1BE740FE
:10219C00202B07D01A49009B8C46634418005B46E1
:1021AC0083401A43501E82413A43072700231740AD
:1021BC0009D00F21002311401400042995D12200CD
:1021CC005F075B021B0BD20817430022A6E5802396
:1021DC0059461B030B431B0317001B0B064A9DE5BB
:1021EC00BD42B2D89B460024BFE68045B9D31A0045
:1021FC00C3E7C046FF030000FF0700001E040000F9
:10220C003E040000F0B54F464646D6468446C0B55F
:10221C008046194E18030F034D00000B5C008246DC
:10222C003F0B6D0DC90F9146640DDB0F0120B542BC
:10223C000AD0B44203D0A54201D157450CD01CBCE6
:10224C0090469946A246F0BD66463E43F7D1AC4255
:10225C00F5D154461443F2D10120C845EFD199422F
:10226C0007D0002DEBD163461F433800471EB84101
:10227C00E5E70020E3E7C046FF070000F0B54F4656
:10228C004646D6464D00C0B50E03C90F8A462C49AA
:10229C001F035C008046360B6D0D91463F0B640DA1
:1022AC00DB0F8D421ED08C4216D0002D1ED1304338
:1022BC008446002C01D13A4323D06246002A1AD01E
:1022CC009A4529D0514602200139084001381CBCDE
:1022DC0090469946A246F0BD39001143E5D0022044
:1022EC004042F4E73043FAD1AC420FD0002C0FD16E
:1022FC003A43E7D00CE00122013B93431800013034
:10230C00E5E763460020002BE1D0DBE73A43E6D15A
:10231C009A45D7D1A542D5DCA54205DBBE42D1D822
:10232C0008D00020BE42D2D2504601230138984337
:10233C000130CCE7C845C5D80020C845F4D3C6E762
:10234C00FF070000F0B54F464646D6464D00C0B5D7
:10235C000E03C90F8A462E491F035C008046360BBC
:10236C006D0D91463F0B640DDB0F8D4218D08C42E6
:10237C0011D0002D18D130438446002C1ED13A4385
:10238C001CD163460020002B30D05146022001396D
:10239C00084001382AE039001143EAD0022025E038
:1023AC003043FBD1AC4226D0002C26D13A4324D169
:1023BC005146022001390840013817E06246002AD4
:1023CC000FD09A45E1D1A54205DBBE42DDD819D02C
:1023DC000020BE420AD250460123013898430130F6
:1023EC0004E00122013B9343180001301CBC9046D1
:1023FC009946A246F0BD3A43D0D19A45C5D1A542E3
:10240C00C3DCE0E7C845C0D80020C845E3D3EDE7FE
:10241C00FF070000F0B55746DE464E464546E0B590
:10242C00834606000F03480087B092461D003F0B01
:10243C00400DCC0F002800D16FE0DE4B984238D015
:10244C008023FF001B041F43730F3B430193DA4BA4
:10245C000027994600239B46F60081442B03690014
:10246C001B0B52469846490DED0F002900D185E013
:10247C00D04B994200D173E04346DA0080231B0411
:10248C0013435246CC48520F844613435246002005
:10249C006144D20089442100694000918C4601219D
:1024AC0049448A460F2F00D990E0C449BF00CF5948
:1024BC00BF465B463B43019300D06AE102230827E9
:1024CC00002681469B46C9E732005846019B61466F
:1024DC000091022800D175E0032800D1FEE101280B
:1024EC0000D02CE100230027002600253F032A0DF5
:1024FC003F0BB34812053A4302401B051343009AA5
:10250C005B00D1075B080B433000190007B03CBCE3
:10251C0090469946A246AB46F0BD5B463B430193C1
:10252C0000D12FE1002F00D1A5E1380000F0C0FE52
:10253C0003000B3B1C2B00DD96E11D22D31A5A46DF
:10254C000100DA405E4608398F4013008E403B4351
:10255C0001939C4B00271B1A994600239B467DE751
:10256C00414653460B4393498C46E144002B00D023
:10257C001AE102220220174300228CE7134300D1F8
:10258C000DE14346002B00D181E1404600F090FE66
:10259C0002000B3A1C2A00DD72E1010043460839A7
:1025AC008B4098461D239A1A5346D3401A00434633
:1025BC00134352468A404946081A82498946814447
:1025CC00002068E77B4B002700268EE7140C1204D2
:1025DC00120C1100370C3604350C794328008C464C
:1025EC002E0060436044834656432100300C8046E5
:1025FC005846794340440291844506D98846802147
:10260C0049028C46E044414602913604010C360CDA
:10261C0000048B4681191E0C1B041B0C0391190022
:10262C0079438C46280075436544A8465843050CED
:10263C0045447743A94203D9802149028C4667441B
:10264C00290C8C4639000004000C2D042D18614413
:10265C00AB4405915946049101990F043F0C080CA9
:10266C00390051434243904602008C46090C8B467C
:10267C0062437C4344445C44A04503D98021490215
:10268C0088464244210C884661460904090C8C4654
:10269C0039005943434370437E430F0CF61824040E
:1026AC00BE19644442448C46B34203D980235B0276
:1026BC0098464044029B61469846049B3704434429
:1026CC009B46AB45AD416B420D0405992D0C8C46D8
:1026DC007F196744FD18A8465D462D19A542A441F3
:1026EC0093466442A446C344DC448F42BF419845A0
:1026FC009B4193459241A445A4415B427F421F43B9
:10270C00360C52426442BF192243BF186246381835
:10271C004302D20D039913436A020A43501E8241AD
:10272C006146ED0D2A434E023243D90100D4B3E089
:10273C000126500832400243DE0732435B08224C2C
:10274C005444002C62DD510709D00F20104004289E
:10275C0005D0101D9042924152429B180200D901A3
:10276C0004D580241948E40003405444184884429A
:10277C0000DD27E75E075B02D2081F0B63051643DB
:10278C005B0DB2E6002399460133042700269B46D5
:10279C0064E60323019781460C279B465EE60122E3
:1027AC0001201743002276E6032303201F434346F0
:1027BC0071E6C046FF07000001FCFFFFF482010830
:1027CC00FFFF0F800DFCFFFFFF030000FFFFFFFE6C
:1027DC00FE0700000023802700933F030026434B95
:1027EC0083E6019B3200A446584670E6AC466EE682
:1027FC00802701993F0339422DD03B422BD11F43F7
:10280C003F033F0B00951600384B6EE601252D1B40
:10281C00382D00DD66E61F2D40DC35481C00504489
:10282C00160082408440EE40501E824134431443D3
:10283C00EB40620709D00F222240042A05D0220067
:10284C00141D9442804140421B181A023ED50123AC
:10285C000027002649E68027019B3F031F433F03C7
:10286C003F0B0094214B40E603005A46283B9A400C
:10287C00002601926DE6584600F01AFD203057E60E
:10288C0003005246283B9A401300002293E6504620
:10289C0000F00EFD20307BE6CA4650E71F201E00DC
:1028AC004042041BE640202D03D0124C5444A3405C
:1028BC001A43501E8241324307260027164009D086
:1028CC000F200023104014000428B9D122005E0709
:1028DC005B021F0BD2081643002306E680273F033A
:1028EC001F433F033F0B1600004BFEE5FF070000A4
:1028FC001E0400003E040000F8B557464E464546FF
:10290C00DE460C000903E0B5490A460F5F0031436F
:10291C001E03DB0F760A9B46530F3343C84E6500EC
:10292C00C000E40FD2006D0DA24681467F0D9C467F
:10293C009046B74200D1B9E05B46012673409B46F6
:10294C00EE1BA34500D183E0002E63DD002F00D0E9
:10295C00B1E06346134300D123E1731E002B00D07A
:10296C00BAE1861A6346B04280410125C91A404239
:10297C00091A0B0200D447E149024B0A9846434618
:10298C00002B00D189E1404600F092FC0300083B8B
:10299C001F2B00DD7CE120223000D21A4146D040B2
:1029AC00994002009E400A439D4200DD6AE15D1B96
:1029BC006B1C1F2B00DD94E1202110003500C91A7F
:1029CC008E40DA408840DD40711E8E411100072296
:1029DC002843002506433240002A09D00F233340F8
:1029EC00042B05D0331DB342B641764289191E0023
:1029FC000B0200D43DE26A1C914B55056D0D9A42B9
:102A0C0000D119E18F4AF6080A40570752023743A2
:102A1C00120B9BE0002E00D0C5E06E1C7605760DE7
:102A2C00012E00DC48E16746861ACB1BB042BF4141
:102A3C007F42B8461F004346FF1A3B00B8461B02B4
:102A4C0000D55FE137439AD100220024002579E0BC
:102A5C00002E00DCFAE0002F00D18DE0784B9D4277
:102A6C0067D0802367461B041F43BC46382E00DC0E
:102A7C0052E1634613435A1E93411E18864280410D
:102A8C00404209180B0200D4BEE06D4B01359D424B
:102A9C0000D1D2E06B4A73080A4001210E401E435C
:102AAC005108D30707221E43324095E71E001643F8
:102ABC0000D045E740E7624B9D423AD08023674601
:102ACC001B041F43BC46382E00DDEBE01F2E00DC40
:102ADC003AE133006746203BDF403B00202E05D017
:102AEC004027BF1B6646BE40324390464646721E88
:102AFC0096413343DAE0002B00D114E263461343D2
:102B0C0000D168E180234E07C008C9081B030643A7
:102B1C00194208D06046C008184204D1634601002F
:102B2C00D2085E071643F3009946C900720F444D54
:102B3C0011434B46DE08424B4F073743CA089D42B0
:102B4C0000D16EE012036D05120B6D0D0021120306
:102B5C00130B0A0D12051A433B4B2D0513402B4347
:102B6C005B00E4075B082343380019003CBC90462B
:102B7C009946A246AB46F8BD6346134311D0731E6B
:102B8C00002B00D007E18618864280416144404208
:102B9C00091801250B0237D502257BE73E0061465B
:102BAC0091463500C5E75C46002D00D0E1E00B00F6
:102BBC000343F3D0731C00D1ACE1214B9F4200D1F5
:102BCC003AE1F343382B00DD6FE11F2B00DD8CE184
:102BDC0020250E00ED1AAE40B0460600AA46DE4097
:102BEC00454635432E005546D940A8406346451E00
:102BFC00A8415B1A9C463043161AB2429241634676
:102C0C005242991A3D00B4E607223240002A00D005
:102C1C00E4E60B4BF6084F073743CA089D4200D039
:102C2C0090E73B00134300D1A6E180231B031A431A
:102C3C001203120B024D89E715000022002785E7CD
:102C4C00FF070000FFFF7FFFFFFF0F80002E00D06B
:102C5C00C7E06B1C5E05760D012E00DCF0E0C84D64
:102C6C00AB4200D1B9E085180A0085428941624423
:102C7C00494251180722CE076D082E4349083240AD
:102C8C001D00A9E6BF49ED1A114007223240A3E608
:102C9C00320028388240002686E6300000F008FB1F
:102CAC00203073E6634613435A1E9341C61AB04252
:102CBC0080414042091A5CE60E0067460643174302
:102CCC00002D5ED1002E00D0F3E0002F00D11EE1CC
:102CDC005C46614691462CE7A94FBE427BD01E0054
:102CEC00F1E610001F3DE840202B03D04021CB1A09
:102CFC009A401643731E9E41072206433240002120
:102D0C00002583E7161A6346B2428041591A4042A5
:102D1C000B1A98465C4632E61F2E00DDABE02027EE
:102D2C00BB1B9A4663465746BB40994613004F4619
:102D3C00F3401F433B005746BA40571EBA4113435A
:102D4C006246F240891898E62027BB1B9A466346D8
:102D5C005746BB40994613004F46F3401F433B0078
:102D6C005746BA40571EBA4113436246F240891A7D
:102D7C009CE7834B9F425FD080252D0473422943EF
:102D8C0020E7002E0CD1002F00D1D0E05C4661462C
:102D9C0091467B4DCDE67A4FBE421CD01E0065E6B7
:102DAC00002F18D0C0084E0706438020C908000326
:102DBC00014208D06346DC08044204D12100DA4603
:102DCC00D2085E071643F300994601245346C90006
:102DDC00720F11431C406A4DABE61D000022002708
:102DEC00B4E6002D59D10B00034300D1D6E6731C79
:102DFC0000D1B2E0624B9F421ED0F343382B6FDC04
:102E0C001F2B00DD97E020250E00ED1AAE40B046DA
:102E1C000600AA46DE40454635432E005546A840DE
:102E2C00D940451EA8418C440643B618964292419F
:102E3C00514261443D0025E63D006146914678E6ED
:102E4C000B000343002D00D055E6002BF5D0634654
:102E5C00134300D16DE6861886428041614440429E
:102E6C00091800220B0200D4D0E6464B013519405C
:102E7C00B2E5B1465DE633006746203BDF403B00E0
:102E8C00202E05D04027BF1B6646BE4032439046DD
:102E9C004646721E96413343EFE5394B9F42CBD0E9
:102EAC0080252D0473422943A8E70843411E88411D
:102EBC00A2E6002F00D13CE66346861ACF1AB04238
:102ECC009B415B42FB1A98461B024ED5161A634671
:102EDC00B2429241591A5242891A5C4600227BE551
:102EEC0001430E00711E8E419FE71D000E00203D18
:102EFC00EE40B046202B04D04025EB1A99400843F5
:102F0C00814648464346411E8841184374E60022D8
:102F1C00002417E6161A6346B2429241591A5242DD
:102F2C00891A3D0025E561469146154D01E6802242
:102F3C000024120379E61D000E00203DEE40B04641
:102F4C00202B04D04025EB1A9940084381464E466D
:102F5C004346711E8E411E4367E7861896429B417D
:102F6C0061445B42C9183D008CE547463743CED0DF
:102F7C0007224146324049E600273A00E6E5C046C2
:102F8C00FF070000FFFF7FFF70B50C4E0D031C0305
:102F9C0049005B002D0B490D240B5B0DB14208D091
:102FAC00064900208B4203D114432000441EA0414B
:102FBC0070BD05430120002DFAD1F1E7FF07000099
:102FCC0030B5144D0A034B00120B5B0DC90F0024D6
:102FDC00AB4211DD104CA34210DC8024640322436D
:102FEC000E4CE41A1F2C0CDD0D48C31ADA401300EA
:102FFC005C42002900D11C00200030BD094BCC18CC
:10300C00FAE7094DE040AC4663449A401300034391
:10301C00EEE7C046FE0300001D0400003304000070
:10302C0013040000FFFFFF7FEDFBFFFF70B50028CE
:10303C002DD0C317C5185D40C40F280000F038F917
:10304C00154B1B1A5B055B0D0A2815DD0B388540EB
:10305C0000222D032D0B002110002D030A0D2D0B2A
:10306C0012052A430D4D1B052A4013435B00E40750
:10307C005B082343190070BD0200290015329140F2
:10308C000A000B21081AC5402D032D0BE3E7002481
:10309C00002300250022DEE71E040000FFFF0F8046
:1030AC0010B5041E25D000F003F9144B1B1A5B0558
:1030BC005B0D0A2812DD0B38844000222403240BFC
:1030CC000021100024030A0D240B120522430C4C82
:1030DC001B05224013435B00590810BD0200210060
:1030EC00153291400A000B21081AC4402403240B0A
:1030FC00E6E7002300240022E2E7C0461E0400009D
:10310C00FFFF0F804100090E4B1C70B5DBB246026D
:10311C00750AC40F012B14DDE0239B006D07360BE1
:10312C00CB1800210A0D280012051C4D32435B05FB
:10313C002A405B0813435B00E4075B082343190038
:10314C0070BD002914D1002D1ED0280000F0B0F85D
:10315C000A281CDC0B232A001B1ADA400300153347
:10316C009D400F4B12031B1A5B05160B5B0DD8E72A
:10317C00002D06D0320B802636036D071643094B03
:10318C00CFE7084B0026CCE700230026C9E7030055
:10319C002A000B3B9A400025E3E7C046FFFF0F8057
:1031AC0089030000FF070000F0B54C00640D0B0311
:1031BC00621C5B0A460F5205C90F1E43C500520D17
:1031CC00012A29DD374BE718FE2F1CDC002F3BDDD5
:1031DC008001431E98410722F3006D0F03432B43DC
:1031EC001A40002A04D00F221A40042A00D00433BB
:1031FC008022D2041A4024D00137FAB2FF2F02D019
:10320C009B01580A01E0FF2200204002D205400A2F
:10321C00C90710430843F0BD3543002C04D1002DE1
:10322C000AD100220020F0E7002DECD08020C00352
:10323C003043FF22E9E7002400235B02580AE2B284
:10324C00E3E7DB083C00F8E73B001733F3DB8023B4
:10325C001B0433431E26F61B1F2E14DD0222524282
:10326C00D71B1A00FA401700202E04D00E4A9446A1
:10327C006444A3401D432B005D1EAB4107223B431E
:10328C001A400027ADE7094A2800A2189540934040
:10329C006C1EA541F04007222B4303431A40002724
:1032AC009FE7C04680FCFFFFA2FCFFFF82FCFFFFF4
:1032BC001C2101231B04984201D3000C10391B0A5A
:1032CC00984201D3000A08391B09984201D300091E
:1032DC00043902A2105C40187047C0460403020275
:1032EC0001010101000000000000000010B50029E0
:1032FC0003D1FFF7DDFF203002E0081CFFF7D8FFF9
:10330C0010BDC046BFF34F8F034B044ADA60BFF3C6
:10331C004F8FC046FDE7C04600ED00E00400FA0503
:10332C000020704710B5002801D172B6FEE7FFF7F8
:10333C00E9FF000070B582B0040015000023019372
:10334C000093002801D172B6FEE701AA01212800E2
:10335C000BF0FCF80023C356702B0CD06A460221EC
:10336C0028000BF0F3F810F040F813220F4920005E
:10337C0010F0C5FA16E0013010F037F806006A4676
:10338C00022128000BF0E2F810F02FF80500F0B243
:10339C0029000AF03BFFFF2333402A000449200098
:1033AC0010F0B0FC002002B070BDC046C093010804
:1033BC009893010810B5002801D172B6FEE7034BB3
:1033CC001A88034910F09EFC002010BDCCF7FF1F9B
:1033DC003C8B010870B500281DD0144B1A78930053
:1033EC009B185B0012495B5C002B16D1114910F045
:1033FC0089FC8025ED01104C0122290020000EF0E3
:10340C001BFAC8200AF089FF0022290020000EF0C8
:10341C0013FA002070BD72B6FEE793009B185B0098
:10342C0003495B18054910F06DFCE2E7D811002048
:10343C00D410002018900108000400482C900108BA
:10344C0010B50CF001FEC4B2200007F013FB2000F5
:10345C0007F03EFB10BD0000F0B5D6464F46464681
:10346C00C0B58AB0040006AA7A4B23CB23C21B88B2
:10347C001380002C01D172B6FEE7774B187801232C
:10348C005B4200933333372274490AF051FE744B7C
:10349C001B78002B00D1D0E00025724B9846BAE087
:1034AC00704B9946AB009A465B199B004B441A7CB7
:1034BC00D3009B1A06AA944663443A006A4920003A
:1034CC0010F020FC53465B199B004A469B5C012B79
:1034DC002DD0032B00D0A9E0A90049198900063191
:1034EC00604B99464944042205A810F008FAAD0037
:1034FC00AD19AD004D44EA78013A53009B189B007E
:10350C005A4AD3189B6899460598FFF7FBFD029021
:10351C0003916B78013B5A00D218554B9B180093C2
:10352C004B4622005349200010F0ECFB7EE0AB0030
:10353C005B199B004B4AD318DB78053BDAB2092A9E
:10354C0074D893004C4AD3589F4614236B43454A76
:10355C00D2189378D268009222004849200010F0CB
:10356C00D1FB63E014236B433E4AD2189378D268A4
:10357C00009222004249200010F0C4FB56E01423B4
:10358C006B43384AD2189378D16801911279009222
:10359C0022003C49200010F0B5FB47E014236B439C
:1035AC00304AD2189378D168019112790092220096
:1035BC003549200010F0A6FB38E0344B220034498A
:1035CC00200010F09FFB3148FCF7A0FD0200002109
:1035DC002E4810F09DF92900F06807F021F9002819
:1035EC00EBD12000FCF792FD20180C22294910F099
:1035FC0086F92000FCF78AFD82B2174B187801235C
:10360C005B420093333321000AF092FD3D00144BD2
:10361C001B78BB4211D96F1CFFB22E00AB005B199B
:10362C009B0042469B5C002B00D039E7174DB30042
:10363C009B199B000B4EF618CDE7A72216492000CC
:10364C0010F05DF900200AB01CBC90469946A246C9
:10365C00F0BDC046C08101083F0A0020E09501087A
:10366C001314002020690020189601084000002047
:10367C00308E0108849601083483010824960108D1
:10368C00389601085096010868960108740E0020BF
:10369C00949601089C960108A896010810B5041E82
:1036AC0001D172B6FEE70CF0C3FE03041B0C1B4ADF
:1036BC0094466344082B2AD89B00194AD3589F463A
:1036CC00184A1949200010F01DFB0CF0ABFE030B3F
:1036DC0022001649200010F015FB002010BD144AE2
:1036EC001149200010F00EFBEFE7124A0E492000A2
:1036FC0010F008FBE9E7104A0B49200010F002FB20
:10370C00E3E70E4A0849200010F0FCFADDE70C4A0A
:10371C000549200010F0F6FAD7E7C046C0FBFFFFC2
:10372C005C8301082C8D0108388D0108848D0108FB
:10373C004C8D0108588D0108648D0108708D0108AD
:10374C007C8D010870B5041E01D172B6FEE70E2205
:10375C00114910F0D4F8114B1B68114D22002900AF
:10376C00200010F0CFFA0F4B1B682200290020001C
:10377C0010F0C8FA0C4B1B6822002900200010F036
:10378C00C1FA2000FCF7C2FC20180322074910F0F4
:10379C00B6F8002070BDC04634A60108ACF7FF1F78
:1037AC0044A60108B0F7FF1FB4F7FF1FF49B0108F4
:1037BC00F0B5C64600B582B0040016000023019394
:1037CC000093002801D172B6FEE701AA0121300056
:1037DC000AF0BCFE0500744B18600422734910F00B
:1037EC00EBFA002800D090E02F1D019B1E1F320029
:1037FC006F49380010F0E0FA00281ED16D4B9B7910
:10380C00602B09D16C4A6D49200010F07BFA002026
:10381C0002B004BC9046F0BD202B05D1684A674924
:10382C00200010F06FFAF2E7002B00D0B6E0654AEA
:10383C006249200010F066FAE9E73200624938006C
:10384C0010F0BAFA00281AD15A4BDB79032B05D1A8
:10385C00594A5A49200010F055FAD8E7012B05D1E6
:10386C00574A5649200010F04DFAD0E7002B00D0F3
:10387C0094E0544A5149200010F044FAC7E7320052
:10388C005249380010F098FA002806D1494B9A6832
:10389C004F49200010F036FAB9E732004D49380094
:1038AC0010F08AFA002806D1424B1A8848492000A9
:1038BC0010F028FAABE732004749380010F07CFAD8
:1038CC00002806D13B4B5A884149200010F01AFAC7
:1038DC009DE732004149380010F06EFA002806D1FD
:1038EC00344B1A793A49200010F00CFA8FE7320069
:1038FC003B49380010F060FA00280DD12D4B5A7955
:10390C003349200010F0FEF981E7052235492800E3
:10391C0010F052FA002805D01322334920000FF082
:10392C00EEFF74E76A46022130000AF00FFE050034
:10393C002E4F002639002800FCF7DEFB002811D0A2
:10394C000136F6B20A370A2EF4D12A002849200093
:10395C0010F0D8F95BE72B0022002649200010F06C
:10396C00D1F915E02A002449200010F0CBF9234BA3
:10397C001B78002B00D14AE701252B00B340984659
:10398C001F4F1E4E6B1E5B00DB5B42461A42E2D1A0
:10399C000135EDB23378AB42F4D238E72A0019493D
:1039AC00200010F0AFF932E714120020808B0108D0
:1039BC00888B0108A8680020948B0108F485010805
:1039CC00988B01089C8B0108A48B0108AC8B010817
:1039DC00F4A70108B88B0108C48B0108D48B01082B
:1039EC00E88B0108FC8B01080C8C0108B40E00203C
:1039FC00208C0108048C01083C8C01081C00002060
:103A0C00180F0020508C010810B5041E01D172B69D
:103A1C00FEE7512204490FF072FF200050300BF0EA
:103A2C00E9FF002010BDC0465890010810B5041ED7
:103A3C0001D172B6FEE75B2204490FF060FF200053
:103A4C005A300BF077FF002010BDC046BC90010827
:103A5C0030B585B0124AD169802040000143D16154
:103A6C00D36903400193019B0E4C0F4B23600EF066
:103A7C0059FB0E49FCF766FB60600025A5600C4BFA
:103A8C00E36020000EF08EFE0295039502A9200043
:103A9C000EF0A2FE20000EF0E2FD05B030BDC046D7
:103AAC0000100240C46800200020004040420F007B
:103ABC00FFFF000030B585B0124A916980204002AA
:103ACC0001439161936903400193019B0E4C0F4B91
:103ADC0023600EF027FBFA218900FCF733FB6060B2
:103AEC000025A5600A4BE36020000EF05BFE0295FA
:103AFC00039502A920000EF06FFE20000EF0AFFD22
:103B0C0005B030BD00100240F467002000400140B9
:103B1C00FFFF0000F0B50B78FF24002B00D10478D8
:103B2C000A4B1D78002D0EDD0023002702E0013327
:103B3C00AB4209DAC25CA242F9D2CE5C002EF6D1BD
:103B4C00DFB21400F3E700273800F0BD1C000020A2
:103B5C00074B1978002908D00300411801201A7866
:103B6C00104001338B42FAD170470120FCE7C0466C
:103B7C001C00002010B505280AD88000154B1B58D6
:103B8C009F46154B18680023022200210BF0E4FF1E
:103B9C0010BD124B18680023022200210BF0DCFF31
:103BAC00F6E70F4B18680023022200210BF0D4FF1C
:103BBC00EEE70C4B18680023022200210BF0CCFF1F
:103BCC00E6E7094B18680023022200210BF0C4FF22
:103BDC00DEE7C04680830108101600201416002072
:103BEC00181600201C16002020160020F0B5DE460A
:103BFC0057464E464546E0B589B01522002102A82D
:103C0C000FF086FE0DF0FEFB72480DF0BDFC724805
:103C1C000DF014FC002812D1704A136902218B4359
:103C2C0013616F4B1B78002B13D16E4B1B78002B41
:103C3C0000D1CAE000256C4C6C4B98466EE06C4B86
:103C4C00D869C0B209B03CBC90469946A246AB4676
:103C5C00F0BD684A12781202D21892B200235D4964
:103C6C0001200DF019FC5C480DF0E8FB002811D187
:103C7C005A4A136901218B4313615E4B1B78012255
:103C8C0091460225002BD0D016239B465A4B9A46C0
:103C9C0098462AE0564BD869C0B2D3E7544BD86942
:103CAC00C0B2CFE70234B44217D04346FB5A002BC4
:103CBC00F8D02288474BE918002301200DF0ECFBCB
:103CCC000235ADB244480DF0B9FB0028E6D1434AA9
:103CDC00136901218B431361E4E74B460133DBB2DB
:103CEC009946444B1B784B459FD35E464B465E43EF
:103CFC003400163C544456445F1E5B465F43D4E785
:103D0C003B4BD869C0B29DE7394BD869C0B299E733
:103D1C000135EDB2334B1B78AB4256D90195AB0054
:103D2C005B199B0042469B5C002BF1D0FE2302AA40
:103D3C001370A900491989002C4B9C46614414222C
:103D4C0002AB581C0FF0DBFD14239B46A34402AEC0
:103D5C00361B224F325B0023210001200DF09CFB0F
:103D6C001D480DF06BFB0028CAD13B69012293431F
:103D7C003B6102345C45EDD10027019A93009E18FB
:103D8C00B6001A4B9A46B244144B9B465346DE6817
:103D9C003000FCF7BBF9013040088742B8D27B00F9
:103DAC00F25A0023210001200DF076FB0A480DF099
:103DBC0045FB0028A8D15B461B69012293435A4658
:103DCC00136102340137FFB2E0E70DF02DFB002048
:103DDC0038E7C04600D8010850C30000002002405C
:103DEC00D81100201314002000DC010820690020E9
:103DFC00006D00201C000020400A0020F0B585B0AA
:103E0C000500100000230393002D01D172B6FEE7CC
:103E1C0003AA01210AF09AFB0FF0E1FA0190C6B255
:103E2C00002E03D0274B1B78B34207D223222649FE
:103E3C0028000FF064FD002005B0F0BD6B461A7928
:103E4C00013A22481423534300271F54C4186770A7
:103E5C0002331818042239000FF05AFD2774E06859
:103E6C000FF00AFBE760174B1F78BE4213D26B466C
:103E7C001979142214004C43144824187B1E9B1BE4
:103E8C00DBB25B18534380181E182378002B0DD11E
:103E9C001434B442F9D17B1E0A4A1370FFF7A6FE04
:103EAC0036220B4928000FF02AFDC4E7142221000A
:103EBC00200014380FF023FD1422002120000FF0F5
:103ECC0027FDE5E713140020F88A0108206900207B
:103EDC00C08A010810B582B00400100000230193C1
:103EEC00002C01D172B6FEE701AA01210AF02EFBCB
:103EFC000FF075FAC3B2002B03D00E4A12789A4217
:103F0C0007D223220C4920000FF0F9FC002002B04C
:103F1C0010BDC0B20138142343430848C018002315
:103F2C000374FFF763FE3522054920000FF0E7FC10
:103F3C00ECE7C04613140020F88A01082069002021
:103F4C00D08F010810B582B004001000002301933B
:103F5C00002C01D172B6FEE701AA01210AF0F6FA93
:103F6C000FF03DFAC3B2002B03D00E4A12789A42DE
:103F7C0007D223220C4920000FF0C1FC002002B014
:103F8C0010BDC0B20138142343430848C0180123A4
:103F9C000374FFF72BFE3822054920000FF0AFFC0D
:103FAC00ECE7C04613140020F88A010820690020B1
:103FBC00D887010810B5074A002107480FF0A8FC64
:103FCC00064B01221A70064B00221A70FFF70EFEE8
:103FDC0010BDC04626020000400A00201C00002034
:103FEC00D8110020F0B5DE4657464E46C0B582B01B
:103FFC0032200FF037FA071E00D171E0394B1B78D5
:10400C00FF20FE2B66D1384E9A3B9B46B344354D70
:10401C007B1C0193354B994623E000243B19013B53
:10402C001B78002B01D00134E4B220000FF01AFAF7
:10403C005346D86000283FD0220039000FF05FFCB7
:10404C004B461B7801334A4613702200002138007E
:10405C000FF05EFC009B1B78FE2B37D114365E45AF
:10406C0034D0280014302B00791B1A78CA54013331
:10407C008342FAD11435B2461422019930000FF064
:10408C003EFC1422002138000FF042FC00952A78E7
:10409C00931CDBB2012BC0D9390000240A70013506
:1040AC000134E4B200952A78931CDBB2012BB5D90C
:1040BC000131322CF2D1B1E71422002150460FF01D
:1040CC0027FC38000FF0D8F90E2003E038000FF071
:1040DC00D3F9002002B01CBC91469A46A346F0BD11
:1040EC00FB20F7E700DC01082069002013140020F6
:1040FC00F0B51C4B1B889BB21B4A934225D01A0A65
:10410C002BD01A490A701A4A1370184B1D780020CC
:10411C00002D19D0012402231627164E3A006243B3
:10412C00163A92191800163080B20E49591809889F
:10413C00118002339BB202328342F6D10134E4B2D5
:10414C000300AC42EAD90020F0BD084B01221A70E2
:10415C00074B00221A70FA20F6E7044A012111706D
:10416C00D1E7C04600D80108FFFF00001C0000206A
:10417C00D8110020400A0020F0B583B0114B1B78F9
:10418C00002B1AD00124002301930F4E0D4F08E091
:10419C00601C06F0E1FD0AE00134E4B23B78A34276
:1041AC000DD32500631E5B00995B0029F0D102350D
:1041BC001B2DF1DD0A230193EEE7002301930198F7
:1041CC0003B0F0BD1C000020680C0020F0B583B0DB
:1041DC003222002113480FF09BFB134B1B78002B52
:1041EC001AD00124002301930E4E0F4F08E0601CDF
:1041FC0006F0B2FD0AE00134E4B23B78A3420DD3E1
:10420C002500631E5B00995B0029F0D102351B2D44
:10421C00F1DD0A230193EEE700230193019803B02B
:10422C00F0BDC046680C00201C000020F8B50F4BF8
:10423C001B780025002B17D00D49022006F05CFDE1
:10424C0001240025094F0A4E0134E4B23B78A34205
:10425C000AD3611E49007118601C06F04DFDA31CA9
:10426C001B2BF1DD0A25EFE72800F8BD1C00002010
:10427C00680C0020F0B5D6464F464646C0B5002621
:10428C00002398461A4B9A461A4B994605E001367C
:10429C00F6B24B461B78B34224D3B3009B195B0098
:1042AC0052469B5C002BF2D0B500AD196D00104B43
:1042BC009C46654444461C34A4B247462137BFB2E1
:1042CC002B781B026978C91889B2200006F044FDCE
:1042DC0002350134A4B2BC42F2D1434605339BB241
:1042EC009846D4E700201CBC90469946A246F0BDE7
:1042FC00D41000201C000020F0B5DE4657464E4678
:10430C004546E0B583B06B460022DA801C240027BA
:10431C00184B9A469B460CE04B469B004B445B006B
:10432C005B4400225A720137FFB2134B1B78BB421D
:10433C0017D3BD00ED196D005544631D9BB2984613
:10434C006B469E1DB9463100200006F0D5FC338823
:10435C006B701B0A2B700134A4B20235A045F2D14C
:10436C00DAE7002003B03CBC90469946A246AB4627
:10437C00F0BDC046D41000201C000020F0B5D6467D
:10438C004F464646C0B582B06B460022DA80224BBF
:10439C001B78002B1DD00025204E1F4CE9B2490084
:1043AC0071182800CB3080B206F0A6FC0135ADB2F6
:1043BC002278EBB29A42F1D8194B99462C009934D9
:1043CC00A4B2CB35ABB298466B469E1D00239A46E1
:1043DC0009E00025F0E74B4652465A720A239C46E8
:1043EC00E144444510D0671DBFB24D46310020005A
:1043FC0006F082FC33886B701B0A2B700134A4B25C
:10440C000235BC42F2D1E6E7002002B01CBC90465B
:10441C009946A246F0BDC0461C000020180F002093
:10442C00B40E0020F8B5DE4657464E464546E0B57C
:10443C000F00160099460AAB1B789B460BAB1D78F8
:10444C000CAB1B789A460DAB1C780EAB1B789846C0
:10445C0081B2E42006F080FC390A89B2E52006F02E
:10446C007BFCB9B2E62006F077FC310A89B2E72072
:10447C0006F072FCB1B2E82006F06EFC4B46190255
:10448C00594489B2E92006F067FC2D025544A9B2C3
:10449C00EA2006F061FC24024444A1B2EB2006F0B1
:1044AC005BFC00203CBC90469946A246AB46F8BD4E
:1044BC0010B582B08A206B46991D400006F01CFC9A
:1044CC00002800D064E06B4606331B88494A937180
:1044DC001B0AD37116206B46991DFF3006F00CFC9D
:1044EC0000285CD16B46DA88424B1A808B206B46D5
:1044FC00991D400006F000FC002855D16B46DA8867
:10450C003C4B5A8018206B46991DFF3006F0F4FB8B
:10451C0000284ED16B4606331B88364A13711B0A92
:10452C0053718C206B46991D400006F0E5FB04008E
:10453C001A2001A9FF3006F0DFFB0443A4B2002CC3
:10454C003ED101AB1B881B046A460632128813430A
:10455C00284A93608D206B46991D400006F0CCFBD9
:10456C0000283BD16B4606331B88224A13731B0A67
:10457C0053731C206B46991DFF3006F0BDFB0028C1
:10458C0032D01D4BDA7E1B4BDA76002002B010BD08
:10459C00184B194A91799971D279DA719AE7164BBD
:1045AC001A88144B1A80A1E7134B5A88114B5A8066
:1045BC00A8E7104B104A1179197152795A71B0E76A
:1045CC000E4B1B78002B04D00A4BE12252029A604E
:1045DC00C0E7094B9A68074B9A60BBE7054B18225A
:1045EC005A7300221A73C4E76B46DA88014BDA76E9
:1045FC00CBE7C046A8680020000000203E0A00203F
:10460C0010B51A4CE3795B01A17919438A2040005B
:10461C0006F0A2FB21881620FF3006F09DFB618876
:10462C008B20400006F098FB63791B02217B194319
:10463C001820FF3006F090FB21898C20400006F0FA
:10464C008BFB61891A20FF3006F086FB637B1B0213
:10465C00217919438D20400006F07EFBE17E1C2061
:10466C00FF3006F079FB002010BDC046A868002082
:10467C0010B5064B064A12689A4206D006F014FC96
:10468C00002802D1024B014A1A6010BDADDEEFBE0C
:10469C00F07F002010B5C20012181B4B9B189C78A1
:1046AC0082001A4BD15863011B1B9B001B19DB00AA
:1046BC0099421CD0C2001218134B9B18DC78630172
:1046CC001B1B9B001B19DB00994217D0C200121850
:1046DC000D4B9B181C7963011B1B9B001B19DB00EA
:1046EC00994209D11000084B0A22C25404E0C300BD
:1046FC001818054B0922C254002010BD1000024BA3
:10470C000A22C254F8E7C046EC0C002088120020A4
:10471C0010B5C20012181B4B9B185C7982001A4B07
:10472C00D15863011B1B9B001B19DB0099421CD049
:10473C00C2001218134B9B189C7963011B1B9B0026
:10474C001B19DB00994217D0C20012180D4B9B1895
:10475C00DC7963011B1B9B001B19DB00994209D1FF
:10476C001000084B0D22C25404E0C3001818054B6E
:10477C000C22C254002010BD1000024B0D22C2545A
:10478C00F8E7C046EC0C0020AC12002070477047D4
:10479C0070477047704770470120704770470000A2
:1047AC00F0B5CE4600B58EB005AC344B220043CBF1
:1047BC0043C202AA324B03CB03C21B7813701520E1
:1047CC0002AB9C4660440EF00AFEC3B2994600262A
:1047DC00A67106A80EF003FEC7B2E6700124294E9E
:1047EC0002E001340D2C09D0A300043BF15805A8BC
:1047FC00FBF782FC0028F4D1E5B2F2E702AB981D7E
:10480C000EF0EDFD009005AC0026667102ABD81CD5
:10481C000EF0E5FD0190A67002A80EF0E0FD04007C
:10482C000DA94B46CB704D708F7001230B7000227D
:10483C0015480DF043FEFF23002819D108A90C7070
:10484C00019B4B70009B8B7000230B720F4A18302E
:10485C005073CB600B6100220B480DF0A9FDFF23B8
:10486C00002805D10A4A012107480DF0EBFE002370
:10487C0018000EB004BC9146F0BDC046B4870108C8
:10488C00C0870108C48E010800690020A8680020B8
:10489C00F232000010B51C4A116A80231B020B4334
:1048AC0013621A481A4B0360002343607C22826017
:1048BC00184AC2600361436183610DF01BFDFF2345
:1048CC0000281ED1012111480DF0C2FE124B984256
:1048DC000ED10D4B5B6A1B0102D5104B00221A70D6
:1048EC00094B5B6A5B0105D50C4B01221A7001E088
:1048FC00FFF756FF044A516A80235B040B43536253
:10490C000023180010BDC0460010024000690020B2
:10491C0000280040CF070000F2320000CE0C00202F
:10492C0010B5044B9968FBF7E7FB43425841C0B202
:10493C0010BDC0464000002070B504001B49FBF7B9
:10494C00DBFB06000625002E23D019492000FBF7BF
:10495C00D3FB00281FD017492000FBF7CDFB002804
:10496C001BD015492000FBF7C7FB002817D01349B3
:10497C002000FBF7C1FB002813D011492000FBF7E6
:10498C00BBFB00280FD0013DEDB2002DDBD1002088
:10499C0070BD0120FCE70220FAE70320F8E70420B1
:1049AC00F6E70520F4E70620F2E7C0469C870108ED
:1049BC00A0870108A4870108A8870108AC87010813
:1049CC00B0870108F0B59BB001240D940E9410949F
:1049DC0010231193022716978026760217968023B0
:1049EC005B031893002519950DA80CF03BFF0723CA
:1049FC0009930A970B950C95012109A80DF0F4F970
:104A0C001A4B029304950595069502A80DF09AFB96
:104A1C00174DEA69802149050A43EA61EB690B40AD
:104A2C000093009B0CF014FF0296C0239B00039391
:104A3C0002A80DF087FB0DF061FBFA218900FBF752
:104A4C0081FB0BF045FD04200BF05EFDAB692343AD
:104A5C00AB61AB691C400194019B01200022002139
:104A6C0040420BF0EDFC1BB0F0BDC046030004004F
:104A7C000010024010B52F4809F0CAFC2E4809F06E
:104A8C00C7FC2E4809F0C4FC2D4809F0C1FC2D4888
:104A9C0009F0BEFC2C4809F0BBFC2C4809F0B8FC12
:104AAC002B4809F0B5FC2B4809F0B2FC2A4809F058
:104ABC00AFFC2A4809F0ACFC294809F0A9FC2948AC
:104ACC0009F0A6FC284809F0A3FC284809F0A0FC32
:104ADC00274809F09DFC274809F09AFC264809F064
:104AEC0097FC264809F094FC254809F091FC2548D0
:104AFC0009F08EFC244809F08BFC244809F088FC52
:104B0C00234809F085FC234809F082FC224809F06F
:104B1C007FFC224809F07CFC214809F079FC2148F3
:104B2C0009F076FC204B1D221A7006F093FFFFF75C
:104B3C0035FE10BD18910108AC9001084890010891
:104B4C00A48901082C8B0108CC920108C08F0108A4
:104B5C001C8D010860970108208E010888930108BC
:104B6C008C880108BC920108D0950108708C010852
:104B7C00B08A0108D8A50108188A0108D493010845
:104B8C004CA601089C8D01085C8B0108509701080C
:104B9C0010880108089001081C8B0108F089010895
:104BAC0024A601086CA50108F067002005280BD885
:104BBC008000074B1B589F46064808E0064806E055
:104BCC00064804E0064802E0002000E00548704773
:104BDC00988301088C6B0020C4690020A46A002013
:104BEC00346A00201C6B0020F0B585B00E00150057
:104BFC000F226A4413701C000AAB1F78BC4257D0BA
:104C0C00002C00D1BAE0002F00D1BBE0002854D01A
:104C1C00012800D189E06723022800D0AFE02000F2
:104C2C00FFF7C4FF04003800FFF7C0FF01000122AA
:104C3C00200005F07FFF0300172800D19FE06801DA
:104C4C00401B80004019C000FA218900FBF77AFA5A
:104C5C0004000F256D444C4B00932B0000220100E7
:104C6C004A480BF095F82D786B1E9B00484A9E50D5
:104C7C000AAB1878FFF79AFF07002800FFF796FF9A
:104C8C0001000122380005F055FF0300172876D0EB
:104C9C003D4B00930AAB002221003C480BF078F806
:104CAC0005000AAB1B78013B9B00394A9E502CE057
:104CBC00384B02221A55672361E02000FFF776FF7C
:104CCC0004003800FFF772FF01000122200005F0FC
:104CDC0031FF0300172852D00F246C446801401B8D
:104CEC0080004019C000FA218900FBF72BFA010063
:104CFC00254B00932300002224480BF049F80500B3
:104D0C002378013B9B00224A9E500023002D36D075
:104D1C000AF08AFA020001235B420093002301216E
:104D2C0028000BF055F8002329E03800FFF73EFF70
:104D3C0007002000FFF73AFF01000122380005F0C0
:104D4C00F9FE030017281AD06801401B8000401997
:104D5C00C000FA218900FBF7F5F901000A4B00931A
:104D6C000AAB002209480BF013F805000F236B4423
:104D7C001B78013B9B00064A9E50C6E76723180030
:104D8C0005B0F0BD6723FAE74D340008CC87010865
:104D9C00F41500208012002070B584B00E216944F7
:104DAC0000230B8003AA1380E42005F0A5FF002646
:104DBC00002802D10E236B441E780E216944E52095
:104DCC0005F09AFF040003A9E62005F095FF0443C3
:104DDC00A4B20025002C06D10E236B441D882D0493
:104DEC0003AB1B88ED180E216944E72005F084FF06
:104DFC00040003A9E82005F07FFF204380B20024C3
:104E0C00002806D10E236B441C88240403AB1B889A
:104E1C00E4180E216944E92005F06EFF002807D143
:104E2C000E236B441B88190A284A1170284A1370E8
:104E3C000E216944EA2005F05FFF002807D10E23FC
:104E4C006B441B88190A234A1170234A13700E21D4
:104E5C006944EB2005F050FF002807D10E236B446A
:104E6C001B88190A1D4A11701D4A1370174B1B78A9
:104E7C00002B03D0164A1278002A12D1154B1B783E
:104E8C00002B03D0144A1278002A11D1134B1B7833
:104E9C00002B03D0124A1278002A10D1002004B043
:104EAC0070BD0092220029003000FFF79DFEE5E75F
:104EBC000092220029003000FFF796FEE6E70092F0
:104ECC00220029003000FFF78FFEE7E725130020B2
:104EDC00AF0E002026130020B00E00202713002058
:104EEC00B10E002070B50E0015001C00FFF75EFE21
:104EFC00244B984216D0244B984221D0234B9842F5
:104F0C0029D0234B984232D0224AFF23904215D10C
:104F1C00214B336008222A8023601023049A1380CB
:104F2C0000230BE09023DB053360802292002A8063
:104F3C0023608023DB00049A13800023180070BDCB
:104F4C009023DB05336004222A8023600823049A13
:104F5C0013800023F2E7104B33608022D2002A80AA
:104F6C00236080231B01049A13800023E6E790231F
:104F7C00DB05336001222A8023600223049A13800C
:104F8C000023DBE7A46A00208C6B0020C46900209E
:104F9C001C6B0020346A00200004004810B5FFF799
:104FAC0005FE0400E1231B0243608023DB00036148
:104FBC0080235B0183600EF0ABF82268136820211C
:104FCC000B43136010BD0000F0B5D646474680B5C4
:104FDC0085B00400100000230393624B1A7C02ABD3
:104FEC001A70002C01D172B6FEE703AA012109F058
:104FFC00ADFA05005C49FBF77FF8002800D077E09C
:10500C005A4B1A785A4B9B18013B1E780125574B6B
:10501C009846EBB29A4643461B78534508D1013566
:10502C00062DF6D1002005B00CBC90469A46F0BD7A
:10503C000EF086FC02AF3870642300935A3B0122B9
:10504C003900504609F074F85046FFF7AFFD03687D
:10505C009B8C3A78DBB29A4238D02A004549200022
:10506C000EF050FE2000FBF751F882B23F4B18783F
:10507C00642300935A3B210009F05AF854223E490C
:10508C0020000EF03CFC2000FBF740F882B2374BBE
:10509C001878642300935A3B210009F049F8013633
:1050AC00324B1B78013B9B01344AD3189B5D002B80
:1050BC00B5D192462D4F01200BF0A6F93B78013B60
:1050CC009B0153449B5D002BF5D0A8E72A002C498B
:1050DC0020000EF017FE2000FBF718F882B2234BCD
:1050EC001878642300935A3B210009F021F8C5E796
:1050FC000023EB56702B05D00F22224920000EF016
:10510C00FEFB8FE7681C0EF070F90500C7B27B1E22
:10511C00042B20D80EF014FC02AE307064230093E4
:10512C00323B01223100380009F002F83800FFF759
:10513C003DFD03689B8C3278DBB29A4205D1EAB212
:10514C000F4920000EF0DEFD6CE7EAB209492000A1
:10515C000EF0D8FD66E71B220B4920000EF0CFFBAA
:10516C0060E7C046C0810108948B01083F0A00200B
:10517C008C150020D8A40108ECA401084C140020C4
:10518C00BCA4010840A5010850A50108F0B5DE46F5
:10519C0057464E464546E0B585B000AF494B1D78A5
:1051AC00EB1DDB08DB006A46D31A9D466C46002DCE
:1051BC000BD0454A6E1EF6B2013636190021197015
:1051CC00118001330232B342F9D101380123235447
:1051DC001622424302323D4BD21800213A4E400077
:1051EC000123984601339C46FD60A34603E0013140
:1051FC000232052911D01388002BF8D0855BA94603
:10520C0045468D40AA464D46544625438553DB08FA
:10521C005B44013B64461C70E9E7FD685C46022375
:10522C0099464B460133DBB29946002D40D02748B6
:10523C000021002601235B424B449C462CE00132AA
:10524C00062A21D05300C35A002BF8D0DB08013BAF
:10525C00E15C0029F3D1511E8A4601215546A94033
:10526C008A4619494546695A8B4651465D4629433B
:10527C008A461549454656466E524946E154FE68E3
:10528C000136F3B2FB60DAE7B968FE687D6801317C
:10529C001630CBB2AB4209D2635C6345F7D14B00FD
:1052AC0098460122B960FE607D60CBE7002EB8D134
:1052BC000020BD4605B03CBC90469946A246AB4684
:1052CC00F0BDC0461C0000209C0C0020400A0020B1
:1052DC00F0B5DE4657464E464546E0B587B08046AB
:1052EC0002911400039310AB1F880300134300D1E9
:1052FC006AE1002859D1931CDBB26720012B00D93D
:10530C0044E1002009F0F8FE04900521002009F08A
:10531C0003FFBB4B48221A7012325A70029B002BAF
:10532C0000D067E1013FB74BDD5DB548F900C91B03
:10533C00C900B54FC9192A0003300EF0E0FAB04B82
:10534C009A469D70EF1C3A001900B0480EF0D7FA3F
:10535C00FE1703239B461E40F619B6103200AB49CC
:10536C00AB480BF094F95346D8555B463B4200D002
:10537C00F4E038220021A5480EF0CAFA0234E4B257
:10538C00012C00D9F4E0039B002B05D1029B002BD0
:10539C0002D19B4B1B7902930298FFF7F7FE002674
:1053AC0001249C4B98469C4FFCE0029B002B02D0A6
:1053BC00002A00D10AE1002009F09EFE049005218C
:1053CC00002009F0A9FE8E4B48221A7012325A7036
:1053DC00039B002BA6D0029B002B4ED088490023A8
:1053EC008B70CC70029B0B718C4AD3799B00927999
:1053FC001343FF22039882429241524252001343BC
:10540C00DBB24B71887100229246FF2803D9020A45
:10541C00CA71012292462E2F33D980225242134355
:10542C00774A53717E4B1F8000252E275346073336
:10543C009446634405937A4B1E88002E2FD0390076
:10544C003000FAF77FFE80B2002845D16C4B5A79B8
:10545C007F2313406A4A5371724D2B887249C918C5
:10546C00320005980EF04BFA00232B806C4A138007
:10547C00351D5544EDB23700DDE7674B1B780293C1
:10548C00ACE7534607335E48C018664B1B88664929
:10549C00C9183A000EF033FA3D1D5544EDB2634B7A
:1054AC001B78002B00D14AE7614B1B78FF2B00D1F6
:1054BC0090E0604A12789446002A4DD001269E4016
:1054CC005D48012300214E4A9146B94422006446AE
:1054DC00AC465546924617E00097039B2200029972
:1054EC004046FFF7F5FE0A2008F017FF4C4A1388D8
:1054FC00DB1B13804B4A1388FB1813809BE701338B
:10550C009BB20230A3420DD802881642F7D001316B
:10551C00C9B27A1801322D2A5ADC4A46521852194D
:10552C009371ECE75446AA46654653460733DB199C
:10553C005B18334AD1547F18023769202D2F25DC94
:10554C003E4802780132D2B202702D48C3185A700C
:10555C0002356D18EDB2F2E60021E6E7B6002B49F4
:10556C00711801222A480BF066F8254BD85500E734
:10557C002A1D32232249404608F024FE04990020BB
:10558C0009F0CAFD2E4B02221A70002007B03CBC59
:10559C0090469946A246AB46F0BD0134E4B20136C2
:1055AC00062CEBD03B78013B5B0042469B5A3341C7
:1055BC00DB07F2D52A1D32231149200008F002FE28
:1055CC0001200AF021FFE8E76720DFE76720DDE72D
:1055DC006920DBE77B1C69202D2BD7DC174A13785D
:1055EC000133DBB21370064AD7195744FB710135EE
:1055FC00EDB2A4E6039B002B00D193E6EEE6C04689
:10560C00641000209C100020580D002094150020E0
:10561C009C6C00209C0C0020D8110020A868002055
:10562C0028130020A0120020A41000203C0A002007
:10563C001D0000201C000020180F00209A0C0020D8
:10564C00D012002000B583B00C4B00221A700C4B0A
:10565C001870FF2809D000910023FE2200210020A1
:10566C00FFF736FE002003B000BD00910023FF328F
:10567C0000210020FFF72CFEF4E7C0463C0A002076
:10568C001D00002030B583B01C000F4B01251D7090
:10569C000E4B1970FF290ED000941300FE2201004E
:1056AC000020FFF715FE2200002109480EF030F90A
:1056BC00002003B030BD00941300FF220100002035
:1056CC00FFF706FEEFE7C0463C0A00201D00002055
:1056DC00A4100020F0B583B0070001240D4D032663
:1056EC00A7420FD00C4B1B881A0A2A706B70AC7037
:1056FC0000960A23002200212000FFF7E9FD0A2072
:10570C0008F00BFE0134E4B2062CE9D1002003B002
:10571C00F0BDC046A41000201E00002010B50400EF
:10572C000AF000FD002C06D0044B1A68516A536A2B
:10573C005B1AA342FBD90AF001FD10BDC46800201E
:10574C00F0B5DE4657464E464546E0B589B0BD4DF0
:10575C000424012600239B46994611E10E2302AA3C
:10576C00944663441988012207980CF065F80A20C6
:10577C00FFF7D4FF05AB198806980CF057F8814653
:10578C0026E1012B05D14B46012B46D0002B00D135
:10579C00C6E15B46042B01D0022B07D1AA4BE35880
:1057AC00AA4A934242D80133A74AA350FD235A4632
:1057BC001340012B00D1B7E1A34BE358A44A128844
:1057CC0093426FD345D0A34BE3589A4202D2A14BDC
:1057DC000022E2509C4BE3589D4A5288934252D986
:1057EC00F422FF3293424ED89B4B1B78002B37D1BF
:1057FC00994BF33AFF3A1A7054E04B46012B0FD0F9
:10580C00002BC6D103239B468EE14B46012B0AD0BD
:10581C00002BBED101239B4686E104239B46BDE7AA
:10582C0004239B46BAE702239B46B7E7864B00222C
:10583C00E250BBE7874B0022E2507EE1874BF35CE2
:10584C00834A52799A4200D283E10133834AB3549A
:10585C00B2E707214046417201337B496350B2E7FE
:10586C00022B1FD17D4BF35C794A12799A4219D2E3
:10587C00774A52799A4215D9774B03221A70774B93
:10588C000022F2540EE0F53BFF3B754A934209D8D7
:10589C00714B1B78002B02D06F4B00221A700398AF
:1058AC00FEF7F8FE6B4BE358694A128893424DD3CE
:1058BC002BD0654BE3589A4202D2634B0022E25044
:1058CC00644BE358624A528893423AD9F422FF322D
:1058DC00934236D8604B1B78012B1DD0032B35D14E
:1058EC000333424653725C4B00221A705D4B1B789B
:1058FC00002B3FD143465B7C9B073BD5594B012288
:10590C001A700398FEF745FF34E0082140464172B7
:10591C00013350496350CCE70433424653724E4B2B
:10592C0002221A704F4B1B78002B23D143465B7C11
:10593C00DB071FD54B4B01221A700398FEF728FF8B
:10594C0018E0F53BFF3B464A934209D943465B7A44
:10595C00053BDAB2092A0DD89300434AD3589F4627
:10596C000398FEF7D5FEF1E70398FEF70FFF00232F
:10597C0042465372013609350434182C00D1EEE03E
:10598C00F3B20393A846AB7A002BF3D0354B1B78BC
:10599C00002B00D16B720E2302AA944663449A46E4
:1059AC0005AF009706AB524607A90398FFF79AFA82
:1059BC0053461988002207980BF03EFF0A20FFF788
:1059CC00ADFE398806980BF031FF002800D1C5E6F2
:1059DC000E2302AA944663441988002207980BF000
:1059EC002BFF43469B7A022B00D106E7DAB2022A40
:1059FC0000D8C6E6032B00D107E7042B00D0C8E67D
:105A0C004B46012B00D18EE0002B00D0C1E60223C7
:105A1C009B46C3E60398FEF7BAFE00234246537238
:105A2C00A8E7104B1B78002BA4D143465B7C5B078B
:105A3C00A0D50C4B01221A7001210398FEF7AAFE87
:105A4C0098E7C046EC0C002088120020FEFF0000F6
:105A5C00A8680020AC120020710E0020A80E0020B7
:105A6C000AFE0000AE0E0020B08301083F4B1B78ED
:105A7C00002B00D07EE743465B7C1B0700D479E704
:105A8C003A4B01221A7002210398FEF783FE71E74C
:105A9C00364B1B78002B00D06CE743465B7CDB0657
:105AAC0000D467E7314B01221A7003210398FEF7EB
:105ABC0071FE5FE72D4B1B78002B00D05AE7434655
:105ACC005B7C9B0600D455E7284B01221A70012100
