:020000040800F2
:100000000080002095D1000821D20008F5C7000823
:1000100000000000000000000000000000000000E0
:100020000000000000000000000000008DD6000865
:10003000000000000000000041D70008E9C70008E8
:1000400021D2000821D2000821D2000821D20008C4
:1000500021D2000821D2000821D2000821D20008B4
:1000600021D200083DC8000849C8000881C800081E
:1000700021D2000821D2000821D2000821D2000894
:1000800021D2000821D2000821D2000821D2000884
:1000900021D2000821D2000821D2000821D2000874
:1000A00021D2000821D2000821D20008F9C7000897
:0C00B00009C8000819C8000821D2000887
:1000BC0010B5064C2378002B07D1054B002B02D032
:1000CC00044800E000BF0123237010BD780A002013
:1000DC0000000000E08E0108044B10B5002B03D08B
:1000EC000349044800E000BF10BDC04600000000FA
:1000FC007C0A0020E08E010802780B78002A03D0DD
:10010C00013001319A42F7D0D01A70470023C25CFB
:10011C000133002AFBD1581E7047000002B471460F
:10012C0049084900095649008E4402BC7047C04634
:10013C0002B4714649084900095C49008E4402BC6E
:10014C007047C04603B47146490840004900095E37
:10015C0049008E4403BC704703B471464908400003
:10016C004900095A49008E4403BC704700224308D9
:10017C008B4274D303098B425FD3030A8B4244D363
:10018C00030B8B4228D3030C8B420DD3FF220902A5
:10019C0012BA030C8B4202D31212090265D0030B64
:1001AC008B4219D300E0090AC30B8B4201D3CB035A
:1001BC00C01A5241830B8B4201D38B03C01A52419C
:1001CC00430B8B4201D34B03C01A5241030B8B429E
:1001DC0001D30B03C01A5241C30A8B4201D3CB0289
:1001EC00C01A5241830A8B4201D38B02C01A52416E
:1001FC00430A8B4201D34B02C01A5241030A8B4271
:10020C0001D30B02C01A5241CDD2C3098B4201D388
:10021C00CB01C01A524183098B4201D38B01C01A06
:10022C00524143098B4201D34B01C01A524103097D
:10023C008B4201D30B01C01A5241C3088B4201D32C
:10024C00CB00C01A524183088B4201D38B00C01AD9
:10025C00524143088B4201D34B00C01A5241411A00
:10026C0000D20146524110467047FFE701B500200D
:10027C0000F0F0F802BDC0460029F7D076E77047D1
:10028C0003460B437FD4002243088B4274D30309EB
:10029C008B425FD3030A8B4244D3030B8B4228D38C
:1002AC00030C8B420DD3FF22090212BA030C8B42B2
:1002BC0002D31212090265D0030B8B4219D300E052
:1002CC00090AC30B8B4201D3CB03C01A5241830BD7
:1002DC008B4201D38B03C01A5241430B8B4201D387
:1002EC004B03C01A5241030B8B4201D30B03C01AB0
:1002FC005241C30A8B4201D3CB02C01A5241830A2A
:10030C008B4201D38B02C01A5241430A8B4201D358
:10031C004B02C01A5241030A8B4201D30B02C01A82
:10032C005241CDD2C3098B4201D3CB01C01A5241E9
:10033C0083098B4201D38B01C01A524143098B4272
:10034C0001D34B01C01A524103098B4201D30B015B
:10035C00C01A5241C3088B4201D3CB00C01A524180
:10036C0083088B4201D38B00C01A524143088B4245
:10037C0001D34B00C01A5241411A00D201465241DE
:10038C00104670475DE0CA0F00D04942031000D3FD
:10039C004042534000229C4603098B422DD3030A52
:1003AC008B4212D3FC22890112BA030A8B420CD362
:1003BC00890192118B4208D3890192118B4204D38B
:1003CC0089013AD0921100E08909C3098B4201D30B
:1003DC00CB01C01A524183098B4201D38B01C01A45
:1003EC00524143098B4201D34B01C01A52410309BC
:1003FC008B4201D30B01C01A5241C3088B4201D36B
:10040C00CB00C01A524183088B4201D38B00C01A17
:10041C005241D9D243088B4201D34B00C01A5241EE
:10042C00411A00D20146634652415B10104601D37B
:10043C004042002B00D54942704763465B1000D305
:10044C00404201B5002000F005F802BD0029F8D0AB
:10045C0016E770477047C046D0400B1CD1409C46F5
:10046C00203AD34018435242634693401843704796
:10047C008446101C62468C46191C634600E0C0463C
:10048C001FB501F07FFF002801D40021C8421FBD19
:10049C0010B501F0D7FE4042013010BD10B501F08F
:1004AC0071FF002801DB002010BD012010BDC046EB
:1004BC0010B501F067FF002801DD002010BD012000
:1004CC0010BDC04610B501F0F9FE002801DC00207B
:1004DC0010BD012010BDC04610B501F0EFFE002884
:1004EC0001DA002010BD012010BDC0468446081C56
:1004FC006146FFE71FB500F097FC002801D40021EE
:10050C00C8421FBD10B500F019FC4042013010BDAF
:10051C0010B500F089FC002801DB002010BD012083
:10052C0010BDC04610B500F07FFC002801DD002096
:10053C0010BD012010BDC04610B500F027FC0028EE
:10054C0001DC002010BD012010BDC04610B500F02C
:10055C001DFC002801DA002010BD012010BDC04692
:10056C00002B11D1002A0FD1002900D1002802D074
:10057C000021C943081C07B4024802A1401802908C
:10058C0003BDC046D1FEFFFF03B4684601B5029817
:10059C0000F066F8019B9E4602B00CBC7047C0464A
:1005AC00F0B5CE46474615042D0C2E0080B5070439
:1005BC00140C3F0C9946030C7E435D436743634325
:1005CC007F19340CE4199C46A54203D980235B02A5
:1005DC009846C4444B4643435143250C360465446A
:1005EC00360C2404A4195B19591820000CBC904635
:1005FC009946F0BD9E2110B5C905041CFFF7A6FF56
:10060C00002803D1201C00F055FF10BD9E21201C9A
:10061C00C90500F08BFD00F04DFF80231B069C46A6
:10062C006044F2E770B500220C4B04000D00FFF79C
:10063C0053FF002804D12000290002F0E1FC70BD1A
:10064C00064B00222000290002F076F902F0D8FCBB
:10065C0080231B069C466044F1E7C0460000E04145
:10066C00F0B54F464646D646C0B5040082B00D00E4
:10067C00914698468B422FD82CD04146484602F0E2
:10068C0055FE29000600200002F050FE331A9C464D
:10069C00203B9A4600D576E04B46524693401F00CD
:1006AC004B46624693401E00AF4228D825D0534695
:1006BC00A41BBD41002B00DA7BE00022002300923A
:1006CC0001930123524693400193012362469340C8
:1006DC00009318E08242D0D90022002300920193AB
:1006EC000A9B002B01D01C605D600098019902B040
:1006FC001CBC90469946A246F0BDA342D7D9002215
:10070C000023009201936346002BE9D0FB07984627
:10071C00414672080A437B0866460EE0AB4201D1A3
:10072C00A2420CD8A41A9D41012024196D4100212C
:10073C00013E24184D41002E06D0AB42EED9013EAD
:10074C0024196D41002EF8D10098019953460019D7
:10075C006941002B23DB2B005246D3402A00644610
:10076C00E2401C0053461500002B2DDB260057469B
:10077C00BE40330026006746BE403200801A9941C5
:10078C0000900191ACE7624620239B1A4A46DA405E
:10079C006146130042468A4017001F4380E76246B9
:1007AC0020239B1A2A0066469A402300F3401343E9
:1007BC00D4E76246202300219B1A0022009101926B
:1007CC000122DA40019280E72023624626009B1A20
:1007DC00DE402F00B0466646B74046463B003343EA
:1007EC00C8E7C046F8B54746CE4643025B0A44000C
:1007FC00C20F9C464800DD004B02240E5B0A000E23
:10080C0080B5984626009146C90FDB00271A8A420C
:10081C0029D0002F15DD00284AD1002B00D095E0FF
:10082C00ED08FF2C00D188E06B025B0AE6B25B029C
:10083C00F605580A3043D20710430CBC9046994633
:10084C00F8BD002F00D087E0601CC0B2012800DC8E
:10085C00B6E0EE1A720100D5C5E0002E3DD10022A3
:10086C0000260023E3E7002F00DC96E000285DD093
:10087C00FF2C60D08022D20413431B2F00DDECE050
:10088C002022D21B18009340F8405A1E9341034378
:10089C00ED186B017BD50134FF2C00D1B7E00122A0
:1008AC0007262A406B089A4D1D4015432E4029E01F
:1008BC00FF2CB5D08022D20413431B2F00DDB2E0F5
:1008CC002022D21B19009340F9405A1E93410B432E
:1008DC00ED1A6B015BD5AD01AE09300002F008FDDD
:1008EC0005388640844265DC041B3300202001342B
:1008FC00E340041BA640751EAE41334307261D0082
:10090C0000241E4001224B461A40002E04D00F2317
:10091C002B40042B00D004356B0100D480E701344C
:10092C00E6B2FF2C2FD1FF26002380E7002B52D1FB
:10093C00FF2C00D074E70A00ED08002DF3D08023C3
:10094C00DB032B435B025B0AFF2670E7013F002FA2
:10095C00BED0FF2CB1D163E7002C47D0FF2869D063
:10096C008024E4047A4225431B2A00DDC5E02C00D8
:10097C002026D440B21A95406A1E954125435D1B32
:10098C0004008946A5E7AB015B0A50E7002401226D
:10099C004B461A406B07BAD142E7002F3BD10134CA
:1009AC00E0B201284ADDFF2CBDD00726ED186D08FA
:1009BC002E40A7E70723574D241A35401E40A1E7C8
:1009CC00002C1BD1002D6ED1002B00D19AE00A0017
:1009DC001D003C0024E7013F002F00D158E7FF2CFD
:1009EC0000D04AE7A7E75E1B894676E7002D1CD1AD
:1009FC000A00FF281FD004001D0011E7002D5DD157
:100A0C00002B17D180230022DB03FF260FE70A00FF
:100A1C00FF2600230BE7002C21D1002D66D1FF28E7
:100A2C00E9D11D0087E7012352E77A1CA7D0FA43CE
:100A3C00FF2899D10A001D00FF24F1E6002E21D1D8
:100A4C00002D4FD0002B4CD0ED186B019ED5314BA7
:100A5C0007362E4001241D4054E7012318E7FF28D8
:100A6C00DFD08024E4047F4225431B2F4DDC20265D
:100A7C00F61B2C00B540FC406A1E95412543ED1831
:100A8C00040006E7002DCCD0002B00D153E78021C9
:100A9C006046C903084203D04046084200D11D00FD
:100AAC000121114047E7002B00D1B9E6EA1A5001A9
:100ABC0025D507265D1B2E40894623E7FF24002BF6
:100ACC0000D1ADE680226046D203104204D04046ED
:100ADC00104201D11D00894601224B46FF241A40C9
:100AEC009EE62B00DD080A0000249DE67A1CC6D089
:100AFC00FF43FF28B9D11D001DE701253FE7151E57
:100B0C0000D044E70022002391E60125B7E7C04658
:100B1C00FFFFFF7DFFFFFFFBF8B557464E464546EE
:100B2C00DE464402E0B546008846640A360EC70F1E
:100B3C00002E63D0FF2E24D08023E400DB041C4362
:100B4C00002399469B467F3E434642465D02D20FA8
:100B5C005B006D0A1B0E9046924665D0FF2B55D05C
:100B6C0080220021ED00D2047F3B1543F61A434648
:100B7C004A467B400F2A00D98DE06D48920082587E
:100B8C009746002C54D108239946063BFF269B46DA
:100B9C00DAE70025534602291BD0032900D1BFE018
:100BAC00012928D030007F30002820DD6A0704D0CE
:100BBC000F222A40042A00D004352A0103D5300024
:100BCC005C4A80301540FE2803DCAC01640AC2B2DA
:100BDC0001E0FF2200246402D205600ADB07104307
:100BEC0018433CBC90469946A246AB46F8BD012240
:100BFC00101A1B287CDD00220024ECE7002C1DD1F0
:100C0C0004239946033B00269B469DE7FF3E002D9F
:100C1C0020D1022143464A467B400A430F2AD8D8AA
:100C2C004548920082589746002D19D10121F1E7D1
:100C3C000C239946093BFF269B4685E7200002F0D2
:100C4C0057FB7626431F9C4000237642361A994662
:100C5C009B4679E74A4603231A439146032186E7CC
:100C6C00280002F045FB431F36189D4076360021C4
:100C7C007DE780240023E403FF22ACE700258023DA
:100C8C00DB031C4228D01D4226D12B435C02640A94
:100C9C004346FF229FE762016C01A24224D21B2132
:100CAC000025013E012710006D005200002801DBD9
:100CBC00944201D8121B3D4301390029F3D1140091
:100CCC00621E944125436DE7BA46594625005346AA
:100CDC00022900D061E77CE78023DB031C4364021C
:100CEC00640A3B00FF2276E7121B1A210125D9E783
:100CFC009E362A00B5402C00C240651EAC41144300
:100D0C00620704D00F222240042A00D0043462016E
:100D1C0003D4A401640A00225DE7012200245AE7EF
:100D2C008024E4032C436402640AFF2253E7C04688
:100D3C00288F0108FFFFFFF7688F010870B542008C
:100D4C004E024C0045026D0A120EC30F760A240E99
:100D5C00C90FFF2A0FD0FF2C11D00120A24200D0C6
:100D6C0070BDB542FCD18B420DD0002AF8D12800C1
:100D7C00451EA841F4E70120002DF1D1EBE701203D
:100D8C00002EEDD1E9E70020EAE7C04670B54A0035
:100D9C004E02450244006D0A240EC30F760A120E51
:100DAC00C90FFF2C15D0FF2A0ED0002C15D1002A0C
:100DBC0001D1002E1CD0002D14D08B4227D0022044
:100DCC00013B1840013870BD002EEED0022040428D
:100DDC00F9E7002DFAD1FF2A0ED0002A0ED1002EF1
:100DEC00EDD00BE001230139994308000130EAE70B
:100DFC000020002DE7D0E2E7002EE7D18B42DED1B8
:100E0C00944205DD0221581E08400138DBE700241E
:100E1C00A24204DCB542D2D80020B542D3D2581E2F
:100E2C00012398430130CEE730B5420044024D0215
:100E3C00C30F4800640A120E6D0A000EC90FFF2A78
:100E4C0012D0FF280CD0002A12D1002819D1002D65
:100E5C0017D1002C2BD00220013B1840013826E082
:100E6C00002DF0D0022022E0002CFBD1FF281FD057
:100E7C0000281FD1002D1DD10220013B1840013844
:100E8C0015E0002C0ED08B42E5D10022904204DC00
:100E9C00AC42E0D80020AC4209D2581E0123984342
:100EAC00013004E00123013999430800013030BDC1
:100EBC00002DD7D18B42CED18242E7DD0221581EC4
:100ECC0008400138F3E7C046F0B54E465746454654
:100EDC00DE46E0B543025B0A450083B00F1C994621
:100EEC002D0EC60F002D57D0FF2D24D08020DB00F7
:100EFC00C0041843002381469A469B467F3D7C02E2
:100F0C007A00FB0F640A120E984623D0FF2A4BD0AE
:100F1C00E30080240020E4047F3A1C43AD186B1CD2
:100F2C0047460193534677403A000F2B48D87D49EA
:100F3C009B00CB589F46002B00D085E008339A4687
:100F4C00063B9B467C027A00FB0FFF25640A120EBF
:100F5C009846DBD1002C00D090E0524601231A4376
:100F6C0092460120DBE74C4658461700022824D055
:100F7C00032800D1CFE00022002301284DD15802D4
:100F8C00D205400AFF071043384303B03CBC9046DF
:100F9C009946A246AB46F0BD002B5BD104239A4682
:100FAC00033B00259B46AAE7FF35002C60D1524637
:100FBC0002231A4392460220B1E7FF220023DEE708
:100FCC004B461B0C9C464B462604360C18046146BB
:100FDC003300220C6446000C43434E4350435443AD
:100FEC0080191A0C1218964203D9802149028C469A
:100FFC0064441B041B0C1004C01883015E1EB34117
:10100C00800E1843130C1B199B0103431C00230176
:10101C0079D5012362081C401443019A7F32002ABF
:10102C004DDD630704D00F232340042B00D0043480
:10103C00230103D53C4B019A1C408032FE2ABCDCB8
:10104C00A3015B0AD2B29AE70C239A46093BFF250F
:10105C009B4654E7180002F04BF94A46431F76258D
:10106C009A4000236D4291462D1A9A469B4646E7BC
:10107C00524603231A439246032050E7200002F005
:10108C0037F9431F2D1A9C40763D002047E78023FB
:10109C000027DB03FF2272E7424666E74C4632002C
:1010AC00584662E780234A46DB031A4222D01C4290
:1010BC0020D123435B025B0A4746FF225FE70123F3
:1010CC009A1A1B2A21DC23000199D3409E318C40B3
:1010DC001A0023005C1EA34113435A0704D00F22AD
:1010EC001A40042A00D004335A0111D49B015B0A24
:1010FC00002244E780234A46DB0313435B025B0A6E
:10110C003700FF223BE7019587E70022002336E7F3
:10111C000122002333E78023DB0323435B025B0ABA
:10112C00FF222CE7A88F0108FFFFFFF7F8B5474611
:10113C00CE464400C20F80B547024802400A84469E
:10114C00664648007F0A240EF60025009046FB00F8
:10115C00000EC90FB146FF2800D185E00126714071
:10116C00261A914257D0002E43DD002800D07FE094
:10117C004946002900D1AAE0013E002E00D0F7E03C
:10118C005B1A5A0100D48BE09B019C09200002F0F1
:10119C00AFF805388440854200DDD3E0451B2300C1
:1011AC0020200135EB40451BAC40621E944123438B
:1011BC00072400251C40012241460A40002C04D083
:1011CC000F211940042900D00433590100D480E0C8
:1011DC000135ECB2FF2D00D0A3E0FF2400235B020D
:1011EC00E405580AD207204310430CBC904699469C
:1011FC00F8BD002E74D1601CC0B2012800DCA7E041
:10120C004A469C1A620100D5B6E0002CBED10022E1
:10121C0000240023E3E7002E00DC85E0002846D004
:10122C00FF2C49D080224846D2041043814601222B
:10123C001B2E09DC20204C46801B84404A46200093
:10124C00F240441EA04102439B185A0128D5013597
:10125C00FF2D00D1A8E00122072494491A405B0815
:10126C000B4013431C40A6E7002E00D078E775E72F
:10127C00FF2C54D080224946D204114389460122C6
:10128C001B2E09DC20214846891B88404A46010058
:10129C00F240481E81410A439B1A5A0100D573E75C
:1012AC00012241460A40590700D089E711E048461F
:1012BC00002858D1FF2C0CD1DB08002B00D18CE777
:1012CC008020C00303435B025B0AFF2487E7FF2CEB
:1012DC0025D0DB08FF2DF0D05B025B0AECB27EE779
:1012EC00002C4DD0FF2818D08024E40472422343F4
:1012FC001B2A00DDC4E01C002025D440AA1A934010
:10130C005A1E934123434A460500D31A884638E7B0
:10131C00721CF8D0F243FF28EAD10A004B46FF2595
:10132C00D7E79B015B0A5AE7002E41D1651CE9B255
:10133C00012945DDFF2D00D14FE707244B445B0805
:10134C001C4038E707225A4B2D1A2340144032E731
:10135C00002C1DD1002B7AD14B46002B00D191E0F3
:10136C000A000025B5E7013E002E19D14B446CE76D
:10137C00FF2C84D1FF25ACE74A468846D41A05E7F2
:10138C00002BC5D10A00FF28C8D005004B46A0E7AA
:10139C00002B49D14B46002B77D00A00FF2598E74C
:1013AC00FF2C00D043E787E70A00FF24002316E751
:1013BC00002C15D1002B57D1FF28E6D14B467BE7EB
:1013CC00002C20D1002B57D04946002953D04B4438
:1013DC005A0168D50724364A1C4001251340EAE619
:1013EC00FF28EBD08022D204764213431B2E53DC11
:1013FC002025AD1B1A00AB40F2405C1EA3411343E9
:10140C004B44050021E7002BD8D04946002900D1D8
:10141C0052E78021C9030F4200D14DE760460842D4
:10142C0000D049E74B4647E74846FF25002800D146
:10143C004FE78022D203174204D06046104201D1FC
:10144C004B46884601224146FF250A4041E7484663
:10145C0000281FD01A1A500120D54A460724D31A47
:10146C001C4088460025A6E6741CC9D0F643FF280C
:10147C00BCD14B4620E799464B460025DB082BE7B1
:10148C00012340E700220023A9E680230022DB038E
:10149C00FF24A4E600251CE70123B1E7002AF1D0C4
:1014AC0013000025FCE60025FAE6C046FFFFFF7D91
:1014BC00FFFFFFFB41024200C30F490A120E00203E
:1014CC007E2A0DD99D2A0CD8802000040143952A30
:1014DC000ADC9620821AD1404842002B00D1080029
:1014EC007047034A9818FBE7963A9140F4E7C046D8
:1014FC00FFFFFF7F70B500283DD0C317C5185D40B6
:10150C00C40F280001F0F4FE9E22121A962A07DC62
:10151C00D2B2082833DD083885406802400A23E03F
:10152C00992A0BDD052329001B1AD94003001B3314
:10153C009D402B005D1EAB4119430D00052801DDBC
:10154C00431F9D402B000F490B406E0709D00F26FF
:10155C003540042D05D004335D0102D59F220B408C
:10156C00121A9B01580AD2B24002D205400AE40773
:10157C001043204370BD002400220020F4E76802D1
:10158C00400AF1E7FFFFFFFB70B5041E34D001F0F9
:10159C00AFFE9E22121A962A07DCD2B208282EDD44
:1015AC00083884406002400A21E0992A09DD0300D2
:1015BC0021001B3399404B1E994105231B1ADC401B
:1015CC000C43052801DD431F9C4023000D490B40B3
:1015DC00650709D00F252C40042C05D004335C0181
:1015EC0002D59F220B40121A9B01580AD2B240021C
:1015FC00D205400A104370BD00220020F7E76002BC
:10160C00400AF4E7FFFFFFFBF0B54F464646D646CF
:10161C000C000903C0B5490A470F5E0039431F038C
:10162C00DB0F9C4665007B0A570F1F436D0DE40FC3
:10163C00760DA146C000B846D200AB1B64457BD0EA
:10164C00002B5FDD002E00D0A4E03E00164300D13D
:10165C0012E15E1E002E00D09EE1871A4346B8426E
:10166C0080410125C91A4042091A0B0200D431E10C
:10167C0049024E0A002E00D16EE1300001F038FE16
:10168C000300083B1F2B00DD61E120223900D21A38
:10169C009E40D1409F400E439D4200DD51E15D1BB9
:1016AC006B1C1F2B00DD7CE12021C91A3D00300092
:1016BC008F408840DD40791E8F413100072228433E
:1016CC00D940002507433A40002A09D00F233B405C
:1016DC00042B05D03B1DBB42BF417F42C9191F00E3
:1016EC000B0200D426E26A1CC64B55056D0D9A42BE
:1016FC0000D106E1C44AFF080A40530752023B439B
:10170C00120B8EE0002B00D0B8E06B1C5B055B0D60
:10171C00012B00DC30E1871A4346B842B641CB1AA4
:10172C0076429E1B330200D54CE13B003343A1D1E2
:10173C0000220024002570E0002B00DCE5E0002EE8
:10174C0000D183E0AF4EB54260D0802636043743DB
:10175C00B846382B00DC3EE1434613431F007A1E8B
:10176C0097413F1887428041404209180B0200D430
:10177C00B0E0A44B01359D4200D1C3E0A24A7B08E6
:10178C000A4001210F401F435108D30707221F4372
:10179C003A4099E79B4EB54238D080263604374301
:1017AC00B846382B00DDDCE01F2B00DC30E11E00DE
:1017BC004746203EF740BC46202B04D04026F31A67
:1017CC0046469E403243170063467A1E97411F439C
:1017DC00CCE0002B00D104E24346134300D159E185
:1017EC004B07C00818438023C9081B03194208D0B3
:1017FC004546ED081D4204D14346D008590708431D
:10180C002900420FC9007F4D1143C0004B07CA0885
:10181C007C49C00803438D4268D012036D05120B3E
:10182C006D0D002112031800130B0A0D12051A433B
:10183C00764B2D0513402B435B00E4075B082343D9
:10184C0019001CBC90469946A246F0BD3E001643BA
:10185C0012D05E1E002E00D000E187188742804116
:10186C0041444042091801250B0233D5022585E776
:10187C0064463300414610001D00C7E7002D00D020
:10188C00DAE00C000443F3D05C1C00D19FE15D4C0A
:10189C00A64200D12FE1DB43382B00DD66E11F2B84
:1018AC0000DD83E120240500E41A0F00DD40D9405F
:1018BC00A0404346A7405B1A441EA04198462F43C4
:1018CC003843171ABA42924143465242991A644617
:1018DC003500CAE607223A40002A00D0F6E64B074C
:1018EC00CA084849FF083B438D4296D11900114361
:1018FC0000D19EE1802109030A431203120B414DD2
:10190C008FE71500002200238BE7002B00D0C7E0E7
:10191C006B1C5F057F0D012F00DCF1E0394DAB42F4
:10192C0000D1B9E085180A008542894142444942F8
:10193C0051180722CF076D082F4349083A401D0064
:10194C00C2E607223049ED1A31403A40BCE63E006F
:10195C002838864000279FE6380001F0C9FC20306B
:10196C008EE6434613431F007A1E9741C71BB842AD
:10197C0080414042091A78E60E003B0006431343AF
:10198C00002D61D1002E00D0F4E0002B00D11BE122
:10199C0064463900100039E71A4FBB427AD0330045
:1019AC00FFE630001F3DE840202B03D04021CB1A2E
:1019BC009E4037437B1E9F41072207433A4000213C
:1019CC00002589E7171A4346BA42B641591A76429E
:1019DC008E1B64464EE61F2B00DDADE020264746ED
:1019EC00F61AB740B9461700B246DF404E463E43A2
:1019FC0037005646B240561EB24117434246DA40B3
:101A0C008918AEE6FF070000FFFF7FFFFFFF0F8086
:101A1C0020264746F61AB740B9461700B246DF40B3
:101A2C004E463E4337005646B240561EB24117430F
:101A3C004246DA40891A99E77F4CA6425BD0802453
:101A4C0024045B42214327E7002E0CD1002B00D14C
:101A5C00CBE0644639001000774DD7E6764FBB4299
:101A6C0018D0330075E6002B14D04B07C008184370
:101A7C008023C9081B03194207D0FC081C4204D15F
:101A8C007907D0080843E14621004C46420FC900B3
:101A9C001143C000684DB9E61D0000220023C0E6CA
:101AAC00002D5BD10D00054300D1E2E65D1C00D199
:101ABC00B0E0614DAE421FD0DB43382B71DC1F2BE5
:101ACC0000DD96E020250F00ED1AAF40B946070067
:101ADC00AA46DF404D463D432F005546A840D9400D
:101AEC00451EA84188440743BF1897429241514272
:101AFC00414435003AE6644635004146100085E61F
:101B0C000B000343002D00D063E6002BF5D04346B9
:101B1C00134300D17AE6871887428041072241445B
:101B2C00404209183A400B0200D4D5E6434B01352C
:101B3C001940C9E5380069E61E004746203EF740CB
:101B4C00BC46202B04D04026F31A46469E40324316
:101B5C00170063467A1E97411F4302E6364DAE428C
:101B6C00CAD080252D045B422943A6E70843411EB9
:101B7C008841A6E6002B00D148E6871A4346B842B6
:101B8C00B641CB1A76429E1B33024BD5171A4346ED
:101B9C00BA429241591A5242891A072264463A4073
:101BAC0092E501430F00791E8F419DE71C000F0049
:101BBC00203CE740202B03D04024E31A99400843F3
:101BCC00411E884138437CE60022002425E6171A82
:101BDC004346BA429241591A5242891A6446350018
:101BEC0043E541461000144D10E6802200241203F8
:101BFC0080E61D000F00203DEF40BC46202B03D09B
:101C0C004025EB1A9940084307006346781E87412C
:101C1C001F4369E7871897429B4141445B42C918AF
:101C2C003500A3E53B003343CED0072231003A40C8
:101C3C0052E600231A00F4E5FF070000FFFF7FFFC8
:101C4C00F0B55746DE464E464546E0B5834607009E
:101C5C000E03480085B092461C00360B400DCD0F8C
:101C6C00002800D19DE0954B984239D08023F60096
:101C7C001B041E43924A7B0F334399469446030040
:101C8C006344009300230026FF00029323031B0BE5
:101C9C0098466300E40F52465B0D019400D1B3E00B
:101CAC0086498B4200D19EE04246D100802212042C
:101CBC000A435146490F11438B46814952468C4683
:101CCC0000996344CB1A0021D20000932B0063408F
:101CDC009A460F2E00D905E17A4BB6009B599F46C8
:101CEC005B463343994600D0B8E002230826002710
:101CFC0000900293CAE7CB463A0002990195019BEA
:101D0C009A46022927D0032900D180E2012944D028
:101D1C006D49009B8C4663441C00002C38DD530736
:101D2C0000D013E2D2085B46DB0109D55946674B5C
:101D3C0019408B468021C9008C46009B63441C00D3
:101D4C00634B9C4207DC5B4664055F075B021743F1
:101D5C001B0B620D02E000230027584A00211B03D5
:101D6C001C0B0B0D1B05234314055A4A380013405A
:101D7C001C4353466400DB0764081C43210005B078
:101D8C003CBC90469946A246AB46F0BD012252425D
:101D9C0001231B1B382B00DCADE1002200230027A4
:101DAC00DCE75B46334399465ED0002E00D18AE1D6
:101DBC00300001F09DFA03000B3B1C2B00DD7BE196
:101DCC001D22D31A5A460100DA4008398E401300FE
:101DDC005F46334399468F403F4B00261B1A0093B6
:101DEC000023029352E7414653460B433B499B4623
:101DFC008C46009B634400935B46002B3BD1022333
:101E0C0000221E43022161E7434613439B4637D011
:101E1C004346002B00D162E1404601F069FA030011
:101E2C000B3B1C2B00DD53E102004146083A91406C
:101E3C0088461D21CB1A5146D9400B0041460B4315
:101E4C009B46534693401A00009B25499C46604490
:101E5C0003008C4663440093002137E70323B1460B
:101E6C0000900C26029311E7002300930133042603
:101E7C00002702930AE70323C3461E43032125E7E9
:101E8C0001331E430022012120E700239A468023C0
:101E9C0000271B03094A61E7802349461B031942AB
:101EAC0000D1E2E05946194200D0DEE00B431B039F
:101EBC0017001B0BA246014A50E7C046FF07000063
:101ECC0001FCFFFFE88F0108FF030000FFFFFFFE8E
:101EDC00FE070000FFFF0F800DFCFFFF01F8FFFF66
:101EEC00F3030000D94500D9CBE000D1C6E03C009B
:101EFC0048460027009B013B00935B46160E1B02D5
:101F0C001E431302984633041B0C9946310C019165
:101F1C00FEF7B2F94A4642430B04210C0500194363
:101F2C008A4207D98919013D8E4203D88A4201D9C8
:101F3C00851E8919881A0199FEF79EF909048C46A9
:101F4C004A46210464464243090C030021438A4259
:101F5C0004D98919013B8E4200D8F1E02D041D43B0
:101F6C00AB464346891A4246280C12041D0C5B46AC
:101F7C00140C22001B041B0C5A4303946B43444364
:101F8C00029568431B19150CEB189C4203D980244D
:101F9C006402A44660441C0C15041B042D0C201870
:101FAC005D19814277D373D00C1AA24A7D1BAF42C4
:101FBC00BF419446009B7F426344E01B1C00864259
:101FCC0000D1DBE00199FEF757F94A4642430B0476
:101FDC00290C070019438A4207D98919013F8E42FF
:101FEC0003D88A4201D9871E8919881A0199FEF7EC
:101FFC0043F909044A46894629044D464243090CD3
:10200C00030029438A4207D98919013B8E4203D820
:10201C008A4201D9831E89193F04891A3A00039F09
:10202C001A43380013041B0C584381460298150CB4
:10203C006F43434345434846000C8446DB196344D5
:10204C009F4203D9802040028446654448461F0CB9
:10205C0000041B04000C7D191818A94200D284E05E
:10206C0000D17FE001231A4357E680234A461B0325
:10207C0013431B031B0BAA466F4A6FE6BA4200D9E7
:10208C0035E74B46DC0758087B081C43FF0734E751
:10209C000024AF4289D247444745A4415B46644281
:1020AC00A4196418013BA6421ED2A0426DD800D1DF
:1020BC00B6E0241A9B4678E703005A46283B9A4020
:1020CC000027914688E6584601F012F9203072E656
:1020DC0003005246283B9A4093460022B4E65046F1
:1020EC0001F006F920309AE6A642E2D1B845DCD9D7
:1020FC00341A9B4659E71F2B65DC504C0099A446BB
:10210C005C46614408008C4011008240D940501E4E
:10211C0082410C4314435A46DA401300620709D03B
:10212C000F222240042A05D02200141D944289411A
:10213C0049425B181A0262D50122002300270DE6E2
:10214C008A4200D80AE7831E891907E70F23134038
:10215C00042B00D1E6E5171D9742924153429B4454
:10216C00FA08E0E5002800D1D7E57118531EB142FA
:10217C0027D3A94215D358D01A0073E7002B00DCE3
:10218C0004E6012300229B44CDE502234744474546
:10219C0089415B429C46494289190C19E344241A33
:1021AC0003E743465F0047459B41B8465B429E1997
:1021BC00023A8919A94200D054E7404500D051E7B2
:1021CC00ABE51A00F6E71F215F4649420C1BE740BE
:1021DC00202B07D01A49009B8C46634418005B46A1
:1021EC0083401A43501E82413A430727002317406D
:1021FC0009D00F21002311401400042995D122008D
:10220C005F075B021B0BD20817430022A6E5802355
:10221C0059461B030B431B0317001B0B064A9DE57A
:10222C00BD42B2D89B460024BFE68045B9D31A0004
:10223C00C3E7C046FF030000FF0700001E040000B8
:10224C003E040000F0B54F464646D6468446C0B51F
:10225C008046194E18030F034D00000B5C0082469C
:10226C003F0B6D0DC90F9146640DDB0F0120B5427C
:10227C000AD0B44203D0A54201D157450CD01CBCA6
:10228C0090469946A246F0BD66463E43F7D1AC4215
:10229C00F5D154461443F2D10120C845EFD19942EF
:1022AC0007D0002DEBD163461F433800471EB841C1
:1022BC00E5E70020E3E7C046FF070000F0B54F4616
:1022CC004646D6464D00C0B50E03C90F8A462C496A
:1022DC001F035C008046360B6D0D91463F0B640D61
:1022EC00DB0F8D421ED08C4216D0002D1ED13043F8
:1022FC008446002C01D13A4323D06246002A1AD0DE
:10230C009A4529D0514602200139084001381CBC9D
:10231C0090469946A246F0BD39001143E5D0022003
:10232C004042F4E73043FAD1AC420FD0002C0FD12D
:10233C003A43E7D00CE00122013B934318000130F3
:10234C00E5E763460020002BE1D0DBE73A43E6D11A
:10235C009A45D7D1A542D5DCA54205DBBE42D1D8E2
:10236C0008D00020BE42D2D25046012301389843F7
:10237C000130CCE7C845C5D80020C845F4D3C6E722
:10238C00FF070000F0B54F464646D6464D00C0B597
:10239C000E03C90F8A462E491F035C008046360B7C
:1023AC006D0D91463F0B640DDB0F8D4218D08C42A6
:1023BC0011D0002D18D130438446002C1ED13A4345
:1023CC001CD163460020002B30D05146022001392D
:1023DC00084001382AE039001143EAD0022025E0F8
:1023EC003043FBD1AC4226D0002C26D13A4324D129
:1023FC005146022001390840013817E06246002A94
:10240C000FD09A45E1D1A54205DBBE42DDD819D0EB
:10241C000020BE420AD250460123013898430130B5
:10242C0004E00122013B9343180001301CBC904690
:10243C009946A246F0BD3A43D0D19A45C5D1A542A2
:10244C00C3DCE0E7C845C0D80020C845E3D3EDE7BE
:10245C00FF070000F0B55746DE464E464546E0B550
:10246C00834606000F03480087B092461D003F0BC1
:10247C00400DCC0F002800D16FE0DE4B984238D0D5
:10248C008023FF001B041F43730F3B430193DA4B64
:10249C000027994600239B46F60081442B036900D4
:1024AC001B0B52469846490DED0F002900D185E0D3
:1024BC00D04B994200D173E04346DA0080231B04D1
:1024CC0013435246CC48520F8446134352460020C5
:1024DC006144D20089442100694000918C4601215D
:1024EC0049448A460F2F00D990E0C449BF00CF5908
:1024FC00BF465B463B43019300D06AE102230827A9
:10250C00002681469B46C9E732005846019B61462E
:10251C000091022800D175E0032800D1FEE10128CA
:10252C0000D02CE100230027002600253F032A0DB4
:10253C003F0BB34812053A4302401B051343009A64
:10254C005B00D1075B080B433000190007B03CBCA3
:10255C0090469946A246AB46F0BD5B463B43019381
:10256C0000D12FE1002F00D1A5E1380000F0C0FE12
:10257C0003000B3B1C2B00DD96E11D22D31A5A469F
:10258C000100DA405E4608398F4013008E403B4311
:10259C0001939C4B00271B1A994600239B467DE711
:1025AC00414653460B4393498C46E144002B00D0E3
:1025BC001AE102220220174300228CE7134300D1B8
:1025CC000DE14346002B00D181E1404600F090FE26
:1025DC0002000B3A1C2A00DD72E101004346083967
:1025EC008B4098461D239A1A5346D3401A004346F3
:1025FC00134352468A404946081A82498946814407
:10260C00002068E77B4B002700268EE7140C120491
:10261C00120C1100370C3604350C794328008C460B
:10262C002E0060436044834656432100300C8046A4
:10263C005846794340440291844506D98846802106
:10264C0049028C46E044414602913604010C360C9A
:10265C0000048B4681191E0C1B041B0C03911900E2
:10266C0079438C46280075436544A8465843050CAD
:10267C0045447743A94203D9802149028C466744DB
:10268C00290C8C4639000004000C2D042D186144D3
:10269C00AB4405915946049101990F043F0C080C69
:1026AC00390051434243904602008C46090C8B463C
:1026BC0062437C4344445C44A04503D980214902D5
:1026CC0088464244210C884661460904090C8C4614
:1026DC0039005943434370437E430F0CF6182404CE
:1026EC00BE19644442448C46B34203D980235B0236
:1026FC0098464044029B61469846049B37044344E9
:10270C009B46AB45AD416B420D0405992D0C8C4697
:10271C007F196744FD18A8465D462D19A542A441B2
:10272C0093466442A446C344DC448F42BF4198455F
:10273C009B4193459241A445A4415B427F421F4378
:10274C00360C52426442BF192243BF1862463818F5
:10275C004302D20D039913436A020A43501E82416D
:10276C006146ED0D2A434E023243D90100D4B3E049
:10277C000126500832400243DE0732435B08224CEC
:10278C005444002C62DD510709D00F20104004285E
:10279C0005D0101D9042924152429B180200D90163
:1027AC0004D580241948E40003405444184884425A
:1027BC0000DD27E75E075B02D2081F0B630516439B
:1027CC005B0DB2E6002399460133042700269B4695
:1027DC0064E60323019781460C279B465EE60122A3
:1027EC0001201743002276E6032303201F434346B0
:1027FC0071E6C046FF07000001FCFFFF28900108AE
:10280C00FFFF0F800DFCFFFFFF030000FFFFFFFE2B
:10281C00FE0700000023802700933F030026434B54
:10282C0083E6019B3200A446584670E6AC466EE641
:10283C00802701993F0339422DD03B422BD11F43B6
:10284C003F033F0B00951600384B6EE601252D1B00
:10285C00382D00DD66E61F2D40DC35481C00504449
:10286C00160082408440EE40501E82413443144393
:10287C00EB40620709D00F222240042A05D0220027
:10288C00141D9442804140421B181A023ED501236C
:10289C000027002649E68027019B3F031F433F0387
:1028AC003F0B0094214B40E603005A46283B9A40CC
:1028BC00002601926DE6584600F01AFD203057E6CE
:1028CC0003005246283B9A401300002293E65046E0
:1028DC0000F00EFD20307BE6CA4650E71F201E009C
:1028EC004042041BE640202D03D0124C5444A3401C
:1028FC001A43501E8241324307260027164009D046
:10290C000F200023104014000428B9D122005E07C8
:10291C005B021F0BD2081643002306E680273F03F9
:10292C001F433F033F0B1600004BFEE5FF07000063
:10293C001E0400003E040000F8B557464E464546BE
:10294C00DE460C000903E0B5490A460F5F0031432F
:10295C001E03DB0F760A9B46530F3343C84E6500AC
:10296C00C000E40FD2006D0DA24681467F0D9C463F
:10297C009046B74200D1B9E05B46012673409B46B6
:10298C00EE1BA34500D183E0002E63DD002F00D0A9
:10299C00B1E06346134300D123E1731E002B00D03A
:1029AC00BAE1861A6346B04280410125C91A4042F9
:1029BC00091A0B0200D447E149024B0A98464346D8
:1029CC00002B00D189E1404600F092FC0300083B4B
:1029DC001F2B00DD7CE120223000D21A4146D04072
:1029EC00994002009E400A439D4200DD6AE15D1B56
:1029FC006B1C1F2B00DD94E1202110003500C91A3F
:102A0C008E40DA408840DD40711E8E411100072255
:102A1C002843002506433240002A09D00F233340B7
:102A2C00042B05D0331DB342B641764289191E00E2
:102A3C000B0200D43DE26A1C914B55056D0D9A4278
:102A4C0000D119E18F4AF6080A4057075202374362
:102A5C00120B9BE0002E00D0C5E06E1C7605760DA7
:102A6C00012E00DC48E16746861ACB1BB042BF4101
:102A7C007F42B8461F004346FF1A3B00B8461B0274
:102A8C0000D55FE137439AD100220024002579E07C
:102A9C00002E00DCFAE0002F00D18DE0784B9D4237
:102AAC0067D0802367461B041F43BC46382E00DCCE
:102ABC0052E1634613435A1E93411E1886428041CD
:102ACC00404209180B0200D4BEE06D4B01359D420B
:102ADC0000D1D2E06B4A73080A4001210E401E431C
:102AEC005108D30707221E43324095E71E001643B8
:102AFC0000D045E740E7624B9D423AD080236746C1
:102B0C001B041F43BC46382E00DDEBE01F2E00DCFF
:102B1C003AE133006746203BDF403B00202E05D0D6
:102B2C004027BF1B6646BE40324390464646721E47
:102B3C0096413343DAE0002B00D114E26346134391
:102B4C0000D168E180234E07C008C9081B03064367
:102B5C00194208D06046C008184204D163460100EF
:102B6C00D2085E071643F3009946C900720F444D14
:102B7C0011434B46DE08424B4F073743CA089D4270
:102B8C0000D16EE012036D05120B6D0D00211203C6
:102B9C00130B0A0D12051A433B4B2D0513402B4307
:102BAC005B00E4075B082343380019003CBC9046EB
:102BBC009946A246AB46F8BD6346134311D0731E2B
:102BCC00002B00D007E186188642804161444042C8
:102BDC00091801250B0237D502257BE73E0061461B
:102BEC0091463500C5E75C46002D00D0E1E00B00B6
:102BFC000343F3D0731C00D1ACE1214B9F4200D1B5
:102C0C003AE1F343382B00DD6FE11F2B00DD8CE143
:102C1C0020250E00ED1AAE40B0460600AA46DE4056
:102C2C00454635432E005546D940A8406346451EBF
:102C3C00A8415B1A9C463043161AB2429241634635
:102C4C005242991A3D00B4E607223240002A00D0C5
:102C5C00E4E60B4BF6084F073743CA089D4200D0F9
:102C6C0090E73B00134300D1A6E180231B031A43DA
:102C7C001203120B024D89E715000022002785E78D
:102C8C00FF070000FFFF7FFFFFFF0F80002E00D02B
:102C9C00C7E06B1C5E05760D012E00DCF0E0C84D24
:102CAC00AB4200D1B9E085180A00854289416244E3
:102CBC00494251180722CE076D082E43490832406D
:102CCC001D00A9E6BF49ED1A114007223240A3E6C8
:102CDC00320028388240002686E6300000F008FBDF
:102CEC00203073E6634613435A1E9341C61AB04212
:102CFC0080414042091A5CE60E00674606431743C2
:102D0C00002D5ED1002E00D0F3E0002F00D11EE18B
:102D1C005C46614691462CE7A94FBE427BD01E0013
:102D2C00F1E610001F3DE840202B03D04021CB1AC8
:102D3C009A401643731E9E410722064332400021DF
:102D4C00002583E7161A6346B2428041591A404265
:102D5C000B1A98465C4632E61F2E00DDABE02027AE
:102D6C00BB1B9A4663465746BB40994613004F46D9
:102D7C00F3401F433B005746BA40571EBA4113431A
:102D8C006246F240891898E62027BB1B9A46634698
:102D9C005746BB40994613004F46F3401F433B0038
:102DAC005746BA40571EBA4113436246F240891A3D
:102DBC009CE7834B9F425FD080252D0473422943AF
:102DCC0020E7002E0CD1002F00D1D0E05C466146EC
:102DDC0091467B4DCDE67A4FBE421CD01E0065E677
:102DEC00002F18D0C0084E0706438020C9080003E6
:102DFC00014208D06346DC08044204D12100DA46C3
:102E0C00D2085E071643F300994601245346C900C5
:102E1C00720F11431C406A4DABE61D0000220027C7
:102E2C00B4E6002D59D10B00034300D1D6E6731C38
:102E3C0000D1B2E0624B9F421ED0F343382B6FDCC3
:102E4C001F2B00DD97E020250E00ED1AAE40B0469A
:102E5C000600AA46DE40454635432E005546A8409E
:102E6C00D940451EA8418C440643B618964292415F
:102E7C00514261443D0025E63D006146914678E6AD
:102E8C000B000343002D00D055E6002BF5D0634614
:102E9C00134300D16DE6861886428041614440425E
:102EAC00091800220B0200D4D0E6464B013519401C
:102EBC00B2E5B1465DE633006746203BDF403B00A0
:102ECC00202E05D04027BF1B6646BE40324390469D
:102EDC004646721E96413343EFE5394B9F42CBD0A9
:102EEC0080252D0473422943A8E70843411E8841DD
:102EFC00A2E6002F00D13CE66346861ACF1AB042F8
:102F0C009B415B42FB1A98461B024ED5161A634630
:102F1C00B2429241591A5242891A5C4600227BE510
:102F2C0001430E00711E8E419FE71D000E00203DD7
:102F3C00EE40B046202B04D04025EB1A99400843B4
:102F4C00814648464346411E8841184374E6002298
:102F5C00002417E6161A6346B2429241591A52429D
:102F6C00891A3D0025E561469146154D01E6802202
:102F7C000024120379E61D000E00203DEE40B04601
:102F8C00202B04D04025EB1A9940084381464E462D
:102F9C004346711E8E411E4367E7861896429B413D
:102FAC0061445B42C9183D008CE547463743CED09F
:102FBC0007224146324049E600273A00E6E5C04682
:102FCC00FF070000FFFF7FFF70B50C4E0D031C03C5
:102FDC0049005B002D0B490D240B5B0DB14208D051
:102FEC00064900208B4203D114432000441EA0410B
:102FFC0070BD05430120002DFAD1F1E7FF07000059
:10300C0030B5144D0A034B00120B5B0DC90F002495
:10301C00AB4211DD104CA34210DC8024640322432C
:10302C000E4CE41A1F2C0CDD0D48C31ADA401300A9
:10303C005C42002900D11C00200030BD094BCC188B
:10304C00FAE7094DE040AC4663449A401300034351
:10305C00EEE7C046FE0300001D0400003304000030
:10306C0013040000FFFFFF7FEDFBFFFF70B500288E
:10307C002DD0C317C5185D40C40F280000F038F9D7
:10308C00154B1B1A5B055B0D0A2815DD0B388540AB
:10309C0000222D032D0B002110002D030A0D2D0BEA
:1030AC0012052A430D4D1B052A4013435B00E40710
:1030BC005B082343190070BD0200290015329140B2
:1030CC000A000B21081AC5402D032D0BE3E7002441
:1030DC00002300250022DEE71E040000FFFF0F8006
:1030EC0010B5041E25D000F003F9144B1B1A5B0518
:1030FC005B0D0A2812DD0B38844000222403240BBC
:10310C000021100024030A0D240B120522430C4C41
:10311C001B05224013435B00590810BD020021001F
:10312C00153291400A000B21081AC4402403240BC9
:10313C00E6E7002300240022E2E7C0461E0400005C
:10314C00FFFF0F804100090E4B1C70B5DBB246022D
:10315C00750AC40F012B14DDE0239B006D07360BA1
:10316C00CB1800210A0D280012051C4D32435B05BB
:10317C002A405B0813435B00E4075B0823431900F8
:10318C0070BD002914D1002D1ED0280000F0B0F81D
:10319C000A281CDC0B232A001B1ADA400300153307
:1031AC009D400F4B12031B1A5B05160B5B0DD8E7EA
:1031BC00002D06D0320B802636036D071643094BC3
:1031CC00CFE7084B0026CCE700230026C9E7030015
:1031DC002A000B3B9A400025E3E7C046FFFF0F8017
:1031EC0089030000FF070000F0B54C00640D0B03D1
:1031FC00621C5B0A460F5205C90F1E43C500520DD7
:10320C00012A29DD374BE718FE2F1CDC002F3BDD94
:10321C008001431E98410722F3006D0F03432B439B
:10322C001A40002A04D00F221A40042A00D004337A
:10323C008022D2041A4024D00137FAB2FF2F02D0D8
:10324C009B01580A01E0FF2200204002D205400AEF
:10325C00C90710430843F0BD3543002C04D1002DA1
:10326C000AD100220020F0E7002DECD08020C00312
:10327C003043FF22E9E7002400235B02580AE2B244
:10328C00E3E7DB083C00F8E73B001733F3DB802374
:10329C001B0433431E26F61B1F2E14DD0222524242
:1032AC00D71B1A00FA401700202E04D00E4A944661
:1032BC006444A3401D432B005D1EAB4107223B43DE
:1032CC001A400027ADE7094A2800A2189540934000
:1032DC006C1EA541F04007222B4303431A400027E4
:1032EC009FE7C04680FCFFFFA2FCFFFF82FCFFFFB4
:1032FC001C2101231B04984201D3000C10391B0A1A
:10330C00984201D3000A08391B09984201D30009DD
:10331C00043902A2105C40187047C0460403020234
:10332C0001010101000000000000000010B500299F
:10333C0003D1FFF7DDFF203002E0081CFFF7D8FFB8
:10334C0010BDC046F0B51E4B1E481B8885B09BB205
:10335C001D4A1E49834206D1012313700023FA2013
:10336C000B7005B0F0BD180A0DD010700B701378EF
:10337C000B2601930222012302A9073101988342F3
:10338C0003D90020EDE70120EFE700205C1E744319
:10339C00087008780A2802D90133DBB2EEE7084836
:1033AC00171808783F882018BC466546084F40001F
:1033BC003D52087802320130C0B292B20870E8E790
:1033CC0000D80108FFFF0000240000205710002047
:1033DC009A0A0020F8B5012400250A27094B1B780E
:1033EC00A34201D22800F8BD611E074B4900661CA0
:1033FC00C918B0B203F068FF192C00D93D00F4B223
:10340C00ECE7C0462400002070710020F0B585B0B8
:10341C0002AB00249F1D1C233C800093144B1B7893
:10342C00A34202D2002005B0F0BD0A23002563435D
:10343C00104A009E9B1801933000390003F044FFA2
:10344C00019A3B8852195370019A1B0A5355013645
:10345C000235B6B20A2DEFD16543064B01345D1926
:10346C0000236B72009BE4B205339BB2D5E7C046D8
:10347C0024000020490F0020F0B5002485B002ABD9
:10348C009F1D3C80174B651C1B78E1B2ADB28B4283
:10349C001ED89934144DA4B2002601943900019819
:1034AC0003F012FF3B88AA1953701B0AAB55019B02
:1034BC00023601339BB201930A2EEFD100200B4B45
:1034CC00687205340A35A4B29D42E5D105B0F0BD51
:1034DC00074BCB344900A0B2591803F0F5FE2C0071
:1034EC00D0E7C04624000020420E0020A60E00208B
:1034FC00A60E0020F0B50E27002587B005AC02AB58
:10350C00FF182100E42025803D8003F0DDFE0395AB
:10351C00A84201D1237803932100E52003F0D4FEC7
:10352C0039000500E62003F0CFFE2843002580B2C9
:10353C00A84203D125883B882D04ED182100E720F3
:10354C0003F0C2FE39000600E82003F0BDFE304354
:10355C00002680B2B04203D126883B883604F61888
:10356C002100E92003F0B0FE254F002804D1238868
:10357C001A0A3A70234A13702100EA2003F0A4FEC1
:10358C00002805D1238820491A0A0A701F4A137093
:10359C002100EB2003F098FE002805D123881C495C
:1035AC001A0A0A701B4A13703B78002B09D0154A73
:1035BC001278002A05D0009229003200039805F0F9
:1035CC007BFA114B1B78002B09D0104A1278002A79
:1035DC0005D0009229003200039805F06DFA0C4BCF
:1035EC001B78002B09D00B4A1278002A05D00092C8
:1035FC0029003200039805F05FFA002007B0F0BDF7
:10360C00251100203F0E002026110020400E002026
:10361C0027110020410E0020F7B58A2001AD2900AA
:10362C00400003F051FE414C002859D12B882370E7
:10363C001B0A8E2029004000637003F045FE002811
:10364C0053D12B88DA0B22715B0816202900FF302E
:10365C00E38003F039FE364C00284BD12B888B20AD
:10366C0029004000238003F02FFE002845D12B8831
:10367C0018202900FF30638003F026FE00283FD17C
:10368C002B8823711B0A8C2029004000637103F0E6
:10369C001BFE6B4606001A209F1D3900FF3003F0FD
:1036AC0013FE0643B6B2002E2FD13B882A881B048A
:1036BC0013438D2029004000A36003F005FE002871
:1036CC002DD12B8823731B0A63731C202900FF3018
:1036DC0003F0FAFD002826D12B880020A376FEBD2E
:1036EC00144B1A7822705B78A3E7124B1A7922716B
:1036FC00DB88AAE7104B1B88B1E70F4B5B88B7E759
:10370C000D4B1A7922715B79BDE70C4B1B78002BA2
:10371C0002D0E1235B02CCE7074B9B68C9E7C023CF
:10372C005B01A381D1E7044B9B7ED6E7266C00207E
:10373C00A86C00200000002008000020970A002040
:10374C001E23F0B58BB002AA9B18002201271A8009
:10375C00BDB228001E2602AB3A30F618800080B2AB
:10376C00310003F0B1FDFBB206900793002845D160
:10377C003288130A1909B94240D10F210B403DD0B0
:10378C00AD00ADB22800063979431F4CE9306418FE
:10379C0063702272310080B203F096FD28003388EA
:1037AC00EA301A0AA2706371310080B203F08CFD0A
:1037BC003388EB351A0AE270A3713100A8B203F01A
:1037CC0083FD3388F9B21A0A2271E371607804F030
:1037DC00C9FA0121207AA37842100A4001400698C8
:1037EC000590E0790490A07903906079029020799B
:1037FC000190E0780090F8B204F0BEFB0137072F7F
:10380C00A6D100200BB0F0BDF4170020F7B5322084
:10381C000EF0C6FB0600FB20002E05D02F4C04300A
:10382C0023780027FE2B1BD0FEBD23000099143BF0
:10383C000135CA540134EDB22AE02A0031000EF0F1
:10384C00FCFD274A002113783000013313702A0045
:10385C000EF0FCFD2378FE2B3AD11437642F37D0B1
:10386C002300321B14330092227800990A5501343C
:10387C009C42F9D11B4B711CFB18142218000193AC
:10388C000EF0DBFD1422002130000EF0DFFD0025D0
:10389C002278931CDBB2012B01D9322DC5D17319BF
:1038AC00013B1B78002B01D00135EDB228000EF046
:1038BC0077FB0C4BDB19D8600028BED10100142219
:1038CC0001980EF0C3FD30000EF074FB0E20ABE738
:1038DC0030000EF06FFB0020A6E7C04600DC0108AC
:1038EC00F1110020C46C002010B5FFF72BFDFFF781
:1038FC0071FDFFF78BFDFFF7BFFDFFF7FBFDFFF73A
:10390C008BFEFFF71DFFFFF781FF10BDF8B50124FB
:10391C0000250A270A4B1B78A34201D22800F8BDC8
:10392C00631E084A5B00995A661C002902D0B0B28B
:10393C0003F0F4FC192C00D93D00F4B2EAE7C046C0
:10394C002400002070710020F7B500252F00134BC8
:10395C001B78AB4201D20020FEBD0A266E43104BF1
:10396C00F25C002A17D0F6183B003C0021331C34C3
:10397C009BB2A4B20193337871781B02C918200052
:10398C0089B203F0CBFC0134019BA4B202369C42F9
:10399C00F1D10537BFB20135EDB2D8E724000020D4
:1039AC00490F0020F0B50E0015001C0085B00AABC5
:1039BC001F780BAB1B7881B200930CAB1B78E42007
:1039CC0001930DAB1B7802930EAB1B78039303F0A2
:1039DC00A5FC310A89B2E52003F0A0FCB1B2E620C7
:1039EC0003F09CFC290A89B2E72003F097FCA9B2EA
:1039FC00E82003F093FC2102C91989B2E92003F0F5
:103A0C008DFC009BEA201902019BC91889B203F0B6
:103A1C0085FC029BEB201902039BC91889B203F0A9
:103A2C007DFC002005B0F0BD8A2010B51F4C400075
:103A3C00637821785B01194303F070FC8E202179A7
:103A4C00E388C903194389B2400003F067FC1620D0
:103A5C00174CFF30218803F061FC8B2061884000FB
:103A6C0003F05CFC18206379217B1B021943FF30A7
:103A7C0003F054FC8C20A368400099B203F04EFC78
:103A8C001A20A368FF30190C03F048FC8D20637BCF
:103A9C0021791B021943400003F040FC1C20A17E3D
:103AAC00FF3003F03BFC002010BDC046266C00200C
:103ABC00A86C0020F8B50E4E3422002130000EF018
:103ACC00C5FC012400250B4B1B78A34201D2280016
:103ADC00F8BD631E5B00F15A671C002902D0B8B216
:103AEC0003F01CFC192C00D90A25FCB2EBE7C046EC
:103AFC00707100202400002070B5054C054D236822
:103B0C00AB4204D003F09AFC002800D1256070BDB4
:103B1C00F07F0020ADDEEFBE0E23F0B512250024A1
:103B2C0001278FB003AE6B446D440093320006AB9B
:103B3C0005A9012008F08CFD04AA08AB07A9009583
:103B4C00022008F085FD338809A9059809930A9786
:103B5C000B940CF0C9FC02230B932B8809A9089831
:103B6C0009930A940CF0C0FC3188220005980CF0E3
:103B7C00F7FD052009F0F2F8298808980CF0EAFD09
:103B8C00A0420FD131883A0005980CF0E9FD0520D0
:103B9C0009F0E4F8298808980CF0DCFD013844425F
:103BAC004441E4B220000FB0F0BD10B509F040FA6A
:103BBC00E1231B0243608023DB00036180230400AC
:103BCC005B0183600EF04AF82023226811680B43D6
:103BDC00136010BD044B10B59968FCF78DFA434285
:103BEC005841C0B210BDC04690000020F8B51C4929
:103BFC000500FCF781FA062406001A4F002E23D08C
:103C0C0019492800FCF778FA00281FD0174928001A
:103C1C00FCF772FA00281BD015492800FCF76CFA47
:103C2C00002817D039002800FCF766FA002813D0BA
:103C3C0010492800FCF760FA00280FD0013CE4B2D0
:103C4C00002CDBD12000F8BD0120FCE70220FAE7B4
:103C5C000320F8E70420F6E70520F4E70620F2E756
:103C6C009B920108979201084E97010892920108C5
:103C7C00949201089A92010873B505000124032659
:103C8C00A54210D00B4B20001A880B4B110A5A700E
:103C9C00002219709C70110000960A2304F0EAFFB0
:103CAC000A2009F0EEFA0134E4B2062CE8D1002027
:103CBC0076BDC046580000201B0F0020F0B587B021
:103CCC006A463C4B00AF1B783B4C3B610733DB082F
:103CDC00DB00D31A9D467B6100231A003D69D9B2E3
:103CEC008D4230D801237A690138135416221D00F5
:103CFC00424398403149304C5218FA60F9685A00E6
:103D0C008A5A002A0CD02E00591E8E403100065BB8
:103D1C00D2083143015379698A180221013A117092
:103D2C000133072BEAD10221002318000131C9B25B
:103D3C004A1E3A603C69DAB294420AD80028F3D1A0
:103D4C00BD4607B0F0BD7969CA5459000A53013316
:103D5C00C4E77A693C68D25CA24228D116245C4341
:103D6C00164AA2187A605A00BA60134A0124944683
:103D7C007D686200AA5A002A16D0D208013AFA606D
:103D8C00FD687A69555D002D0ED10126651EAE4089
:103D9C0032006646BD680130AD5BC0B21543BA68EF
:103DAC0095537A69FD6851550134072CE0D10133E4
:103DBC00C0E7C04624000020D80C00209A0A00203E
:103DCC000B78F0B5FF220400002B00D10278084BD1
:103DDC001E78002318009E4200DCF0BDE55C954285
:103DEC0004D2CF5C002F01D12A00D8B20133F2E704
:103DFC002400002010B5064B01221C780300191A70
:103E0C008C4201DC100010BD197801330A40F6E732
:103E1C0024000020F0B593B004000D0032220021E4
:103E2C0005A80EF013FB1A22002147480EF00EFBDA
:103E3C00002301204549621E8B5445498B5416338F
:103E4C005343444A9B180193AAB201994300CB5A9D
:103E5C00002B0CD0DB08934209D101223B4BC0B2A2
:103E6C005B19013B1A70384B1D7013B0F0BD01305B
:103E7C000728EAD10022384BFF26197894460123F3
:103E8C00334F99422ADA0024304E05AF3800FFF741
:103E9C00B1FF002807D139002C48FFF791FF013002
:103EAC00C4B2AC4224D100222949274E0B19013B44
:103EBC00187800283FD10123244A5519013D019956
:103ECC005A00895A00293BD02A781F4CC908A218DD
:103EDC00013A12788A4233D1D8B2C6E79C4205D057
:103EEC001A485A1E86546046BA1810700133C8E737
:103EFC00162201230121601E42433B54154B0397AC
:103F0C00D3180293029A4B00D35A002B0FD0DB0824
:103F1C00DBB2039A013BD25C002A08D1325CF75C1D
:103F2C000132D2B2974202D9F254094AD454013127
:103F3C000729E7D1A9E7531CB454DAB20400B5E75A
:103F4C000133072BBBD190E7BC6D0020F110002092
:103F5C000B1100209A0A002024000020F0B5314EED
:103F6C0089B0050030780C0007921F00FFF752FF54
:103F7C0031780590002F05D00023A1420DD1069475
:103F8C0005970BE0284B06911B19013B1A78012A67
:103F9C0004D0264B9B18013B1B7806933378AB421D
:103FAC001AD109F067FA0500002F34D1204B2200FA
:103FBC0019680EF055FC1F4B280019680EF070FCA8
:103FCC002800FCF7A3F8322382B22900079809F0E5
:103FDC0061F864200BF04CF80798FFF7E6FD0598A4
:103FEC00FFF7E3FD3378069A934205D1059809F063
:103FFC001FF8012109F092F8002331780393013B5B
:10400C000293019303330093059A0B00079805F074
:10401C0065F809B0F0BD08493B00220009680EF0B4
:10402C001FFCC8E757100020F1100020BC6D0020C9
:10403C00800000208800002084000020F0B54F4D47
:10404C0085B04F49040028000EF046FC01262800DC
:10405C00FCF75CF8764282B20096322329002000ED
:10406C0008F0F2FF01273A00464928000EF0F8FB51
:10407C002800FCF74BF8013782B200963223290056
:10408C00200008F0E1FF062FEDD100963223032229
:10409C003D49200008F0D8FF00273C4B1B78BB4261
:1040AC000AD801235B4200930122333338492000A4
:1040BC0008F0CAFF05B0F0BD304D7A1C3549280018
:1040CC000EF0CEFB2800FCF721F801235B4282B2F4
:1040DC00290000932000333308F0B6FF1622062186
:1040EC007A432D4E0392935B280059432B4B0522A8
:1040FC00C9180EF020FC01235B4229000093052215
:10410C003333200008F0A0FF012301255B4200930C
:10411C00012233332249200008F096FF039B9B19A0
:10412C000393039A6B00D25A144E002A1ED11D49D8
:10413C0030000EF095FB3000FBF7E8FF01235B42EB
:10414C0082B20093310033332000013508F07CFF3C
:10415C00062DE6D101235B42009302223333124930
:10416C002000013708F070FFFFB296E707230F49D4
:10417C0013403000D2080EF073FBDCE780100020F7
:10418C006492010876920108239A01082400002009
:10419C00B6B701087B9201089A0A0020AF92010879
:1041AC00749201088A920108249A010887920108E6
:1041BC00F0B5274C85B02749060020000EF08CFB8B
:1041CC0001272000FBF7A2FF01257F4282B2009756
:1041DC0032232100300008F037FF03971E4B1B7869
:1041EC00AB4211D21D4920000EF076FB2000FBF7EC
:1041FC008DFF01235B4282B20093210033333000E8
:10420C0008F022FF05B0F0BD00236A1E5200029296
:10421C000299134A5F1C8A5A8021090219411142E2
:10422C0010D03B002A000F4920000EF019FB200093
:10423C00FBF76CFF039B82B200932100322330000A
:10424C0008F002FF3B000A2FE2D10135EDB2C5E7C1
:10425C0080100020169201082400002044920108CE
:10426C007071002032920108F0B585B0039009F00E
:10427C0001F904006D490EF02FFB6D4D6D4B6E492D
:10428C001A7828000EF0ECFA290020000EF008FB3A
:10429C006A4B6B491A7828000EF0E2FA29002000CC
:1042AC000EF0FEFA0523002200936649033B28001A
:1042BC000EF0D6FA290020000EF0F2FA624A634999
:1042CC0028000EF0CDFA290020000EF0E9FA604A21
:1042DC00604928000EF0C4FA290020000EF0E0FA24
:1042EC005D4928000EF0F8FA290020000EF0D8FAEB
:1042FC0001263200594928000EF0B2FA290020009C
:10430C000EF0CEFA564BF05C042808D8FBF710FFE1
:10431C00037274767800534928000EF0DDFA2900F8
:10432C00200001360EF0BCFA062EE2D14E492800D0
:10433C000EF0D2FA290020000EF0B2FA0125382333
:10434C006B434A4A9B181A00383A1268002A59D112
:10435C00374E2A00464930000EF082FA3100200018
:10436C0001350EF09DFA072DE9D1424920000EF0DF
:10437C0097FA414920000EF093FA2000FBF7C6FE95
:10438C00002205002B4B3D491B78561C013B5B0062
:10439C005B5A802109021141194209D0244F384936
:1043AC00320038000EF05CFA390020000EF078FA7A
:1043BC003200052EE6D12000FBF7A8FEADB2A842D4
:1043CC0003D1304920000EF06BFA2A4920000EF080
:1043DC0067FA039B002B0BD02000FBF797FE012301
:1043EC005B4282B2009321003333039808F02CFE19
:1043FC0005B0F0BD24498FE724498DE724498BE7AC
:10440C00244989E7143B186806F0E4FB224AAB0008
:10441C00043B0700D05806F0DDFB054E00903B0036
:10442C002A001E4930000EF01BFA97E7759201081E
:10443C00801000205710002078900108980A002066
:10444C0094900108B0900108CD900108D990010812
:10445C00F0900108F99001081291010825910108CA
:10446C00D01000202B9101088C910108741C0020A5
:10447C00A4910108249A0108EF91010870710020A1
:10448C000C92010811920108329101084791010820
:10449C00539101086D910108B0160020BF910108DD
:1044AC00F7B528490500FBF727FE002803D1264B5A
:1044BC001C782000FEBD25492800FBF71DFEFF24BB
:1044CC000028F6D02F78232F16D00026204B1B78EF
:1044DC000193019BF4B2A34220D800240A261D4F5D
:1044EC003100614328007918FBF706FE002824D11F
:1044FC002002FE2404431CE0681C0DF006FDC0B233
:10450C00002805D0124B1B78834201D304B2D0E7AC
:10451C000D4B66241B788342F8D0CAE70A217143FD
:10452C000D4B2800C918FBF7E7FD002803D1002F1D
:10453C0001D024B2BDE70136CBE701340A2CCFD130
:10454C005A34B6E7D0AF0108571000208E920108FC
:10455C0024000020420E0020490F0020F7B50C006B
:10456C000025294E0190A90071182000FBF7C4FD0D
:10457C00002842D00135042DF5D10A27234B244EB7
:10458C001B78033D0093009BAB421EDC00250A27E1
:10459C00204E3900694320007118FBF7ADFD00284F
:1045AC002DD001350A2DF4D11B4E1C4B33603568D0
:1045BC00002D14D10A20019B21005843144BC01824
:1045CC000EF08AF9FFF7C0F9FEBD390069432000EF
:1045DC008919FBF791FD002811D00135D3E72B6821
:1045EC001F683800FBF792FD3900020020000EF026
:1045FC0091F9002805D06B68D8E70620E4E707207E
:10460C00E2E70820E0E7C04668900108240000209B
:10461C00490F0020420E0020D8100020A4000020DA
:10462C00F7B50D0000240A26009031006143344B8D
:10463C0028005918FBF760FD002809D10121A14081
:10464C00009B304D013B5B005A5B0A435A53FEBD45
:10465C0001340A2CE9D100242B4EA100711828003A
:10466C00FBF74AFD002844D00134042CF5D10A276D
:10467C00264B274E1B78033C0193019BA3421CDC69
:10468C00244E254B33603468002C20D10A231800AB
:10469C0060431B4A125C002A27D1194B29001818B9
:1046AC000EF01AF90121A140009B1648013B5B005A
:1046BC001A5A0A431A520020C9E7390061432800EC
:1046CC008919FBF719FD002815D00134D5E72368AB
:1046DC001F683800FBF71AFD3900020028000EF0A5
:1046EC0019F9002809D06368CCE701340A2CCED123
:1046FC00D8E70620ABE70720A9E70820A7E7C046C4
:10470C00420E0020A60E0020689001082400002014
:10471C00490F0020DC100020A4000020F7B5012474
:10472C000026194B1B78A34201D23000FEBD174F57
:10473C003B78A3420FD000221321200004F0ACFCE4
:10474C00322008F00BFB124B1B78002B00D00226FA
:10475C000134E4B2E5E700256B1C01936B46187934
:10476C0008F066FC8022436B1202934208D11000C1
:10477C0028413B780749013B5B005A5A02435A5285
:10478C00019D052DE8D1E3E72400002057100020FF
:10479C00F01000207071002070B5802500222D02D1
:1047AC002E0016410B4B0C491B78541C013B5B0033
:1047BC005B5AE0B21E4009D108F03AFC310008F017
:1047CC00ADFC2200052CEBD1002070BD08F030FCB4
:1047DC000121F4E7571000207071002070B508F02B
:1047EC0089F908F015FA02F079FE07F0FBFE07F0E4
:1047FC007BF808F03FFA07F0A5FE08F06DFA07F019
:10480C0077FF00280AD0FFF777F9BFF34F8F2E4BB5
:10481C002E4ADA60BFF34F8FC046FDE7FFF77CF9F5
:10482C00002833D001242A4B32201C7008F096FA51
:10483C0006F048FAE123274D5B02AB6020000134FF
:10484C00A968E4B208F060FC062CF7D1FFF74CF82D
:10485C00FFF7A2FF07F0B4FB80211F4B01221C784D
:10486C00C9011E48002C17D10BF07AFFFA2040002A
:10487C0008F074FA80210022C90118480BF070FF6F
:10488C0002F0ACFC0122164B1A7070BD322008F0FD
:10489C0065FA06F017FAD9E70BF062FFFA20400030
:1048AC0008F05CFA80210022C9010C480BF058FF7B
:1048BC00642008F053FA802108480122C9010BF04A
:1048CC004FFF6420D4E7C04600ED00E00400FA0579
:1048DC00970A0020A86C0020571000200004004804
:1048EC00960A002010B50AF0A5FB06F021F8FFF798
:1048FC0075FF02F037FF08F0BFFC10BD13B51E208A
:10490C000DF04EFB04001E2200210DF09FFD084906
:10491C00088B8B7D0A7D0190497D013A00910549F8
:10492C0092005258200004490DF09AFF200016BD49
:10493C00A86C00207C9501089D9201081FB5074BBF
:10494C000A00197801230393023B0293019303336A
:10495C0000930B0004F0C2FB05B000BD5710002003
:10496C00F0B5002487B007000D00230022002100C1
:10497C00049403940294019400942000FFF712F81D
:10498C003823791E59430D4A681E8E584343A6425C
:10499C000BD0D6583800A6420CD002F0A1FB280050
:1049AC0002F09EFB200007B0F0BDD3586820002B0E
:1049BC00F9D0280002F094FB3000F4E7741C0020BE
:1049CC001423F7B5224D234A2C780600013C5C4396
:1049DC001419FBF79BFBE7680190002F2FD03800D0
:1049EC00FBF794FB019900900231091838000DF087
:1049FC006FFDE06014242B78164A013B6343D318F7
:104A0C00009AD8680132801831000DF065FF2B78C0
:104A1C00104A013B6343D3181322DB6800995A54A4
:104A2C001422002128780B4B013850431818C36806
:104A3C008B4202D10DF00AFD0E210800FEBD01983B
:104A4C0001300DF0ADFA3100E0600DF045FFE7E705
:104A5C00F1110020C46C002070B5050003262C78E1
:104A6C00002C00D170BD0DF08DFA00194278324047
:104A7C00012A00D120342C700135F0E7F0B5CD4B74
:104A8C008DB01B78069008930E24052B00D13BE1CA
:104A9C00142000245843C84F0422C31902301C8030
:104AAC00C019210007930DF0D1FC069B1B78622BDB
:104ABC0000D011E1069B9B782E2B00D00CE1069BBD
:104ACC005E78303EF6B2052E00D91DE10125079B1C
:104ADC0007221D809E70069BB8490333180009936A
:104AEC000DF018FFA0421CD10523079AD3700922A0
:104AFC007243B34B9B181B7A2B4205D00024AD4A52
:104B0C00137801331370FFE0230022002900059570
:104B1C0004940394029401940094300003F02CFA52
:104B2C00EDE70E22A74909980DF0F4FE002813D1E9
:104B3C000623079AD37009227243A14B9B181B7A48
:104B4C009B07DBD423002A0005950494039402945C
:104B5C00019400942100E0E70C229B4909980DF088
:104B6C00D9FE002852D1092211007143944B5B18D5
:104B7C009978002914D1079B0698DA700F300DF044
:104B8C00BEF98C4AC3B21078142250433818037102
:104B9C000595049403940294019400942200D9E79F
:104BAC00DA78002A15D10A23079A0698D3700F30A9
:104BBC000DF0A5F97F4AC3B210781422504338186F
:104BCC0003710595049403940294019400932300BB
:104BDC00E4E71B790C24002B91D114250B22089BA4
:104BEC0006986B43FB18DA700F300DF088F9714B97
:104BFC0000241B78C0B25D4301237D1928710593F5
:104C0C0004940394029401900094E0E70D226F4900
:104C1C0009980DF07FFE002800D06FE709231900DA
:104C2C007143674A51184879002813D1079A06989E
:104C3C000333D37010300DF062F95E4AC3B21078B2
:104C4C00142250433818037105950494039402936D
:104C5C000194D9E78979002917D114250D22089BD5
:104C6C00554C6B430698E318DA7010300DF047F989
:104C7C00504BC0B21B785D43641920710123002492
:104C8C000593049403900294E2E77343D318DD79FF
:104C9C000D24002D00D032E714270E22089B464C21
:104CAC007B430698E318DA7010300DF028F9414B6D
:104CBC00C0B21B782A005F430123E419207129003C
:104CCC000593049003950295019500952B003000F7
:104CDC0003F052F92C0012E73D4D069928000DF017
:104CEC00FBFD3C4C280021000EF08CFC2100050043
:104CFC0000200EF087FC2100069000200EF082FCB4
:104D0C000400002D03D1672420000DB0F0BD280055
:104D1C00FEF760FF069B061E0ED0002B0ED1002C5A
:104D2C00F1D114200222234B1B7858433A543818E3
:104D3C00C67001331F4AE5E6002BE4D0002CE2D00C
:104D4C002000FEF747FF1B4B14251B7800281BD0B7
:104D5C005D4304237B557D19EE70E871154B069865
:104D6C001C78FEF743FF1421124B4C431B78124A5C
:104D7C0059431419607052185278002AC3D00D4A46
:104D8C00013313700024BFE703226B43FA54FB1862
:104D9C00DE7020000DF0AEF8FEF726FA054B0B90F6
:104DAC00187804226843063038180BA90DF045FB1F
:104DBC00D4E7C046F1110020C46C0020D5A5010831
:104DCC00F4170020CEA50108509701085D97010843
:104DDC005A110020A79E0108030010B50800022BF1
:104DEC0013D0032B04D0012B0DD1FFF747FE10BDC0
:104DFC00074B1A781423013A5A43064B9B1801228D
:104E0C001A7405F0EDFD0020F1E7FFF7D9FDEEE790
:104E1C00F1110020C46C0020F0B58DB00690079104
:104E2C0002920021092209A81E000DF00FFB029826
:104E3C00FFF712FEC14D2B780393002B4BD10322AD
:104E4C00BF4902980DF066FD071E5FD1029BD81C6E
:104E5C00FFF714FE002838D0BA4930000DF03CFDA5
:104E6C002F7000243000FBF751F93378002B0BD056
:104E7C00079B002B08D001235B4282B200933100C8
:104E8C003333069808F0E0F83000FBF73FF90021C7
:104E9C00020030000DF0DAFA002CC8D109222100F2
:104EAC0009A80DF0D3FAA54B1B78002B0BD1079B4F
:104EBC00002B08D001235B42009338223333A249E4
:104ECC00069808F0C1F80DB0F0BD02232B700D232D
:104EDC0033700400C6E706229C4902980DF01AFDB7
:104EEC00002809D128709A490320FFF775FF9949CA
:104EFC0030000DF0F1FCB4E7039B022B06D10298B5
:104F0C00FFF75EFD0028E2D08E49F1E72E210298D2
:104F1C000DF0D4FC051E00D10AE1033803228E49A2
:104F2C000DF0F8FC002800D102E10DF02BF8042262
:104F3C006B78C01843781A40049200D0F8E0029BBA
:104F4C0009A8EA1A19000DF0F6FC09A8FFF7A8FA4F
:104F5C00824B07001B780593984206D199223100A9
:104F6C00681C920008F01AFAB3E77D496428BFD098
:104F7C007C496628BCD06B1C0393FF282BD1049969
:104F8C001A2279480DF062FA0298FBF7BFF8040078
:104F9C0009A8FBF7BBF8013C221A039973480DF0E2
:104FAC00CAFC0298FBF7B2F8040009A8FBF7AEF8AC
:104FBC00231A9BB239001722059804F04FF8992256
:104FCC0031009200039808F0E9F9694904003000B7
:104FDC000DF066FC46E7C5B2FE2D3CD1654B0712C1
:104FEC001A220499FFB260481F700DF02FFA029834
:104FFC00FBF78CF8050009A8FBF788F8013D2A1A85
:10500C0003995A480DF097FC0298FBF77FF80500BE
:10501C0009A8FBF77BF82B1A9BB2172239000598CD
:10502C0004F01CF84D4B544A1B78013B5B009B5A17
:10503C00504A12781341DB0706D5992231009200B1
:10504C00039808F0ABF9040009AB32004B4930006F
:10505C000DF006FC06E70622494903980DF05AFCB0
:10506C00041E2BD1474B020018701921280004F0A4
:10507C0013F8642008F005F9434B29001A78374BD4
:10508C0018782300FEF76AFF3E4B1B78602B00D08C
:10509C00E7E6FA210120890009F038FD3B4B1B782B
:1050AC00002B00D1DDE63A4A3A491388300001332F
:1050BC0013803B0032000DF0D3FBD2E60298FBF7D5
:1050CC0025F8040009A8FBF721F8013C221A0399E2
:1050DC0026480DF030FC0298FBF718F8040009A8DC
:1050EC00FBF714F8013C221A92B21721280003F0A6
:1050FC00D3FF3A00284930000DF0B2FB3378002B77
:10510C000DD03000FBF702F8079B002B07D00123D2
:10511C0082B2009331003133069807F095FF3000CE
:10512C00FAF7F4FF0021020030000DF08FF9ABE725
:10513C00992231009200029814E7C04620120020F8
:10514C00989501089C95010817970108EE950108A0
:10515C0075920108F5950108369601085710002044
:10516C003A960108619601080C0D00201B0F0020D7
:10517C0086960108F0110020A60E0020A3960108C7
:10518C00CF960108266C0020980A0020F010002011
:10519C006A1A0020F7960108D6960108012100230F
:1051AC00F0B587B002AA49420120D373E12609F079
:1051BC00ADFC08F05FF9494B03909B683603484DF2
:1051CC00B3420BD001242B78A34203D03100200032
:1051DC0007F09AFF0134E4B2062CF4D1414B424C57
:1051EC001A8806235343414A29789B18404A2000C9
:1051FC00127800913F490DF033FBA4220A23920050
:10520C003D49287807F046FF2000FAF77FFF210080
:10521C0082B20A23287807F03DFF0024C0212878A9
:10522C00364E421E5143364FB35C7918BF2B08D80B
:10523C00CF5C002F31D002AEF7730026CE542F492D
:10524C008B540F2102AE0A230122891907F022FF89
:10525C0002ABDB7B0D2B27D12878033B022229499B
:10526C0007F018FF284F294E002C03D139003000CD
:10527C000DF032FB039B320028780121FFF7CCFDA7
:10528C00310038000DF028FB3222002130000DF0E7
:10529C00DDF8002408F020FAC0E7BF2B01D13B0059
:1052AC00B75401339BB2C1E70A2BF3D0082B01D0C2
:1052BC007F2B08D1002CEDD00021013C134AE3B226
:1052CC005CB2D154E6E71A00203A5E2AE2D8312CBF
:1052DC00E0DC0E4A1355013464B2DBE7A86C002005
:1052EC00980A002058000020F2110020AF9201080B
:1052FC00571000206B970108969701085D16002047
:10530C009D120020CEAC0108BE11002028110020F7
:10531C00F8B5184B04001A781423013A5A43164B6B
:10532C000D009B18DB68181E09D0144E3368002B37
:10533C0000D1346034682078002801D13060F8BD89
:10534C00132120000DF0BAFA071E08D0021B210011
:10535C00280001370DF0EFFA37600120EFE721004C
:10536C0028000DF0B9FA2800FAF7D0FE24183460A2
:10537C00F3E7C046F1110020C46C00201C12002081
:10538C00142337B558432D490B5C012B03D0032B49
:10539C000DD000200AE0092309188A785343284AC3
:1053AC00985CCB78C01A43425841C0B23EBD0C2326
:1053BC000C18E2780630013A5343224A41189B58A4
:1053CC0001A804221D680DF038F860780138052812
:1053DC00DFD8FAF7ADFE030C1221272C291C0198FB
:1053EC000124FBF78FF8002814D1002412E0291CAB
:1053FC0001980124FBF78CF8F5E7291C0198FBF7C1
:10540C009BF80028C5D00021281C0124FBF77AF852
:10541C000028EAD1E0B2C9E7291C01980124FBF766
:10542C0081F8E0E7291C0198FBF790F8E9E7291CC3
:10543C000198FBF767F80028E5D0AAE7C46C0020B8
:10544C00F417002090000020F8B508F013F80024A1
:10545C000600174B1A78A3B29A4201D80020F8BD67
:10546C0014256543134BED182B7C002B01D1013413
:10547C00EFE7E0B2FFF784FF0028F8D020220E4BB4
:10548C001A700E4FE8683900FFF742FF0028EED083
:10549C000B4B3A00187800213300FFF7BDFC3000AD
:1054AC00FAF734FE0021020030000CF0CFFFE8E7E1
:1054BC00F1110020C46C0020266C00208C110020FF
:1054CC00980A002000207047F0B5002585B0040034
:1054DC00170002950395A84201D172B6FEE702AA05
:1054EC000121380007F0CAFF0023C3566826702B31
:1054FC0005D101300CF009FD2E00C3B2019303AAB3
:10550C000221380007F0BAFF0CF0FFFC0500682EF2
:10551C0006D1094920000DF0DFF9002005B0F0BDDF
:10552C000100019807F0F0FD019B2A0003492000BF
:10553C000DF096F9F1E7C0465CA301086FA30108D2
:10554C0010B5002801D172B6FEE7044B04491A6865
:10555C0092B20DF085F9002010BDC046CCF7FF1FAC
:10556C00889D0108002313B50093002304000193C8
:10557C001000002C01D172B6FEE76A46012107F03B
:10558C007DFF0378323B012B10D80CF0BEFC01A937
:10559C00C0B202F089FF0198FDF7D4FD02000B00A8
:1055AC00200005490DF05CF9002016BD03492000D0
:1055BC000DF092F9F8E7C046749A0108979A010821
:1055CC00002313B5041E0093019301D172B6FEE7BC
:1055DC0001A9684602F0B0FE694620000DF07CF986
:1055EC000198FDF7AFFD02000B00200002490DF001
:1055FC0037F9002016BDC046E09A0108002313B508
:10560C00041E0093019301D172B6FEE701A968460E
:10561C0002F092FE694620000DF05EF90098FDF74D
:10562C0091FD02000B00200002490DF019F9002039
:10563C0016BDC046AC9A01080023F0B585B00193A5
:10564C0002930023040016000393002801D172B6C4
:10565C00FEE701AA0121300007F010FF050002212E
:10566C0002AA300007F00AFF2B780700323B1849DA
:10567C00012B29D828000CF048FC164EC5B231007D
:10568C003800FAF739FD002805D013493800FAF72D
:10569C0033FD002817D13100280002F0C5FF03AA02
:1056AC003100280002F0ECFF03A920000DF014F9E2
:1056BC000398FAF79FFF094982B220000DF0D0F849
:1056CC00002005B0F0BD064920000DF005F9F7E704
:1056DC00979A0108279A01082B9A0108329A010817
:1056EC00429A01080023F0B587B005934E4B04AEE7
:1056FC001B78040033701000002C01D172B6FEE749
:10570C00012105AA07F0BAFE48490500FAF7F4FC96
:10571C0000285BD101256427454B1A78454B9B1813
:10572C00013B1B780293EBB20393414BEAB21B781B
:10573C0093423ED00CF0B2FE04AE30700A2301222C
:10574C0031000097E8B207F07FFCE8B207F070FC7C
:10575C00036832789B8CDBB29A4230D12A003649EE
:10576C0020000DF07DF82000FAF7D0FC304B82B20F
:10577C00210018780A23009707F066FC2F492000B7
:10578C000DF0AAF82000FAF7C1FC294E82B20A23C8
:10579C0030782100009707F057FCC021029B5A1C5F
:1057AC003378013B4B432649CB189B5C002B09D02B
:1057BC0002920135062DB6D1002007B0F0BD2A00AB
:1057CC002049CDE7012009F053FCE6E70023EB5616
:1057DC001D49702B24D1681C0CF097FBC7B27B1EA3
:1057EC0005001A49042B1BD80CF058FE64233070AA
:1057FC000122310000933800323B07F025FC3800C1
:10580C0007F016FC036831789B8CEAB2DBB2994244
:10581C0004D1094920000DF023F8CDE70949F9E737
:10582C0020000DF059F8C7E7F88E01088E92010898
:10583C00980A00205D1600208BB50108B8B5010848
:10584C009D120020A6B5010827B601080CB6010868
:10585C00F0B5002685B00400170002960396B042FE
:10586C0001D172B6FEE702AA0121380007F006FE4C
:10587C0000236722C3560192702B04D101300CF027
:10588C0044FB0196C5B203AA0221380007F0F6FDCD
:10589C000023C356702B04D00F4920000DF01CF8C8
:1058AC0012E001300CF031FB019B0600C1B2002B61
:1058BC00F2D12800FFF754F8002808D1F3B22A00DF
:1058CC00064920000CF0CCFF002005B0F0BD672885
:1058DC00E2D00349E1E7C04627B60108B0B601089B
:1058EC00CDB60108F0B5002685B00400170002966D
:1058FC000396B04201D172B6FEE702AA012138002C
:10590C0007F0BCFD00236722C3560192702B04D113
:10591C0001300CF0FAFA0196C5B203AA0221380044
:10592C0007F0ACFD0023C356702B04D00F492000A8
:10593C000CF0D2FF12E001300CF0E7FA019B0600EC
:10594C00C1B2002BF2D12800FEF7F8FF002808D1D5
:10595C00F3B22A00064920000CF082FF002005B0AB
:10596C00F0BD6728E2D00349E1E7C04627B601083D
:10597C00049C0108279C0108F0B5002585B0019016
:10598C00019B10000395AB4201D172B6FEE703AA4E
:10599C00012107F073FD0CF0B2FAC4B2002C40D018
:1059AC00214B1B78A3423CD31423C0B2013858437B
:1059BC001E4F2900C619023035800422C0190CF084
:1059CC0045FD3574F0680CF0F5FAF5601425164BAE
:1059DC001B78A3420BD8144A013B137005F000F856
:1059EC00134901980CF078FF002005B0F0BD2B0096
:1059FC006343FB5C002B11D0631E6B431800143007
:105A0C003A181100FB18944645C945C31A0009C938
:105A1C0009C22A00002160460CF018FD0134E4B2E2
:105A2C00D5E70449DDE7C046F1110020C46C002025
:105A3C000C9D0108429D010837B500250400019515
:105A4C001000AC4201D172B6FEE701AA012107F0A9
:105A5C0015FD0CF054FAC3B2002B12D00A4A12787E
:105A6C009A420ED31423C0B2013843430748C018DE
:105A7C00057404F0B5FF064920000CF02DFF002042
:105A8C003EBD0449F8E7C046F1110020C46C00206B
:105A9C0020A10108429D0108002313B504000193C5
:105AAC0010009C4201D172B6FEE701AA012107F059
:105ABC00E5FC0CF024FAC3B2002B13D00A4A12787E
:105ACC009A420FD31423C0B2013843430748C0187D
