:020000040800F2
:100000000080002019D10008A5D1000879C7000898
:1000100000000000000000000000000000000000E0
:1000200000000000000000000000000005D60008ED
:100030000000000000000000B9D600086DC70008ED
:10004000A5D10008A5D10008A5D10008A5D10008B8
:10005000A5D10008A5D10008A5D10008A5D10008A8
:10006000A5D10008C1C70008CDC7000805C8000811
:10007000A5D10008A5D10008A5D10008A5D1000888
:10008000A5D10008A5D10008A5D10008A5D1000878
:10009000A5D10008A5D10008A5D10008A5D1000868
:1000A000A5D10008A5D10008A5D100087DC700088A
:0C00B0008DC700089DC70008A5D10008FE
:1000BC0010B5064C2378002B07D1054B002B02D032
:1000CC00044800E000BF0123237010BD800A00200B
:1000DC00000000002C8D0108044B10B5002B03D040
:1000EC000349044800E000BF10BDC04600000000FA
:1000FC00840A00202C8D010802780B78002A03D08A
:10010C00013001319A42F7D0D01A70470023C25CFB
:10011C000133002AFBD1581E7047000002B471460F
:10012C0049084900095649008E4402BC7047C04634
:10013C0002B4714649084900095C49008E4402BC6E
:10014C007047C04603B47146490840004900095E37
:10015C0049008E4403BC704703B471464908400003
:10016C004900095A49008E4403BC704700224308D9
:10017C008B4274D303098B425FD3030A8B4244D363
:10018C00030B8B4228D3030C8B420DD3FF220902A5
:10019C0012BA030C8B4202D31212090265D0030B64
:1001AC008B4219D300E0090AC30B8B4201D3CB035A
:1001BC00C01A5241830B8B4201D38B03C01A52419C
:1001CC00430B8B4201D34B03C01A5241030B8B429E
:1001DC0001D30B03C01A5241C30A8B4201D3CB0289
:1001EC00C01A5241830A8B4201D38B02C01A52416E
:1001FC00430A8B4201D34B02C01A5241030A8B4271
:10020C0001D30B02C01A5241CDD2C3098B4201D388
:10021C00CB01C01A524183098B4201D38B01C01A06
:10022C00524143098B4201D34B01C01A524103097D
:10023C008B4201D30B01C01A5241C3088B4201D32C
:10024C00CB00C01A524183088B4201D38B00C01AD9
:10025C00524143088B4201D34B00C01A5241411A00
:10026C0000D20146524110467047FFE701B500200D
:10027C0000F0F0F802BDC0460029F7D076E77047D1
:10028C0003460B437FD4002243088B4274D30309EB
:10029C008B425FD3030A8B4244D3030B8B4228D38C
:1002AC00030C8B420DD3FF22090212BA030C8B42B2
:1002BC0002D31212090265D0030B8B4219D300E052
:1002CC00090AC30B8B4201D3CB03C01A5241830BD7
:1002DC008B4201D38B03C01A5241430B8B4201D387
:1002EC004B03C01A5241030B8B4201D30B03C01AB0
:1002FC005241C30A8B4201D3CB02C01A5241830A2A
:10030C008B4201D38B02C01A5241430A8B4201D358
:10031C004B02C01A5241030A8B4201D30B02C01A82
:10032C005241CDD2C3098B4201D3CB01C01A5241E9
:10033C0083098B4201D38B01C01A524143098B4272
:10034C0001D34B01C01A524103098B4201D30B015B
:10035C00C01A5241C3088B4201D3CB00C01A524180
:10036C0083088B4201D38B00C01A524143088B4245
:10037C0001D34B00C01A5241411A00D201465241DE
:10038C00104670475DE0CA0F00D04942031000D3FD
:10039C004042534000229C4603098B422DD3030A52
:1003AC008B4212D3FC22890112BA030A8B420CD362
:1003BC00890192118B4208D3890192118B4204D38B
:1003CC0089013AD0921100E08909C3098B4201D30B
:1003DC00CB01C01A524183098B4201D38B01C01A45
:1003EC00524143098B4201D34B01C01A52410309BC
:1003FC008B4201D30B01C01A5241C3088B4201D36B
:10040C00CB00C01A524183088B4201D38B00C01A17
:10041C005241D9D243088B4201D34B00C01A5241EE
:10042C00411A00D20146634652415B10104601D37B
:10043C004042002B00D54942704763465B1000D305
:10044C00404201B5002000F005F802BD0029F8D0AB
:10045C0016E770477047C046D0400B1CD1409C46F5
:10046C00203AD34018435242634693401843704796
:10047C008446101C62468C46191C634600E0C0463C
:10048C001FB501F07FFF002801D40021C8421FBD19
:10049C0010B501F0D7FE4042013010BD10B501F08F
:1004AC0071FF002801DB002010BD012010BDC046EB
:1004BC0010B501F067FF002801DD002010BD012000
:1004CC0010BDC04610B501F0F9FE002801DC00207B
:1004DC0010BD012010BDC04610B501F0EFFE002884
:1004EC0001DA002010BD012010BDC0468446081C56
:1004FC006146FFE71FB500F097FC002801D40021EE
:10050C00C8421FBD10B500F019FC4042013010BDAF
:10051C0010B500F089FC002801DB002010BD012083
:10052C0010BDC04610B500F07FFC002801DD002096
:10053C0010BD012010BDC04610B500F027FC0028EE
:10054C0001DC002010BD012010BDC04610B500F02C
:10055C001DFC002801DA002010BD012010BDC04692
:10056C00002B11D1002A0FD1002900D1002802D074
:10057C000021C943081C07B4024802A1401802908C
:10058C0003BDC046D1FEFFFF03B4684601B5029817
:10059C0000F066F8019B9E4602B00CBC7047C0464A
:1005AC00F0B5CE46474615042D0C2E0080B5070439
:1005BC00140C3F0C9946030C7E435D436743634325
:1005CC007F19340CE4199C46A54203D980235B02A5
:1005DC009846C4444B4643435143250C360465446A
:1005EC00360C2404A4195B19591820000CBC904635
:1005FC009946F0BD9E2110B5C905041CFFF7A6FF56
:10060C00002803D1201C00F055FF10BD9E21201C9A
:10061C00C90500F08BFD00F04DFF80231B069C46A6
:10062C006044F2E770B500220C4B04000D00FFF79C
:10063C0053FF002804D12000290002F0E1FC70BD1A
:10064C00064B00222000290002F076F902F0D8FCBB
:10065C0080231B069C466044F1E7C0460000E04145
:10066C00F0B54F464646D646C0B5040082B00D00E4
:10067C00914698468B422FD82CD04146484602F0E2
:10068C0055FE29000600200002F050FE331A9C464D
:10069C00203B9A4600D576E04B46524693401F00CD
:1006AC004B46624693401E00AF4228D825D0534695
:1006BC00A41BBD41002B00DA7BE00022002300923A
:1006CC0001930123524693400193012362469340C8
:1006DC00009318E08242D0D90022002300920193AB
:1006EC000A9B002B01D01C605D600098019902B040
:1006FC001CBC90469946A246F0BDA342D7D9002215
:10070C000023009201936346002BE9D0FB07984627
:10071C00414672080A437B0866460EE0AB4201D1A3
:10072C00A2420CD8A41A9D41012024196D4100212C
:10073C00013E24184D41002E06D0AB42EED9013EAD
:10074C0024196D41002EF8D10098019953460019D7
:10075C006941002B23DB2B005246D3402A00644610
:10076C00E2401C0053461500002B2DDB260057469B
:10077C00BE40330026006746BE403200801A9941C5
:10078C0000900191ACE7624620239B1A4A46DA405E
:10079C006146130042468A4017001F4380E76246B9
:1007AC0020239B1A2A0066469A402300F3401343E9
:1007BC00D4E76246202300219B1A0022009101926B
:1007CC000122DA40019280E72023624626009B1A20
:1007DC00DE402F00B0466646B74046463B003343EA
:1007EC00C8E7C046F8B54746CE4643025B0A44000C
:1007FC00C20F9C464800DD004B02240E5B0A000E23
:10080C0080B5984626009146C90FDB00271A8A420C
:10081C0029D0002F15DD00284AD1002B00D095E0FF
:10082C00ED08FF2C00D188E06B025B0AE6B25B029C
:10083C00F605580A3043D20710430CBC9046994633
:10084C00F8BD002F00D087E0601CC0B2012800DC8E
:10085C00B6E0EE1A720100D5C5E0002E3DD10022A3
:10086C0000260023E3E7002F00DC96E000285DD093
:10087C00FF2C60D08022D20413431B2F00DDECE050
:10088C002022D21B18009340F8405A1E9341034378
:10089C00ED186B017BD50134FF2C00D1B7E00122A0
:1008AC0007262A406B089A4D1D4015432E4029E01F
:1008BC00FF2CB5D08022D20413431B2F00DDB2E0F5
:1008CC002022D21B19009340F9405A1E93410B432E
:1008DC00ED1A6B015BD5AD01AE09300002F008FDDD
:1008EC0005388640844265DC041B3300202001342B
:1008FC00E340041BA640751EAE41334307261D0082
:10090C0000241E4001224B461A40002E04D00F2317
:10091C002B40042B00D004356B0100D480E701344C
:10092C00E6B2FF2C2FD1FF26002380E7002B52D1FB
:10093C00FF2C00D074E70A00ED08002DF3D08023C3
:10094C00DB032B435B025B0AFF2670E7013F002FA2
:10095C00BED0FF2CB1D163E7002C47D0FF2869D063
:10096C008024E4047A4225431B2A00DDC5E02C00D8
:10097C002026D440B21A95406A1E954125435D1B32
:10098C0004008946A5E7AB015B0A50E7002401226D
:10099C004B461A406B07BAD142E7002F3BD10134CA
:1009AC00E0B201284ADDFF2CBDD00726ED186D08FA
:1009BC002E40A7E70723574D241A35401E40A1E7C8
:1009CC00002C1BD1002D6ED1002B00D19AE00A0017
:1009DC001D003C0024E7013F002F00D158E7FF2CFD
:1009EC0000D04AE7A7E75E1B894676E7002D1CD1AD
:1009FC000A00FF281FD004001D0011E7002D5DD157
:100A0C00002B17D180230022DB03FF260FE70A00FF
:100A1C00FF2600230BE7002C21D1002D66D1FF28E7
:100A2C00E9D11D0087E7012352E77A1CA7D0FA43CE
:100A3C00FF2899D10A001D00FF24F1E6002E21D1D8
:100A4C00002D4FD0002B4CD0ED186B019ED5314BA7
:100A5C0007362E4001241D4054E7012318E7FF28D8
:100A6C00DFD08024E4047F4225431B2F4DDC20265D
:100A7C00F61B2C00B540FC406A1E95412543ED1831
:100A8C00040006E7002DCCD0002B00D153E78021C9
:100A9C006046C903084203D04046084200D11D00FD
:100AAC000121114047E7002B00D1B9E6EA1A5001A9
:100ABC0025D507265D1B2E40894623E7FF24002BF6
:100ACC0000D1ADE680226046D203104204D04046ED
:100ADC00104201D11D00894601224B46FF241A40C9
:100AEC009EE62B00DD080A0000249DE67A1CC6D089
:100AFC00FF43FF28B9D11D001DE701253FE7151E57
:100B0C0000D044E70022002391E60125B7E7C04658
:100B1C00FFFFFF7DFFFFFFFBF8B557464E464546EE
:100B2C00DE464402E0B546008846640A360EC70F1E
:100B3C00002E63D0FF2E24D08023E400DB041C4362
:100B4C00002399469B467F3E434642465D02D20FA8
:100B5C005B006D0A1B0E9046924665D0FF2B55D05C
:100B6C0080220021ED00D2047F3B1543F61A434648
:100B7C004A467B400F2A00D98DE06D48920082587E
:100B8C009746002C54D108239946063BFF269B46DA
:100B9C00DAE70025534602291BD0032900D1BFE018
:100BAC00012928D030007F30002820DD6A0704D0CE
:100BBC000F222A40042A00D004352A0103D5300024
:100BCC005C4A80301540FE2803DCAC01640AC2B2DA
:100BDC0001E0FF2200246402D205600ADB07104307
:100BEC0018433CBC90469946A246AB46F8BD012240
:100BFC00101A1B287CDD00220024ECE7002C1DD1F0
:100C0C0004239946033B00269B469DE7FF3E002D9F
:100C1C0020D1022143464A467B400A430F2AD8D8AA
:100C2C004548920082589746002D19D10121F1E7D1
:100C3C000C239946093BFF269B4685E7200002F0D2
:100C4C0057FB7626431F9C4000237642361A994662
:100C5C009B4679E74A4603231A439146032186E7CC
:100C6C00280002F045FB431F36189D4076360021C4
:100C7C007DE780240023E403FF22ACE700258023DA
:100C8C00DB031C4228D01D4226D12B435C02640A94
:100C9C004346FF229FE762016C01A24224D21B2132
:100CAC000025013E012710006D005200002801DBD9
:100CBC00944201D8121B3D4301390029F3D1140091
:100CCC00621E944125436DE7BA46594625005346AA
:100CDC00022900D061E77CE78023DB031C4364021C
:100CEC00640A3B00FF2276E7121B1A210125D9E783
:100CFC009E362A00B5402C00C240651EAC41144300
:100D0C00620704D00F222240042A00D0043462016E
:100D1C0003D4A401640A00225DE7012200245AE7EF
:100D2C008024E4032C436402640AFF2253E7C04688
:100D3C003CB60108FFFFFFF77CB6010870B5420016
:100D4C004E024C0045026D0A120EC30F760A240E99
:100D5C00C90FFF2A0FD0FF2C11D00120A24200D0C6
:100D6C0070BDB542FCD18B420DD0002AF8D12800C1
:100D7C00451EA841F4E70120002DF1D1EBE701203D
:100D8C00002EEDD1E9E70020EAE7C04670B54A0035
:100D9C004E02450244006D0A240EC30F760A120E51
:100DAC00C90FFF2C15D0FF2A0ED0002C15D1002A0C
:100DBC0001D1002E1CD0002D14D08B4227D0022044
:100DCC00013B1840013870BD002EEED0022040428D
:100DDC00F9E7002DFAD1FF2A0ED0002A0ED1002EF1
:100DEC00EDD00BE001230139994308000130EAE70B
:100DFC000020002DE7D0E2E7002EE7D18B42DED1B8
:100E0C00944205DD0221581E08400138DBE700241E
:100E1C00A24204DCB542D2D80020B542D3D2581E2F
:100E2C00012398430130CEE730B5420044024D0215
:100E3C00C30F4800640A120E6D0A000EC90FFF2A78
:100E4C0012D0FF280CD0002A12D1002819D1002D65
:100E5C0017D1002C2BD00220013B1840013826E082
:100E6C00002DF0D0022022E0002CFBD1FF281FD057
:100E7C0000281FD1002D1DD10220013B1840013844
:100E8C0015E0002C0ED08B42E5D10022904204DC00
:100E9C00AC42E0D80020AC4209D2581E0123984342
:100EAC00013004E00123013999430800013030BDC1
:100EBC00002DD7D18B42CED18242E7DD0221581EC4
:100ECC0008400138F3E7C046F0B54E465746454654
:100EDC00DE46E0B543025B0A450083B00F1C994621
:100EEC002D0EC60F002D57D0FF2D24D08020DB00F7
:100EFC00C0041843002381469A469B467F3D7C02E2
:100F0C007A00FB0F640A120E984623D0FF2A4BD0AE
:100F1C00E30080240020E4047F3A1C43AD186B1CD2
:100F2C0047460193534677403A000F2B48D87D49EA
:100F3C009B00CB589F46002B00D085E008339A4687
:100F4C00063B9B467C027A00FB0FFF25640A120EBF
:100F5C009846DBD1002C00D090E0524601231A4376
:100F6C0092460120DBE74C4658461700022824D055
:100F7C00032800D1CFE00022002301284DD15802D4
:100F8C00D205400AFF071043384303B03CBC9046DF
:100F9C009946A246AB46F0BD002B5BD104239A4682
:100FAC00033B00259B46AAE7FF35002C60D1524637
:100FBC0002231A4392460220B1E7FF220023DEE708
:100FCC004B461B0C9C464B462604360C18046146BB
:100FDC003300220C6446000C43434E4350435443AD
:100FEC0080191A0C1218964203D9802149028C469A
:100FFC0064441B041B0C1004C01883015E1EB34117
:10100C00800E1843130C1B199B0103431C00230176
:10101C0079D5012362081C401443019A7F32002ABF
:10102C004DDD630704D00F232340042B00D0043480
:10103C00230103D53C4B019A1C408032FE2ABCDCB8
:10104C00A3015B0AD2B29AE70C239A46093BFF250F
:10105C009B4654E7180002F04BF94A46431F76258D
:10106C009A4000236D4291462D1A9A469B4646E7BC
:10107C00524603231A439246032050E7200002F005
:10108C0037F9431F2D1A9C40763D002047E78023FB
:10109C000027DB03FF2272E7424666E74C4632002C
:1010AC00584662E780234A46DB031A4222D01C4290
:1010BC0020D123435B025B0A4746FF225FE70123F3
:1010CC009A1A1B2A21DC23000199D3409E318C40B3
:1010DC001A0023005C1EA34113435A0704D00F22AD
:1010EC001A40042A00D004335A0111D49B015B0A24
:1010FC00002244E780234A46DB0313435B025B0A6E
:10110C003700FF223BE7019587E70022002336E7F3
:10111C000122002333E78023DB0323435B025B0ABA
:10112C00FF222CE7BCB60108FFFFFFF7F8B54746D6
:10113C00CE464400C20F80B547024802400A84469E
:10114C00664648007F0A240EF60025009046FB00F8
:10115C00000EC90FB146FF2800D185E00126714071
:10116C00261A914257D0002E43DD002800D07FE094
:10117C004946002900D1AAE0013E002E00D0F7E03C
:10118C005B1A5A0100D48BE09B019C09200002F0F1
:10119C00AFF805388440854200DDD3E0451B2300C1
:1011AC0020200135EB40451BAC40621E944123438B
:1011BC00072400251C40012241460A40002C04D083
:1011CC000F211940042900D00433590100D480E0C8
:1011DC000135ECB2FF2D00D0A3E0FF2400235B020D
:1011EC00E405580AD207204310430CBC904699469C
:1011FC00F8BD002E74D1601CC0B2012800DCA7E041
:10120C004A469C1A620100D5B6E0002CBED10022E1
:10121C0000240023E3E7002E00DC85E0002846D004
:10122C00FF2C49D080224846D2041043814601222B
:10123C001B2E09DC20204C46801B84404A46200093
:10124C00F240441EA04102439B185A0128D5013597
:10125C00FF2D00D1A8E00122072494491A405B0815
:10126C000B4013431C40A6E7002E00D078E775E72F
:10127C00FF2C54D080224946D204114389460122C6
:10128C001B2E09DC20214846891B88404A46010058
:10129C00F240481E81410A439B1A5A0100D573E75C
:1012AC00012241460A40590700D089E711E048461F
:1012BC00002858D1FF2C0CD1DB08002B00D18CE777
:1012CC008020C00303435B025B0AFF2487E7FF2CEB
:1012DC0025D0DB08FF2DF0D05B025B0AECB27EE779
:1012EC00002C4DD0FF2818D08024E40472422343F4
:1012FC001B2A00DDC4E01C002025D440AA1A934010
:10130C005A1E934123434A460500D31A884638E7B0
:10131C00721CF8D0F243FF28EAD10A004B46FF2595
:10132C00D7E79B015B0A5AE7002E41D1651CE9B255
:10133C00012945DDFF2D00D14FE707244B445B0805
:10134C001C4038E707225A4B2D1A2340144032E731
:10135C00002C1DD1002B7AD14B46002B00D191E0F3
:10136C000A000025B5E7013E002E19D14B446CE76D
:10137C00FF2C84D1FF25ACE74A468846D41A05E7F2
:10138C00002BC5D10A00FF28C8D005004B46A0E7AA
:10139C00002B49D14B46002B77D00A00FF2598E74C
:1013AC00FF2C00D043E787E70A00FF24002316E751
:1013BC00002C15D1002B57D1FF28E6D14B467BE7EB
:1013CC00002C20D1002B57D04946002953D04B4438
:1013DC005A0168D50724364A1C4001251340EAE619
:1013EC00FF28EBD08022D204764213431B2E53DC11
:1013FC002025AD1B1A00AB40F2405C1EA3411343E9
:10140C004B44050021E7002BD8D04946002900D1D8
:10141C0052E78021C9030F4200D14DE760460842D4
:10142C0000D049E74B4647E74846FF25002800D146
:10143C004FE78022D203174204D06046104201D1FC
:10144C004B46884601224146FF250A4041E7484663
:10145C0000281FD01A1A500120D54A460724D31A47
:10146C001C4088460025A6E6741CC9D0F643FF280C
:10147C00BCD14B4620E799464B460025DB082BE7B1
:10148C00012340E700220023A9E680230022DB038E
:10149C00FF24A4E600251CE70123B1E7002AF1D0C4
:1014AC0013000025FCE60025FAE6C046FFFFFF7D91
:1014BC00FFFFFFFB41024200C30F490A120E00203E
:1014CC007E2A0DD99D2A0CD8802000040143952A30
:1014DC000ADC9620821AD1404842002B00D1080029
:1014EC007047034A9818FBE7963A9140F4E7C046D8
:1014FC00FFFFFF7F70B500283DD0C317C5185D40B6
:10150C00C40F280001F0F4FE9E22121A962A07DC62
:10151C00D2B2082833DD083885406802400A23E03F
:10152C00992A0BDD052329001B1AD94003001B3314
:10153C009D402B005D1EAB4119430D00052801DDBC
:10154C00431F9D402B000F490B406E0709D00F26FF
:10155C003540042D05D004335D0102D59F220B408C
:10156C00121A9B01580AD2B24002D205400AE40773
:10157C001043204370BD002400220020F4E76802D1
:10158C00400AF1E7FFFFFFFB70B5041E34D001F0F9
:10159C00AFFE9E22121A962A07DCD2B208282EDD44
:1015AC00083884406002400A21E0992A09DD0300D2
:1015BC0021001B3399404B1E994105231B1ADC401B
:1015CC000C43052801DD431F9C4023000D490B40B3
:1015DC00650709D00F252C40042C05D004335C0181
:1015EC0002D59F220B40121A9B01580AD2B240021C
:1015FC00D205400A104370BD00220020F7E76002BC
:10160C00400AF4E7FFFFFFFBF0B54F464646D646CF
:10161C000C000903C0B5490A470F5E0039431F038C
:10162C00DB0F9C4665007B0A570F1F436D0DE40FC3
:10163C00760DA146C000B846D200AB1B64457BD0EA
:10164C00002B5FDD002E00D0A4E03E00164300D13D
:10165C0012E15E1E002E00D09EE1871A4346B8426E
:10166C0080410125C91A4042091A0B0200D431E10C
:10167C0049024E0A002E00D16EE1300001F038FE16
:10168C000300083B1F2B00DD61E120223900D21A38
:10169C009E40D1409F400E439D4200DD51E15D1BB9
:1016AC006B1C1F2B00DD7CE12021C91A3D00300092
:1016BC008F408840DD40791E8F413100072228433E
:1016CC00D940002507433A40002A09D00F233B405C
:1016DC00042B05D03B1DBB42BF417F42C9191F00E3
:1016EC000B0200D426E26A1CC64B55056D0D9A42BE
:1016FC0000D106E1C44AFF080A40530752023B439B
:10170C00120B8EE0002B00D0B8E06B1C5B055B0D60
:10171C00012B00DC30E1871A4346B842B641CB1AA4
:10172C0076429E1B330200D54CE13B003343A1D1E2
:10173C0000220024002570E0002B00DCE5E0002EE8
:10174C0000D183E0AF4EB54260D0802636043743DB
:10175C00B846382B00DC3EE1434613431F007A1E8B
:10176C0097413F1887428041404209180B0200D430
:10177C00B0E0A44B01359D4200D1C3E0A24A7B08E6
:10178C000A4001210F401F435108D30707221F4372
:10179C003A4099E79B4EB54238D080263604374301
:1017AC00B846382B00DDDCE01F2B00DC30E11E00DE
:1017BC004746203EF740BC46202B04D04026F31A67
:1017CC0046469E403243170063467A1E97411F439C
:1017DC00CCE0002B00D104E24346134300D159E185
:1017EC004B07C00818438023C9081B03194208D0B3
:1017FC004546ED081D4204D14346D008590708431D
:10180C002900420FC9007F4D1143C0004B07CA0885
:10181C007C49C00803438D4268D012036D05120B3E
:10182C006D0D002112031800130B0A0D12051A433B
:10183C00764B2D0513402B435B00E4075B082343D9
:10184C0019001CBC90469946A246F0BD3E001643BA
:10185C0012D05E1E002E00D000E187188742804116
:10186C0041444042091801250B0233D5022585E776
:10187C0064463300414610001D00C7E7002D00D020
:10188C00DAE00C000443F3D05C1C00D19FE15D4C0A
:10189C00A64200D12FE1DB43382B00DD66E11F2B84
:1018AC0000DD83E120240500E41A0F00DD40D9405F
:1018BC00A0404346A7405B1A441EA04198462F43C4
:1018CC003843171ABA42924143465242991A644617
:1018DC003500CAE607223A40002A00D0F6E64B074C
:1018EC00CA084849FF083B438D4296D11900114361
:1018FC0000D19EE1802109030A431203120B414DD2
:10190C008FE71500002200238BE7002B00D0C7E0E7
:10191C006B1C5F057F0D012F00DCF1E0394DAB42F4
:10192C0000D1B9E085180A008542894142444942F8
:10193C0051180722CF076D082F4349083A401D0064
:10194C00C2E607223049ED1A31403A40BCE63E006F
:10195C002838864000279FE6380001F0C9FC20306B
:10196C008EE6434613431F007A1E9741C71BB842AD
:10197C0080414042091A78E60E003B0006431343AF
:10198C00002D61D1002E00D0F4E0002B00D11BE122
:10199C0064463900100039E71A4FBB427AD0330045
:1019AC00FFE630001F3DE840202B03D04021CB1A2E
:1019BC009E4037437B1E9F41072207433A4000213C
:1019CC00002589E7171A4346BA42B641591A76429E
:1019DC008E1B64464EE61F2B00DDADE020264746ED
:1019EC00F61AB740B9461700B246DF404E463E43A2
:1019FC0037005646B240561EB24117434246DA40B3
:101A0C008918AEE6FF070000FFFF7FFFFFFF0F8086
:101A1C0020264746F61AB740B9461700B246DF40B3
:101A2C004E463E4337005646B240561EB24117430F
:101A3C004246DA40891A99E77F4CA6425BD0802453
:101A4C0024045B42214327E7002E0CD1002B00D14C
:101A5C00CBE0644639001000774DD7E6764FBB4299
:101A6C0018D0330075E6002B14D04B07C008184370
:101A7C008023C9081B03194207D0FC081C4204D15F
:101A8C007907D0080843E14621004C46420FC900B3
:101A9C001143C000684DB9E61D0000220023C0E6CA
:101AAC00002D5BD10D00054300D1E2E65D1C00D199
:101ABC00B0E0614DAE421FD0DB43382B71DC1F2BE5
:101ACC0000DD96E020250F00ED1AAF40B946070067
:101ADC00AA46DF404D463D432F005546A840D9400D
:101AEC00451EA84188440743BF1897429241514272
:101AFC00414435003AE6644635004146100085E61F
:101B0C000B000343002D00D063E6002BF5D04346B9
:101B1C00134300D17AE6871887428041072241445B
:101B2C00404209183A400B0200D4D5E6434B01352C
:101B3C001940C9E5380069E61E004746203EF740CB
:101B4C00BC46202B04D04026F31A46469E40324316
:101B5C00170063467A1E97411F4302E6364DAE428C
:101B6C00CAD080252D045B422943A6E70843411EB9
:101B7C008841A6E6002B00D148E6871A4346B842B6
:101B8C00B641CB1A76429E1B33024BD5171A4346ED
:101B9C00BA429241591A5242891A072264463A4073
:101BAC0092E501430F00791E8F419DE71C000F0049
:101BBC00203CE740202B03D04024E31A99400843F3
:101BCC00411E884138437CE60022002425E6171A82
:101BDC004346BA429241591A5242891A6446350018
:101BEC0043E541461000144D10E6802200241203F8
:101BFC0080E61D000F00203DEF40BC46202B03D09B
:101C0C004025EB1A9940084307006346781E87412C
:101C1C001F4369E7871897429B4141445B42C918AF
:101C2C003500A3E53B003343CED0072231003A40C8
:101C3C0052E600231A00F4E5FF070000FFFF7FFFC8
:101C4C00F0B55746DE464E464546E0B5834607009E
:101C5C000E03480085B092461C00360B400DCD0F8C
:101C6C00002800D19DE0954B984239D08023F60096
:101C7C001B041E43924A7B0F334399469446030040
:101C8C006344009300230026FF00029323031B0BE5
:101C9C0098466300E40F52465B0D019400D1B3E00B
:101CAC0086498B4200D19EE04246D100802212042C
:101CBC000A435146490F11438B46814952468C4683
:101CCC0000996344CB1A0021D20000932B0063408F
:101CDC009A460F2E00D905E17A4BB6009B599F46C8
:101CEC005B463343994600D0B8E002230826002710
:101CFC0000900293CAE7CB463A0002990195019BEA
:101D0C009A46022927D0032900D180E2012944D028
:101D1C006D49009B8C4663441C00002C38DD530736
:101D2C0000D013E2D2085B46DB0109D55946674B5C
:101D3C0019408B468021C9008C46009B63441C00D3
:101D4C00634B9C4207DC5B4664055F075B021743F1
:101D5C001B0B620D02E000230027584A00211B03D5
:101D6C001C0B0B0D1B05234314055A4A380013405A
:101D7C001C4353466400DB0764081C43210005B078
:101D8C003CBC90469946A246AB46F0BD012252425D
:101D9C0001231B1B382B00DCADE1002200230027A4
:101DAC00DCE75B46334399465ED0002E00D18AE1D6
:101DBC00300001F09DFA03000B3B1C2B00DD7BE196
:101DCC001D22D31A5A460100DA4008398E401300FE
:101DDC005F46334399468F403F4B00261B1A0093B6
:101DEC000023029352E7414653460B433B499B4623
:101DFC008C46009B634400935B46002B3BD1022333
:101E0C0000221E43022161E7434613439B4637D011
:101E1C004346002B00D162E1404601F069FA030011
:101E2C000B3B1C2B00DD53E102004146083A91406C
:101E3C0088461D21CB1A5146D9400B0041460B4315
:101E4C009B46534693401A00009B25499C46604490
:101E5C0003008C4663440093002137E70323B1460B
:101E6C0000900C26029311E7002300930133042603
:101E7C00002702930AE70323C3461E43032125E7E9
:101E8C0001331E430022012120E700239A468023C0
:101E9C0000271B03094A61E7802349461B031942AB
:101EAC0000D1E2E05946194200D0DEE00B431B039F
:101EBC0017001B0BA246014A50E7C046FF07000063
:101ECC0001FCFFFFFCB60108FF030000FFFFFFFE53
:101EDC00FE070000FFFF0F800DFCFFFF01F8FFFF66
:101EEC00F3030000D94500D9CBE000D1C6E03C009B
:101EFC0048460027009B013B00935B46160E1B02D5
:101F0C001E431302984633041B0C9946310C019165
:101F1C00FEF7B2F94A4642430B04210C0500194363
:101F2C008A4207D98919013D8E4203D88A4201D9C8
:101F3C00851E8919881A0199FEF79EF909048C46A9
:101F4C004A46210464464243090C030021438A4259
:101F5C0004D98919013B8E4200D8F1E02D041D43B0
:101F6C00AB464346891A4246280C12041D0C5B46AC
:101F7C00140C22001B041B0C5A4303946B43444364
:101F8C00029568431B19150CEB189C4203D980244D
:101F9C006402A44660441C0C15041B042D0C201870
:101FAC005D19814277D373D00C1AA24A7D1BAF42C4
:101FBC00BF419446009B7F426344E01B1C00864259
:101FCC0000D1DBE00199FEF757F94A4642430B0476
:101FDC00290C070019438A4207D98919013F8E42FF
:101FEC0003D88A4201D9871E8919881A0199FEF7EC
:101FFC0043F909044A46894629044D464243090CD3
:10200C00030029438A4207D98919013B8E4203D820
:10201C008A4201D9831E89193F04891A3A00039F09
:10202C001A43380013041B0C584381460298150CB4
:10203C006F43434345434846000C8446DB196344D5
:10204C009F4203D9802040028446654448461F0CB9
:10205C0000041B04000C7D191818A94200D284E05E
:10206C0000D17FE001231A4357E680234A461B0325
:10207C0013431B031B0BAA466F4A6FE6BA4200D9E7
:10208C0035E74B46DC0758087B081C43FF0734E751
:10209C000024AF4289D247444745A4415B46644281
:1020AC00A4196418013BA6421ED2A0426DD800D1DF
:1020BC00B6E0241A9B4678E703005A46283B9A4020
:1020CC000027914688E6584601F012F9203072E656
:1020DC0003005246283B9A4093460022B4E65046F1
:1020EC0001F006F920309AE6A642E2D1B845DCD9D7
:1020FC00341A9B4659E71F2B65DC504C0099A446BB
:10210C005C46614408008C4011008240D940501E4E
:10211C0082410C4314435A46DA401300620709D03B
:10212C000F222240042A05D02200141D944289411A
:10213C0049425B181A0262D50122002300270DE6E2
:10214C008A4200D80AE7831E891907E70F23134038
:10215C00042B00D1E6E5171D9742924153429B4454
:10216C00FA08E0E5002800D1D7E57118531EB142FA
:10217C0027D3A94215D358D01A0073E7002B00DCE3
:10218C0004E6012300229B44CDE502234744474546
:10219C0089415B429C46494289190C19E344241A33
:1021AC0003E743465F0047459B41B8465B429E1997
:1021BC00023A8919A94200D054E7404500D051E7B2
:1021CC00ABE51A00F6E71F215F4649420C1BE740BE
:1021DC00202B07D01A49009B8C46634418005B46A1
:1021EC0083401A43501E82413A430727002317406D
:1021FC0009D00F21002311401400042995D122008D
:10220C005F075B021B0BD20817430022A6E5802355
:10221C0059461B030B431B0317001B0B064A9DE57A
:10222C00BD42B2D89B460024BFE68045B9D31A0004
:10223C00C3E7C046FF030000FF0700001E040000B8
:10224C003E040000F0B54F464646D6468446C0B51F
:10225C008046194E18030F034D00000B5C0082469C
:10226C003F0B6D0DC90F9146640DDB0F0120B5427C
:10227C000AD0B44203D0A54201D157450CD01CBCA6
:10228C0090469946A246F0BD66463E43F7D1AC4215
:10229C00F5D154461443F2D10120C845EFD19942EF
:1022AC0007D0002DEBD163461F433800471EB841C1
:1022BC00E5E70020E3E7C046FF070000F0B54F4616
:1022CC004646D6464D00C0B50E03C90F8A462C496A
:1022DC001F035C008046360B6D0D91463F0B640D61
:1022EC00DB0F8D421ED08C4216D0002D1ED13043F8
:1022FC008446002C01D13A4323D06246002A1AD0DE
:10230C009A4529D0514602200139084001381CBC9D
:10231C0090469946A246F0BD39001143E5D0022003
:10232C004042F4E73043FAD1AC420FD0002C0FD12D
:10233C003A43E7D00CE00122013B934318000130F3
:10234C00E5E763460020002BE1D0DBE73A43E6D11A
:10235C009A45D7D1A542D5DCA54205DBBE42D1D8E2
:10236C0008D00020BE42D2D25046012301389843F7
:10237C000130CCE7C845C5D80020C845F4D3C6E722
:10238C00FF070000F0B54F464646D6464D00C0B597
:10239C000E03C90F8A462E491F035C008046360B7C
:1023AC006D0D91463F0B640DDB0F8D4218D08C42A6
:1023BC0011D0002D18D130438446002C1ED13A4345
:1023CC001CD163460020002B30D05146022001392D
:1023DC00084001382AE039001143EAD0022025E0F8
:1023EC003043FBD1AC4226D0002C26D13A4324D129
:1023FC005146022001390840013817E06246002A94
:10240C000FD09A45E1D1A54205DBBE42DDD819D0EB
:10241C000020BE420AD250460123013898430130B5
:10242C0004E00122013B9343180001301CBC904690
:10243C009946A246F0BD3A43D0D19A45C5D1A542A2
:10244C00C3DCE0E7C845C0D80020C845E3D3EDE7BE
:10245C00FF070000F0B55746DE464E464546E0B550
:10246C00834606000F03480087B092461D003F0BC1
:10247C00400DCC0F002800D16FE0DE4B984238D0D5
:10248C008023FF001B041F43730F3B430193DA4B64
:10249C000027994600239B46F60081442B036900D4
:1024AC001B0B52469846490DED0F002900D185E0D3
:1024BC00D04B994200D173E04346DA0080231B04D1
:1024CC0013435246CC48520F8446134352460020C5
:1024DC006144D20089442100694000918C4601215D
:1024EC0049448A460F2F00D990E0C449BF00CF5908
:1024FC00BF465B463B43019300D06AE102230827A9
:10250C00002681469B46C9E732005846019B61462E
:10251C000091022800D175E0032800D1FEE10128CA
:10252C0000D02CE100230027002600253F032A0DB4
:10253C003F0BB34812053A4302401B051343009A64
:10254C005B00D1075B080B433000190007B03CBCA3
:10255C0090469946A246AB46F0BD5B463B43019381
:10256C0000D12FE1002F00D1A5E1380000F0C0FE12
:10257C0003000B3B1C2B00DD96E11D22D31A5A469F
:10258C000100DA405E4608398F4013008E403B4311
:10259C0001939C4B00271B1A994600239B467DE711
:1025AC00414653460B4393498C46E144002B00D0E3
:1025BC001AE102220220174300228CE7134300D1B8
:1025CC000DE14346002B00D181E1404600F090FE26
:1025DC0002000B3A1C2A00DD72E101004346083967
:1025EC008B4098461D239A1A5346D3401A004346F3
:1025FC00134352468A404946081A82498946814407
:10260C00002068E77B4B002700268EE7140C120491
:10261C00120C1100370C3604350C794328008C460B
:10262C002E0060436044834656432100300C8046A4
:10263C005846794340440291844506D98846802106
:10264C0049028C46E044414602913604010C360C9A
:10265C0000048B4681191E0C1B041B0C03911900E2
:10266C0079438C46280075436544A8465843050CAD
:10267C0045447743A94203D9802149028C466744DB
:10268C00290C8C4639000004000C2D042D186144D3
:10269C00AB4405915946049101990F043F0C080C69
:1026AC00390051434243904602008C46090C8B463C
:1026BC0062437C4344445C44A04503D980214902D5
:1026CC0088464244210C884661460904090C8C4614
:1026DC0039005943434370437E430F0CF6182404CE
:1026EC00BE19644442448C46B34203D980235B0236
:1026FC0098464044029B61469846049B37044344E9
:10270C009B46AB45AD416B420D0405992D0C8C4697
:10271C007F196744FD18A8465D462D19A542A441B2
:10272C0093466442A446C344DC448F42BF4198455F
:10273C009B4193459241A445A4415B427F421F4378
:10274C00360C52426442BF192243BF1862463818F5
:10275C004302D20D039913436A020A43501E82416D
:10276C006146ED0D2A434E023243D90100D4B3E049
:10277C000126500832400243DE0732435B08224CEC
:10278C005444002C62DD510709D00F20104004285E
:10279C0005D0101D9042924152429B180200D90163
:1027AC0004D580241948E40003405444184884425A
:1027BC0000DD27E75E075B02D2081F0B630516439B
:1027CC005B0DB2E6002399460133042700269B4695
:1027DC0064E60323019781460C279B465EE60122A3
:1027EC0001201743002276E6032303201F434346B0
:1027FC0071E6C046FF07000001FCFFFF3CB7010873
:10280C00FFFF0F800DFCFFFFFF030000FFFFFFFE2B
:10281C00FE0700000023802700933F030026434B54
:10282C0083E6019B3200A446584670E6AC466EE641
:10283C00802701993F0339422DD03B422BD11F43B6
:10284C003F033F0B00951600384B6EE601252D1B00
:10285C00382D00DD66E61F2D40DC35481C00504449
:10286C00160082408440EE40501E82413443144393
:10287C00EB40620709D00F222240042A05D0220027
:10288C00141D9442804140421B181A023ED501236C
:10289C000027002649E68027019B3F031F433F0387
:1028AC003F0B0094214B40E603005A46283B9A40CC
:1028BC00002601926DE6584600F01AFD203057E6CE
:1028CC0003005246283B9A401300002293E65046E0
:1028DC0000F00EFD20307BE6CA4650E71F201E009C
:1028EC004042041BE640202D03D0124C5444A3401C
:1028FC001A43501E8241324307260027164009D046
:10290C000F200023104014000428B9D122005E07C8
:10291C005B021F0BD2081643002306E680273F03F9
:10292C001F433F033F0B1600004BFEE5FF07000063
:10293C001E0400003E040000F8B557464E464546BE
:10294C00DE460C000903E0B5490A460F5F0031432F
:10295C001E03DB0F760A9B46530F3343C84E6500AC
:10296C00C000E40FD2006D0DA24681467F0D9C463F
:10297C009046B74200D1B9E05B46012673409B46B6
:10298C00EE1BA34500D183E0002E63DD002F00D0A9
:10299C00B1E06346134300D123E1731E002B00D03A
:1029AC00BAE1861A6346B04280410125C91A4042F9
:1029BC00091A0B0200D447E149024B0A98464346D8
:1029CC00002B00D189E1404600F092FC0300083B4B
:1029DC001F2B00DD7CE120223000D21A4146D04072
:1029EC00994002009E400A439D4200DD6AE15D1B56
:1029FC006B1C1F2B00DD94E1202110003500C91A3F
:102A0C008E40DA408840DD40711E8E411100072255
:102A1C002843002506433240002A09D00F233340B7
:102A2C00042B05D0331DB342B641764289191E00E2
:102A3C000B0200D43DE26A1C914B55056D0D9A4278
:102A4C0000D119E18F4AF6080A4057075202374362
:102A5C00120B9BE0002E00D0C5E06E1C7605760DA7
:102A6C00012E00DC48E16746861ACB1BB042BF4101
:102A7C007F42B8461F004346FF1A3B00B8461B0274
:102A8C0000D55FE137439AD100220024002579E07C
:102A9C00002E00DCFAE0002F00D18DE0784B9D4237
:102AAC0067D0802367461B041F43BC46382E00DCCE
:102ABC0052E1634613435A1E93411E1886428041CD
:102ACC00404209180B0200D4BEE06D4B01359D420B
:102ADC0000D1D2E06B4A73080A4001210E401E431C
:102AEC005108D30707221E43324095E71E001643B8
:102AFC0000D045E740E7624B9D423AD080236746C1
:102B0C001B041F43BC46382E00DDEBE01F2E00DCFF
:102B1C003AE133006746203BDF403B00202E05D0D6
:102B2C004027BF1B6646BE40324390464646721E47
:102B3C0096413343DAE0002B00D114E26346134391
:102B4C0000D168E180234E07C008C9081B03064367
:102B5C00194208D06046C008184204D163460100EF
:102B6C00D2085E071643F3009946C900720F444D14
:102B7C0011434B46DE08424B4F073743CA089D4270
:102B8C0000D16EE012036D05120B6D0D00211203C6
:102B9C00130B0A0D12051A433B4B2D0513402B4307
:102BAC005B00E4075B082343380019003CBC9046EB
:102BBC009946A246AB46F8BD6346134311D0731E2B
:102BCC00002B00D007E186188642804161444042C8
:102BDC00091801250B0237D502257BE73E0061461B
:102BEC0091463500C5E75C46002D00D0E1E00B00B6
:102BFC000343F3D0731C00D1ACE1214B9F4200D1B5
:102C0C003AE1F343382B00DD6FE11F2B00DD8CE143
:102C1C0020250E00ED1AAE40B0460600AA46DE4056
:102C2C00454635432E005546D940A8406346451EBF
:102C3C00A8415B1A9C463043161AB2429241634635
:102C4C005242991A3D00B4E607223240002A00D0C5
:102C5C00E4E60B4BF6084F073743CA089D4200D0F9
:102C6C0090E73B00134300D1A6E180231B031A43DA
:102C7C001203120B024D89E715000022002785E78D
:102C8C00FF070000FFFF7FFFFFFF0F80002E00D02B
:102C9C00C7E06B1C5E05760D012E00DCF0E0C84D24
:102CAC00AB4200D1B9E085180A00854289416244E3
:102CBC00494251180722CE076D082E43490832406D
:102CCC001D00A9E6BF49ED1A114007223240A3E6C8
:102CDC00320028388240002686E6300000F008FBDF
:102CEC00203073E6634613435A1E9341C61AB04212
:102CFC0080414042091A5CE60E00674606431743C2
:102D0C00002D5ED1002E00D0F3E0002F00D11EE18B
:102D1C005C46614691462CE7A94FBE427BD01E0013
:102D2C00F1E610001F3DE840202B03D04021CB1AC8
:102D3C009A401643731E9E410722064332400021DF
:102D4C00002583E7161A6346B2428041591A404265
:102D5C000B1A98465C4632E61F2E00DDABE02027AE
:102D6C00BB1B9A4663465746BB40994613004F46D9
:102D7C00F3401F433B005746BA40571EBA4113431A
:102D8C006246F240891898E62027BB1B9A46634698
:102D9C005746BB40994613004F46F3401F433B0038
:102DAC005746BA40571EBA4113436246F240891A3D
:102DBC009CE7834B9F425FD080252D0473422943AF
:102DCC0020E7002E0CD1002F00D1D0E05C466146EC
:102DDC0091467B4DCDE67A4FBE421CD01E0065E677
:102DEC00002F18D0C0084E0706438020C9080003E6
:102DFC00014208D06346DC08044204D12100DA46C3
:102E0C00D2085E071643F300994601245346C900C5
:102E1C00720F11431C406A4DABE61D0000220027C7
:102E2C00B4E6002D59D10B00034300D1D6E6731C38
:102E3C0000D1B2E0624B9F421ED0F343382B6FDCC3
:102E4C001F2B00DD97E020250E00ED1AAE40B0469A
:102E5C000600AA46DE40454635432E005546A8409E
:102E6C00D940451EA8418C440643B618964292415F
:102E7C00514261443D0025E63D006146914678E6AD
:102E8C000B000343002D00D055E6002BF5D0634614
:102E9C00134300D16DE6861886428041614440425E
:102EAC00091800220B0200D4D0E6464B013519401C
:102EBC00B2E5B1465DE633006746203BDF403B00A0
:102ECC00202E05D04027BF1B6646BE40324390469D
:102EDC004646721E96413343EFE5394B9F42CBD0A9
:102EEC0080252D0473422943A8E70843411E8841DD
:102EFC00A2E6002F00D13CE66346861ACF1AB042F8
:102F0C009B415B42FB1A98461B024ED5161A634630
:102F1C00B2429241591A5242891A5C4600227BE510
:102F2C0001430E00711E8E419FE71D000E00203DD7
:102F3C00EE40B046202B04D04025EB1A99400843B4
:102F4C00814648464346411E8841184374E6002298
:102F5C00002417E6161A6346B2429241591A52429D
:102F6C00891A3D0025E561469146154D01E6802202
:102F7C000024120379E61D000E00203DEE40B04601
:102F8C00202B04D04025EB1A9940084381464E462D
:102F9C004346711E8E411E4367E7861896429B413D
:102FAC0061445B42C9183D008CE547463743CED09F
:102FBC0007224146324049E600273A00E6E5C04682
:102FCC00FF070000FFFF7FFF70B50C4E0D031C03C5
:102FDC0049005B002D0B490D240B5B0DB14208D051
:102FEC00064900208B4203D114432000441EA0410B
:102FFC0070BD05430120002DFAD1F1E7FF07000059
:10300C0030B5144D0A034B00120B5B0DC90F002495
:10301C00AB4211DD104CA34210DC8024640322432C
:10302C000E4CE41A1F2C0CDD0D48C31ADA401300A9
:10303C005C42002900D11C00200030BD094BCC188B
:10304C00FAE7094DE040AC4663449A401300034351
:10305C00EEE7C046FE0300001D0400003304000030
:10306C0013040000FFFFFF7FEDFBFFFF70B500288E
:10307C002DD0C317C5185D40C40F280000F038F9D7
:10308C00154B1B1A5B055B0D0A2815DD0B388540AB
:10309C0000222D032D0B002110002D030A0D2D0BEA
:1030AC0012052A430D4D1B052A4013435B00E40710
:1030BC005B082343190070BD0200290015329140B2
:1030CC000A000B21081AC5402D032D0BE3E7002441
:1030DC00002300250022DEE71E040000FFFF0F8006
:1030EC0010B5041E25D000F003F9144B1B1A5B0518
:1030FC005B0D0A2812DD0B38844000222403240BBC
:10310C000021100024030A0D240B120522430C4C41
:10311C001B05224013435B00590810BD020021001F
:10312C00153291400A000B21081AC4402403240BC9
:10313C00E6E7002300240022E2E7C0461E0400005C
:10314C00FFFF0F804100090E4B1C70B5DBB246022D
:10315C00750AC40F012B14DDE0239B006D07360BA1
:10316C00CB1800210A0D280012051C4D32435B05BB
:10317C002A405B0813435B00E4075B0823431900F8
:10318C0070BD002914D1002D1ED0280000F0B0F81D
:10319C000A281CDC0B232A001B1ADA400300153307
:1031AC009D400F4B12031B1A5B05160B5B0DD8E7EA
:1031BC00002D06D0320B802636036D071643094BC3
:1031CC00CFE7084B0026CCE700230026C9E7030015
:1031DC002A000B3B9A400025E3E7C046FFFF0F8017
:1031EC0089030000FF070000F0B54C00640D0B03D1
:1031FC00621C5B0A460F5205C90F1E43C500520DD7
:10320C00012A29DD374BE718FE2F1CDC002F3BDD94
:10321C008001431E98410722F3006D0F03432B439B
:10322C001A40002A04D00F221A40042A00D004337A
:10323C008022D2041A4024D00137FAB2FF2F02D0D8
:10324C009B01580A01E0FF2200204002D205400AEF
:10325C00C90710430843F0BD3543002C04D1002DA1
:10326C000AD100220020F0E7002DECD08020C00312
:10327C003043FF22E9E7002400235B02580AE2B244
:10328C00E3E7DB083C00F8E73B001733F3DB802374
:10329C001B0433431E26F61B1F2E14DD0222524242
:1032AC00D71B1A00FA401700202E04D00E4A944661
:1032BC006444A3401D432B005D1EAB4107223B43DE
:1032CC001A400027ADE7094A2800A2189540934000
:1032DC006C1EA541F04007222B4303431A400027E4
:1032EC009FE7C04680FCFFFFA2FCFFFF82FCFFFFB4
:1032FC001C2101231B04984201D3000C10391B0A1A
:10330C00984201D3000A08391B09984201D30009DD
:10331C00043902A2105C40187047C0460403020234
:10332C0001010101000000000000000010B500299F
:10333C0003D1FFF7DDFF203002E0081CFFF7D8FFB8
:10334C0010BDC046F0B51E4B1E481B8885B09BB205
:10335C001D4A1E49834206D1012313700023FA2013
:10336C000B7005B0F0BD180A0DD010700B701378EF
:10337C000B2601930222012302A9073101988342F3
:10338C0003D90020EDE70120EFE700205C1E744319
:10339C00087008780A2802D90133DBB2EEE7084836
:1033AC00171808783F882018BC466546084F40001F
:1033BC003D52087802320130C0B292B20870E8E790
:1033CC0000D80108FFFF000008000020A00A002020
:1033DC00CC0E0020F8B5012400250A27094B1B78D8
:1033EC00A34201D22800F8BD611E074B4900661CA0
:1033FC00C918B0B203F038FF192C00D93D00F4B253
:10340C00ECE7C0460800002040720020F0B585B003
:10341C0002AB00249F1D1C233C800093144B1B7893
:10342C00A34202D2002005B0F0BD0A23002563435D
:10343C00104A009E9B1801933000390003F014FFD2
:10344C00019A3B8852195370019A1B0A5355013645
:10345C000235B6B20A2DEFD16543064B01345D1926
:10346C0000236B72009BE4B205339BB2D5E7C046D8
:10347C0008000020BD0D00200020F0B585B002AB87
:10348C001A4E9F1D3880B41C194B451C1B78C1B2B9
:10349C00ADB28B4221D8350099309A36363584B28C
:1034AC000196002600943900009803F0DDFE3B885D
:1034BC00AA1953701B0AAB55009B023601339BB201
:1034CC0000930A2EEFD10020019B687205340A3557
:1034DC00A4B29D42E5D105B0F0BD4900CB306118D6
:1034EC0080B203F0C1FE2800CEE7C046A00A00203F
:1034FC0008000020F0B50E25002687B005AC02AB05
:10350C00ED182100E42026802E8003F0ADFE0396FA
:10351C00B04201D1237803932100E52003F0A4FEEF
:10352C0029000600E62003F09FFE3043002680B2FF
:10353C00B04203D126882B883604F6182100E720E8
:10354C0003F092FE29000700E82003F08DFE3843BB
:10355C00002780B2B84203D127882B883F04FF187C
:10356C002100E92003F080FE204D002803D12388A0
:10357C001A0AAA76EB762100EA2003F075FE0028E1
:10358C0003D123881A0A2A776B772100EB2003F0EA
:10359C006BFE002803D123881A0AAA77EB77AB7E3F
:1035AC00002B08D0EA7E002A05D0009231003A00A8
:1035BC00039805F07BFA2B7F002B08D06A7F002A3A
:1035CC0005D0009231003A00039805F06FFAAB7FFA
:1035DC00002B08D0EA7F002A05D0009231003A0077
:1035EC00039805F063FA002007B0F0BD200B002013
:1035FC00F7B58A2001AD2900400003F035FE434C9D
:10360C00002859D12B8823701B0A8E2029004000DA
:10361C00637003F029FE002853D12B88DA0B22713A
:10362C005B0816202900FF30E38003F01DFE384CA8
:10363C0000284CD12B888B2029004000238003F0DC
:10364C0013FE002846D12B8818202900FF306380F8
:10365C0003F00AFE002840D12B8823711B0A8C2012
:10366C0029004000637103F0FFFD6B4606001A2031
:10367C009F1D3900FF3003F0F7FD0643B6B2002E54
:10368C0030D13B882A881B0413438D20290040002D
:10369C00A36003F0E9FD00282FD12B8823731B0AAC
:1036AC0063731C202900FF3003F0DEFD002828D1B5
:1036BC002B880020A376FEBD164B9A782270DB78FF
:1036CC00A3E7144B9A7902332271DB88A9E7114BDB
:1036DC009B89B0E70F4BDB89B6E70E4B1A7C227146
:1036EC005B7CBCE70C4B0133DB7F002B02D0E1236E
:1036FC005B02CAE7074B5B69C7E7C0235B01A38189
:10370C00CFE7044B0733DB7FD3E7C046F66C0020D2
:10371C00786D002008000020200B00201E23F0B53F
:10372C008BB002AA9B18002201271A80BDB2280078
:10373C001E2602AB3A30F618800080B2310003F03E
:10374C0093FDFBB206900793002845D13288130AEB
:10375C001909B94240D10F210B403DD0AD00ADB29B
:10376C002800063979431F4CE930641863702272C3
:10377C00310080B203F078FD28003388EA301A0A51
:10378C00A2706371310080B203F06EFD3388EB35AB
:10379C001A0AE270A3713100A8B203F065FD3388F8
:1037AC00F9B21A0A2271E371607804F0C9FA0121A6
:1037BC00207AA37842100A40014006980590E079DF
:1037CC000490A07903906079029020790190E078C0
:1037DC000090F8B204F0BEFB0137072FA6D10020F1
:1037EC000BB0F0BDF8170020F7B532200EF0FEFA42
:1037FC000600FB20002E05D02F4C04302378002728
:10380C00FE2B1BD0FEBD23000099143B0135CA547E
:10381C000134EDB22AE02A0031000EF034FD274AC3
:10382C00002113783000013313702A000EF034FDA0
:10383C002378FE2B3AD11437642F37D02300321B58
:10384C0014330092227800990A5501349C42F9D124
:10385C001B4B711CFB181422180001930EF013FD66
:10386C001422002130000EF017FD00252278931C45
:10387C00DBB2012B01D9322DC5D17319013B1B7859
:10388C00002B01D00135EDB228000EF0AFFA0C4B35
:10389C00DB19D8600028BED10100142201980EF06B
:1038AC00FBFC30000EF0ACFA0E20ABE730000EF053
:1038BC00A7FA0020A6E7C04600DC0108381100205A
:1038CC00946D002010B5FFF73DFDFFF783FDFFF76A
:1038DC009DFDFFF7D1FDFFF70DFEFFF789FEFFF70A
:1038EC001DFFFFF781FF10BDF8B5012400250A2745
:1038FC000A4B1B78A34201D22800F8BD631E084A6C
:10390C005B00995A661C002902D0B0B203F0D6FCB9
:10391C00192C00D93D00F4B2EAE7C046080000209B
:10392C0040720020F7B500252F00134B1B78AB42DB
:10393C0001D20020FEBD0A266E43104BF25C002A19
:10394C0017D0F6183B003C0021331C349BB2A4B2B8
:10395C000193337871781B02C918200089B203F0E7
:10396C00ADFC0134019BA4B202369C42F1D1053767
:10397C00BFB20135EDB2D8E708000020BD0D002024
:10398C00F0B50E0015001C0085B00AAB1F780BAB10
:10399C001B7881B200930CAB1B78E42001930DAB28
:1039AC001B7802930EAB1B78039303F087FC310A50
:1039BC0089B2E52003F082FCB1B2E62003F07EFC74
:1039CC00290A89B2E72003F079FCA9B2E82003F0B8
:1039DC0075FC2102C91989B2E92003F06FFC009B28
:1039EC00EA201902019BC91889B203F067FC029BFB
:1039FC00EB201902039BC91889B203F05FFC00206D
:103A0C0005B0F0BD8A2010B51F4C400063782178BA
:103A1C005B01194303F052FC8E202179E388C90322
:103A2C00194389B2400003F049FC1620174CFF30B3
:103A3C00218803F043FC8B206188400003F03EFC9E
:103A4C0018206379217B1B021943FF3003F036FCED
:103A5C008C20A368400099B203F030FC1A20A368B4
:103A6C00FF30190C03F02AFC8D20637B21791B029B
:103A7C001943400003F022FC1C20A17EFF3003F010
:103A8C001DFC002010BDC046F66C0020786D002097
:103A9C00F8B50E4E3422002130000EF0FDFB01244F
:103AAC0000250B4B1B78A34201D22800F8BD631EE6
:103ABC005B00F15A671C002902D0B8B203F0FEFB80
:103ACC00192C00D90A25FCB2EBE7C0464072002045
:103ADC000800002070B5054C054D2368AB4204D09E
:103AEC0003F07CFC002800D1256070BDF07F002025
:103AFC00ADDEEFBE0E23F0B51225002401278FB0EA
:103B0C0003AE6B446D440093320006AB05A9012053
:103B1C0008F060FD04AA08AB07A90095022008F084
:103B2C0059FD338809A9059809930A970B940CF051
:103B3C00FDFB02230B932B8809A9089809930A947F
:103B4C000CF0F4FB3188220005980CF02BFD0520BD
:103B5C0009F0C6F8298808980CF01EFDA0420FD178
:103B6C0031883A0005980CF01DFD052009F0B8F8D5
:103B7C00298808980CF010FD013844424441E4B205
:103B8C0020000FB0F0BD10B509F014FAE1231B02B0
:103B9C0043608023DB000361802304005B018360AE
:103BAC000DF082FF2023226811680B43136010BDB7
:103BBC00044B10B59968FCF79FFA43425841C0B2C8
:103BCC0010BDC04698000020F8B51C490500FCF754
:103BDC0093FA062406001A4F002E23D01949280008
:103BEC00FCF78AFA00281FD017492800FCF784FA42
:103BFC0000281BD015492800FCF77EFA002817D0A6
:103C0C0039002800FCF778FA002813D01049280056
:103C1C00FCF772FA00280FD0013CE4B2002CDBD187
:103C2C002000F8BD0120FCE70220FAE70320F8E7AA
:103C3C000420F6E70520F4E70620F2E785B7010833
:103C4C0081B70108A8BD01087CB701087EB701083F
:103C5C0084B7010873B5050001240326A54211D0D1
:103C6C000B4B20001A8D0B4B110A21335A7000227A
:103C7C0019709C70110000960A2304F0F5FF0A20BD
:103C8C0009F0C1FA0134E4B2062CE7D1002076BD6C
:103C9C0008000020200B0020F0B587B06A463C4B92
:103CAC0000AF1B783B610733DB08DB00D31A9D4662
:103CBC007B6100231900374A50323D69DCB2A542C2
:103CCC0031D801237A690138135416224243324900
:103CDC0052183049FA605031FC685A00A25A002A36
:103CEC000DD001265D1EAE4035004400665AD20848
:103CFC00354365527C69A2180224013A14700133D1
:103D0C00072BE9D10221234B5033BB600023180051
:103D1C000131C9B23C69DAB294420AD80028F5D113
:103D2C00BD4607B0F0BD7C69E1545C00A152013383
:103D3C00C3E77A69D45C4A1E944226D116245C43AC
:103D4C00154AA2187A605A00944601247D686200D4
:103D5C00AA5A002A16D0D208013AFA60FD687A698C
:103D6C00555D002D0ED10126651EAE406546320014
:103D7C00BE680130AD5BC0B21543624695537A699B
:103D8C00FD6851550134072CE0D10133C2E7C04620
:103D9C0008000020200B0020CC0E00200B78F0B582
:103DAC00FF220400002B00D10278084B1E78002360
:103DBC0018009E4200DCF0BDE55C954204D2CF5C5D
:103DCC00002F01D12A00D8B20133F2E708000020FD
:103DDC0010B5064B01221C780300191A8C4201DC29
:103DEC00100010BD197801330A40F6E708000020D6
:103DFC00F0B5050091B00C003222002103A80EF0A2
:103E0C004BFA1A22002149480EF046FA484B6A1E1A
:103E1C009918002301200B7145491E318B54163320
:103E2C005343444A9B180093A2B200994300CB5AC7
:103E3C00002B0BD0DB08934208D101223C4BC0B2C3
:103E4C001F193A4BFA701C7011B0F0BD01300728E5
:103E5C00EBD1394B364A18780123161D1E32984285
:103E6C002ADA002503AE3000FFF7B2FF002808D194
:103E7C002F4B3100181DFFF791FF0130C5B2A54241
:103E8C0024D100212A4A294E1E325319013B18789D
:103E9C00002842D10122264B1C1900995300C95A03
:103EAC0000293FD0E378214DC908EB18013B1B7862
:103EBC008B4237D1D0B2C7E79D4205D0FF27591EA0
:103ECC007754002751180F700133C8E701226B1E7D
:103EDC00F25416225A43174952180192144A0121DE
:103EEC0094469C44019A4B00D35A002B11D0DB080A
:103EFC00DBB2013BF25C002A0BD162460C48127912
:103F0C00C01801320779D2B2974202D902710B4A1A
:103F1C00D55401310729E5D1A4E74B1C7554D9B20E
:103F2C000500B2E70132072AB7D18DE78C6E00206D
:103F3C00A00B0020CC0E002008000020BE0B00209F
:103F4C00F0B5314E89B0050030780C0007921F0097
:103F5C00FFF74EFF31780590002F05D00023A142CA
:103F6C000CD1069405970AE0284B06911B19DA78B8
:103F7C00012A04D0264B9B18013B1B7806933378FF
:103F8C00AB421AD109F038FA0500002F34D1214B7D
:103F9C00220019680EF08AFB1F4B280019680EF0DE
:103FAC00A5FB2800FCF7B2F8322382B2290007984F
:103FBC0009F032F864200AF07DFF0798FFF7E3FD63
:103FCC000598FFF7E0FD3378069A934205D10598E2
:103FDC0008F0F0FF012109F063F800233178039316
:103FEC00013B0293019303330093059A0B0007984E
:103FFC0005F06CF809B0F0BD08493B0022000968D7
:10400C000EF054FBC8E7C046A00A0020A00B00200D
:10401C008C6E002090000020880000208C00002076
:10402C00F0B5524D85B038355149060028000EF0D8
:10403C0079FB01242800FCF769F8644282B229005C
:10404C0000943223300008F0C1FF0125474F2A00AD
:10405C003837484938000EF029FB3800FCF756F881
:10406C00013582B2009432233900300008F0AEFFE3
:10407C00062DEBD13223009403223F49300008F087
:10408C00A5FF012700237F4202933C4B029A1B7829
:10409C0093420AD801235B420093012233333849FF
:1040AC00300008F093FF05B0F0BD304C029B383463
:1040BC005A1C344920000EF0F9FA2000FCF726F8BF
:1040CC00322382B221000097300008F07FFF1623C4
:1040DC000621029A2C4D534303935B5B05225943F3
:1040EC002A4B2000C9180EF04CFB3223052221006C
:1040FC000097300008F06AFF322300970122244910
:10410C00300008F063FF039B5B1901250393039AAE
:10411C006B00D25A154C002A1ED120001D49383094
:10412C000EF0C4FA38342000FBF7F0FF013582B2F0
:10413C00009732232100300008F048FF062DE6D10D
:10414C003223009702221449300008F03FFF029BF3
:10415C000133DBB2029398E7200007230F49134089
:10416C003830D2080EF0A2FADCE7C046A00B0020D3
:10417C0087B7010899B7010862C001080800002040
:10418C00A9DB01089EB70108CC0E0020958D010813
:10419C0097B70108ADB7010863C00108AAB70108B9
:1041AC00F0B52A4C87B0250038352949060028007F
:1041BC000EF0B8FA01272800FBF7A8FF290001250B
:1041CC007F4282B200973223300008F0FFFE059741
:1041DC00204B1B78AB4212D238341F4920000EF012
:1041EC00A1FA2000FBF792FF01235B4282B20093FD
:1041FC0021003333300008F0E9FE07B0F0BD002396
:10420C006A1E520004925A1C04990392134A8A5A49
:10421C00802109021941114212D027003837039B23
:10422C002A000F4938000EF041FA3800FBF76EFFF8
:10423C00059B82B2009339003223300008F0C6FE91
:10424C00039B0A2BDFD10135EDB2C1E7A00B002097
:10425C00B1B7010808000020DFB701084072002048
:10426C00CDB70108F0B585B0039009F0C5F804008E
:10427C006F490EF057FA6F4D6F4B38351A786F49FE
:10428C0028000EF013FA290020000EF02FFA6C4FC4
:10429C006C493A7A28000EF009FA290020000EF039
:1042AC0025FA0523002200936749033B28000EF0F2
:1042BC00FDF9290020000EF019FA644A644928001F
:1042CC000EF0F4F9290020000EF010FA614A624950
:1042DC0028000EF0EBF9290020000EF007FA5F49D8
:1042EC0028000EF01FFA290020000EF0FFF901261D
:1042FC00093732005A4928000EF0D8F9290020005D
:10430C000EF0F4F9F05D042808D8FBF711FF0374E4
:10431C0076787A00534928000EF004FA2900200020
:10432C0001360EF0E3F9062EE3D14F4928000EF0CA
:10433C00F9F9290020000EF0D9F9012538236B4337
:10434C004A4A9B181A00383A1268002A5BD1394E37
:10435C002A003836464930000EF0A8F9310020000A
:10436C0001350EF0C3F9072DE8D1424920000EF0BB
:10437C00BDF9414920000EF0B9F92000FBF7C6FE4B
:10438C00002206002C4B3D491B78571C013B5B005F
:10439C005B5A80210902114119420AD0254D384936
:1043AC0038353A0028000EF081F9290020000EF073
:1043BC009DF93A00052FE5D12000FBF7A7FEB6B218
:1043CC00B04203D12F4920000EF090F9294920006A
:1043DC000EF08CF9039B002B0BD02000FBF796FE04
:1043EC0001235B4282B2009321003333039808F01F
:1043FC00EDFD05B0F0BD24498DE724498BE7244938
:10440C0089E7244987E7143B186806F0B7FB224A72
:10441C00AB00043B0700D05806F0B0FB054E0090F3
:10442C0038363B002A001D4930000EF03FF995E765
:10443C0098B70108A00B0020A00A0020FFB70108C4
:10444C00200C00201BB8010837B8010854B801082B
:10445C0060B8010877B8010880B8010899B801085C
:10446C00ACB80108B2B8010813B90108481B002008
:10447C002BB9010863C0010876B90108407200200D
:10448C0093B9010898B90108B9B80108CEB8010868
:10449C00DAB80108F4B80108D812002046B90108AE
:1044AC00F7B529490500FBF727FE002803D1274B58
:1044BC001C782000FEBD26492800FBF71DFEFF24BA
:1044CC000028F6D02F78232F17D00026214B1B78ED
:1044DC000193019BF4B2A34221D800240A271B4E5E
:1044EC0036363900614328007118FBF705FE0028A9
:1044FC0024D12002FE2404431CE0681C0DF02BFC8C
:10450C00C0B2002805D0134B1B78834201D304B2F0
:10451C00CFE70E4B66241B788342F8D0C9E70A21FB
:10452C0071430D4B2800C918FBF7E6FD002803D199
:10453C00002F01D024B2BCE70136CAE701340A2CA3
:10454C00CFD15A34B5E7C04658D50108A00A00208F
:10455C009DB9010808000020BD0D0020F7B50C0026
:10456C000025294E0190A90071182000FBF7C4FD0D
:10457C00002843D00135042DF5D10A27234B244EB6
:10458C001B78033D0093009BAB421FDC00250A27E0
:10459C00204E36363900694320007118FBF7ACFD0C
:1045AC0000282DD001350A2DF4D11B4E1B4B336145
:1045BC003569002D14D10A20019B21005843144B5E
:1045CC00C0180EF0AFF8FFF7ADF9FEBD3900694326
:1045DC0020008919FBF790FD002811D00135D2E796
:1045EC002B681F683800FBF791FD39000200200092
:1045FC000EF0B6F8002805D06B68D8E70620E4E783
:10460C000720E2E70820E0E7488D010808000020B9
:10461C00BD0D0020A00A0020200C0020BC000020B2
:10462C00F7B50D0000240A27364E009036363900B7
:10463C00614328007118FBF75FFD00280AD10121A6
:10464C00A140009B2F4A013B951C5B005A5B0A431F
:10465C005A53FEBD01340A2CE9D100242A4EA10084
:10466C0071182800FBF748FD002845D00134042CB4
:10467C00F5D10A27254B264E1B78033C0193019B51
:10468C00A3421DDC234E244B73617469002C21D191
:10469C000A221C48363013006343195C002927D1C9
:1046AC00C01829000EF03EF80120A040009A154BCE
:1046BC00013A02335200D15A0143D1520020C8E7CB
:1046CC003900614328008919FBF716FD002815D025
:1046DC000134D4E723681F683800FBF717FD390055
:1046EC00020028000EF03CF8002809D06368CBE7E4
:1046FC0001340A2CCFD1D7E70620AAE70720A8E778
:10470C000820A6E7A00A0020488D01080800002018
:10471C00BD0D0020200C0020BC000020F7B50124AA
:10472C000026194B1B78A34201D23000FEBD174F57
:10473C003B78A3420FD000221321200004F0A4FCEC
:10474C00322008F0CDFA124B1B7E002B00D0022633
:10475C000134E4B2E5E700256B1C01936B46187934
:10476C0008F028FC8022436B1202934208D11000FF
:10477C0028413B780749013B5B005A5A02435A5285
:10478C00019D052DE8D1E3E708000020A00A0020D8
:10479C00200C00204072002070B5802500222D02D4
:1047AC002E0016410B4B0C491B78541C013B5B0033
:1047BC005B5AE0B21E4009D108F0FCFB310008F056
:1047CC006FFC2200052CEBD1002070BD08F0F2FB31
:1047DC000121F4E7A00A00204072002070B508F017
:1047EC004BF908F0D7F902F049FE07F0BDFE07F0CF
:1047FC003DF808F001FA07F067FE08F02FFA07F011
:10480C0039FF00280AD0FFF765F9BFF34F8F2E4B05
:10481C002E4ADA60BFF34F8FC046FDE7FFF76AF907
:10482C00002834D001242A4B32201B19DC7708F0E5
:10483C0057FA06F017FAE123264D5B02AB60200015
:10484C000134A968E4B208F021FC062CF7D1FFF77B
:10485C0039F8FFF7A1FF07F075FB80211E4B0122F1
:10486C001C78C9011D48002C17D10BF09BFEFA20B7
:10487C00400008F035FA80210022C90117480BF0DE
:10488C0091FE02F07BFC0122154B5A7670BD322052
:10489C0008F026FA06F0E6F9D9E70BF083FEFA20C9
:1048AC00400008F01DFA80210022C9010B480BF0D2
:1048BC0079FE642008F014FA802108480122C9010D
:1048CC000BF070FE6420D4E700ED00E00400FA0564
:1048DC00200B0020786D0020A00A00200004004866
:1048EC00200C002010B50AF0C7FA05F0F7FFFFF70F
:1048FC0075FF02F007FF08F081FC10BD37B51E20D4
:10490C000DF074FA04001E2200210DF0C5FC0948BC
:10491C000949058B027D837D013A0195407D92000A
:10492C008A1800902C31126920000DF0BFFE200077
:10493C003EBDC046786D0020488D01081FB5074B61
:10494C000A00197801230393023B0293019303336A
:10495C0000930B0004F0BAFB05B000BDA00A0020C8
:10496C00F0B5002487B007000D00230022002100C1
:10497C00049403940294019400942000FFF700F82F
:10498C003823791E59430D4A681E8E584343A6425C
:10499C000BD0D6583800A6420CD002F075FB28007C
:1049AC0002F072FB200007B0F0BDD3586820002B3A
:1049BC00F9D0280002F068FB3000F4E7481B002017
:1049CC001423F7B5224D234A2C780600013C5C4396
:1049DC001419FBF79BFBE7680190002F2FD03800D0
:1049EC00FBF794FB019900900231091838000DF087
:1049FC0095FCE06014242B78164A013B6343D318D2
:104A0C00009AD8680132801831000DF08BFE2B789B
:104A1C00104A013B6343D3181322DB6800995A54A4
:104A2C001422002128780B4B013850431818C36806
:104A3C008B4202D10DF030FC0E210800FEBD019816
:104A4C0001300DF0D3F93100E0600DF06BFEE7E7BB
:104A5C0038110020946D002070B5050003262C78C9
:104A6C00002C00D170BD0DF0B3F900194278324022
:104A7C00012A00D120342C700135F0E7F0B5CD4B74
:104A8C008DB01B78069008930E24052B00D13CE1C9
:104A9C00142000245843C84F0422C31902301C8030
:104AAC00C019210007930DF0F7FB069B1B78622BB6
:104ABC0000D011E1069B9B782E2B00D00CE1069BBD
:104ACC005E78303EF6B2052E00D91EE10125079B1B
:104ADC0007221D809E70069BB8490333180009936A
:104AEC000DF03EFEA0421CD10523079AD37009227B
:104AFC007243B34B9B181B7A2B4205D00024AD4A52
:104B0C0013780133137000E123002200290005956E
:104B1C0004940394029401940094300003F01AFA64
:104B2C00EDE70E22A74909980DF01AFE002813D1C3
:104B3C000623079AD37009227243A14B9B181B7A48
:104B4C009B07DBD423002A0005950494039402945C
:104B5C00019400942100E0E70C229B4909980DF088
:104B6C00FFFD002852D1092211007143944B5B18B0
:104B7C009978002914D1079B0698DA700F300DF044
:104B8C00E4F88C4AC3B210781422504338180371DD
:104B9C000595049403940294019400942200D9E79F
:104BAC00DA78002A15D10A23079A0698D3700F30A9
:104BBC000DF0CBF87F4AC3B210781422504338184A
:104BCC0003710595049403940294019400932300BB
:104BDC00E4E71B790C24002B91D114250B22089BA4
:104BEC0006986B43FB18DA700F300DF0AEF8714B72
:104BFC0000241B78C0B25D4301237D1928710593F5
:104C0C0004940394029401900094E0E70D226F4900
:104C1C0009980DF0A5FD002800D06FE709231900B5
:104C2C007143674A51184879002813D1079A06989E
:104C3C000333D37010300DF088F85E4AC3B210788D
:104C4C00142250433818037105950494039402936D
:104C5C000194D9E78979002917D114250D22089BD5
:104C6C00554C6B430698E318DA7010300DF06DF864
:104C7C00504BC0B21B785D43641920710123002492
:104C8C000593049403900294E2E77343D318DD79FF
:104C9C000D24002D00D032E714270E22089B464C21
:104CAC007B430698E318DA7010300DF04EF8414B48
:104CBC00C0B21B782A005F430123E419207129003C
:104CCC000593049003950295019500952B003000F7
:104CDC0003F040F92C0012E7364B06995D1C2800B6
:104CEC000DF020FD3A4C280021000EF0B1FB210004
:104CFC00050000200EF0ACFB2100069000200EF009
:104D0C00A7FB0400002D03D1672420000DB0F0BDDB
:104D1C002800FEF74DFF069B061E0ED0002B0ED171
:104D2C00002CF1D114200222224B1B7858433A5408
:104D3C003818C67001331F4AE4E6002BE4D0002C6F
:104D4C00E2D02000FEF734FF1A4B14251B78002804
:104D5C001BD05D4304237B557D19EE70E871154B18
:104D6C0006981C78FEF730FF1421124B4C431B782D
:104D7C00114A59431419607052185278002AC3D042
:104D8C000C4A013313700024BFE703226B43FA541F
:104D9C00FB18DE7020000CF0D3FFFEF725FA054B54
:104DAC000B90187804226843063038180BA90DF0C4
:104DBC006AFAD4E738110020946D0020B0C30108C2
:104DCC00F8170020A9C30108D7BB0108E4BB0108F0
:104DDC00F4C90108030010B50800022B13D0032BF3
:104DEC0004D0012B0DD1FFF749FE10BD074B1A78EB
:104DFC001423013A5A43064B9B1801221A7405F0EE
:104E0C00C5FD0020F1E7FFF7DBFDEEE738110020D0
:104E1C00946D0020F0B58FB007900891029200219C
:104E2C0009220BA81C000DF037FAC64B333305933F
:104E3C000298FFF711FE059B1F78002F4ED103221D
:104E4C00C14902980DF08CFC061E62D1029BD81C45
:104E5C00FFF714FE00283AD0BC4920000DF062FC8C
:104E6C00059B1E7000252000FBF750F92378002BC2
:104E7C000BD0089B002B08D001235B4282B200931D
:104E8C0021003333079808F0A1F82000FBF73EF916
:104E9C000021020020000DF0FFF9002DC8D10922DD
:104EAC0029000BA80DF0F8F9A64B33331B78002B17
:104EBC000BD1089B002B08D001235B4200933822B6
:104ECC003333A349079808F081F80FB0F0BD0223E3
:104EDC00059A13700D2323700500C4E706229D4923
:104EEC0002980DF03DFC00280AD1059B9A491870D8
:104EFC000320FFF76FFF994920000DF013FCB1E779
:104F0C00022F06D10298FFF75BFD0028E2D08F49F3
:104F1C00F2E72E2102980DF0F7FB061E00D10CE1F2
:104F2C00033803228E490DF01BFC002800D104E14C
:104F3C000CF04EFF7378C018042347781F40049779
:104F4C0000D0FAE0029B0BA8F21A19000DF019FC24
:104F5C000BA8FFF7A5FA834B07001B780693984222
:104F6C0006D199222100701C920008F0D9F9B3E700
:104F7C007D496428C0D07D496628BDD0731C03933D
:104F8C00FF282BD104991A2279480DF085F9029843
:104F9C00FBF7BCF805000BA8FBF7B8F8013D2A1A83
:104FAC00039974480DF0EDFB0298FBF7AFF8050080
:104FBC000BA8FBF7ABF82B1A9BB2390017220698FB
:104FCC0004F044F8992221009200039808F0A8F903
:104FDC006949050020000DF089FB44E7C6B2FE2E9E
:104FEC003ED1584B071234331A220499FEB2604852
:104FFC0009931E700DF050F90298FBF787F8070023
:10500C000BA8FBF783F8013F3A1A039959480DF0A6
:10501C00B8FB0298FBF77AF807000BA8FBF776F8B9
:10502C003B1A9BB217223100069804F00FF84D4B37
:10503C00524A1B78013B5B009B5A099A1278134128
:10504C00DB0706D5992221009200039808F068F935
:10505C0005000BAB22004A4920000DF027FB02E7AC
:10506C000622484903980DF07BFB051E2BD1464BBD
:10507C00020018701921300004F006F8642008F0C2
:10508C00C2F8424B31001A78364B18782B00FEF7D9
:10509C0057FF3D4B1B78602B00D0E3E6FA21012033
:1050AC00890009F071FC3A4B1B78002B00D1D9E632
:1050BC00384A394913882000013313803B00220001
:1050CC000DF0F4FACEE60298FBF720F805000BA8D9
:1050DC00FBF71CF8013D2A1A039926480DF051FBE9
:1050EC000298FBF713F805000BA8FBF70FF8013D2E
:1050FC002A1A92B21721300003F0C6FF3A00274952
:10510C0020000DF0D3FA2378002B0DD02000FAF7F5
:10511C00FDFF089B002B07D0012382B200932100D6
:10512C003133079807F052FF2000FAF7EFFF002108
:10513C00020020000DF0B0F8ABE79922210092009C
:10514C00029812E738110020F2BB0108F6BB0108E7
:10515C0071BD010848BC010898B701084FBC010893
:10516C0090BC0108A00A002094BC0108BBBC01083B
:10517C00A30D0020410B0020E0BC0108A20A002076
:10518C00FDBC010829BD0108F66C0020280C00208C
:10519C00380C00208E1A002051BD010830BD0108CA
:1051AC0001210023F0B587B002AA49420120D37334
:1051BC00E12509F0E9FB08F01FF94D4B03909B68C2
:1051CC002D034C4EAB420BD001243378A34203D0B9
:1051DC002900200007F05AFF0134E4B2062CF4D168
:1051EC00454B464C1A8806235343454A31789B1845
:1051FC00444A353412782000009143490DF056FA98
:10520C00A4220A2392004149307807F005FF2000C0
:10521C00FAF77CFF210082B20A23307807F0FCFEFB
:10522C000024C02130783A4D421E5143394FAB5CBB
:10523C007918BF2B08D8CF5C002F35D002ADEF7397
:10524C000025CD5432498B540F2102AD0A23012283
:10525C00491907F0E1FE02ABDB7B0D2B2BD130782B
:10526C00033B02222C4907F0D7FE244F2B4D002C78
:10527C0005D1390028005D310F300DF053FA0F3590
:10528C00039B2A0030780121FFF7C4FD3800290068
:10529C005D300DF047FA3222002128000CF0FCFFA3
:1052AC00002408F0D5F9BCE7BF2B01D13B00AF546B
:1052BC0001339BB2BDE70A2BF3D0082B01D07F2B17
:1052CC0009D1002CEDD00021144A013CE3B20F327D
:1052DC005CB2D154E5E71A00203A5E2AE1D8312CB1
:1052EC00DFDC0E4A0F321355013464B2D9E7C046E5
:1052FC00786D0020280C0020300000203811002090
:10530C00958D0108A00A0020AABD0108D5BD010891
:10531C00F11200202E13002056D20108B8110020E3
:10532C00F8B5184B04001A781423013A5A43164B5B
:10533C000D009B18DB68181E09D0144E736C002BE3
:10534C0000D17464746C2078002801D17064F8BDAD
:10535C00132120000DF0D8F9071E08D0021B2100E4
:10536C00280001370DF00DFA77640120EFE72100DA
:10537C0028000DF0D7F92800FAF7C8FE2418746439
:10538C00F3E7C04638110020946D0020B8110020BE
:10539C00142337B558432D490B5C012B03D0032B39
:1053AC000DD000200AE0092309188A785343284AB3
:1053BC00985CCB78C01A43425841C0B23EBD0C2316
:1053CC000C18E2780630013A5343224A41189B5894
:1053DC0001A804221D680CF056FF607801380528DE
:1053EC00DFD8FAF7A5FE030C1221272C291C0198F3
:1053FC000124FBF787F8002814D1002412E0291CA3
:10540C0001980124FBF784F8F5E7291C0198FBF7B8
:10541C0093F80028C5D00021281C0124FBF772F852
:10542C000028EAD1E0B2C9E7291C01980124FBF756
:10543C0079F8E0E7291C0198FBF788F8E9E7291CC3
:10544C000198FBF75FF80028E5D0AAE7946D0020DF
:10545C00F817002098000020F8B507F0CDFF0024C5
:10546C000700184B1A78A3B29A4201D80020F8BD55
:10547C0014256543144BED182B7C002B01D1013402
:10548C00EFE7E0B2FFF784FF0028F8D020220F4BA3
:10549C000F4E1A7048363100E868FFF741FF0028BC
:1054AC00EDD00C4B3200187800213B00FFF7B2FC1A
:1054BC003800FAF72BFE0021020038000CF0ECFE4D
:1054CC00E9E7C04638110020946D0020F66C0020EE
:1054DC00B8110020280C002000207047F0B50025E2
:1054EC0085B00400170002950395A84201D172B64D
:1054FC00FEE702AA0121380007F082FF0023C35601
:10550C006826702B05D101300CF025FC2E00C3B29F
:10551C00019303AA0221380007F072FF0CF01BFC68
:10552C000500682E06D1094920000DF0FBF800207B
:10553C0005B0F0BD0100019807F0A8FD019B2A0001
:10554C00034920000DF0B2F8F1E7C04666C001082F
:10555C0079C0010810B5002801D172B6FEE7044BE2
:10556C0004491A6892B20DF0A1F8002010BDC04693
:10557C00CCF7FF1F9FC00108002313B50093002335
:10558C00040001931000002C01D172B6FEE76A46AC
:10559C00012107F035FF0378323B012B10D80CF0BA
:1055AC00DAFB01A9C0B202F06FFF0198FDF7CAFD4A
:1055BC0002000B00200005490DF078F8002016BD04
:1055CC00034920000DF0AEF8F8E7C046BDC0010855
:1055DC00E0C00108002313B5041E0093019301D110
:1055EC0072B6FEE701A9684602F094FE69462000F7
:1055FC000DF098F80198FDF7A5FD02000B002000B6
:10560C0002490DF053F8002016BDC046F5C0010844
:10561C00002313B5041E0093019301D172B6FEE76B
:10562C0001A9684602F076FE694620000DF07AF872
:10563C000098FDF787FD02000B00200002490DF0D9
:10564C0035F8002016BDC0461CC101080023F0B57A
:10565C0085B00193029300230400160003930028E5
:10566C0001D172B6FEE701AA0121300007F0C8FE95
:10567C000500022102AA300007F0C2FE2B780700B9
:10568C00323B1849012B29D828000CF064FB164E2C
:10569C00C5B231003800FAF72FFD002805D01349A8
:1056AC003800FAF729FD002817D13100280002F044
:1056BC00A9FF03AA3100280002F0D0FF03A92000A3
:1056CC000DF030F80398FAF795FF094982B22000E3
:1056DC000CF0ECFF002005B0F0BD064920000DF0E9
:1056EC0021F8F7E7E0C001083DC1010841C10108FC
:1056FC0048C1010858C101080023F0B587B00593D3
:10570C004E4B04AE1B78040033701000002C01D1FA
:10571C0072B6FEE7012105AA07F072FE48490500A2
:10572C00FAF7EAFC00285BD101256427454B1A786F
:10573C00454B9B18013B1B780293EBB20393414BF7
:10574C00EAB21B7893423ED00CF0CEFD04AE307022
:10575C000A23012231000097E8B207F037FCE8B2C7
:10576C0007F028FC036832789B8CDBB29A4230D16C
:10577C002A00364920000CF099FF2000FAF7C6FCED
:10578C00304B82B2210018780A23009707F01EFCD8
:10579C002F4920000CF0C6FF2000FAF7B7FC294E69
:1057AC0082B20A2330782100009707F00FFCC02149
:1057BC00029B5A1C3378013B4B432649CB189B5C0C
:1057CC00002B09D002920135062DB6D1002007B06E
:1057DC00F0BD2A002049CDE7012009F06BFBE6E77C
:1057EC000023EB561D49702B24D1681C0CF0B3FA26
:1057FC00C7B27B1E05001A49042B1BD80CF074FD94
:10580C00642330700122310000933800323B07F0E2
:10581C00DDFB380007F0CEFB036831789B8CEAB2D5
:10582C00DBB2994204D1094920000CF03FFFCDE7CF
:10583C000949F9E720000CF075FFC7E72C8E010829
:10584C009DB90108280C0020F11200206AC1010842
:10585C0097C101082E13002085C1010806C201085A
:10586C00EBC10108F0B5002685B0040017000296C4
:10587C000396B04201D172B6FEE702AA01213800AC
:10588C0007F0BEFD00236722C3560192702B04D192
:10589C0001300CF060FA0196C5B203AA022138005F
:1058AC0007F0AEFD0023C356702B04D00F49200027
:1058BC000CF038FF12E001300CF04DFA019B0600A1
:1058CC00C1B2002BF2D12800FFF74AF8002808D10A
:1058DC00F3B22A00064920000CF0E8FE002005B0C7
:1058EC00F0BD6728E2D00349E1E7C04606C20108D3
:1058FC0015C2010832C20108F0B5002685B00400BB
:10590C00170002960396B04201D172B6FEE702AAC6
:10591C000121380007F074FD00236722C356019261
:10592C00702B04D101300CF016FA0196C5B203AA03
:10593C000221380007F064FD0023C356702B04D0FD
:10594C000F4920000CF0EEFE12E001300CF003FACF
:10595C00019B0600C1B2002BF2D12800FEF7EEFF2E
:10596C00002808D1F3B22A00064920000CF09EFE54
:10597C00002005B0F0BD6728E2D00349E1E7C0463E
:10598C0006C201084BC201086EC20108F0B5002521
:10599C0085B00190019B10000395AB4201D172B60A
:1059AC00FEE703AA012107F02BFD0CF0CEF9C4B2DF
:1059BC00002C40D0214B1B78A3423CD31423C0B203
:1059CC00013858431E4F2900C61902303580042275
:1059DC00C0190CF061FC3574F0680CF011FAF5602C
:1059EC001425164B1B78A3420BD8144A013B137099
:1059FC0004F0CCFF134901980CF094FE002005B084
:105A0C00F0BD2B006343FB5C002B11D0631E6B437A
:105A1C00180014303A181100FB18944645C945C3B8
:105A2C001A0009C909C22A00002160460CF034FC96
:105A3C000134E4B2D5E70449DDE7C0463811002053
:105A4C00946D002085C20108BBC2010837B5002542
:105A5C00040001951000AC4201D172B6FEE701AA18
:105A6C00012107F0CDFC0CF070F9C3B2002B12D061
:105A7C000A4A12789A420ED31423C0B20138434317
:105A8C000748C018057404F081FF064920000CF08B
:105A9C0049FE00203EBD0449F8E7C04638110020FD
:105AAC00946D0020DEC20108BBC20108002313B5AF
:105ABC000400019310009C4201D172B6FEE701AACA
:105ACC00012107F09DFC0CF040F9C3B2002B13D060
