:020000040800F2
:100000000080002021E00008ADE00008D5D5000800
:1000100000000000000000000000000000000000E0
:1000200000000000000000000000000019FF0008B0
:100030000000000000000000D1FF0008C9D5000842
:10004000ADE00008ADE00008ADE00008ADE000085C
:10005000ADE00008ADE00008ADE00008ADE000084C
:10006000ADE000081DD6000829D6000869D60008B2
:10007000ADE00008ADE00008ADE00008ADE000082C
:10008000ADE00008ADE00008ADE00008ADE000081C
:10009000ADE00008ADE00008ADE00008ADE000080C
:1000A000ADE00008ADE00008ADE00008D9D50008DB
:0C00B000E9D50008F9D50008ADE0000813
:1000BC0010B5064C2378002B07D1054B002B02D032
:1000CC00044800E000BF0123237010BDC00A0020CB
:1000DC000000000080850108044B10B5002B03D0F4
:1000EC000349044800E000BF10BDC04600000000FA
:1000FC00C40A00208085010802780B78002A03D0FE
:10010C00013001319A42F7D0D01A70470023C25CFB
:10011C000133002AFBD1581E7047000002B471460F
:10012C0049084900095C49008E4402BC7047C0462E
:10013C0003B47146490840004900095E49008E44E9
:10014C0003BC7047002243088B4274D303098B42D3
:10015C005FD3030A8B4244D3030B8B4228D3030C8B
:10016C008B420DD3FF22090212BA030C8B4202D32D
:10017C001212090265D0030B8B4219D300E0090A55
:10018C00C30B8B4201D3CB03C01A5241830B8B425E
:10019C0001D38B03C01A5241430B8B4201D34B0347
:1001AC00C01A5241030B8B4201D30B03C01A5241AC
:1001BC00C30A8B4201D3CB02C01A5241830A8B4231
:1001CC0001D38B02C01A5241430A8B4201D34B021A
:1001DC00C01A5241030A8B4201D30B02C01A52417E
:1001EC00CDD2C3098B4201D3CB01C01A5241830932
:1001FC008B4201D38B01C01A524143098B4201D36C
:10020C004B01C01A524103098B4201D30B01C01A96
:10021C005241C3088B4201D3CB00C01A5241830810
:10022C008B4201D38B00C01A524143088B4201D33D
:10023C004B00C01A5241411A00D20146524110469D
:10024C007047FFE701B5002000F0F0F802BDC04692
:10025C000029F7D076E7704703460B437FD4002282
:10026C0043088B4274D303098B425FD3030A8B423E
:10027C0044D3030B8B4228D3030C8B420DD3FF22A8
:10028C00090212BA030C8B4202D31212090265D076
:10029C00030B8B4219D300E0090AC30B8B4201D329
:1002AC00CB03C01A5241830B8B4201D38B03C01A70
:1002BC005241430B8B4201D34B03C01A5241030BE7
:1002CC008B4201D30B03C01A5241C30A8B4201D398
:1002DC00CB02C01A5241830A8B4201D38B02C01A43
:1002EC005241430A8B4201D34B02C01A5241030ABA
:1002FC008B4201D30B02C01A5241CDD2C3098B429F
:10030C0001D3CB01C01A524183098B4201D38B011B
:10031C00C01A524143098B4201D34B01C01A5241BE
:10032C0003098B4201D30B01C01A5241C3088B4203
:10033C0001D3CB00C01A524183088B4201D38B00EE
:10034C00C01A524143088B4201D34B00C01A524190
:10035C00411A00D201465241104670475DE0CA0F67
:10036C0000D04942031000D34042534000229C4627
:10037C0003098B422DD3030A8B4212D3FC22890131
:10038C0012BA030A8B420CD3890192118B4208D307
:10039C00890192118B4204D389013AD0921100E069
:1003AC008909C3098B4201D3CB01C01A524183097D
:1003BC008B4201D38B01C01A524143098B4201D3AA
:1003CC004B01C01A524103098B4201D30B01C01AD5
:1003DC005241C3088B4201D3CB00C01A524183084F
:1003EC008B4201D38B00C01A5241D9D243088B42A5
:1003FC0001D34B00C01A5241411A00D20146634648
:10040C0052415B10104601D34042002B00D54942AB
:10041C00704763465B1000D3404201B5002000F0EA
:10042C0005F802BD0029F8D016E770477047C046A2
:10043C008446101C62468C46191C634600E0C0467C
:10044C001FB501F07FFF002801D40021C8421FBD59
:10045C0010B501F0D7FE4042013010BD10B501F0CF
:10046C0071FF002801DB002010BD012010BDC0462B
:10047C0010B501F067FF002801DD002010BD012040
:10048C0010BDC04610B501F0F9FE002801DC0020BB
:10049C0010BD012010BDC04610B501F0EFFE0028C4
:1004AC0001DA002010BD012010BDC0468446081C96
:1004BC006146FFE71FB500F097FC002801D400212E
:1004CC00C8421FBD10B500F019FC4042013010BDF0
:1004DC0010B500F089FC002801DB002010BD0120C4
:1004EC0010BDC04610B500F07FFC002801DD0020D7
:1004FC0010BD012010BDC04610B500F027FC00282F
:10050C0001DC002010BD012010BDC04610B500F06C
:10051C001DFC002801DA002010BD012010BDC046D2
:10052C00002B11D1002A0FD1002900D1002802D0B4
:10053C000021C943081C07B4024802A140180290CC
:10054C0003BDC046E9FEFFFF03B4684601B502983F
:10055C0000F066F8019B9E4602B00CBC7047C0468A
:10056C00F0B5CE46474615042D0C2E0080B5070479
:10057C00140C3F0C9946030C7E435D436743634365
:10058C007F19340CE4199C46A54203D980235B02E5
:10059C009846C4444B4643435143250C36046544AA
:1005AC00360C2404A4195B19591820000CBC904675
:1005BC009946F0BD9E2110B5C905041CFFF7A6FF96
:1005CC00002803D1201C00F055FF10BD9E21201CDB
:1005DC00C90500F08BFD00F04DFF80231B069C46E7
:1005EC006044F2E770B500220C4B04000D00FFF7DD
:1005FC0053FF002804D12000290002F0E1FC70BD5B
:10060C00064B00222000290002F076F902F0D8FCFB
:10061C0080231B069C466044F1E7C0460000E04185
:10062C00F0B54F464646D646C0B5040082B00D0024
:10063C00914698468B422FD82CD04146484602F022
:10064C0055FE29000600200002F050FE331A9C468D
:10065C00203B9A4600D576E04B46524693401F000D
:10066C004B46624693401E00AF4228D825D05346D5
:10067C00A41BBD41002B00DA7BE00022002300927A
:10068C000193012352469340019301236246934008
:10069C00009318E08242D0D90022002300920193EB
:1006AC000A9B002B01D01C605D600098019902B080
:1006BC001CBC90469946A246F0BDA342D7D9002255
:1006CC000023009201936346002BE9D0FB07984668
:1006DC00414672080A437B0866460EE0AB4201D1E4
:1006EC00A2420CD8A41A9D41012024196D4100216D
:1006FC00013E24184D41002E06D0AB42EED9013EEE
:10070C0024196D41002EF8D1009801995346001917
:10071C006941002B23DB2B005246D3402A00644650
:10072C00E2401C0053461500002B2DDB26005746DB
:10073C00BE40330026006746BE403200801A994105
:10074C0000900191ACE7624620239B1A4A46DA409E
:10075C006146130042468A4017001F4380E76246F9
:10076C0020239B1A2A0066469A402300F340134329
:10077C00D4E76246202300219B1A002200910192AB
:10078C000122DA40019280E72023624626009B1A60
:10079C00DE402F00B0466646B74046463B0033432A
:1007AC00C8E7C046F8B54746CE4643025B0A44004C
:1007BC00C20F9C464800DD004B02240E5B0A000E63
:1007CC0080B5984626009146C90FDB00271A8A424D
:1007DC0029D0002F15DD00284AD1002B00D095E040
:1007EC00ED08FF2C00D188E06B025B0AE6B25B02DD
:1007FC00F605580A3043D20710430CBC9046994674
:10080C00F8BD002F00D087E0601CC0B2012800DCCE
:10081C00B6E0EE1A720100D5C5E0002E3DD10022E3
:10082C0000260023E3E7002F00DC96E000285DD0D3
:10083C00FF2C60D08022D20413431B2F00DDECE090
:10084C002022D21B18009340F8405A1E93410343B8
:10085C00ED186B017BD50134FF2C00D1B7E00122E0
:10086C0007262A406B089A4D1D4015432E4029E05F
:10087C00FF2CB5D08022D20413431B2F00DDB2E035
:10088C002022D21B19009340F9405A1E93410B436E
:10089C00ED1A6B015BD5AD01AE09300002F008FD1D
:1008AC0005388640844265DC041B3300202001346B
:1008BC00E340041BA640751EAE41334307261D00C2
:1008CC0000241E4001224B461A40002E04D00F2358
:1008DC002B40042B00D004356B0100D480E701348D
:1008EC00E6B2FF2C2FD1FF26002380E7002B52D13C
:1008FC00FF2C00D074E70A00ED08002DF3D0802304
:10090C00DB032B435B025B0AFF2670E7013F002FE2
:10091C00BED0FF2CB1D163E7002C47D0FF2869D0A3
:10092C008024E4047A4225431B2A00DDC5E02C0018
:10093C002026D440B21A95406A1E954125435D1B72
:10094C0004008946A5E7AB015B0A50E700240122AD
:10095C004B461A406B07BAD142E7002F3BD101340A
:10096C00E0B201284ADDFF2CBDD00726ED186D083A
:10097C002E40A7E70723574D241A35401E40A1E708
:10098C00002C1BD1002D6ED1002B00D19AE00A0057
:10099C001D003C0024E7013F002F00D158E7FF2C3D
:1009AC0000D04AE7A7E75E1B894676E7002D1CD1ED
:1009BC000A00FF281FD004001D0011E7002D5DD197
:1009CC00002B17D180230022DB03FF260FE70A0040
:1009DC00FF2600230BE7002C21D1002D66D1FF2828
:1009EC00E9D11D0087E7012352E77A1CA7D0FA430F
:1009FC00FF2899D10A001D00FF24F1E6002E21D119
:100A0C00002D4FD0002B4CD0ED186B019ED5314BE7
:100A1C0007362E4001241D4054E7012318E7FF2818
:100A2C00DFD08024E4047F4225431B2F4DDC20269D
:100A3C00F61B2C00B540FC406A1E95412543ED1871
:100A4C00040006E7002DCCD0002B00D153E7802109
:100A5C006046C903084203D04046084200D11D003D
:100A6C000121114047E7002B00D1B9E6EA1A5001E9
:100A7C0025D507265D1B2E40894623E7FF24002B36
:100A8C0000D1ADE680226046D203104204D040462D
:100A9C00104201D11D00894601224B46FF241A4009
:100AAC009EE62B00DD080A0000249DE67A1CC6D0C9
:100ABC00FF43FF28B9D11D001DE701253FE7151E97
:100ACC0000D044E70022002391E60125B7E7C04699
:100ADC00FFFFFF7DFFFFFFFBF8B557464E4645462F
:100AEC00DE464402E0B546008846640A360EC70F5F
:100AFC00002E63D0FF2E24D08023E400DB041C43A3
:100B0C00002399469B467F3E434642465D02D20FE8
:100B1C005B006D0A1B0E9046924665D0FF2B55D09C
:100B2C0080220021ED00D2047F3B1543F61A434688
:100B3C004A467B400F2A00D98DE06D4892008258BE
:100B4C009746002C54D108239946063BFF269B461A
:100B5C00DAE70025534602291BD0032900D1BFE058
:100B6C00012928D030007F30002820DD6A0704D00E
:100B7C000F222A40042A00D004352A0103D5300064
:100B8C005C4A80301540FE2803DCAC01640AC2B21A
:100B9C0001E0FF2200246402D205600ADB07104347
:100BAC0018433CBC90469946A246AB46F8BD012280
:100BBC00101A1B287CDD00220024ECE7002C1DD130
:100BCC0004239946033B00269B469DE7FF3E002DE0
:100BDC0020D1022143464A467B400A430F2AD8D8EB
:100BEC004548920082589746002D19D10121F1E712
:100BFC000C239946093BFF269B4685E7200002F013
:100C0C0057FB7626431F9C4000237642361A9946A2
:100C1C009B4679E74A4603231A439146032186E70C
:100C2C00280002F045FB431F36189D407636002104
:100C3C007DE780240023E403FF22ACE7002580231A
:100C4C00DB031C4228D01D4226D12B435C02640AD4
:100C5C004346FF229FE762016C01A24224D21B2172
:100C6C000025013E012710006D005200002801DB19
:100C7C00944201D8121B3D4301390029F3D11400D1
:100C8C00621E944125436DE7BA46594625005346EA
:100C9C00022900D061E77CE78023DB031C4364025C
:100CAC00640A3B00FF2276E7121B1A210125D9E7C3
:100CBC009E362A00B5402C00C240651EAC41144340
:100CCC00620704D00F222240042A00D004346201AF
:100CDC0003D4A401640A00225DE7012200245AE730
:100CEC008024E4032C436402640AFF2253E7C046C9
:100CFC00CC850108FFFFFFF70C86010870B5420098
:100D0C004E024C0045026D0A120EC30F760A240ED9
:100D1C00C90FFF2A0FD0FF2C11D00120A24200D006
:100D2C0070BDB542FCD18B420DD0002AF8D1280001
:100D3C00451EA841F4E70120002DF1D1EBE701207D
:100D4C00002EEDD1E9E70020EAE7C04670B54A0075
:100D5C004E02450244006D0A240EC30F760A120E91
:100D6C00C90FFF2C15D0FF2A0ED0002C15D1002A4C
:100D7C0001D1002E1CD0002D14D08B4227D0022084
:100D8C00013B1840013870BD002EEED002204042CD
:100D9C00F9E7002DFAD1FF2A0ED0002A0ED1002E31
:100DAC00EDD00BE001230139994308000130EAE74B
:100DBC000020002DE7D0E2E7002EE7D18B42DED1F8
:100DCC00944205DD0221581E08400138DBE700245F
:100DDC00A24204DCB542D2D80020B542D3D2581E70
:100DEC00012398430130CEE730B5420044024D0256
:100DFC00C30F4800640A120E6D0A000EC90FFF2AB9
:100E0C0012D0FF280CD0002A12D1002819D1002DA5
:100E1C0017D1002C2BD00220013B1840013826E0C2
:100E2C00002DF0D0022022E0002CFBD1FF281FD097
:100E3C0000281FD1002D1DD10220013B1840013884
:100E4C0015E0002C0ED08B42E5D10022904204DC40
:100E5C00AC42E0D80020AC4209D2581E0123984382
:100E6C00013004E00123013999430800013030BD01
:100E7C00002DD7D18B42CED18242E7DD0221581E04
:100E8C0008400138F3E7C046F0B54E465746454694
:100E9C00DE46E0B543025B0A450083B00F1C994661
:100EAC002D0EC60F002D57D0FF2D24D08020DB0037
:100EBC00C0041843002381469A469B467F3D7C0222
:100ECC007A00FB0F640A120E984623D0FF2A4BD0EF
:100EDC00E30080240020E4047F3A1C43AD186B1C13
:100EEC0047460193534677403A000F2B48D87D492B
:100EFC009B00CB589F46002B00D085E008339A46C8
:100F0C00063B9B467C027A00FB0FFF25640A120EFF
:100F1C009846DBD1002C00D090E0524601231A43B6
:100F2C0092460120DBE74C4658461700022824D095
:100F3C00032800D1CFE00022002301284DD1580214
:100F4C00D205400AFF071043384303B03CBC90461F
:100F5C009946A246AB46F0BD002B5BD104239A46C2
:100F6C00033B00259B46AAE7FF35002C60D1524677
:100F7C0002231A4392460220B1E7FF220023DEE748
:100F8C004B461B0C9C464B462604360C18046146FB
:100F9C003300220C6446000C43434E4350435443ED
:100FAC0080191A0C1218964203D9802149028C46DA
:100FBC0064441B041B0C1004C01883015E1EB34157
:100FCC00800E1843130C1B199B0103431C002301B7
:100FDC0079D5012362081C401443019A7F32002A00
:100FEC004DDD630704D00F232340042B00D00434C1
:100FFC00230103D53C4B019A1C408032FE2ABCDCF9
:10100C00A3015B0AD2B29AE70C239A46093BFF254F
:10101C009B4654E7180002F04BF94A46431F7625CD
:10102C009A4000236D4291462D1A9A469B4646E7FC
:10103C00524603231A439246032050E7200002F045
:10104C0037F9431F2D1A9C40763D002047E780233B
:10105C000027DB03FF2272E7424666E74C4632006C
:10106C00584662E780234A46DB031A4222D01C42D0
:10107C0020D123435B025B0A4746FF225FE7012333
:10108C009A1A1B2A21DC23000199D3409E318C40F3
:10109C001A0023005C1EA34113435A0704D00F22ED
:1010AC001A40042A00D004335A0111D49B015B0A64
:1010BC00002244E780234A46DB0313435B025B0AAE
:1010CC003700FF223BE7019587E70022002336E734
:1010DC000122002333E78023DB0323435B025B0AFB
:1010EC00FF222CE74C860108FFFFFFF7F8B54746B7
:1010FC00CE464400C20F80B547024802400A8446DF
:10110C00664648007F0A240EF60025009046FB0038
:10111C00000EC90FB146FF2800D185E001267140B1
:10112C00261A914257D0002E43DD002800D07FE0D4
:10113C004946002900D1AAE0013E002E00D0F7E07C
:10114C005B1A5A0100D48BE09B019C09200002F031
:10115C00AFF805388440854200DDD3E0451B230001
:10116C0020200135EB40451BAC40621E94412343CB
:10117C00072400251C40012241460A40002C04D0C3
:10118C000F211940042900D00433590100D480E008
:10119C000135ECB2FF2D00D0A3E0FF2400235B024D
:1011AC00E405580AD207204310430CBC90469946DC
:1011BC00F8BD002E74D1601CC0B2012800DCA7E081
:1011CC004A469C1A620100D5B6E0002CBED1002222
:1011DC0000240023E3E7002E00DC85E0002846D045
:1011EC00FF2C49D080224846D2041043814601226C
:1011FC001B2E09DC20204C46801B84404A462000D4
:10120C00F240441EA04102439B185A0128D50135D7
:10121C00FF2D00D1A8E00122072494491A405B0855
:10122C000B4013431C40A6E7002E00D078E775E76F
:10123C00FF2C54D080224946D20411438946012206
:10124C001B2E09DC20214846891B88404A46010098
:10125C00F240481E81410A439B1A5A0100D573E79C
:10126C00012241460A40590700D089E711E048465F
:10127C00002858D1FF2C0CD1DB08002B00D18CE7B7
:10128C008020C00303435B025B0AFF2487E7FF2C2B
:10129C0025D0DB08FF2DF0D05B025B0AECB27EE7B9
:1012AC00002C4DD0FF2818D08024E4047242234334
:1012BC001B2A00DDC4E01C002025D440AA1A934050
:1012CC005A1E934123434A460500D31A884638E7F1
:1012DC00721CF8D0F243FF28EAD10A004B46FF25D6
:1012EC00D7E79B015B0A5AE7002E41D1651CE9B296
:1012FC00012945DDFF2D00D14FE707244B445B0846
:10130C001C4038E707225A4B2D1A2340144032E771
:10131C00002C1DD1002B7AD14B46002B00D191E033
:10132C000A000025B5E7013E002E19D14B446CE7AD
:10133C00FF2C84D1FF25ACE74A468846D41A05E732
:10134C00002BC5D10A00FF28C8D005004B46A0E7EA
:10135C00002B49D14B46002B77D00A00FF2598E78C
:10136C00FF2C00D043E787E70A00FF24002316E791
:10137C00002C15D1002B57D1FF28E6D14B467BE72B
:10138C00002C20D1002B57D04946002953D04B4478
:10139C005A0168D50724364A1C4001251340EAE659
:1013AC00FF28EBD08022D204764213431B2E53DC51
:1013BC002025AD1B1A00AB40F2405C1EA341134329
:1013CC004B44050021E7002BD8D04946002900D119
:1013DC0052E78021C9030F4200D14DE76046084215
:1013EC0000D049E74B4647E74846FF25002800D187
:1013FC004FE78022D203174204D06046104201D13D
:10140C004B46884601224146FF250A4041E74846A3
:10141C0000281FD01A1A500120D54A460724D31A87
:10142C001C4088460025A6E6741CC9D0F643FF284C
:10143C00BCD14B4620E799464B460025DB082BE7F1
:10144C00012340E700220023A9E680230022DB03CE
:10145C00FF24A4E600251CE70123B1E7002AF1D004
:10146C0013000025FCE60025FAE6C046FFFFFF7DD1
:10147C00FFFFFFFB41024200C30F490A120E00207E
:10148C007E2A0DD99D2A0CD8802000040143952A70
:10149C000ADC9620821AD1404842002B00D1080069
:1014AC007047034A9818FBE7963A9140F4E7C04618
:1014BC00FFFFFF7F70B500283DD0C317C5185D40F6
:1014CC00C40F280001F0F4FE9E22121A962A07DCA3
:1014DC00D2B2082833DD083885406802400A23E080
:1014EC00992A0BDD052329001B1AD94003001B3355
:1014FC009D402B005D1EAB4119430D00052801DDFD
:10150C00431F9D402B000F490B406E0709D00F263F
:10151C003540042D05D004335D0102D59F220B40CC
:10152C00121A9B01580AD2B24002D205400AE407B3
:10153C001043204370BD002400220020F4E7680211
:10154C00400AF1E7FFFFFFFB70B5041E34D001F039
:10155C00AFFE9E22121A962A07DCD2B208282EDD84
:10156C00083884406002400A21E0992A09DD030012
:10157C0021001B3399404B1E994105231B1ADC405B
:10158C000C43052801DD431F9C4023000D490B40F3
:10159C00650709D00F252C40042C05D004335C01C1
:1015AC0002D59F220B40121A9B01580AD2B240025C
:1015BC00D205400A104370BD00220020F7E76002FC
:1015CC00400AF4E7FFFFFFFBF0B54F464646D64610
:1015DC000C000903C0B5490A470F5E0039431F03CD
:1015EC00DB0F9C4665007B0A570F1F436D0DE40F04
:1015FC00760DA146C000B846D200AB1B64457BD02B
:10160C00002B5FDD002E00D0A4E03E00164300D17D
:10161C0012E15E1E002E00D09EE1871A4346B842AE
:10162C0080410125C91A4042091A0B0200D431E14C
:10163C0049024E0A002E00D16EE1300001F038FE56
:10164C000300083B1F2B00DD61E120223900D21A78
:10165C009E40D1409F400E439D4200DD51E15D1BF9
:10166C006B1C1F2B00DD7CE12021C91A3D003000D2
:10167C008F408840DD40791E8F413100072228437E
:10168C00D940002507433A40002A09D00F233B409C
:10169C00042B05D03B1DBB42BF417F42C9191F0023
:1016AC000B0200D426E26A1CC64B55056D0D9A42FE
:1016BC0000D106E1C44AFF080A40530752023B43DB
:1016CC00120B8EE0002B00D0B8E06B1C5B055B0DA1
:1016DC00012B00DC30E1871A4346B842B641CB1AE5
:1016EC0076429E1B330200D54CE13B003343A1D123
:1016FC0000220024002570E0002B00DCE5E0002E29
:10170C0000D183E0AF4EB54260D08026360437431B
:10171C00B846382B00DC3EE1434613431F007A1ECB
:10172C0097413F1887428041404209180B0200D470
:10173C00B0E0A44B01359D4200D1C3E0A24A7B0826
:10174C000A4001210F401F435108D30707221F43B2
:10175C003A4099E79B4EB54238D080263604374341
:10176C00B846382B00DDDCE01F2B00DC30E11E001E
:10177C004746203EF740BC46202B04D04026F31AA7
:10178C0046469E403243170063467A1E97411F43DC
:10179C00CCE0002B00D104E24346134300D159E1C5
:1017AC004B07C00818438023C9081B03194208D0F3
:1017BC004546ED081D4204D14346D008590708435D
:1017CC002900420FC9007F4D1143C0004B07CA08C6
:1017DC007C49C00803438D4268D012036D05120B7F
:1017EC006D0D002112031800130B0A0D12051A437C
:1017FC00764B2D0513402B435B00E4075B0823431A
:10180C0019001CBC90469946A246F0BD3E001643FA
:10181C0012D05E1E002E00D000E187188742804156
:10182C0041444042091801250B0233D5022585E7B6
:10183C0064463300414610001D00C7E7002D00D060
:10184C00DAE00C000443F3D05C1C00D19FE15D4C4A
:10185C00A64200D12FE1DB43382B00DD66E11F2BC4
:10186C0000DD83E120240500E41A0F00DD40D9409F
:10187C00A0404346A7405B1A441EA04198462F4304
:10188C003843171ABA42924143465242991A644657
:10189C003500CAE607223A40002A00D0F6E64B078C
:1018AC00CA084849FF083B438D4296D119001143A1
:1018BC0000D19EE1802109030A431203120B414D12
:1018CC008FE71500002200238BE7002B00D0C7E028
:1018DC006B1C5F057F0D012F00DCF1E0394DAB4235
:1018EC0000D1B9E085180A00854289414244494239
:1018FC0051180722CF076D082F4349083A401D00A5
:10190C00C2E607223049ED1A31403A40BCE63E00AF
:10191C002838864000279FE6380001F0C9FC2030AB
:10192C008EE6434613431F007A1E9741C71BB842ED
:10193C0080414042091A78E60E003B0006431343EF
:10194C00002D61D1002E00D0F4E0002B00D11BE162
:10195C0064463900100039E71A4FBB427AD0330085
:10196C00FFE630001F3DE840202B03D04021CB1A6E
:10197C009E4037437B1E9F41072207433A4000217C
:10198C00002589E7171A4346BA42B641591A7642DE
:10199C008E1B64464EE61F2B00DDADE0202647462D
:1019AC00F61AB740B9461700B246DF404E463E43E2
:1019BC0037005646B240561EB24117434246DA40F3
:1019CC008918AEE6FF070000FFFF7FFFFFFF0F80C7
:1019DC0020264746F61AB740B9461700B246DF40F4
:1019EC004E463E4337005646B240561EB241174350
:1019FC004246DA40891A99E77F4CA6425BD0802494
:101A0C0024045B42214327E7002E0CD1002B00D18C
:101A1C00CBE0644639001000774DD7E6764FBB42D9
:101A2C0018D0330075E6002B14D04B07C0081843B0
:101A3C008023C9081B03194207D0FC081C4204D19F
:101A4C007907D0080843E14621004C46420FC900F3
:101A5C001143C000684DB9E61D0000220023C0E60A
:101A6C00002D5BD10D00054300D1E2E65D1C00D1D9
:101A7C00B0E0614DAE421FD0DB43382B71DC1F2B25
:101A8C0000DD96E020250F00ED1AAF40B9460700A7
:101A9C00AA46DF404D463D432F005546A840D9404D
:101AAC00451EA84188440743BF18974292415142B2
:101ABC00414435003AE6644635004146100085E65F
:101ACC000B000343002D00D063E6002BF5D04346FA
:101ADC00134300D17AE6871887428041072241449C
:101AEC00404209183A400B0200D4D5E6434B01356D
:101AFC001940C9E5380069E61E004746203EF7400C
:101B0C00BC46202B04D04026F31A46469E40324356
:101B1C00170063467A1E97411F4302E6364DAE42CC
:101B2C00CAD080252D045B422943A6E70843411EF9
:101B3C008841A6E6002B00D148E6871A4346B842F6
:101B4C00B641CB1A76429E1B33024BD5171A43462D
:101B5C00BA429241591A5242891A072264463A40B3
:101B6C0092E501430F00791E8F419DE71C000F0089
:101B7C00203CE740202B03D04024E31A9940084333
:101B8C00411E884138437CE60022002425E6171AC2
:101B9C004346BA429241591A5242891A6446350058
:101BAC0043E541461000144D10E680220024120338
:101BBC0080E61D000F00203DEF40BC46202B03D0DB
:101BCC004025EB1A9940084307006346781E87416D
:101BDC001F4369E7871897429B4141445B42C918F0
:101BEC003500A3E53B003343CED0072231003A4009
:101BFC0052E600231A00F4E5FF070000FFFF7FFF09
:101C0C00F0B55746DE464E464546E0B583460700DE
:101C1C000E03480085B092461C00360B400DCD0FCC
:101C2C00002800D19DE0954B984239D08023F600D6
:101C3C001B041E43924A7B0F334399469446030080
:101C4C006344009300230026FF00029323031B0B25
:101C5C0098466300E40F52465B0D019400D1B3E04B
:101C6C0086498B4200D19EE04246D100802212046C
:101C7C000A435146490F11438B46814952468C46C3
:101C8C0000996344CB1A0021D20000932B006340CF
:101C9C009A460F2E00D905E17A4BB6009B599F4608
:101CAC005B463343994600D0B8E002230826002750
:101CBC0000900293CAE7CB463A0002990195019B2A
:101CCC009A46022927D0032900D180E2012944D069
:101CDC006D49009B8C4663441C00002C38DD530777
:101CEC0000D013E2D2085B46DB0109D55946674B9D
:101CFC0019408B468021C9008C46009B63441C0014
:101D0C00634B9C4207DC5B4664055F075B02174331
:101D1C001B0B620D02E000230027584A00211B0315
:101D2C001C0B0B0D1B05234314055A4A380013409A
:101D3C001C4353466400DB0764081C43210005B0B8
:101D4C003CBC90469946A246AB46F0BD012252429D
:101D5C0001231B1B382B00DCADE1002200230027E4
:101D6C00DCE75B46334399465ED0002E00D18AE116
:101D7C00300001F09DFA03000B3B1C2B00DD7BE1D6
:101D8C001D22D31A5A460100DA4008398E4013003E
:101D9C005F46334399468F403F4B00261B1A0093F6
:101DAC000023029352E7414653460B433B499B4663
:101DBC008C46009B634400935B46002B3BD1022373
:101DCC0000221E43022161E7434613439B4637D052
:101DDC004346002B00D162E1404601F069FA030052
:101DEC000B3B1C2B00DD53E102004146083A9140AD
:101DFC0088461D21CB1A5146D9400B0041460B4356
:101E0C009B46534693401A00009B25499C466044D0
:101E1C0003008C4663440093002137E70323B1464B
:101E2C0000900C26029311E7002300930133042643
:101E3C00002702930AE70323C3461E43032125E729
:101E4C0001331E430022012120E700239A46802300
:101E5C0000271B03094A61E7802349461B031942EB
:101E6C0000D1E2E05946194200D0DEE00B431B03DF
:101E7C0017001B0BA246014A50E7C046FF070000A3
:101E8C0001FCFFFF8C860108FF030000FFFFFFFE33
:101E9C00FE070000FFFF0F800DFCFFFF01F8FFFFA6
:101EAC00F3030000D94500D9CBE000D1C6E03C00DB
:101EBC0048460027009B013B00935B46160E1B0215
:101ECC001E431302984633041B0C9946310C0191A6
:101EDC00FEF7BEF94A4642430B04210C0500194398
:101EEC008A4207D98919013D8E4203D88A4201D909
:101EFC00851E8919881A0199FEF7AAF909048C46DE
:101F0C004A46210464464243090C030021438A4299
:101F1C0004D98919013B8E4200D8F1E02D041D43F0
:101F2C00AB464346891A4246280C12041D0C5B46EC
:101F3C00140C22001B041B0C5A4303946B434443A4
:101F4C00029568431B19150CEB189C4203D980248D
:101F5C006402A44660441C0C15041B042D0C2018B0
:101F6C005D19814277D373D00C1AA24A7D1BAF4204
:101F7C00BF419446009B7F426344E01B1C00864299
:101F8C0000D1DBE00199FEF763F94A4642430B04AA
:101F9C00290C070019438A4207D98919013F8E423F
:101FAC0003D88A4201D9871E8919881A0199FEF72C
:101FBC004FF909044A46894629044D464243090C07
:101FCC00030029438A4207D98919013B8E4203D861
:101FDC008A4201D9831E89193F04891A3A00039F4A
:101FEC001A43380013041B0C584381460298150CF5
:101FFC006F43434345434846000C8446DB19634416
:10200C009F4203D9802040028446654448461F0CF9
:10201C0000041B04000C7D191818A94200D284E09E
:10202C0000D17FE001231A4357E680234A461B0365
:10203C0013431B031B0BAA466F4A6FE6BA4200D927
:10204C0035E74B46DC0758087B081C43FF0734E791
:10205C000024AF4289D247444745A4415B466442C1
:10206C00A4196418013BA6421ED2A0426DD800D11F
:10207C00B6E0241A9B4678E703005A46283B9A4060
:10208C000027914688E6584601F012F9203072E696
:10209C0003005246283B9A4093460022B4E6504631
:1020AC0001F006F920309AE6A642E2D1B845DCD917
:1020BC00341A9B4659E71F2B65DC504C0099A446FB
:1020CC005C46614408008C4011008240D940501E8F
:1020DC0082410C4314435A46DA401300620709D07C
:1020EC000F222240042A05D02200141D944289415B
:1020FC0049425B181A0262D50122002300270DE623
:10210C008A4200D80AE7831E891907E70F23134078
:10211C00042B00D1E6E5171D9742924153429B4494
:10212C00FA08E0E5002800D1D7E57118531EB1423A
:10213C0027D3A94215D358D01A0073E7002B00DC23
:10214C0004E6012300229B44CDE502234744474586
:10215C0089415B429C46494289190C19E344241A73
:10216C0003E743465F0047459B41B8465B429E19D7
:10217C00023A8919A94200D054E7404500D051E7F2
:10218C00ABE51A00F6E71F215F4649420C1BE740FE
:10219C00202B07D01A49009B8C46634418005B46E1
:1021AC0083401A43501E82413A43072700231740AD
:1021BC0009D00F21002311401400042995D12200CD
:1021CC005F075B021B0BD20817430022A6E5802396
:1021DC0059461B030B431B0317001B0B064A9DE5BB
:1021EC00BD42B2D89B460024BFE68045B9D31A0045
:1021FC00C3E7C046FF030000FF0700001E040000F9
:10220C003E040000F0B54F464646D6468446C0B55F
:10221C008046194E18030F034D00000B5C008246DC
:10222C003F0B6D0DC90F9146640DDB0F0120B542BC
:10223C000AD0B44203D0A54201D157450CD01CBCE6
:10224C0090469946A246F0BD66463E43F7D1AC4255
:10225C00F5D154461443F2D10120C845EFD199422F
:10226C0007D0002DEBD163461F433800471EB84101
:10227C00E5E70020E3E7C046FF070000F0B54F4656
:10228C004646D6464D00C0B50E03C90F8A462C49AA
:10229C001F035C008046360B6D0D91463F0B640DA1
:1022AC00DB0F8D421ED08C4216D0002D1ED1304338
:1022BC008446002C01D13A4323D06246002A1AD01E
:1022CC009A4529D0514602200139084001381CBCDE
:1022DC0090469946A246F0BD39001143E5D0022044
:1022EC004042F4E73043FAD1AC420FD0002C0FD16E
:1022FC003A43E7D00CE00122013B93431800013034
:10230C00E5E763460020002BE1D0DBE73A43E6D15A
:10231C009A45D7D1A542D5DCA54205DBBE42D1D822
:10232C0008D00020BE42D2D2504601230138984337
:10233C000130CCE7C845C5D80020C845F4D3C6E762
:10234C00FF070000F0B54F464646D6464D00C0B5D7
:10235C000E03C90F8A462E491F035C008046360BBC
:10236C006D0D91463F0B640DDB0F8D4218D08C42E6
:10237C0011D0002D18D130438446002C1ED13A4385
:10238C001CD163460020002B30D05146022001396D
:10239C00084001382AE039001143EAD0022025E038
:1023AC003043FBD1AC4226D0002C26D13A4324D169
:1023BC005146022001390840013817E06246002AD4
:1023CC000FD09A45E1D1A54205DBBE42DDD819D02C
:1023DC000020BE420AD250460123013898430130F6
:1023EC0004E00122013B9343180001301CBC9046D1
:1023FC009946A246F0BD3A43D0D19A45C5D1A542E3
:10240C00C3DCE0E7C845C0D80020C845E3D3EDE7FE
:10241C00FF070000F0B55746DE464E464546E0B590
:10242C00834606000F03480087B092461D003F0B01
:10243C00400DCC0F002800D16FE0DE4B984238D015
:10244C008023FF001B041F43730F3B430193DA4BA4
:10245C000027994600239B46F60081442B03690014
:10246C001B0B52469846490DED0F002900D185E013
:10247C00D04B994200D173E04346DA0080231B0411
:10248C0013435246CC48520F844613435246002005
:10249C006144D20089442100694000918C4601219D
:1024AC0049448A460F2F00D990E0C449BF00CF5948
:1024BC00BF465B463B43019300D06AE102230827E9
:1024CC00002681469B46C9E732005846019B61466F
:1024DC000091022800D175E0032800D1FEE101280B
:1024EC0000D02CE100230027002600253F032A0DF5
:1024FC003F0BB34812053A4302401B051343009AA5
:10250C005B00D1075B080B433000190007B03CBCE3
:10251C0090469946A246AB46F0BD5B463B430193C1
:10252C0000D12FE1002F00D1A5E1380000F0C0FE52
:10253C0003000B3B1C2B00DD96E11D22D31A5A46DF
:10254C000100DA405E4608398F4013008E403B4351
:10255C0001939C4B00271B1A994600239B467DE751
:10256C00414653460B4393498C46E144002B00D023
:10257C001AE102220220174300228CE7134300D1F8
:10258C000DE14346002B00D181E1404600F090FE66
:10259C0002000B3A1C2A00DD72E1010043460839A7
:1025AC008B4098461D239A1A5346D3401A00434633
:1025BC00134352468A404946081A82498946814447
:1025CC00002068E77B4B002700268EE7140C1204D2
:1025DC00120C1100370C3604350C794328008C464C
:1025EC002E0060436044834656432100300C8046E5
:1025FC005846794340440291844506D98846802147
:10260C0049028C46E044414602913604010C360CDA
:10261C0000048B4681191E0C1B041B0C0391190022
:10262C0079438C46280075436544A8465843050CED
:10263C0045447743A94203D9802149028C4667441B
:10264C00290C8C4639000004000C2D042D18614413
:10265C00AB4405915946049101990F043F0C080CA9
:10266C00390051434243904602008C46090C8B467C
:10267C0062437C4344445C44A04503D98021490215
:10268C0088464244210C884661460904090C8C4654
:10269C0039005943434370437E430F0CF61824040E
:1026AC00BE19644442448C46B34203D980235B0276
:1026BC0098464044029B61469846049B3704434429
:1026CC009B46AB45AD416B420D0405992D0C8C46D8
:1026DC007F196744FD18A8465D462D19A542A441F3
:1026EC0093466442A446C344DC448F42BF419845A0
:1026FC009B4193459241A445A4415B427F421F43B9
:10270C00360C52426442BF192243BF186246381835
:10271C004302D20D039913436A020A43501E8241AD
:10272C006146ED0D2A434E023243D90100D4B3E089
:10273C000126500832400243DE0732435B08224C2C
:10274C005444002C62DD510709D00F20104004289E
:10275C0005D0101D9042924152429B180200D901A3
:10276C0004D580241948E40003405444184884429A
:10277C0000DD27E75E075B02D2081F0B63051643DB
:10278C005B0DB2E6002399460133042700269B46D5
:10279C0064E60323019781460C279B465EE60122E3
:1027AC0001201743002276E6032303201F434346F0
:1027BC0071E6C046FF07000001FCFFFFCC86010854
:1027CC00FFFF0F800DFCFFFFFF030000FFFFFFFE6C
:1027DC00FE0700000023802700933F030026434B95
:1027EC0083E6019B3200A446584670E6AC466EE682
:1027FC00802701993F0339422DD03B422BD11F43F7
:10280C003F033F0B00951600384B6EE601252D1B40
:10281C00382D00DD66E61F2D40DC35481C00504489
:10282C00160082408440EE40501E824134431443D3
:10283C00EB40620709D00F222240042A05D0220067
:10284C00141D9442804140421B181A023ED50123AC
:10285C000027002649E68027019B3F031F433F03C7
:10286C003F0B0094214B40E603005A46283B9A400C
:10287C00002601926DE6584600F01AFD203057E60E
:10288C0003005246283B9A401300002293E6504620
:10289C0000F00EFD20307BE6CA4650E71F201E00DC
:1028AC004042041BE640202D03D0124C5444A3405C
:1028BC001A43501E8241324307260027164009D086
:1028CC000F200023104014000428B9D122005E0709
:1028DC005B021F0BD2081643002306E680273F033A
:1028EC001F433F033F0B1600004BFEE5FF070000A4
:1028FC001E0400003E040000F8B557464E464546FF
:10290C00DE460C000903E0B5490A460F5F0031436F
:10291C001E03DB0F760A9B46530F3343C84E6500EC
:10292C00C000E40FD2006D0DA24681467F0D9C467F
:10293C009046B74200D1B9E05B46012673409B46F6
:10294C00EE1BA34500D183E0002E63DD002F00D0E9
:10295C00B1E06346134300D123E1731E002B00D07A
:10296C00BAE1861A6346B04280410125C91A404239
:10297C00091A0B0200D447E149024B0A9846434618
:10298C00002B00D189E1404600F092FC0300083B8B
:10299C001F2B00DD7CE120223000D21A4146D040B2
:1029AC00994002009E400A439D4200DD6AE15D1B96
:1029BC006B1C1F2B00DD94E1202110003500C91A7F
:1029CC008E40DA408840DD40711E8E411100072296
:1029DC002843002506433240002A09D00F233340F8
:1029EC00042B05D0331DB342B641764289191E0023
:1029FC000B0200D43DE26A1C914B55056D0D9A42B9
:102A0C0000D119E18F4AF6080A40570752023743A2
:102A1C00120B9BE0002E00D0C5E06E1C7605760DE7
:102A2C00012E00DC48E16746861ACB1BB042BF4141
:102A3C007F42B8461F004346FF1A3B00B8461B02B4
:102A4C0000D55FE137439AD100220024002579E0BC
:102A5C00002E00DCFAE0002F00D18DE0784B9D4277
:102A6C0067D0802367461B041F43BC46382E00DC0E
:102A7C0052E1634613435A1E93411E18864280410D
:102A8C00404209180B0200D4BEE06D4B01359D424B
:102A9C0000D1D2E06B4A73080A4001210E401E435C
:102AAC005108D30707221E43324095E71E001643F8
:102ABC0000D045E740E7624B9D423AD08023674601
:102ACC001B041F43BC46382E00DDEBE01F2E00DC40
:102ADC003AE133006746203BDF403B00202E05D017
:102AEC004027BF1B6646BE40324390464646721E88
:102AFC0096413343DAE0002B00D114E263461343D2
:102B0C0000D168E180234E07C008C9081B030643A7
:102B1C00194208D06046C008184204D1634601002F
:102B2C00D2085E071643F3009946C900720F444D54
:102B3C0011434B46DE08424B4F073743CA089D42B0
:102B4C0000D16EE012036D05120B6D0D0021120306
:102B5C00130B0A0D12051A433B4B2D0513402B4347
:102B6C005B00E4075B082343380019003CBC90462B
:102B7C009946A246AB46F8BD6346134311D0731E6B
:102B8C00002B00D007E18618864280416144404208
:102B9C00091801250B0237D502257BE73E0061465B
:102BAC0091463500C5E75C46002D00D0E1E00B00F6
:102BBC000343F3D0731C00D1ACE1214B9F4200D1F5
:102BCC003AE1F343382B00DD6FE11F2B00DD8CE184
:102BDC0020250E00ED1AAE40B0460600AA46DE4097
:102BEC00454635432E005546D940A8406346451E00
:102BFC00A8415B1A9C463043161AB2429241634676
:102C0C005242991A3D00B4E607223240002A00D005
:102C1C00E4E60B4BF6084F073743CA089D4200D039
:102C2C0090E73B00134300D1A6E180231B031A431A
:102C3C001203120B024D89E715000022002785E7CD
:102C4C00FF070000FFFF7FFFFFFF0F80002E00D06B
:102C5C00C7E06B1C5E05760D012E00DCF0E0C84D64
:102C6C00AB4200D1B9E085180A0085428941624423
:102C7C00494251180722CE076D082E4349083240AD
:102C8C001D00A9E6BF49ED1A114007223240A3E608
:102C9C00320028388240002686E6300000F008FB1F
:102CAC00203073E6634613435A1E9341C61AB04252
:102CBC0080414042091A5CE60E0067460643174302
:102CCC00002D5ED1002E00D0F3E0002F00D11EE1CC
:102CDC005C46614691462CE7A94FBE427BD01E0054
:102CEC00F1E610001F3DE840202B03D04021CB1A09
:102CFC009A401643731E9E41072206433240002120
:102D0C00002583E7161A6346B2428041591A4042A5
:102D1C000B1A98465C4632E61F2E00DDABE02027EE
:102D2C00BB1B9A4663465746BB40994613004F4619
:102D3C00F3401F433B005746BA40571EBA4113435A
:102D4C006246F240891898E62027BB1B9A466346D8
:102D5C005746BB40994613004F46F3401F433B0078
:102D6C005746BA40571EBA4113436246F240891A7D
:102D7C009CE7834B9F425FD080252D0473422943EF
:102D8C0020E7002E0CD1002F00D1D0E05C4661462C
:102D9C0091467B4DCDE67A4FBE421CD01E0065E6B7
:102DAC00002F18D0C0084E0706438020C908000326
:102DBC00014208D06346DC08044204D12100DA4603
:102DCC00D2085E071643F300994601245346C90006
:102DDC00720F11431C406A4DABE61D000022002708
:102DEC00B4E6002D59D10B00034300D1D6E6731C79
:102DFC0000D1B2E0624B9F421ED0F343382B6FDC04
:102E0C001F2B00DD97E020250E00ED1AAE40B046DA
:102E1C000600AA46DE40454635432E005546A840DE
:102E2C00D940451EA8418C440643B618964292419F
:102E3C00514261443D0025E63D006146914678E6ED
:102E4C000B000343002D00D055E6002BF5D0634654
:102E5C00134300D16DE6861886428041614440429E
:102E6C00091800220B0200D4D0E6464B013519405C
:102E7C00B2E5B1465DE633006746203BDF403B00E0
:102E8C00202E05D04027BF1B6646BE4032439046DD
:102E9C004646721E96413343EFE5394B9F42CBD0E9
:102EAC0080252D0473422943A8E70843411E88411D
:102EBC00A2E6002F00D13CE66346861ACF1AB04238
:102ECC009B415B42FB1A98461B024ED5161A634671
:102EDC00B2429241591A5242891A5C4600227BE551
:102EEC0001430E00711E8E419FE71D000E00203D18
:102EFC00EE40B046202B04D04025EB1A99400843F5
:102F0C00814648464346411E8841184374E60022D8
:102F1C00002417E6161A6346B2429241591A5242DD
:102F2C00891A3D0025E561469146154D01E6802242
:102F3C000024120379E61D000E00203DEE40B04641
:102F4C00202B04D04025EB1A9940084381464E466D
:102F5C004346711E8E411E4367E7861896429B417D
:102F6C0061445B42C9183D008CE547463743CED0DF
:102F7C0007224146324049E600273A00E6E5C046C2
:102F8C00FF070000FFFF7FFF70B50C4E0D031C0305
:102F9C0049005B002D0B490D240B5B0DB14208D091
:102FAC00064900208B4203D114432000441EA0414B
:102FBC0070BD05430120002DFAD1F1E7FF07000099
:102FCC0030B5144D0A034B00120B5B0DC90F0024D6
:102FDC00AB4211DD104CA34210DC8024640322436D
:102FEC000E4CE41A1F2C0CDD0D48C31ADA401300EA
:102FFC005C42002900D11C00200030BD094BCC18CC
:10300C00FAE7094DE040AC4663449A401300034391
:10301C00EEE7C046FE0300001D0400003304000070
:10302C0013040000FFFFFF7FEDFBFFFF70B50028CE
:10303C002DD0C317C5185D40C40F280000F038F917
:10304C00154B1B1A5B055B0D0A2815DD0B388540EB
:10305C0000222D032D0B002110002D030A0D2D0B2A
:10306C0012052A430D4D1B052A4013435B00E40750
:10307C005B082343190070BD0200290015329140F2
:10308C000A000B21081AC5402D032D0BE3E7002481
:10309C00002300250022DEE71E040000FFFF0F8046
:1030AC0010B5041E25D000F003F9144B1B1A5B0558
:1030BC005B0D0A2812DD0B38844000222403240BFC
:1030CC000021100024030A0D240B120522430C4C82
:1030DC001B05224013435B00590810BD0200210060
:1030EC00153291400A000B21081AC4402403240B0A
:1030FC00E6E7002300240022E2E7C0461E0400009D
:10310C00FFFF0F804100090E4B1C70B5DBB246026D
:10311C00750AC40F012B14DDE0239B006D07360BE1
:10312C00CB1800210A0D280012051C4D32435B05FB
:10313C002A405B0813435B00E4075B082343190038
:10314C0070BD002914D1002D1ED0280000F0B0F85D
:10315C000A281CDC0B232A001B1ADA400300153347
:10316C009D400F4B12031B1A5B05160B5B0DD8E72A
:10317C00002D06D0320B802636036D071643094B03
:10318C00CFE7084B0026CCE700230026C9E7030055
:10319C002A000B3B9A400025E3E7C046FFFF0F8057
:1031AC0089030000FF070000F0B54C00640D0B0311
:1031BC00621C5B0A460F5205C90F1E43C500520D17
:1031CC00012A29DD374BE718FE2F1CDC002F3BDDD5
:1031DC008001431E98410722F3006D0F03432B43DC
:1031EC001A40002A04D00F221A40042A00D00433BB
:1031FC008022D2041A4024D00137FAB2FF2F02D019
:10320C009B01580A01E0FF2200204002D205400A2F
:10321C00C90710430843F0BD3543002C04D1002DE1
:10322C000AD100220020F0E7002DECD08020C00352
:10323C003043FF22E9E7002400235B02580AE2B284
:10324C00E3E7DB083C00F8E73B001733F3DB8023B4
:10325C001B0433431E26F61B1F2E14DD0222524282
:10326C00D71B1A00FA401700202E04D00E4A9446A1
:10327C006444A3401D432B005D1EAB4107223B431E
:10328C001A400027ADE7094A2800A2189540934040
:10329C006C1EA541F04007222B4303431A40002724
:1032AC009FE7C04680FCFFFFA2FCFFFF82FCFFFFF4
:1032BC001C2101231B04984201D3000C10391B0A5A
:1032CC00984201D3000A08391B09984201D300091E
:1032DC00043902A2105C40187047C0460403020275
:1032EC0001010101000000000000000010B50029E0
:1032FC0003D1FFF7DDFF203002E0081CFFF7D8FFF9
:10330C0010BDC046F0B5C64600B50F4E3378002B45
:10331C0016D00023012498460C4F611E4900651CF1
:10332C007918A8B204F0C8FB192C01D90A239846C5
:10333C003378ECB2A342F0D2404604BC9046F0BDC8
:10334C0000239846F8E7C0461C0000207C6A002049
:10335C00F0B54E46DE4657464546E0B583B06B4663
:10336C009E1D002333809846174B1C249A46174BFE
:10337C009B4643469F00FD18631D9BB299466D000A
:10338C0055442000310004F097FB338801346B70F6
:10339C00A4B21B0A2B7002354C45F2D100234744D2
:1033AC007F0057447B7243460133DBB298465B4641
:1033BC001B784345DDD2002003B03CBC90469946B7
:1033CC00A246AB46F0BDC046140D00201C000020E8
:1033DC00F0B54646D6464F46C0B582B06B469E1DEC
:1033EC0000231F4C338023780025002B0ED00021A6
:1033FC001C4F28004900CB30791880B2013504F0FD
:10340C005BFBADB22378E9B28B42F2D8164B2C00A1
:10341C00CB359946ABB2984600239A469934A4B260
:10342C004D46671DBFB22000310004F045FB3388C8
:10343C0001346B70A4B21B0A2B700235BC42F2D162
:10344C004B4652465A720A239C46E144A045E7D1AA
:10345C00002002B01CBC90469946A246F0BDC04666
:10346C001C0000209C0C0020380C0020F0B5CE462F
:10347C0047460E26002380B585B003AC6E44210070
:10348C00E4202380338004F017FB0027002800D1B0
:10349C0027782100E52004F00FFB31000500E62021
:1034AC0004F00AFB00230543ADB29846002D04D16D
:1034BC00238832881B04984690442100E72004F0AE
:1034CC00FBFA31000500E82004F0F6FA284380B23C
:1034DC000025002803D1258833882D04ED18210000
:1034EC00E92004F0E9FA002839D02C4B9946210048
:1034FC00EA2004F0E1FA00282AD0294E2100EB2022
:10350C0004F0DAFA00281CD0264C4B461B78002B12
:10351C0003D0254A1278002A31D13378002B03D0FE
:10352C00224A1278002A31D12378002B03D0204A6A
:10353C001278002A1CD1002005B00CBC904699468C
:10354C00F0BD2388174C1A0A2270194A1370DCE755
:10355C002388134E1A0A3270144A1370CEE70F4A9E
:10356C002388914649461A0A0A700F4A1370BEE71F
:10357C00009241462A00380005F024FEDBE7009259
:10358C0041462A00380005F01DFEC6E70092414670
:10359C002A00380005F016FEC6E7C046BA0D00201A
:1035AC00BB0D0020BC0D0020350C0020360C00207B
:1035BC00370C00208A2070B582B001AC210040008D
:1035CC0004F07AFA00284FD116202388464D2100AA
:1035DC00AB71FF301B0AEB7104F06EFA002850D16E
:1035EC008B202388210040002B8004F065FA0028F2
:1035FC0051D1182023882100FF306B8004F05CFA35
:10360C00002852D123882B711B0A6B718C2021004E
:10361C00400004F051FA6B4606001A20991DFF3049
:10362C0004F04AFA0643B6B2002E51D16B46DB8841
:10363C0022881B041343AB608D202100400004F052
:10364C003BFA002837D11C20238821002B73FF3034
:10365C001B0A6B7304F030FA002836D0234BDB7E48
:10366C00EB76002002B070BD1620204B1E4D9A79CF
:10367C002100AA71DB79FF30EB7104F01DFA0028F0
:10368C00AED08B20194B21001B8840002B8004F0FE
:10369C0013FA0028ADD01820144B21005B88FF30A2
:1036AC006B8004F009FA0028ACD0104B1A792A71FF
:1036BC005B796B71AAE7C0231C205B01AB812100F5
:1036CC00FF3004F0F9F90028C8D12388EB76C8E75D
:1036DC00074B1B78002B03D0E1235B02AB60ABE7FD
:1036EC00024B9B68AB60A7E7DC6500200000002064
:1036FC00DE0A0020F0B5DE4657464E464546E0B59C
:10370C008BB002AB9C461E260023664433800F33DD
:10371C009A460E3B0125EC249B4604E0043401350B
:10372C00A4B2072D5ED03100200004F0C5F9EBB235
:10373C00071E9946F2D13288130A1909A942EDD114
:10374C0051460B40EAD02B48E90080464919884481
:10375C004146A8004B7083B21800E9300A7280B25F
:10376C003100079304F0A8F94146338807981A0AE8
:10377C00EA308A704B7180B2310004F09DF94146F9
:10378C00338807981A0AEB30CA708B7180B23100FB
:10379C0004F092F94146338848781A0A0A71CB71C1
:1037AC00494604F051FD43465846197A9B784A1015
:1037BC000240014040460597C079043404904046CD
:1037CC0080790135039040464079A4B2029040467E
:1037DC00007901904046C0780090484604F03AFECB
:1037EC00072DA0D100200BB03CBC90469946A246B8
:1037FC00AB46F0BD3C110020F8B5DE4645465746B9
:10380C004E463220E0B510F045F8051E65D03B4C15
:10381C00FF202278FE2A56D16B1C984664239946C9
:10382C00374B384E9B46B1442000A2461430291B1E
:10383C0022780A5501348442FAD1142241463000D0
:10384C0010F075FA00211422280010F079FA217872
:10385C008B1CDBB2012B42D957462800463700237C
:10386C0002E00130A74234D00134017021780133D9
:10387C008A1CD2B2DBB2012AF3D89A465A1EAA5C31
:10388C00002A02D00133DBB29A46504610F002F8FF
:10389C00F060002828D05246290010F048FA5B4608
:1038AC005A461B780021013313702800524610F041
:1038BC0047FA2378FE2B02D11436B145B4D1280037
:1038CC000FF0F2FF00203CBC90469946A246AB4656
:1038DC00F8BD322331229A46D1E7FB20F3E70122CF
:1038EC00002352429A46CAE714220021300010F0FD
:1038FC0027FA28000FF0D8FF0E20E4E700DC0108BF
:10390C008F0E0020F865002010B5FFF7FBFCFFF7C9
:10391C001FFDFFF75DFDFFF7A9FDFFF74BFEFFF75E
:10392C00E9FEFFF769FF10BDF0B5C64600B5104EB5
:10393C003378002B16D00023012498460D4F07E056
:10394C00192C01D90A2398463378ECB2A3420BD335
:10395C00631E5B00F95A651C0029F1D0A8B204F073
:10396C00DBF8EDE700239846404604BC9046F0BDDA
:10397C001C0000207C6A00200023F0B54646D64689
:10398C004F4698461C4BC0B599461C4B00269A4690
:10399C0005E0534601361B78F6B2B34225D34B46AD
:1039AC00B400A41964001B5D002BF2D045464746B9
:1039BC001C3521374C44ADB2BFB261781B02C9181B
:1039CC002800013589B2ADB204F0A6F80234BD422C
:1039DC0001D02378F1E7434605339BB29846534612
:1039EC0001361B78F6B2B342D9D200201CBC9046EB
:1039FC009946A246F0BDC046140D00201C000020C4
:103A0C00F8B5DE4657464E4645468B46E0B51E0099
:103A1C000AAB1B7881B29A460BAB1D780CAB1B78AA
:103A2C00E42098460DAB1C780EAB91461F7804F041
:103A3C0073F85B46190A89B2E52004F06DF85B4611
:103A4C00E62099B204F068F84B46190A89B2E720CF
:103A5C0004F062F84B46360299B25644E8202D0227
:103A6C0004F05AF84544B1B2E920240204F054F8A9
:103A7C00E419A9B2EA2004F04FF8A1B2EB2004F04B
:103A8C004BF800203CBC90469946A246AB46F8BD8C
:103A9C008A2010B5194C4000E379A1795B011943D8
:103AAC0004F03AF816202188FF3004F035F88B200A
:103ABC006188400004F030F818206379217B1B02E8
:103ACC001943FF3004F028F88C202189400004F0C1
:103ADC0023F81A206189FF3004F01EF88D20637BD7
:103AEC0021791B021943400004F016F81C20E17EDA
:103AFC00FF3004F011F8002010BDC046DC6500203A
:103B0C00F0B5C646124F00B504220021380010F063
:103B1C0017F9104E33789846002B15D0002301244A
:103B2C0098460225192C01D90A2398463378ECB211
:103B3C00A34209D3631E5B00F95A651C0029F1D01E
:103B4C00A8B203F0E9FFEDE7404604BC9046F0BD97
:103B5C007C6A00201C0000200E2370B512248EB04D
:103B6C0003AD6B446C4400932A0006AB05A90120FD
:103B7C0009F050FC04AA08AB07A90094022009F034
:103B8C0049FC012300260A932B8809A9059809935F
:103B9C000B960DF09DFF02230B93238809A908981F
:103BAC0009930A960DF094FF2988002205980EF0CF
:103BBC002FF9052009F0F0FF218808980EF022F962
:103BCC0003000020002B0FD12988012205980EF04C
:103BDC001FF9052009F0E0FF218808980EF012F972
:103BEC00013843425841C0B20EB070BD10B50AF056
:103BFC00CBF9E1231B0243608023DB0003618023AC
:103C0C0004005B0183600FF077FC202122681368AD
:103C1C000B43136010BDC046044B10B59968FCF7FC
:103C2C006BFA43425841C0B210BDC046E0000020C0
:103C3C00F8B5DE4657464E4645462349E0B50400E6
:103C4C00FCF75AFA214B06009846214B062599465B
:103C5C00204B214F9A46214B9B46002E28D03900F1
:103C6C002000FCF749FA002824D041462000FCF73C
:103C7C0043FA002820D049462000FCF73DFA0028E2
:103C8C001CD051462000FCF737FA002818D05946B2
:103C9C002000FCF731FA002814D0013DEDB2002DC4
:103CAC00DBD100203CBC90469946A246AB46F8BD01
:103CBC000120F7E70220F5E70320F3E70420F1E702
:103CCC000520EFE70620EDE77889010880890108D7
:103CDC0084890108888901087C8901088C8901087C
:103CEC0070B509F00DFE09F0B1FE03F0FBFF09F011
:103CFC004DFB08F00BFB09F0DBFE09F007FB09F0AC
:103D0C0009FF09F0E5FB00285AD1FFF725FF002831
:103D1C004BD00122344B322001241A7009F03CFFA5
:103D2C0007F02CFCE121314D200001344902E4B2B2
:103D3C00A9600AF017F9062C07D020000134A968F5
:103D4C00E4B20AF00FF9062CF7D1FFF7DDFD08F00D
:103D5C0079FF8021264B01221B78C9012548002BB5
:103D6C0029D00EF055F8FA20400009F015FF8021FB
:103D7C000022C9011F480EF04BF8642009F00CFF1B
:103D8C0080211C480122C9010EF042F8642009F080
:103D9C0003FF80210022C90116480EF039F803F008
:103DAC0017FE0122144B1A7070BD322009F0F4FE7C
:103DBC0007F0E4FBC9E70EF02BF8FA204000E6E729
:103DCC000E4C0F4D2368AB4204D003F03BFF002890
:103DDC0000D12560BFF34F8F0A4B0B4ADA60BFF35B
:103DEC004F8FC046FDE7C046DE0A0020DC65002090
:103DFC007000002000040048DD0A0020F07F002045
:103E0C00ADDEEFBE00ED00E00400FA0510B50CF0DD
:103E1C00F9F907F0CDF9FFF763FF04F0FBF80AF0AE
:103E2C0071F910BDF0B557464E46DE464546E0B535
:103E3C0083B06A46464B00AF1E78F31DDB08DB00EF
:103E4C00D31A9D466C46002E0BD00021751EEDB288
:103E5C000135404A6D441970013311800232AB4276
:103E6C00F9D10123013823543B4BC2009C4601235A
:103E7C00121A5200023298460133624400219C46C9
:103E8C00A346344D40007E601388002B0DD0465B5A
:103E9C00DB08B14646468E40B2464E465446264353
:103EAC0064465B44013B46531C70013102320529C8
:103EBC00EAD17E68274B5C4602259946B0464346BC
:103ECC00002B12D00135EDB26B1E9A460023002157
:103EDC009C462148635C534510D00131CBB20E3067
:103EEC009845F7D86346002BE9D10020BD4603B0B6
:103EFC003CBC90469946A246AB46F0BD4B009B4657
:103F0C0063467B605B460122AC468B463B605300AC
:103F1C00C35A002B14D0DB08013BE15C00290FD104
:103F2C000125511E8D4029004D463E68755B294385
:103F3C004D46715361467E68E1540136F3B27B60A5
:103F4C000132062AE3D17B68654659469C46C4E794
:103F5C001C000020E40A002020000020F0B5DE4602
:103F6C004E4645465746E0B591B003AC06000F00EF
:103F7C0001913222002120000FF0E2FE634B02225D
:103F8C000021180098460FF0DBFE00236048614DBD
:103F9C00721E8354AB54D3009B1A5F4A5B0091464C
:103FAC000233994483464A460120B9B21388002B48
:103FBC0003D0DB088B4200D199E001300232072894
:103FCC00F4D1564B18780123002800D18CE0FF2245
:103FDC00002194469E4204D067465A1EAF545A4460
:103FEC00117001338342F5DD002601220023E15CD0
:103FFC0001330A408342FADB002A00D083E02A789E
:10400C0023781100002B00D0FF210026002300E0B4
:10401C00EA5C914204D9E75C002F01D11100DEB2B9
:10402C0001338342F4DB0136019BF6B29E422CD065
:10403C000122731ED9009C46E254C91A364B490022
:10404C009A46374B8A1C52449A4667465144009014
:10405C001388002B14D0DB08DBB2013BE05C00289A
:10406C000ED1E85D844601208246D4446046C0B23D
:10407C008446E85C604503D96046E8545846C6540B
:10408C0002328A42E4D10098AFE7013B5A46D25C37
:10409C000023002A01D10BE00A004146581CCE54E3
:1040AC005B469B18013B19781600C3B20029F3D16B
:1040BC00019B01209C4649466544013D0B88002B21
:1040CC0006D02A78DB084244013A12789A4218D07A
:1040DC00013002310728F1D1002011B03CBC9046D0
:1040EC009946A246AB46F0BD5B420026CEE7019A4C
:1040FC00012394466544013D2B704346C0B21A70AF
:10410C00EBE7C0B2E9E7731EC0E7C046E0660020EB
:10411C00B80D0020B40D0020200000201C00002051
:10412C002E000020F0B557464E46DE4645469A46D0
:10413C00E0B53E4C85B08146207888461700FFF7E5
:10414C000DFF53460600002B27D1394B21784344F1
:10415C00013B1A78012A4ED0364B9B18013B1D7837
:10416C00894520D10AF0DEF88346334B4246196864
:10417C0058460FF0DFFF314B584619680FF0FAFF25
:10418C005846FBF7C3FF322382B25946380009F078
:10419C00A5FE64200CF054F805E02578454526D0A2
:1041AC004D452CD000253800FFF720FD3000FFF7DF
:1041BC001DFD2178A94212D000230393013B0293E9
:1041CC0001930333009332000B00380005F014FB0D
:1041DC0005B03CBC90469946A246AB46F0BD3000BB
:1041EC0009F0D2FE012109F0DBFE2178E4E74D4510
:1041FC0016D05646D7E789450DD00D00D3E70AF007
:10420C0091F8002583460E4B424619685846534692
:10421C000FF090FFAFE70AF085F84D468346A4E710
:10422C000AF080F856468346EDE7C0467000002041
:10423C00B40D0020E066002098000020A0000020B3
:10424C009C000020F0B54546DE4657464E46584C7D
:10425C00E0B5220001260700564B83B023CB23C2C6
:10426C001968764211609B882100938038003223B4
:10427C000096112209F000FE4F4B012598462A00AA
:10428C00414620000FF056FF2000FBF73FFF0135A1
:10429C0082B2009632232100380009F0EDFD062D84
:1042AC00EDD13223009603224449380009F0E4FD95
:1042BC00434B1B78002B62D001235B429846414B49
:1042CC0000259B466B1C1A003F4920009A460FF0B4
:1042DC0031FF2000FBF71AFF434682B20093210006
:1042EC003223EE00380009F0C7FD761B374B760001
:1042FC009B5B05225900C918354B49009C46200090
:10430C0061440FF082FF43460522009321003223C3
:10431C00380009F0B1FD4346012200932D493223A8
:10432C00380009F0A9FD294BB51C9C462A4B654465
:10433C009C460723994666442A88002A2FD1274990
:10434C0020000FF0F7FE2000FBF7E0FE434682B2A0
:10435C000093210032233800023509F08DFDB5425F
:10436C00EAD14346022200931D493223380009F05A
:10437C0083FD5346DDB2124B1B78AB42A2D801230E
:10438C005B420093012233331649380009F074FD67
:10439C0003B03CBC90469946A246AB46F0BD4B469A
:1043AC00594613402000D2080FF0C4FECBE7C0469C
:1043BC00480D00203C89010850890108C49D010862
:1043CC001C00002068890108588901082000002081
:1043DC00A48901084C8901082C000020648901087B
:1043EC00E4870108889F0108F0B5DE464E46574623
:1043FC004546E0B5314E324B3200834613CB13C2E7
:10440C0013CB13C21B6883B0136001235B42009370
:10441C001B2233333100584609F02EFD294B1B78F3
:10442C00002B33D001239946274B98464B4601224B
:10443C0080275D1E524200236D003F02924602E02F
:10444C0023000A2C1AD0390042461941525B5C1CDD
:10445C001142F5D023004A461C4930000FF06AFE89
:10446C003000FBF753FE534682B2009331003223E7
:10447C00584609F001FD23000A2CE4D14B460133C8
:10448C00DBB299460F4B1B784B45CFD23200104B09
:10449C0013CB13C213CB13C203CB03C201235B4256
:1044AC0000931F2233333100584609F0E5FC03B06A
:1044BC003CBC90469946A246AB46F0BD480D002048
:1044CC00EC8801081C0000207C6A00200889010887
:1044DC001C890108F0B5DE464E4645465746E0B508
:1044EC0085B0029009F01EFF00230500924C03706A
:1044FC00924B93491A78200099460FF01BFE21002D
:10450C0028000FF037FE8F4B8F491A7820000FF0E0
:10451C0011FE210028000FF02DFE05230022009330
:10452C008A49033B20000FF005FE210028000FF004
:10453C0021FE874A874920000FF0FCFD210028004E
:10454C000FF018FE844A854920000FF0F3FD21007E
:10455C0028000FF00FFE2200814B43CB43C2196899
:10456C00280011609988012691809B792100937114
:10457C000FF000FE7B4B98467B4B9A467B4B9B4641
:10458C003200414620000FF0D5FD210028000FF02D
:10459C00F1FD774B9B5D042B0BD852469B00D358F7
:1045AC009F462300734A83CA83C383CA83C312887A
:1045BC001A802100280001360FF0DCFD062EDFD119
:1045CC0022006D4BA84643CB43C243CB43C22100D0
:1045DC0028000FF0CFFD694B694F9B46694B0126B4
:1045EC009A4618E0786A06F049FF5A46B300043B35
:1045FC000500D05806F042FF320000902B005146C7
:10460C0020000FF097FD0136210040460FF0B2FD5F
:10461C003837072E0FD03B68002BE3D132005A49B4
:10462C0020000FF087FD0136210040460FF0A2FD5F
:10463C003837072EEFD14046FBF768FD454606009C
:10464C00524B0222190028189A460FF070FBB01C2E
:10465C001D2228184E490FF06AFB4E4B80279846B6
:10466C004D4B00229B461E3603963F024B4641465D
:10467C001B78561C013B5B00CB5A39001141194287
:10468C0048D13200052EF1D12800FBF73FFD6B46D7
:10469C009B8904002818A34246D0032251460FF0F0
:1046AC0046FB029B002B0BD02800FBF72FFD0123B0
:1046BC005B4282B2009329003333029809F0DCFB91
:1046CC0005B03CBC90469946A246AB46F0BD2200D4
:1046DC00324B83CB83C26CE72200314B83CB83C23A
:1046EC0003CB03C21B78137063E723005A4683CABB
:1046FC0083C383CA83C311681960918899809279A6
:10470C009A7156E7274B1A6822609A88A2809B7987
:10471C00A3714EE75946320020000FF00BFD21002B
:10472C0028000FF027FDACE705221F490FF0FFFA18
:10473C00201D2818B1E7C046480D0020700000204D
:10474C0030870108DF0A00204C87010868870108C0
:10475C008887010894870108AC870108B88701088D
:10476C00D4870108E88701080C87010838880108FC
:10477C00980D00201C88010858880108D4100020CE
:10478C00AC1500208C88010870880108E4870108AA
:10479C00BC8801087C6A0020DC88010810880108AC
:1047AC00F8870108F0870108E4880108F0B5C646CF
:1047BC00284900B50600FBF79FFC00282BD02649A2
:1047CC003000FBF799FC00282AD033789846232B2D
:1047DC002FD0224B1F78002F0FD00024204D290002
:1047EC003000FBF789FC002802D14346002B19D17D
:1047FC000134E4B20A35A742F1D10024194D290045
:10480C003000FBF779FC00280ED001340A350A2C55
:10481C00F5D1642001E0144B187804BC9046F0BD2F
:10482C00FF20FAE720B2F8E7FE202402204300B272
:10483C00F3E7701C0EF0BBFFC3B2002B03D0074A8A
:10484C0012789A4204D2084A662012789A42E4D12D
:10485C0018B2E2E770890108748901081C00002075
:10486C00140D0020380C002070000020F0B5C64656
:10487C002C4C060027000D0000B510372100280035
:10488C00FBF73AFC00283FD00434A742F6D1264B64
:10489C001A78012A14D9254F93003C009B185B0011
:1048AC000A34FF1802E00A34BC4209D02100280067
:1048BC00FBF722FC0028F6D1072004BC9046F0BD83
:1048CC001B4C2700643721002800FBF715FC00283F
:1048DC00F2D00A34A742F6D1164B174C98461C60FE
:1048EC0004E0434664681C60002C0FD023681F68EA
:1048FC003800FBF70BFC3900020028000FF074FCA9
:10490C000028EED10820D8E70620D6E7B00086199B
:10491C0006487600290080190FF048FCFFF72CF8A8
:10492C00CBE7C046208701081C000020140D002096
:10493C00380C0020A00D0020F4000020F0B54F46EC
:10494C004646D6463D4BC0B5984607000E009946E4
:10495C001C00002521003000FBF7CEFB00282AD0DC
:10496C0001350A340A2DF5D1354C250010352100BE
:10497C003000FBF7C1FB002852D00434A542F6D11D
:10498C00304B1A78012A1FD92F4D93002C009B18FD
:10499C005B000A34ED1802E00A34A54214D0210061
:1049AC003000FBF7A9FB0028F6D107201CBC904671
:1049BC009946A246F0BD0122AA402449013F7F003E
:1049CC007B5A13437B52F1E7214B224C9A461C60D5
:1049DC0004E0534664681C60002C0DD023681D68ED
:1049EC002800FBF793FB2900020030000FF0FCFBC2
:1049FC000028EED10820D9E74B461B78002B11D0AC
:104A0C000A239C460134E1440A2CF5D18023DB00B7
:104A1C000E4A013F7F00B95A00200B43BB52C5E739
:104A2C000620C3E7A00000194000404431000FF0FD
:104A3C00BDFB0123A3401BB2EAE7C046380C0020A3
:104A4C00208701081C000020140D00209C0C002065
:104A5C00A40D0020F4000020F0B54E46DE4657466B
:104A6C004546E0B5294B83B099461B78002B49D0BD
:104A7C0000230193264B01259846264B9A46264B3C
:104A8C009B4613E000221321280004F091FE3220F3
:104A9C0009F082F85B461B78002B01D002230193AE
:104AAC004B4601351B78EDB2AB4223D343461B7802
:104ABC00AB42E7D18027002601243F02200009F0F9
:104ACC0063FA436BBB420AD139004346524631412B
:104ADC001B78013B5B009A5A0A4351465A520134E7
:104AEC00E4B20136062CE9D14B4601351B78EDB208
:104AFC00AB42DBD2019803B03CBC90469946A2462F
:104B0C00AB46F0BD00230193F4E7C0461C00002027
:104B1C00700000207C6A0020B00D002010B501212F
:104B2C0082B01E200EF04AFE0400094909480A7D95
:104B3C008B7D013A92001258088B0190497D200020
:104B4C00009105490FF0F6FA200002B010BDC046E6
:104B5C00DC650020848C01089089010800B5084BA5
:104B6C000A001978012385B00393023B0293019349
:104B7C00033300930B0004F03FFE05B000BDC046AC
:104B8C0070000020002330B504000D0087B00493A2
:104B9C000393029301930093002200210020FEF75F
:104BAC002FFF601EC30012491B1ADB005B586A1EE4
:104BBC00002B12D0D3009B1ADB005B582000002B7B
:104BCC0004D102F055FE002007B030BD02F050FEBB
:104BDC00280002F04DFE0020F6E7D3009B1ADB0004
:104BEC005B58002B01D02800EBE76820ECE7C046AF
:104BFC00AC150020F0B5D64646464F46C0B5274EFC
:104C0C00274D33788046013B9C00E418A4002C19F6
:104C1C00E3689A46FBF77AFA53468146002B2ED06E
:104C2C005046FBF773FA4946023107000918504603
:104C3C000FF0B8F83278E060013A93009B189B00B3
:104C4C00EB18D8687A1C801841460FF0AFFA32780E
:104C5C00013A93009B1813229B00EB18DB68DA5582
:104C6C003378013B9800C01880002818C368002BCB
:104C7C000DD000201CBC90469946A246F0BD0130D8
:104C8C000EF008FE4146E0600FF090FAF1E71422B6
:104C9C0000210FF055F80E20ECE7C0468F0E0020D7
:104CAC00F865002070B504780500002C0DD00326A3
:104CBC000EF0E2FD001942783240012A00D1203476
:104CCC002C7001352C78002CF2D170BDF0B5574604
:104CDC004E46DE464546E0B5D84E8BB034780700DC
:104CEC00052C67D0A300D64D181980009A462B18B6
:104CFC00994600234A4602301380281804220021CA
:104D0C000FF01EF83B78622B02D1BB782E2B57D0BC
:104D1C00CC4B3900984618000FF048FACA4C404664
:104D2C00210010F0D9F821000700002010F0D4F871
:104D3C0021008046002010F0CFF80400002F2FD067
:104D4C003800FEF769FF4346071E36D0002B24D0EF
:104D5C00002C25D02000FEF75FFF00286BD004222A
:104D6C0033789C009946E3189B00EA54EB18DF70EB
:104D7C00D8714046FEF75CFF32784C449300A40097
:104D8C009B182C199B006070ED186B78002B07D0CA
:104D9C00002301323270984604E0002C00D17FE0F1
:104DAC006723984640460BB03CBC90469946A246B9
:104DBC00AB46F0BD0E239846F4E7002BC8D1EFE7C5
:104DCC007B78303BDBB29B46002398465B46052B39
:104DDC00E8D84946012358460B80FB1C88700722F3
:104DEC009A49180007930FF0FFF900283DD00E22C6
:104DFC00974907980FF0F8F900285ED106234A4628
:104E0C00D3705B46DA00934B5A449B181B7A9B0772
:104E1C000ED401230593434601220493039302937A
:104E2C000193009300210023584603F013FB3478C0
:104E3C0001343470B6E73278200093009B180322BB
:104E4C009B00EA54EB18DF700EF0A6FCFEF7ACF9F1
:104E5C00337809909C00E018800006302818042252
:104E6C0009A999460EF063FF83E705234946CB70E9
:104E7C005946784BCA005A449B1801221B7A1A4295
:104E8C00D6D1012305934346002204930393029346
:104E9C00019300930121584603F0DCFA3478C7E7FC
:104EAC000221327893009B189B00E954ED180023E3
:104EBC000132E8703270984674E70C226649079804
:104ECC000FF092F9002831D15B46DA00614B5A445D
:104EDC009B189A78002A63D0DA78002A7DD00C22AD
:104EEC001B799046002BA3D12300380053449B0020
:104EFC00EB18013ADA700F300EF053FC3278C0B276
:104F0C0093009B189B00ED18012328710593002337
:104F1C0000220021049303930293019000935846BE
:104F2C0003F098FA00233478984681E70D224B4918
:104F3C0007980FF059F9002800D079E75B46454AED
:104F4C00D900CB18D318587900285ED09B79002B48
:104F5C0000D185E059445218D37999460D239846CF
:104F6C004B46002B00D063E71433380098465C4363
:104F7C00063B2C19E37010300EF013FC42463378CC
:104F8C00C0B25343ED180123287105934B4603938C
:104F9C00029301930093002304901A001900BEE7BA
:104FAC0009234A463800D3700F300EF0FAFB3178E3
:104FBC00C3B28A0052189200AD1801222B710592CF
:104FCC004246049203920292019200920022002126
:104FDC00584603F03FFA34782AE70A234A46380049
:104FEC00D3700F300EF0DDFB3278C0B293009B18FB
:104FFC009B00ED1801232871059343460090049300
:10500C000393029301930023E0E70C234A463800F4
:10501C00D37010300EF0C5FB3278C0B293009B18E1
:10502C009B00ED18012328710593434602900493CD
:10503C000393019300930023C8E7C0468F0E002012
:10504C00F8650020F40D0020EC870108F89D01089C
:10505C00888E01083C110020988E0108A88E01084A
:10506C0023000D22380053449B00EB18DA701030EB
:10507C000EF097FB3278C0B293009B189B00ED1892
:10508C000123287105930023039004930293019349
:10509C0000930022002142E7F0B5DE464546574614
:1050AC004E46E0B58BB083468A4615000021092296
:1050BC0007A81C000EF044FECD4B9846CD4B9946EC
:1050CC002CE00622CC4928000FF08EF8002800D1E5
:1050DC00C1E0022E00D1B6E02E2128000FF058F8C6
:1050EC00061E06D00338032249460FF07DF800282F
:1050FC0042D1992221009200280009F09DF8070066
:10510C002378002B34D12000FBF700F8002102009B
:10511C0020000EF015FE002F00D181E02800FFF7D3
:10512C00C1FD43461E78002ECBD10322B349280083
:10513C000FF05AF8061ECFD1E81CFFF7C7FD002868
:10514C0000D0A8E00223424613700B332370534661
:10515C00002B5DD000272000FAF7D8FF01235B421B
:10516C0082B2009321003333584608F085FECAE71B
:10517C005346002BC7D0EEE70EF07EFB7378C018B9
:10518C0043785B07B5D4721B290007A80FF03DF8D4
:10519C0007A8FFF70BFB9A4B02901B7804939842DD
:1051AC0000D192E0029B642B00D113E1029B662B91
:1051BC0000D116E1731C0393029BFF2B00D1C5E0B9
:1051CC006B461B7A0593FE2B00D13DE106228D49DF
:1051DC0003980FF009F8002800D07EE0059F8A4E56
:1051EC0000221921B071380004F0E2FA642008F0B2
:1051FC008FFF864B39001A78814B18780023FEF705
:10520C0091FFB379602B00D1CEE02378002B9ED197
:10521C002000FAF77BFF0021020020000EF090FD29
:10522C000922002107A80EF08BFD43461B78002BAA
:10523C0002D15346002B3ED10BB03CBC9046994654
:10524C00A246AB46F0BD2800FFF7D4FC00282BD1BA
:10525C000D2323707BE7434618706D4B1A78013A87
:10526C0093009B186B4A9B00D31801221A7405F00B
:10527C00F7FF4122684920000EF059FD2378002BDE
:10528C0000D064E72000FAF741FF00210200200063
:10529C000EF056FDC4E75222604920000EF047FD87
:1052AC0043461E702378EAE752225C4920000EF038
:1052BC003EFD2378E3E701235B420093382233332E
:1052CC005749584608F0D8FDB6E79922701C920051
:1052DC00210008F0B1FF070012E72800FAF716FFCB
:1052EC00060007A8FAF712FF013E321A03990700CD
:1052FC004C480EF08AFF2800FAF708FF0138C21B51
:10530C0092B21721059804F053FA029A46492000EC
:10531C000EF010FF23782000002B0ED0FAF7F6FECB
:10532C0053460200002B0BD0012382B200932100C4
:10533C003133584608F0A0FD2000FAF7E7FE0200D2
:10534C00002120000EF0FCFC2F4E5AE70222002117
:10535C0036480EF0F5FC2800FAF7D8FE060007A830
:10536C00FAF7D4FE013E321A039E070031002D4895
:10537C000EF04BFF2800FAF7C9FEC31B9BB2172295
:10538C00FF21049804F0CEF99922210092003000FC
:10539C0008F052FF07002000FAF7B8FE1D22201873
:1053AC0023490EF0C4FCABE6FA21012089000AF077
:1053BC00B3FA204B1B78002B00D126E71E4A1F495D
:1053CC001388200001331380029B22000EF0B2FEE2
:1053DC00237854E727221A4920000EF0A8FC2378E2
:1053EC004DE72522174920000EF0A1FC237846E753
:1053FC00BC0E0020608D0108148D0108BC8C0108C6
:10540C0070000020008E0108DC650020DF0A0020FF
:10541C008F0E0020F86500201C8D0108C08C01083F
:10542C004C8E0108E40C0020088E0108180B00209B
:10543C00B48D0108B00D0020A61300202C8E01089D
:10544C00648D01088C8D0108029B1E4A1B12DBB275
:10545C001370002102221C4802930EF071FC2800EC
:10546C00FAF754FE060007A8FAF750FE013E321A6E
:10547C000399059015480EF0C8FE2800FAF746FE71
:10548C00059A0299831A9BB21722049804F04AF9E0
:10549C000F4B104A1B78013B5B009B5A094A127850
:1054AC001341DB0706D407AB22000B4920000EF09A
:1054BC0041FE25E6992221009200039808F0BCFEDB
:1054CC000700F0E78E0E0020180B0020E40C0020E3
:1054DC00700000209C0C0020D48D0108F0B5DE4635
:1054EC00574645464E460121E0B5494287B001205A
:1054FC000AF012FA002302AAD37308F013FFE12377
:10550C005E4A5F4D926807001B0329789A420CD0C3
:10551C0001248C4205D0E1212000090308F022FD72
:10552C0029780134E4B2062CF3D1564B564C1A8828
:10553C00200053009B18554A5B009B18544ABA46EE
:10554C001278009153490EF0F5FDA4220A23920023
:10555C005149287808F0C2FC2000FAF7D7FD0A233D
:10556C0082B22100287808F0B9FC4C4B4C4E98467E
:10557C004C4B02959B46002399460393029B18784B
:10558C004346421E9B5C9CB23F2C2AD89101771853
:10559C00FF5C002F1ED1029D0BE00134A4B20AF077
:1055AC00E1FC23002878421E91017718FF5C002F44
:1055BC000FD13F2CF1D14346494699540AF0D2FC05
:1055CC00012328783E3C421E91017718FF5C002F86
:1055DC00EFD0029502ADEF734D467118CD54434692
:1055EC009C5402ACA4460F210A230122614408F00A
:1055FC0075FC02ABDB7B0D2B12D00A2B0DD0082BCC
:10560C002BD01A00203A5E2A07D8039A312A04DCE0
:10561C005946571C8B547BB203930AF0A3FCADE79D
:10562C00029B0222187820490A2308F057FC039B9E
:10563C00002B1DD0029B5A46187801215346FFF7C8
:10564C002BFD594619480EF0B1FD32220021584667
:10565C000EF076FB00230393DFE7039B002BDCD0DB
:10566C00013BDBB25AB2039249465A46D154D4E7B5
:10567C000E4958460EF09AFDDCE7C046DC6500206A
:10568C00DF0A002072000020900E0020A48901087F
:10569C0070000020B88E0108E48E010880100020F4
:1056AC00400F0020C00D002094A701085C0E0020C4
:1056BC00F8B51A4B0C001A78013A93009B18184A4B
:1056CC009B00D318DB68002B18D0164E3568002DC4
:1056DC0016D02B78002B0ED0132128000EF058FD7D
:1056EC00071E10D0421B290020000EF08EFD012059
:1056FC0001373760F8BD33600020FBE70020F9E785
:10570C0030600500E5E7290020000EF04FFD200079
:10571C00FAF7FCFC2D1835600120EBE78F0E00200A
:10572C00F8650020B80E0020830030B518182E49FB
:10573C0080000B5C83B0012B20D0032B1BD10C18E9
:10574C00E2780630013A53009B18284A9B009B587C
:10575C004118042201A81D680EF0E9FA6378062BA3
:10576C0009D8234A9B00D3589F46291C0198FAF765
:10577C00C3FE002814D1002003B030BD0818827875
:10578C00C078D3009B181B4A9B5C181A43425841A3
:10579C00C0B2F1E7291C0198FAF794FE0028EAD16F
:1057AC000021281CFAF78EFE43425841E4E7291CDD
:1057BC000198FAF787FE431E9841DDE7291C0198F2
:1057CC00FAF786FE431E9841D6E7291C0198FAF792
:1057DC0089FE431E9841CFE7291C0198FAF796FEE3
:1057EC000028DDD1C7E7C046F8650020E0000020A6
:1057FC00A08C01083C110020F0B5D6464F46464619
:10580C00C0B508F08FFD204F06003B78002B35D03B
:10581C001E4B1F4D99461F4B0024984605E0013442
:10582C003B78A4B21435A34228D92B7C002BF6D09C
:10583C00E0B2FFF779FF0028F1D020234A4693719C
:10584C00154B9A460EE04346524618780021330019
:10585C00FFF722FC3000FAF759FC0021020030005F
:10586C000EF06EFA5146E868FFF722FF0028EAD1E5
:10587C0001343B78A4B21435A342D6D800201CBC0A
:10588C0090469946A246F0BD8F0E0020DC650020A4
:10589C00F8650020DF0A0020280E0020002370B5D8
:1058AC0082B00400150000930193002817D06A46BB
:1058BC000121280008F03AFD0023C356702B10D0AC
:1058CC0001AA0221280008F031FD0DF070FF13220F
:1058DC00104920000EF02BFA002002B070BD72B6F9
:1058EC00FEE701300DF063FF01AA0600022128003B
:1058FC0008F01CFD0DF05BFF0500F0B2290008F06C
:10590C0031FBFF232A003340034920000EF012FC28
:10591C00E2E7C046609B0108389B010810B50028DF
:10592C0001D172B6FEE7034B03491A880EF002FC54
:10593C00002010BDCCF7FF1F2C950108002310B5DB
:10594C0082B000930023040001931000002C0FD0B0
:10595C006A46012108F0EAFC0378323B012B09D995
:10596C0015220C4920000EF0E2F9002002B010BD07
:10597C0072B6FEE70DF01BFF01A9C0B202F0AAFF40
:10598C000198FDF7BFFB02000B00200002490EF04E
:10599C00D1FBEAE73892010814920108002310B5F4
:1059AC0082B0041E0093019301D172B6FEE701A9E7
:1059BC00684602F0C7FE694620000EF0F7FB01981E
:1059CC00FDF7A0FB02000B00200003490EF0B2FB18
:1059DC00002002B010BDC04684920108002310B50F
:1059EC0082B0041E0093019301D172B6FEE701A9A7
:1059FC00684602F0A7FE694620000EF0D7FB00981F
:105A0C00FDF780FB02000B00200003490EF092FB17
:105A1C00002002B010BDC046509201080023F0B522
:105A2C0085B0019302930023040016000393002811
:105A3C0017D001AA0121300008F078FC050002AA59
:105A4C000221300008F072FC2B780700323B012B4E
:105A5C0009D915221A4920000EF069F9002005B069
:105A6C00F0BD72B6FEE728000DF0A1FE154EC5B2D2
:105A7C0031003800FAF740FB002805D012493800F5
:105A8C00FAF73AFB002815D13100280003F012F880
:105A9C0003AA3100280003F05BF803A920000EF0E4
:105AAC0085FB0398FAF786FD084982B220000EF0B8
:105ABC0041FBD3E71222064920000EF038F9CDE75E
:105ACC0038920108C4910108C8910108D0910108CD
